{
	"contracts/PropertyManagement.sol": {
		"PropertyManagement": {
			"abi": [
				{
					"anonymous": false,
					"inputs": [
						{
							"indexed": true,
							"internalType": "uint256",
							"name": "id",
							"type": "uint256"
						},
						{
							"indexed": true,
							"internalType": "address",
							"name": "owner",
							"type": "address"
						},
						{
							"indexed": false,
							"internalType": "string",
							"name": "location",
							"type": "string"
						}
					],
					"name": "PropertyAdded",
					"type": "event"
				},
				{
					"anonymous": false,
					"inputs": [
						{
							"indexed": true,
							"internalType": "uint256",
							"name": "id",
							"type": "uint256"
						},
						{
							"indexed": true,
							"internalType": "address",
							"name": "owner",
							"type": "address"
						}
					],
					"name": "PropertyRemoved",
					"type": "event"
				},
				{
					"inputs": [
						{
							"internalType": "string",
							"name": "_name",
							"type": "string"
						},
						{
							"internalType": "string",
							"name": "_description",
							"type": "string"
						},
						{
							"internalType": "uint256",
							"name": "_pricePerNight",
							"type": "uint256"
						},
						{
							"internalType": "int256",
							"name": "_latitude",
							"type": "int256"
						},
						{
							"internalType": "int256",
							"name": "_longitude",
							"type": "int256"
						}
					],
					"name": "addProperty",
					"outputs": [],
					"stateMutability": "nonpayable",
					"type": "function"
				},
				{
					"inputs": [
						{
							"internalType": "uint256",
							"name": "propertyId",
							"type": "uint256"
						},
						{
							"internalType": "uint256",
							"name": "startDate",
							"type": "uint256"
						},
						{
							"internalType": "uint256",
							"name": "endDate",
							"type": "uint256"
						}
					],
					"name": "bookProperty",
					"outputs": [],
					"stateMutability": "nonpayable",
					"type": "function"
				},
				{
					"inputs": [
						{
							"internalType": "uint256",
							"name": "_propertyId",
							"type": "uint256"
						}
					],
					"name": "getProperty",
					"outputs": [
						{
							"components": [
								{
									"internalType": "uint256",
									"name": "id",
									"type": "uint256"
								},
								{
									"internalType": "address",
									"name": "owner",
									"type": "address"
								},
								{
									"internalType": "string",
									"name": "name",
									"type": "string"
								},
								{
									"internalType": "int256",
									"name": "latitude",
									"type": "int256"
								},
								{
									"internalType": "int256",
									"name": "longitude",
									"type": "int256"
								},
								{
									"internalType": "string",
									"name": "description",
									"type": "string"
								},
								{
									"internalType": "uint256",
									"name": "pricePerNight",
									"type": "uint256"
								},
								{
									"components": [
										{
											"internalType": "uint256",
											"name": "startDate",
											"type": "uint256"
										},
										{
											"internalType": "uint256",
											"name": "endDate",
											"type": "uint256"
										}
									],
									"internalType": "struct PropertyManagement.Period[]",
									"name": "bookedPeriods",
									"type": "tuple[]"
								}
							],
							"internalType": "struct PropertyManagement.Property",
							"name": "",
							"type": "tuple"
						}
					],
					"stateMutability": "view",
					"type": "function"
				},
				{
					"inputs": [],
					"name": "nextPropertyId",
					"outputs": [
						{
							"internalType": "uint256",
							"name": "",
							"type": "uint256"
						}
					],
					"stateMutability": "view",
					"type": "function"
				},
				{
					"inputs": [
						{
							"internalType": "uint256",
							"name": "",
							"type": "uint256"
						}
					],
					"name": "properties",
					"outputs": [
						{
							"internalType": "uint256",
							"name": "id",
							"type": "uint256"
						},
						{
							"internalType": "address",
							"name": "owner",
							"type": "address"
						},
						{
							"internalType": "string",
							"name": "name",
							"type": "string"
						},
						{
							"internalType": "int256",
							"name": "latitude",
							"type": "int256"
						},
						{
							"internalType": "int256",
							"name": "longitude",
							"type": "int256"
						},
						{
							"internalType": "string",
							"name": "description",
							"type": "string"
						},
						{
							"internalType": "uint256",
							"name": "pricePerNight",
							"type": "uint256"
						}
					],
					"stateMutability": "view",
					"type": "function"
				},
				{
					"inputs": [
						{
							"internalType": "uint256",
							"name": "_propertyId",
							"type": "uint256"
						}
					],
					"name": "removeProperty",
					"outputs": [],
					"stateMutability": "nonpayable",
					"type": "function"
				}
			],
			"devdoc": {
				"kind": "dev",
				"methods": {},
				"version": 1
			},
			"evm": {
				"assembly": "    /* \"contracts/PropertyManagement.sol\":70:2492  contract PropertyManagement {... */\n  mstore(0x40, 0x80)\n  callvalue\n  dup1\n  iszero\n  tag_1\n  jumpi\n  0x00\n  dup1\n  revert\ntag_1:\n  pop\n  dataSize(sub_0)\n  dup1\n  dataOffset(sub_0)\n  0x00\n  codecopy\n  0x00\n  return\nstop\n\nsub_0: assembly {\n        /* \"contracts/PropertyManagement.sol\":70:2492  contract PropertyManagement {... */\n      mstore(0x40, 0x80)\n      callvalue\n      dup1\n      iszero\n      tag_1\n      jumpi\n      0x00\n      dup1\n      revert\n    tag_1:\n      pop\n      jumpi(tag_2, lt(calldatasize, 0x04))\n      shr(0xe0, calldataload(0x00))\n      dup1\n      0x32665ffb\n      eq\n      tag_3\n      jumpi\n      dup1\n      0x39500f34\n      eq\n      tag_4\n      jumpi\n      dup1\n      0x6989a649\n      eq\n      tag_5\n      jumpi\n      dup1\n      0xabdb64d4\n      eq\n      tag_6\n      jumpi\n      dup1\n      0xbc43d06f\n      eq\n      tag_7\n      jumpi\n      dup1\n      0xf7b10808\n      eq\n      tag_8\n      jumpi\n    tag_2:\n      0x00\n      dup1\n      revert\n        /* \"contracts/PropertyManagement.sol\":2333:2490  function getProperty(uint256 _propertyId)... */\n    tag_3:\n      tag_9\n      0x04\n      dup1\n      calldatasize\n      sub\n      dup2\n      add\n      swap1\n      tag_10\n      swap2\n      swap1\n      tag_11\n      jump\t// in\n    tag_10:\n      tag_12\n      jump\t// in\n    tag_9:\n      mload(0x40)\n      tag_13\n      swap2\n      swap1\n      tag_14\n      jump\t// in\n    tag_13:\n      mload(0x40)\n      dup1\n      swap2\n      sub\n      swap1\n      return\n        /* \"contracts/PropertyManagement.sol\":656:685  uint256 public nextPropertyId */\n    tag_4:\n      tag_15\n      tag_16\n      jump\t// in\n    tag_15:\n      mload(0x40)\n      tag_17\n      swap2\n      swap1\n      tag_18\n      jump\t// in\n    tag_17:\n      mload(0x40)\n      dup1\n      swap2\n      sub\n      swap1\n      return\n        /* \"contracts/PropertyManagement.sol\":1739:1968  function bookProperty(uint256 propertyId, uint256 startDate, uint256 endDate) external {... */\n    tag_5:\n      tag_19\n      0x04\n      dup1\n      calldatasize\n      sub\n      dup2\n      add\n      swap1\n      tag_20\n      swap2\n      swap1\n      tag_21\n      jump\t// in\n    tag_20:\n      tag_22\n      jump\t// in\n    tag_19:\n      stop\n        /* \"contracts/PropertyManagement.sol\":1162:1733  function addProperty(... */\n    tag_6:\n      tag_23\n      0x04\n      dup1\n      calldatasize\n      sub\n      dup2\n      add\n      swap1\n      tag_24\n      swap2\n      swap1\n      tag_25\n      jump\t// in\n    tag_24:\n      tag_26\n      jump\t// in\n    tag_23:\n      stop\n        /* \"contracts/PropertyManagement.sol\":2065:2327  function removeProperty(uint256 _propertyId)... */\n    tag_7:\n      tag_27\n      0x04\n      dup1\n      calldatasize\n      sub\n      dup2\n      add\n      swap1\n      tag_28\n      swap2\n      swap1\n      tag_11\n      jump\t// in\n    tag_28:\n      tag_29\n      jump\t// in\n    tag_27:\n      stop\n        /* \"contracts/PropertyManagement.sol\":604:650  mapping(uint256 => Property) public properties */\n    tag_8:\n      tag_30\n      0x04\n      dup1\n      calldatasize\n      sub\n      dup2\n      add\n      swap1\n      tag_31\n      swap2\n      swap1\n      tag_11\n      jump\t// in\n    tag_31:\n      tag_32\n      jump\t// in\n    tag_30:\n      mload(0x40)\n      tag_33\n      swap8\n      swap7\n      swap6\n      swap5\n      swap4\n      swap3\n      swap2\n      swap1\n      tag_34\n      jump\t// in\n    tag_33:\n      mload(0x40)\n      dup1\n      swap2\n      sub\n      swap1\n      return\n        /* \"contracts/PropertyManagement.sol\":2333:2490  function getProperty(uint256 _propertyId)... */\n    tag_12:\n        /* \"contracts/PropertyManagement.sol\":2422:2437  Property memory */\n      tag_35\n      tag_36\n      jump\t// in\n    tag_35:\n        /* \"contracts/PropertyManagement.sol\":2460:2470  properties */\n      0x00\n        /* \"contracts/PropertyManagement.sol\":2460:2483  properties[_propertyId] */\n      dup1\n        /* \"contracts/PropertyManagement.sol\":2471:2482  _propertyId */\n      dup4\n        /* \"contracts/PropertyManagement.sol\":2460:2483  properties[_propertyId] */\n      dup2\n      mstore\n      0x20\n      add\n      swap1\n      dup2\n      mstore\n      0x20\n      add\n      0x00\n      keccak256\n        /* \"contracts/PropertyManagement.sol\":2453:2483  return properties[_propertyId] */\n      mload(0x40)\n      dup1\n      0x0100\n      add\n      0x40\n      mstore\n      swap1\n      dup2\n      0x00\n      dup3\n      add\n      sload\n      dup2\n      mstore\n      0x20\n      add\n      0x01\n      dup3\n      add\n      0x00\n      swap1\n      sload\n      swap1\n      0x0100\n      exp\n      swap1\n      div\n      0xffffffffffffffffffffffffffffffffffffffff\n      and\n      0xffffffffffffffffffffffffffffffffffffffff\n      and\n      0xffffffffffffffffffffffffffffffffffffffff\n      and\n      dup2\n      mstore\n      0x20\n      add\n      0x02\n      dup3\n      add\n      dup1\n      sload\n      tag_38\n      swap1\n      tag_39\n      jump\t// in\n    tag_38:\n      dup1\n      0x1f\n      add\n      0x20\n      dup1\n      swap2\n      div\n      mul\n      0x20\n      add\n      mload(0x40)\n      swap1\n      dup2\n      add\n      0x40\n      mstore\n      dup1\n      swap3\n      swap2\n      swap1\n      dup2\n      dup2\n      mstore\n      0x20\n      add\n      dup3\n      dup1\n      sload\n      tag_40\n      swap1\n      tag_39\n      jump\t// in\n    tag_40:\n      dup1\n      iszero\n      tag_41\n      jumpi\n      dup1\n      0x1f\n      lt\n      tag_42\n      jumpi\n      0x0100\n      dup1\n      dup4\n      sload\n      div\n      mul\n      dup4\n      mstore\n      swap2\n      0x20\n      add\n      swap2\n      jump(tag_41)\n    tag_42:\n      dup3\n      add\n      swap2\n      swap1\n      0x00\n      mstore\n      keccak256(0x00, 0x20)\n      swap1\n    tag_43:\n      dup2\n      sload\n      dup2\n      mstore\n      swap1\n      0x01\n      add\n      swap1\n      0x20\n      add\n      dup1\n      dup4\n      gt\n      tag_43\n      jumpi\n      dup3\n      swap1\n      sub\n      0x1f\n      and\n      dup3\n      add\n      swap2\n    tag_41:\n      pop\n      pop\n      pop\n      pop\n      pop\n      dup2\n      mstore\n      0x20\n      add\n      0x03\n      dup3\n      add\n      sload\n      dup2\n      mstore\n      0x20\n      add\n      0x04\n      dup3\n      add\n      sload\n      dup2\n      mstore\n      0x20\n      add\n      0x05\n      dup3\n      add\n      dup1\n      sload\n      tag_44\n      swap1\n      tag_39\n      jump\t// in\n    tag_44:\n      dup1\n      0x1f\n      add\n      0x20\n      dup1\n      swap2\n      div\n      mul\n      0x20\n      add\n      mload(0x40)\n      swap1\n      dup2\n      add\n      0x40\n      mstore\n      dup1\n      swap3\n      swap2\n      swap1\n      dup2\n      dup2\n      mstore\n      0x20\n      add\n      dup3\n      dup1\n      sload\n      tag_45\n      swap1\n      tag_39\n      jump\t// in\n    tag_45:\n      dup1\n      iszero\n      tag_46\n      jumpi\n      dup1\n      0x1f\n      lt\n      tag_47\n      jumpi\n      0x0100\n      dup1\n      dup4\n      sload\n      div\n      mul\n      dup4\n      mstore\n      swap2\n      0x20\n      add\n      swap2\n      jump(tag_46)\n    tag_47:\n      dup3\n      add\n      swap2\n      swap1\n      0x00\n      mstore\n      keccak256(0x00, 0x20)\n      swap1\n    tag_48:\n      dup2\n      sload\n      dup2\n      mstore\n      swap1\n      0x01\n      add\n      swap1\n      0x20\n      add\n      dup1\n      dup4\n      gt\n      tag_48\n      jumpi\n      dup3\n      swap1\n      sub\n      0x1f\n      and\n      dup3\n      add\n      swap2\n    tag_46:\n      pop\n      pop\n      pop\n      pop\n      pop\n      dup2\n      mstore\n      0x20\n      add\n      0x06\n      dup3\n      add\n      sload\n      dup2\n      mstore\n      0x20\n      add\n      0x07\n      dup3\n      add\n      dup1\n      sload\n      dup1\n      0x20\n      mul\n      0x20\n      add\n      mload(0x40)\n      swap1\n      dup2\n      add\n      0x40\n      mstore\n      dup1\n      swap3\n      swap2\n      swap1\n      dup2\n      dup2\n      mstore\n      0x20\n      add\n      0x00\n      swap1\n    tag_49:\n      dup3\n      dup3\n      lt\n      iszero\n      tag_50\n      jumpi\n      dup4\n      dup3\n      swap1\n      0x00\n      mstore\n      keccak256(0x00, 0x20)\n      swap1\n      0x02\n      mul\n      add\n      mload(0x40)\n      dup1\n      0x40\n      add\n      0x40\n      mstore\n      swap1\n      dup2\n      0x00\n      dup3\n      add\n      sload\n      dup2\n      mstore\n      0x20\n      add\n      0x01\n      dup3\n      add\n      sload\n      dup2\n      mstore\n      pop\n      pop\n      dup2\n      mstore\n      0x20\n      add\n      swap1\n      0x01\n      add\n      swap1\n      jump(tag_49)\n    tag_50:\n      pop\n      pop\n      pop\n      pop\n      dup2\n      mstore\n      pop\n      pop\n      swap1\n      pop\n        /* \"contracts/PropertyManagement.sol\":2333:2490  function getProperty(uint256 _propertyId)... */\n      swap2\n      swap1\n      pop\n      jump\t// out\n        /* \"contracts/PropertyManagement.sol\":656:685  uint256 public nextPropertyId */\n    tag_16:\n      sload(0x01)\n      dup2\n      jump\t// out\n        /* \"contracts/PropertyManagement.sol\":1739:1968  function bookProperty(uint256 propertyId, uint256 startDate, uint256 endDate) external {... */\n    tag_22:\n        /* \"contracts/PropertyManagement.sol\":1836:1846  properties */\n      0x00\n        /* \"contracts/PropertyManagement.sol\":1836:1858  properties[propertyId] */\n      dup1\n        /* \"contracts/PropertyManagement.sol\":1847:1857  propertyId */\n      dup5\n        /* \"contracts/PropertyManagement.sol\":1836:1858  properties[propertyId] */\n      dup2\n      mstore\n      0x20\n      add\n      swap1\n      dup2\n      mstore\n      0x20\n      add\n      0x00\n      keccak256\n        /* \"contracts/PropertyManagement.sol\":1836:1872  properties[propertyId].bookedPeriods */\n      0x07\n      add\n        /* \"contracts/PropertyManagement.sol\":1878:1960  Period({... */\n      mload(0x40)\n      dup1\n      0x40\n      add\n      0x40\n      mstore\n      dup1\n        /* \"contracts/PropertyManagement.sol\":1910:1919  startDate */\n      dup5\n        /* \"contracts/PropertyManagement.sol\":1878:1960  Period({... */\n      dup2\n      mstore\n      0x20\n      add\n        /* \"contracts/PropertyManagement.sol\":1942:1949  endDate */\n      dup4\n        /* \"contracts/PropertyManagement.sol\":1878:1960  Period({... */\n      dup2\n      mstore\n      pop\n        /* \"contracts/PropertyManagement.sol\":1836:1961  properties[propertyId].bookedPeriods.push(Period({... */\n      swap1\n      dup1\n      0x01\n      dup2\n      sload\n      add\n      dup1\n      dup3\n      sstore\n      dup1\n      swap2\n      pop\n      pop\n      0x01\n      swap1\n      sub\n      swap1\n      0x00\n      mstore\n      keccak256(0x00, 0x20)\n      swap1\n      0x02\n      mul\n      add\n      0x00\n      swap1\n      swap2\n      swap1\n      swap2\n      swap1\n      swap2\n      pop\n      0x00\n      dup3\n      add\n      mload\n      dup2\n      0x00\n      add\n      sstore\n      0x20\n      dup3\n      add\n      mload\n      dup2\n      0x01\n      add\n      sstore\n      pop\n      pop\n        /* \"contracts/PropertyManagement.sol\":1739:1968  function bookProperty(uint256 propertyId, uint256 startDate, uint256 endDate) external {... */\n      pop\n      pop\n      pop\n      jump\t// out\n        /* \"contracts/PropertyManagement.sol\":1162:1733  function addProperty(... */\n    tag_26:\n        /* \"contracts/PropertyManagement.sol\":1358:1376  Property storage p */\n      0x00\n        /* \"contracts/PropertyManagement.sol\":1379:1389  properties */\n      dup1\n        /* \"contracts/PropertyManagement.sol\":1379:1405  properties[nextPropertyId] */\n      0x00\n        /* \"contracts/PropertyManagement.sol\":1390:1404  nextPropertyId */\n      sload(0x01)\n        /* \"contracts/PropertyManagement.sol\":1379:1405  properties[nextPropertyId] */\n      dup2\n      mstore\n      0x20\n      add\n      swap1\n      dup2\n      mstore\n      0x20\n      add\n      0x00\n      keccak256\n        /* \"contracts/PropertyManagement.sol\":1358:1405  Property storage p = properties[nextPropertyId] */\n      swap1\n      pop\n        /* \"contracts/PropertyManagement.sol\":1422:1436  nextPropertyId */\n      sload(0x01)\n        /* \"contracts/PropertyManagement.sol\":1415:1416  p */\n      dup2\n        /* \"contracts/PropertyManagement.sol\":1415:1419  p.id */\n      0x00\n      add\n        /* \"contracts/PropertyManagement.sol\":1415:1436  p.id = nextPropertyId */\n      dup2\n      swap1\n      sstore\n      pop\n        /* \"contracts/PropertyManagement.sol\":1456:1466  msg.sender */\n      caller\n        /* \"contracts/PropertyManagement.sol\":1446:1447  p */\n      dup2\n        /* \"contracts/PropertyManagement.sol\":1446:1453  p.owner */\n      0x01\n      add\n      0x00\n        /* \"contracts/PropertyManagement.sol\":1446:1466  p.owner = msg.sender */\n      0x0100\n      exp\n      dup2\n      sload\n      dup2\n      0xffffffffffffffffffffffffffffffffffffffff\n      mul\n      not\n      and\n      swap1\n      dup4\n      0xffffffffffffffffffffffffffffffffffffffff\n      and\n      mul\n      or\n      swap1\n      sstore\n      pop\n        /* \"contracts/PropertyManagement.sol\":1485:1490  _name */\n      dup6\n        /* \"contracts/PropertyManagement.sol\":1476:1477  p */\n      dup2\n        /* \"contracts/PropertyManagement.sol\":1476:1482  p.name */\n      0x02\n      add\n        /* \"contracts/PropertyManagement.sol\":1476:1490  p.name = _name */\n      swap1\n      dup2\n      tag_55\n      swap2\n      swap1\n      tag_56\n      jump\t// in\n    tag_55:\n      pop\n        /* \"contracts/PropertyManagement.sol\":1513:1522  _latitude */\n      dup3\n        /* \"contracts/PropertyManagement.sol\":1500:1501  p */\n      dup2\n        /* \"contracts/PropertyManagement.sol\":1500:1510  p.latitude */\n      0x03\n      add\n        /* \"contracts/PropertyManagement.sol\":1500:1522  p.latitude = _latitude */\n      dup2\n      swap1\n      sstore\n      pop\n        /* \"contracts/PropertyManagement.sol\":1546:1556  _longitude */\n      dup2\n        /* \"contracts/PropertyManagement.sol\":1532:1533  p */\n      dup2\n        /* \"contracts/PropertyManagement.sol\":1532:1543  p.longitude */\n      0x04\n      add\n        /* \"contracts/PropertyManagement.sol\":1532:1556  p.longitude = _longitude */\n      dup2\n      swap1\n      sstore\n      pop\n        /* \"contracts/PropertyManagement.sol\":1582:1594  _description */\n      dup5\n        /* \"contracts/PropertyManagement.sol\":1566:1567  p */\n      dup2\n        /* \"contracts/PropertyManagement.sol\":1566:1579  p.description */\n      0x05\n      add\n        /* \"contracts/PropertyManagement.sol\":1566:1594  p.description = _description */\n      swap1\n      dup2\n      tag_57\n      swap2\n      swap1\n      tag_56\n      jump\t// in\n    tag_57:\n      pop\n        /* \"contracts/PropertyManagement.sol\":1622:1636  _pricePerNight */\n      dup4\n        /* \"contracts/PropertyManagement.sol\":1604:1605  p */\n      dup2\n        /* \"contracts/PropertyManagement.sol\":1604:1619  p.pricePerNight */\n      0x06\n      add\n        /* \"contracts/PropertyManagement.sol\":1604:1636  p.pricePerNight = _pricePerNight */\n      dup2\n      swap1\n      sstore\n      pop\n        /* \"contracts/PropertyManagement.sol\":1682:1692  msg.sender */\n      caller\n        /* \"contracts/PropertyManagement.sol\":1652:1700  PropertyAdded(nextPropertyId, msg.sender, _name) */\n      0xffffffffffffffffffffffffffffffffffffffff\n      and\n        /* \"contracts/PropertyManagement.sol\":1666:1680  nextPropertyId */\n      sload(0x01)\n        /* \"contracts/PropertyManagement.sol\":1652:1700  PropertyAdded(nextPropertyId, msg.sender, _name) */\n      0x92f2b8d9ae69a40be928a502c6bcc369ce8a0b2e902151bb63909295f4ce749e\n        /* \"contracts/PropertyManagement.sol\":1694:1699  _name */\n      dup9\n        /* \"contracts/PropertyManagement.sol\":1652:1700  PropertyAdded(nextPropertyId, msg.sender, _name) */\n      mload(0x40)\n      tag_58\n      swap2\n      swap1\n      tag_59\n      jump\t// in\n    tag_58:\n      mload(0x40)\n      dup1\n      swap2\n      sub\n      swap1\n      log3\n        /* \"contracts/PropertyManagement.sol\":1710:1724  nextPropertyId */\n      0x01\n      0x00\n        /* \"contracts/PropertyManagement.sol\":1710:1726  nextPropertyId++ */\n      dup2\n      sload\n      dup1\n      swap3\n      swap2\n      swap1\n      tag_60\n      swap1\n      tag_61\n      jump\t// in\n    tag_60:\n      swap2\n      swap1\n      pop\n      sstore\n      pop\n        /* \"contracts/PropertyManagement.sol\":1348:1733  {... */\n      pop\n        /* \"contracts/PropertyManagement.sol\":1162:1733  function addProperty(... */\n      pop\n      pop\n      pop\n      pop\n      pop\n      jump\t// out\n        /* \"contracts/PropertyManagement.sol\":2065:2327  function removeProperty(uint256 _propertyId)... */\n    tag_29:\n        /* \"contracts/PropertyManagement.sol\":2145:2156  _propertyId */\n      dup1\n        /* \"contracts/PropertyManagement.sol\":874:884  msg.sender */\n      caller\n        /* \"contracts/PropertyManagement.sol\":841:884  properties[_propertyId].owner == msg.sender */\n      0xffffffffffffffffffffffffffffffffffffffff\n      and\n        /* \"contracts/PropertyManagement.sol\":841:851  properties */\n      0x00\n        /* \"contracts/PropertyManagement.sol\":841:864  properties[_propertyId] */\n      dup1\n        /* \"contracts/PropertyManagement.sol\":852:863  _propertyId */\n      dup4\n        /* \"contracts/PropertyManagement.sol\":841:864  properties[_propertyId] */\n      dup2\n      mstore\n      0x20\n      add\n      swap1\n      dup2\n      mstore\n      0x20\n      add\n      0x00\n      keccak256\n        /* \"contracts/PropertyManagement.sol\":841:870  properties[_propertyId].owner */\n      0x01\n      add\n      0x00\n      swap1\n      sload\n      swap1\n      0x0100\n      exp\n      swap1\n      div\n      0xffffffffffffffffffffffffffffffffffffffff\n      and\n        /* \"contracts/PropertyManagement.sol\":841:884  properties[_propertyId].owner == msg.sender */\n      0xffffffffffffffffffffffffffffffffffffffff\n      and\n      eq\n        /* \"contracts/PropertyManagement.sol\":820:949  require(... */\n      tag_63\n      jumpi\n      mload(0x40)\n      0x08c379a000000000000000000000000000000000000000000000000000000000\n      dup2\n      mstore\n      0x04\n      add\n      tag_64\n      swap1\n      tag_65\n      jump\t// in\n    tag_64:\n      mload(0x40)\n      dup1\n      swap2\n      sub\n      swap1\n      revert\n    tag_63:\n        /* \"contracts/PropertyManagement.sol\":2182:2193  _propertyId */\n      dup2\n        /* \"contracts/PropertyManagement.sol\":1100:1114  nextPropertyId */\n      sload(0x01)\n        /* \"contracts/PropertyManagement.sol\":1086:1097  _propertyId */\n      dup2\n        /* \"contracts/PropertyManagement.sol\":1086:1114  _propertyId < nextPropertyId */\n      lt\n        /* \"contracts/PropertyManagement.sol\":1078:1138  require(_propertyId < nextPropertyId, \"Invalid property ID\") */\n      tag_67\n      jumpi\n      mload(0x40)\n      0x08c379a000000000000000000000000000000000000000000000000000000000\n      dup2\n      mstore\n      0x04\n      add\n      tag_68\n      swap1\n      tag_69\n      jump\t// in\n    tag_68:\n      mload(0x40)\n      dup1\n      swap2\n      sub\n      swap1\n      revert\n    tag_67:\n        /* \"contracts/PropertyManagement.sol\":2243:2253  msg.sender */\n      caller\n        /* \"contracts/PropertyManagement.sol\":2214:2254  PropertyRemoved(_propertyId, msg.sender) */\n      0xffffffffffffffffffffffffffffffffffffffff\n      and\n        /* \"contracts/PropertyManagement.sol\":2230:2241  _propertyId */\n      dup4\n        /* \"contracts/PropertyManagement.sol\":2214:2254  PropertyRemoved(_propertyId, msg.sender) */\n      0x3b11f341dfbadfb1b92ff5b9bf7c88094058c008e6b67c47ae29f690a30beb69\n      mload(0x40)\n      mload(0x40)\n      dup1\n      swap2\n      sub\n      swap1\n      log3\n        /* \"contracts/PropertyManagement.sol\":2271:2281  properties */\n      0x00\n        /* \"contracts/PropertyManagement.sol\":2271:2294  properties[_propertyId] */\n      dup1\n        /* \"contracts/PropertyManagement.sol\":2282:2293  _propertyId */\n      dup5\n        /* \"contracts/PropertyManagement.sol\":2271:2294  properties[_propertyId] */\n      dup2\n      mstore\n      0x20\n      add\n      swap1\n      dup2\n      mstore\n      0x20\n      add\n      0x00\n      keccak256\n      0x00\n        /* \"contracts/PropertyManagement.sol\":2264:2294  delete properties[_propertyId] */\n      dup1\n      dup3\n      add\n      0x00\n      swap1\n      sstore\n      0x01\n      dup3\n      add\n      exp(0x0100, 0x00)\n      dup2\n      sload\n      swap1\n      0xffffffffffffffffffffffffffffffffffffffff\n      mul\n      not\n      and\n      swap1\n      sstore\n      0x02\n      dup3\n      add\n      0x00\n      tag_71\n      swap2\n      swap1\n      tag_72\n      jump\t// in\n    tag_71:\n      0x03\n      dup3\n      add\n      0x00\n      swap1\n      sstore\n      0x04\n      dup3\n      add\n      0x00\n      swap1\n      sstore\n      0x05\n      dup3\n      add\n      0x00\n      tag_73\n      swap2\n      swap1\n      tag_72\n      jump\t// in\n    tag_73:\n      0x06\n      dup3\n      add\n      0x00\n      swap1\n      sstore\n      0x07\n      dup3\n      add\n      0x00\n      tag_74\n      swap2\n      swap1\n      tag_75\n      jump\t// in\n    tag_74:\n      pop\n      pop\n        /* \"contracts/PropertyManagement.sol\":2304:2318  nextPropertyId */\n      0x01\n      0x00\n        /* \"contracts/PropertyManagement.sol\":2304:2320  nextPropertyId-- */\n      dup2\n      sload\n      dup1\n      swap3\n      swap2\n      swap1\n      tag_76\n      swap1\n      tag_77\n      jump\t// in\n    tag_76:\n      swap2\n      swap1\n      pop\n      sstore\n      pop\n        /* \"contracts/PropertyManagement.sol\":959:960  _ */\n      pop\n        /* \"contracts/PropertyManagement.sol\":2065:2327  function removeProperty(uint256 _propertyId)... */\n      pop\n      pop\n      jump\t// out\n        /* \"contracts/PropertyManagement.sol\":604:650  mapping(uint256 => Property) public properties */\n    tag_32:\n      mstore(0x20, 0x00)\n      dup1\n      0x00\n      mstore\n      keccak256(0x00, 0x40)\n      0x00\n      swap2\n      pop\n      swap1\n      pop\n      dup1\n      0x00\n      add\n      sload\n      swap1\n      dup1\n      0x01\n      add\n      0x00\n      swap1\n      sload\n      swap1\n      0x0100\n      exp\n      swap1\n      div\n      0xffffffffffffffffffffffffffffffffffffffff\n      and\n      swap1\n      dup1\n      0x02\n      add\n      dup1\n      sload\n      tag_78\n      swap1\n      tag_39\n      jump\t// in\n    tag_78:\n      dup1\n      0x1f\n      add\n      0x20\n      dup1\n      swap2\n      div\n      mul\n      0x20\n      add\n      mload(0x40)\n      swap1\n      dup2\n      add\n      0x40\n      mstore\n      dup1\n      swap3\n      swap2\n      swap1\n      dup2\n      dup2\n      mstore\n      0x20\n      add\n      dup3\n      dup1\n      sload\n      tag_79\n      swap1\n      tag_39\n      jump\t// in\n    tag_79:\n      dup1\n      iszero\n      tag_80\n      jumpi\n      dup1\n      0x1f\n      lt\n      tag_81\n      jumpi\n      0x0100\n      dup1\n      dup4\n      sload\n      div\n      mul\n      dup4\n      mstore\n      swap2\n      0x20\n      add\n      swap2\n      jump(tag_80)\n    tag_81:\n      dup3\n      add\n      swap2\n      swap1\n      0x00\n      mstore\n      keccak256(0x00, 0x20)\n      swap1\n    tag_82:\n      dup2\n      sload\n      dup2\n      mstore\n      swap1\n      0x01\n      add\n      swap1\n      0x20\n      add\n      dup1\n      dup4\n      gt\n      tag_82\n      jumpi\n      dup3\n      swap1\n      sub\n      0x1f\n      and\n      dup3\n      add\n      swap2\n    tag_80:\n      pop\n      pop\n      pop\n      pop\n      pop\n      swap1\n      dup1\n      0x03\n      add\n      sload\n      swap1\n      dup1\n      0x04\n      add\n      sload\n      swap1\n      dup1\n      0x05\n      add\n      dup1\n      sload\n      tag_83\n      swap1\n      tag_39\n      jump\t// in\n    tag_83:\n      dup1\n      0x1f\n      add\n      0x20\n      dup1\n      swap2\n      div\n      mul\n      0x20\n      add\n      mload(0x40)\n      swap1\n      dup2\n      add\n      0x40\n      mstore\n      dup1\n      swap3\n      swap2\n      swap1\n      dup2\n      dup2\n      mstore\n      0x20\n      add\n      dup3\n      dup1\n      sload\n      tag_84\n      swap1\n      tag_39\n      jump\t// in\n    tag_84:\n      dup1\n      iszero\n      tag_85\n      jumpi\n      dup1\n      0x1f\n      lt\n      tag_86\n      jumpi\n      0x0100\n      dup1\n      dup4\n      sload\n      div\n      mul\n      dup4\n      mstore\n      swap2\n      0x20\n      add\n      swap2\n      jump(tag_85)\n    tag_86:\n      dup3\n      add\n      swap2\n      swap1\n      0x00\n      mstore\n      keccak256(0x00, 0x20)\n      swap1\n    tag_87:\n      dup2\n      sload\n      dup2\n      mstore\n      swap1\n      0x01\n      add\n      swap1\n      0x20\n      add\n      dup1\n      dup4\n      gt\n      tag_87\n      jumpi\n      dup3\n      swap1\n      sub\n      0x1f\n      and\n      dup3\n      add\n      swap2\n    tag_85:\n      pop\n      pop\n      pop\n      pop\n      pop\n      swap1\n      dup1\n      0x06\n      add\n      sload\n      swap1\n      pop\n      dup8\n      jump\t// out\n    tag_36:\n      mload(0x40)\n      dup1\n      0x0100\n      add\n      0x40\n      mstore\n      dup1\n      0x00\n      dup2\n      mstore\n      0x20\n      add\n      and(0xffffffffffffffffffffffffffffffffffffffff, 0x00)\n      dup2\n      mstore\n      0x20\n      add\n      0x60\n      dup2\n      mstore\n      0x20\n      add\n      0x00\n      dup2\n      mstore\n      0x20\n      add\n      0x00\n      dup2\n      mstore\n      0x20\n      add\n      0x60\n      dup2\n      mstore\n      0x20\n      add\n      0x00\n      dup2\n      mstore\n      0x20\n      add\n      0x60\n      dup2\n      mstore\n      pop\n      swap1\n      jump\t// out\n    tag_72:\n      pop\n      dup1\n      sload\n      tag_88\n      swap1\n      tag_39\n      jump\t// in\n    tag_88:\n      0x00\n      dup3\n      sstore\n      dup1\n      0x1f\n      lt\n      tag_90\n      jumpi\n      pop\n      jump(tag_89)\n    tag_90:\n      0x1f\n      add\n      0x20\n      swap1\n      div\n      swap1\n      0x00\n      mstore\n      keccak256(0x00, 0x20)\n      swap1\n      dup2\n      add\n      swap1\n      tag_91\n      swap2\n      swap1\n      tag_92\n      jump\t// in\n    tag_91:\n    tag_89:\n      pop\n      jump\t// out\n    tag_75:\n      pop\n      dup1\n      sload\n      0x00\n      dup3\n      sstore\n      0x02\n      mul\n      swap1\n      0x00\n      mstore\n      keccak256(0x00, 0x20)\n      swap1\n      dup2\n      add\n      swap1\n      tag_94\n      swap2\n      swap1\n      tag_95\n      jump\t// in\n    tag_94:\n      pop\n      jump\t// out\n    tag_92:\n    tag_96:\n      dup1\n      dup3\n      gt\n      iszero\n      tag_97\n      jumpi\n      0x00\n      dup2\n      0x00\n      swap1\n      sstore\n      pop\n      0x01\n      add\n      jump(tag_96)\n    tag_97:\n      pop\n      swap1\n      jump\t// out\n    tag_95:\n    tag_98:\n      dup1\n      dup3\n      gt\n      iszero\n      tag_99\n      jumpi\n      0x00\n      dup1\n      dup3\n      add\n      0x00\n      swap1\n      sstore\n      0x01\n      dup3\n      add\n      0x00\n      swap1\n      sstore\n      pop\n      0x02\n      add\n      jump(tag_98)\n    tag_99:\n      pop\n      swap1\n      jump\t// out\n        /* \"#utility.yul\":7:82   */\n    tag_100:\n        /* \"#utility.yul\":40:46   */\n      0x00\n        /* \"#utility.yul\":73:75   */\n      0x40\n        /* \"#utility.yul\":67:76   */\n      mload\n        /* \"#utility.yul\":57:76   */\n      swap1\n      pop\n        /* \"#utility.yul\":7:82   */\n      swap1\n      jump\t// out\n        /* \"#utility.yul\":88:205   */\n    tag_101:\n        /* \"#utility.yul\":197:198   */\n      0x00\n        /* \"#utility.yul\":194:195   */\n      dup1\n        /* \"#utility.yul\":187:199   */\n      revert\n        /* \"#utility.yul\":211:328   */\n    tag_102:\n        /* \"#utility.yul\":320:321   */\n      0x00\n        /* \"#utility.yul\":317:318   */\n      dup1\n        /* \"#utility.yul\":310:322   */\n      revert\n        /* \"#utility.yul\":334:411   */\n    tag_103:\n        /* \"#utility.yul\":371:378   */\n      0x00\n        /* \"#utility.yul\":400:405   */\n      dup2\n        /* \"#utility.yul\":389:405   */\n      swap1\n      pop\n        /* \"#utility.yul\":334:411   */\n      swap2\n      swap1\n      pop\n      jump\t// out\n        /* \"#utility.yul\":417:539   */\n    tag_104:\n        /* \"#utility.yul\":490:514   */\n      tag_168\n        /* \"#utility.yul\":508:513   */\n      dup2\n        /* \"#utility.yul\":490:514   */\n      tag_103\n      jump\t// in\n    tag_168:\n        /* \"#utility.yul\":483:488   */\n      dup2\n        /* \"#utility.yul\":480:515   */\n      eq\n        /* \"#utility.yul\":470:533   */\n      tag_169\n      jumpi\n        /* \"#utility.yul\":529:530   */\n      0x00\n        /* \"#utility.yul\":526:527   */\n      dup1\n        /* \"#utility.yul\":519:531   */\n      revert\n        /* \"#utility.yul\":470:533   */\n    tag_169:\n        /* \"#utility.yul\":417:539   */\n      pop\n      jump\t// out\n        /* \"#utility.yul\":545:684   */\n    tag_105:\n        /* \"#utility.yul\":591:596   */\n      0x00\n        /* \"#utility.yul\":629:635   */\n      dup2\n        /* \"#utility.yul\":616:636   */\n      calldataload\n        /* \"#utility.yul\":607:636   */\n      swap1\n      pop\n        /* \"#utility.yul\":645:678   */\n      tag_171\n        /* \"#utility.yul\":672:677   */\n      dup2\n        /* \"#utility.yul\":645:678   */\n      tag_104\n      jump\t// in\n    tag_171:\n        /* \"#utility.yul\":545:684   */\n      swap3\n      swap2\n      pop\n      pop\n      jump\t// out\n        /* \"#utility.yul\":690:1019   */\n    tag_11:\n        /* \"#utility.yul\":749:755   */\n      0x00\n        /* \"#utility.yul\":798:800   */\n      0x20\n        /* \"#utility.yul\":786:795   */\n      dup3\n        /* \"#utility.yul\":777:784   */\n      dup5\n        /* \"#utility.yul\":773:796   */\n      sub\n        /* \"#utility.yul\":769:801   */\n      slt\n        /* \"#utility.yul\":766:885   */\n      iszero\n      tag_173\n      jumpi\n        /* \"#utility.yul\":804:883   */\n      tag_174\n      tag_101\n      jump\t// in\n    tag_174:\n        /* \"#utility.yul\":766:885   */\n    tag_173:\n        /* \"#utility.yul\":924:925   */\n      0x00\n        /* \"#utility.yul\":949:1002   */\n      tag_175\n        /* \"#utility.yul\":994:1001   */\n      dup5\n        /* \"#utility.yul\":985:991   */\n      dup3\n        /* \"#utility.yul\":974:983   */\n      dup6\n        /* \"#utility.yul\":970:992   */\n      add\n        /* \"#utility.yul\":949:1002   */\n      tag_105\n      jump\t// in\n    tag_175:\n        /* \"#utility.yul\":939:1002   */\n      swap2\n      pop\n        /* \"#utility.yul\":895:1012   */\n      pop\n        /* \"#utility.yul\":690:1019   */\n      swap3\n      swap2\n      pop\n      pop\n      jump\t// out\n        /* \"#utility.yul\":1025:1133   */\n    tag_106:\n        /* \"#utility.yul\":1102:1126   */\n      tag_177\n        /* \"#utility.yul\":1120:1125   */\n      dup2\n        /* \"#utility.yul\":1102:1126   */\n      tag_103\n      jump\t// in\n    tag_177:\n        /* \"#utility.yul\":1097:1100   */\n      dup3\n        /* \"#utility.yul\":1090:1127   */\n      mstore\n        /* \"#utility.yul\":1025:1133   */\n      pop\n      pop\n      jump\t// out\n        /* \"#utility.yul\":1139:1265   */\n    tag_107:\n        /* \"#utility.yul\":1176:1183   */\n      0x00\n        /* \"#utility.yul\":1216:1258   */\n      0xffffffffffffffffffffffffffffffffffffffff\n        /* \"#utility.yul\":1209:1214   */\n      dup3\n        /* \"#utility.yul\":1205:1259   */\n      and\n        /* \"#utility.yul\":1194:1259   */\n      swap1\n      pop\n        /* \"#utility.yul\":1139:1265   */\n      swap2\n      swap1\n      pop\n      jump\t// out\n        /* \"#utility.yul\":1271:1367   */\n    tag_108:\n        /* \"#utility.yul\":1308:1315   */\n      0x00\n        /* \"#utility.yul\":1337:1361   */\n      tag_180\n        /* \"#utility.yul\":1355:1360   */\n      dup3\n        /* \"#utility.yul\":1337:1361   */\n      tag_107\n      jump\t// in\n    tag_180:\n        /* \"#utility.yul\":1326:1361   */\n      swap1\n      pop\n        /* \"#utility.yul\":1271:1367   */\n      swap2\n      swap1\n      pop\n      jump\t// out\n        /* \"#utility.yul\":1373:1481   */\n    tag_109:\n        /* \"#utility.yul\":1450:1474   */\n      tag_182\n        /* \"#utility.yul\":1468:1473   */\n      dup2\n        /* \"#utility.yul\":1450:1474   */\n      tag_108\n      jump\t// in\n    tag_182:\n        /* \"#utility.yul\":1445:1448   */\n      dup3\n        /* \"#utility.yul\":1438:1475   */\n      mstore\n        /* \"#utility.yul\":1373:1481   */\n      pop\n      pop\n      jump\t// out\n        /* \"#utility.yul\":1487:1586   */\n    tag_110:\n        /* \"#utility.yul\":1539:1545   */\n      0x00\n        /* \"#utility.yul\":1573:1578   */\n      dup2\n        /* \"#utility.yul\":1567:1579   */\n      mload\n        /* \"#utility.yul\":1557:1579   */\n      swap1\n      pop\n        /* \"#utility.yul\":1487:1586   */\n      swap2\n      swap1\n      pop\n      jump\t// out\n        /* \"#utility.yul\":1592:1751   */\n    tag_111:\n        /* \"#utility.yul\":1666:1677   */\n      0x00\n        /* \"#utility.yul\":1700:1706   */\n      dup3\n        /* \"#utility.yul\":1695:1698   */\n      dup3\n        /* \"#utility.yul\":1688:1707   */\n      mstore\n        /* \"#utility.yul\":1740:1744   */\n      0x20\n        /* \"#utility.yul\":1735:1738   */\n      dup3\n        /* \"#utility.yul\":1731:1745   */\n      add\n        /* \"#utility.yul\":1716:1745   */\n      swap1\n      pop\n        /* \"#utility.yul\":1592:1751   */\n      swap3\n      swap2\n      pop\n      pop\n      jump\t// out\n        /* \"#utility.yul\":1757:1896   */\n    tag_112:\n        /* \"#utility.yul\":1846:1852   */\n      dup3\n        /* \"#utility.yul\":1841:1844   */\n      dup2\n        /* \"#utility.yul\":1836:1839   */\n      dup4\n        /* \"#utility.yul\":1830:1853   */\n      mcopy\n        /* \"#utility.yul\":1887:1888   */\n      0x00\n        /* \"#utility.yul\":1878:1884   */\n      dup4\n        /* \"#utility.yul\":1873:1876   */\n      dup4\n        /* \"#utility.yul\":1869:1885   */\n      add\n        /* \"#utility.yul\":1862:1889   */\n      mstore\n        /* \"#utility.yul\":1757:1896   */\n      pop\n      pop\n      pop\n      jump\t// out\n        /* \"#utility.yul\":1902:2004   */\n    tag_113:\n        /* \"#utility.yul\":1943:1949   */\n      0x00\n        /* \"#utility.yul\":1994:1996   */\n      0x1f\n        /* \"#utility.yul\":1990:1997   */\n      not\n        /* \"#utility.yul\":1985:1987   */\n      0x1f\n        /* \"#utility.yul\":1978:1983   */\n      dup4\n        /* \"#utility.yul\":1974:1988   */\n      add\n        /* \"#utility.yul\":1970:1998   */\n      and\n        /* \"#utility.yul\":1960:1998   */\n      swap1\n      pop\n        /* \"#utility.yul\":1902:2004   */\n      swap2\n      swap1\n      pop\n      jump\t// out\n        /* \"#utility.yul\":2010:2367   */\n    tag_114:\n        /* \"#utility.yul\":2088:2091   */\n      0x00\n        /* \"#utility.yul\":2116:2155   */\n      tag_188\n        /* \"#utility.yul\":2149:2154   */\n      dup3\n        /* \"#utility.yul\":2116:2155   */\n      tag_110\n      jump\t// in\n    tag_188:\n        /* \"#utility.yul\":2171:2232   */\n      tag_189\n        /* \"#utility.yul\":2225:2231   */\n      dup2\n        /* \"#utility.yul\":2220:2223   */\n      dup6\n        /* \"#utility.yul\":2171:2232   */\n      tag_111\n      jump\t// in\n    tag_189:\n        /* \"#utility.yul\":2164:2232   */\n      swap4\n      pop\n        /* \"#utility.yul\":2241:2306   */\n      tag_190\n        /* \"#utility.yul\":2299:2305   */\n      dup2\n        /* \"#utility.yul\":2294:2297   */\n      dup6\n        /* \"#utility.yul\":2287:2291   */\n      0x20\n        /* \"#utility.yul\":2280:2285   */\n      dup7\n        /* \"#utility.yul\":2276:2292   */\n      add\n        /* \"#utility.yul\":2241:2306   */\n      tag_112\n      jump\t// in\n    tag_190:\n        /* \"#utility.yul\":2331:2360   */\n      tag_191\n        /* \"#utility.yul\":2353:2359   */\n      dup2\n        /* \"#utility.yul\":2331:2360   */\n      tag_113\n      jump\t// in\n    tag_191:\n        /* \"#utility.yul\":2326:2329   */\n      dup5\n        /* \"#utility.yul\":2322:2361   */\n      add\n        /* \"#utility.yul\":2315:2361   */\n      swap2\n      pop\n        /* \"#utility.yul\":2092:2367   */\n      pop\n        /* \"#utility.yul\":2010:2367   */\n      swap3\n      swap2\n      pop\n      pop\n      jump\t// out\n        /* \"#utility.yul\":2373:2449   */\n    tag_115:\n        /* \"#utility.yul\":2409:2416   */\n      0x00\n        /* \"#utility.yul\":2438:2443   */\n      dup2\n        /* \"#utility.yul\":2427:2443   */\n      swap1\n      pop\n        /* \"#utility.yul\":2373:2449   */\n      swap2\n      swap1\n      pop\n      jump\t// out\n        /* \"#utility.yul\":2455:2560   */\n    tag_116:\n        /* \"#utility.yul\":2530:2553   */\n      tag_194\n        /* \"#utility.yul\":2547:2552   */\n      dup2\n        /* \"#utility.yul\":2530:2553   */\n      tag_115\n      jump\t// in\n    tag_194:\n        /* \"#utility.yul\":2525:2528   */\n      dup3\n        /* \"#utility.yul\":2518:2554   */\n      mstore\n        /* \"#utility.yul\":2455:2560   */\n      pop\n      pop\n      jump\t// out\n        /* \"#utility.yul\":2566:2701   */\n    tag_117:\n        /* \"#utility.yul\":2654:2660   */\n      0x00\n        /* \"#utility.yul\":2688:2693   */\n      dup2\n        /* \"#utility.yul\":2682:2694   */\n      mload\n        /* \"#utility.yul\":2672:2694   */\n      swap1\n      pop\n        /* \"#utility.yul\":2566:2701   */\n      swap2\n      swap1\n      pop\n      jump\t// out\n        /* \"#utility.yul\":2707:2902   */\n    tag_118:\n        /* \"#utility.yul\":2817:2828   */\n      0x00\n        /* \"#utility.yul\":2851:2857   */\n      dup3\n        /* \"#utility.yul\":2846:2849   */\n      dup3\n        /* \"#utility.yul\":2839:2858   */\n      mstore\n        /* \"#utility.yul\":2891:2895   */\n      0x20\n        /* \"#utility.yul\":2886:2889   */\n      dup3\n        /* \"#utility.yul\":2882:2896   */\n      add\n        /* \"#utility.yul\":2867:2896   */\n      swap1\n      pop\n        /* \"#utility.yul\":2707:2902   */\n      swap3\n      swap2\n      pop\n      pop\n      jump\t// out\n        /* \"#utility.yul\":2908:3061   */\n    tag_119:\n        /* \"#utility.yul\":2996:3000   */\n      0x00\n        /* \"#utility.yul\":3019:3022   */\n      dup2\n        /* \"#utility.yul\":3011:3022   */\n      swap1\n      pop\n        /* \"#utility.yul\":3049:3053   */\n      0x20\n        /* \"#utility.yul\":3044:3047   */\n      dup3\n        /* \"#utility.yul\":3040:3054   */\n      add\n        /* \"#utility.yul\":3032:3054   */\n      swap1\n      pop\n        /* \"#utility.yul\":2908:3061   */\n      swap2\n      swap1\n      pop\n      jump\t// out\n        /* \"#utility.yul\":3143:3640   */\n    tag_120:\n        /* \"#utility.yul\":3272:3276   */\n      0x40\n        /* \"#utility.yul\":3267:3270   */\n      dup3\n        /* \"#utility.yul\":3263:3277   */\n      add\n        /* \"#utility.yul\":3364:3368   */\n      0x00\n        /* \"#utility.yul\":3357:3362   */\n      dup3\n        /* \"#utility.yul\":3353:3369   */\n      add\n        /* \"#utility.yul\":3347:3370   */\n      mload\n        /* \"#utility.yul\":3383:3446   */\n      tag_199\n        /* \"#utility.yul\":3440:3444   */\n      0x00\n        /* \"#utility.yul\":3435:3438   */\n      dup6\n        /* \"#utility.yul\":3431:3445   */\n      add\n        /* \"#utility.yul\":3417:3429   */\n      dup3\n        /* \"#utility.yul\":3383:3446   */\n      tag_106\n      jump\t// in\n    tag_199:\n        /* \"#utility.yul\":3287:3456   */\n      pop\n        /* \"#utility.yul\":3541:3545   */\n      0x20\n        /* \"#utility.yul\":3534:3539   */\n      dup3\n        /* \"#utility.yul\":3530:3546   */\n      add\n        /* \"#utility.yul\":3524:3547   */\n      mload\n        /* \"#utility.yul\":3560:3623   */\n      tag_200\n        /* \"#utility.yul\":3617:3621   */\n      0x20\n        /* \"#utility.yul\":3612:3615   */\n      dup6\n        /* \"#utility.yul\":3608:3622   */\n      add\n        /* \"#utility.yul\":3594:3606   */\n      dup3\n        /* \"#utility.yul\":3560:3623   */\n      tag_106\n      jump\t// in\n    tag_200:\n        /* \"#utility.yul\":3466:3633   */\n      pop\n        /* \"#utility.yul\":3241:3640   */\n      pop\n        /* \"#utility.yul\":3143:3640   */\n      pop\n      pop\n      jump\t// out\n        /* \"#utility.yul\":3646:3909   */\n    tag_121:\n        /* \"#utility.yul\":3757:3767   */\n      0x00\n        /* \"#utility.yul\":3778:3866   */\n      tag_202\n        /* \"#utility.yul\":3862:3865   */\n      dup4\n        /* \"#utility.yul\":3854:3860   */\n      dup4\n        /* \"#utility.yul\":3778:3866   */\n      tag_120\n      jump\t// in\n    tag_202:\n        /* \"#utility.yul\":3898:3902   */\n      0x40\n        /* \"#utility.yul\":3893:3896   */\n      dup4\n        /* \"#utility.yul\":3889:3903   */\n      add\n        /* \"#utility.yul\":3875:3903   */\n      swap1\n      pop\n        /* \"#utility.yul\":3646:3909   */\n      swap3\n      swap2\n      pop\n      pop\n      jump\t// out\n        /* \"#utility.yul\":3915:4049   */\n    tag_122:\n        /* \"#utility.yul\":4006:4010   */\n      0x00\n        /* \"#utility.yul\":4038:4042   */\n      0x20\n        /* \"#utility.yul\":4033:4036   */\n      dup3\n        /* \"#utility.yul\":4029:4043   */\n      add\n        /* \"#utility.yul\":4021:4043   */\n      swap1\n      pop\n        /* \"#utility.yul\":3915:4049   */\n      swap2\n      swap1\n      pop\n      jump\t// out\n        /* \"#utility.yul\":4135:5015   */\n    tag_123:\n        /* \"#utility.yul\":4286:4289   */\n      0x00\n        /* \"#utility.yul\":4315:4390   */\n      tag_205\n        /* \"#utility.yul\":4384:4389   */\n      dup3\n        /* \"#utility.yul\":4315:4390   */\n      tag_117\n      jump\t// in\n    tag_205:\n        /* \"#utility.yul\":4406:4503   */\n      tag_206\n        /* \"#utility.yul\":4496:4502   */\n      dup2\n        /* \"#utility.yul\":4491:4494   */\n      dup6\n        /* \"#utility.yul\":4406:4503   */\n      tag_118\n      jump\t// in\n    tag_206:\n        /* \"#utility.yul\":4399:4503   */\n      swap4\n      pop\n        /* \"#utility.yul\":4527:4604   */\n      tag_207\n        /* \"#utility.yul\":4598:4603   */\n      dup4\n        /* \"#utility.yul\":4527:4604   */\n      tag_119\n      jump\t// in\n    tag_207:\n        /* \"#utility.yul\":4627:4634   */\n      dup1\n        /* \"#utility.yul\":4658:4659   */\n      0x00\n        /* \"#utility.yul\":4643:4990   */\n    tag_208:\n        /* \"#utility.yul\":4668:4674   */\n      dup4\n        /* \"#utility.yul\":4665:4666   */\n      dup2\n        /* \"#utility.yul\":4662:4675   */\n      lt\n        /* \"#utility.yul\":4643:4990   */\n      iszero\n      tag_210\n      jumpi\n        /* \"#utility.yul\":4744:4750   */\n      dup2\n        /* \"#utility.yul\":4738:4751   */\n      mload\n        /* \"#utility.yul\":4771:4876   */\n      tag_211\n        /* \"#utility.yul\":4872:4875   */\n      dup9\n        /* \"#utility.yul\":4857:4870   */\n      dup3\n        /* \"#utility.yul\":4771:4876   */\n      tag_121\n      jump\t// in\n    tag_211:\n        /* \"#utility.yul\":4764:4876   */\n      swap8\n      pop\n        /* \"#utility.yul\":4899:4980   */\n      tag_212\n        /* \"#utility.yul\":4973:4979   */\n      dup4\n        /* \"#utility.yul\":4899:4980   */\n      tag_122\n      jump\t// in\n    tag_212:\n        /* \"#utility.yul\":4889:4980   */\n      swap3\n      pop\n        /* \"#utility.yul\":4703:4990   */\n      pop\n        /* \"#utility.yul\":4690:4691   */\n      0x01\n        /* \"#utility.yul\":4687:4688   */\n      dup2\n        /* \"#utility.yul\":4683:4692   */\n      add\n        /* \"#utility.yul\":4678:4692   */\n      swap1\n      pop\n        /* \"#utility.yul\":4643:4990   */\n      jump(tag_208)\n    tag_210:\n        /* \"#utility.yul\":4647:4661   */\n      pop\n        /* \"#utility.yul\":5006:5009   */\n      dup6\n        /* \"#utility.yul\":4999:5009   */\n      swap4\n      pop\n        /* \"#utility.yul\":4291:5015   */\n      pop\n      pop\n      pop\n        /* \"#utility.yul\":4135:5015   */\n      swap3\n      swap2\n      pop\n      pop\n      jump\t// out\n        /* \"#utility.yul\":5101:6994   */\n    tag_124:\n        /* \"#utility.yul\":5218:5221   */\n      0x00\n        /* \"#utility.yul\":5254:5260   */\n      0x0100\n        /* \"#utility.yul\":5249:5252   */\n      dup4\n        /* \"#utility.yul\":5245:5261   */\n      add\n        /* \"#utility.yul\":5341:5345   */\n      0x00\n        /* \"#utility.yul\":5334:5339   */\n      dup4\n        /* \"#utility.yul\":5330:5346   */\n      add\n        /* \"#utility.yul\":5324:5347   */\n      mload\n        /* \"#utility.yul\":5360:5423   */\n      tag_214\n        /* \"#utility.yul\":5417:5421   */\n      0x00\n        /* \"#utility.yul\":5412:5415   */\n      dup7\n        /* \"#utility.yul\":5408:5422   */\n      add\n        /* \"#utility.yul\":5394:5406   */\n      dup3\n        /* \"#utility.yul\":5360:5423   */\n      tag_106\n      jump\t// in\n    tag_214:\n        /* \"#utility.yul\":5271:5433   */\n      pop\n        /* \"#utility.yul\":5516:5520   */\n      0x20\n        /* \"#utility.yul\":5509:5514   */\n      dup4\n        /* \"#utility.yul\":5505:5521   */\n      add\n        /* \"#utility.yul\":5499:5522   */\n      mload\n        /* \"#utility.yul\":5535:5598   */\n      tag_215\n        /* \"#utility.yul\":5592:5596   */\n      0x20\n        /* \"#utility.yul\":5587:5590   */\n      dup7\n        /* \"#utility.yul\":5583:5597   */\n      add\n        /* \"#utility.yul\":5569:5581   */\n      dup3\n        /* \"#utility.yul\":5535:5598   */\n      tag_109\n      jump\t// in\n    tag_215:\n        /* \"#utility.yul\":5443:5608   */\n      pop\n        /* \"#utility.yul\":5690:5694   */\n      0x40\n        /* \"#utility.yul\":5683:5688   */\n      dup4\n        /* \"#utility.yul\":5679:5695   */\n      add\n        /* \"#utility.yul\":5673:5696   */\n      mload\n        /* \"#utility.yul\":5743:5746   */\n      dup5\n        /* \"#utility.yul\":5737:5741   */\n      dup3\n        /* \"#utility.yul\":5733:5747   */\n      sub\n        /* \"#utility.yul\":5726:5730   */\n      0x40\n        /* \"#utility.yul\":5721:5724   */\n      dup7\n        /* \"#utility.yul\":5717:5731   */\n      add\n        /* \"#utility.yul\":5710:5748   */\n      mstore\n        /* \"#utility.yul\":5769:5842   */\n      tag_216\n        /* \"#utility.yul\":5837:5841   */\n      dup3\n        /* \"#utility.yul\":5823:5835   */\n      dup3\n        /* \"#utility.yul\":5769:5842   */\n      tag_114\n      jump\t// in\n    tag_216:\n        /* \"#utility.yul\":5761:5842   */\n      swap2\n      pop\n        /* \"#utility.yul\":5618:5853   */\n      pop\n        /* \"#utility.yul\":5939:5943   */\n      0x60\n        /* \"#utility.yul\":5932:5937   */\n      dup4\n        /* \"#utility.yul\":5928:5944   */\n      add\n        /* \"#utility.yul\":5922:5945   */\n      mload\n        /* \"#utility.yul\":5958:6019   */\n      tag_217\n        /* \"#utility.yul\":6013:6017   */\n      0x60\n        /* \"#utility.yul\":6008:6011   */\n      dup7\n        /* \"#utility.yul\":6004:6018   */\n      add\n        /* \"#utility.yul\":5990:6002   */\n      dup3\n        /* \"#utility.yul\":5958:6019   */\n      tag_116\n      jump\t// in\n    tag_217:\n        /* \"#utility.yul\":5863:6029   */\n      pop\n        /* \"#utility.yul\":6116:6120   */\n      0x80\n        /* \"#utility.yul\":6109:6114   */\n      dup4\n        /* \"#utility.yul\":6105:6121   */\n      add\n        /* \"#utility.yul\":6099:6122   */\n      mload\n        /* \"#utility.yul\":6135:6196   */\n      tag_218\n        /* \"#utility.yul\":6190:6194   */\n      0x80\n        /* \"#utility.yul\":6185:6188   */\n      dup7\n        /* \"#utility.yul\":6181:6195   */\n      add\n        /* \"#utility.yul\":6167:6179   */\n      dup3\n        /* \"#utility.yul\":6135:6196   */\n      tag_116\n      jump\t// in\n    tag_218:\n        /* \"#utility.yul\":6039:6206   */\n      pop\n        /* \"#utility.yul\":6295:6299   */\n      0xa0\n        /* \"#utility.yul\":6288:6293   */\n      dup4\n        /* \"#utility.yul\":6284:6300   */\n      add\n        /* \"#utility.yul\":6278:6301   */\n      mload\n        /* \"#utility.yul\":6348:6351   */\n      dup5\n        /* \"#utility.yul\":6342:6346   */\n      dup3\n        /* \"#utility.yul\":6338:6352   */\n      sub\n        /* \"#utility.yul\":6331:6335   */\n      0xa0\n        /* \"#utility.yul\":6326:6329   */\n      dup7\n        /* \"#utility.yul\":6322:6336   */\n      add\n        /* \"#utility.yul\":6315:6353   */\n      mstore\n        /* \"#utility.yul\":6374:6447   */\n      tag_219\n        /* \"#utility.yul\":6442:6446   */\n      dup3\n        /* \"#utility.yul\":6428:6440   */\n      dup3\n        /* \"#utility.yul\":6374:6447   */\n      tag_114\n      jump\t// in\n    tag_219:\n        /* \"#utility.yul\":6366:6447   */\n      swap2\n      pop\n        /* \"#utility.yul\":6216:6458   */\n      pop\n        /* \"#utility.yul\":6549:6553   */\n      0xc0\n        /* \"#utility.yul\":6542:6547   */\n      dup4\n        /* \"#utility.yul\":6538:6554   */\n      add\n        /* \"#utility.yul\":6532:6555   */\n      mload\n        /* \"#utility.yul\":6568:6631   */\n      tag_220\n        /* \"#utility.yul\":6625:6629   */\n      0xc0\n        /* \"#utility.yul\":6620:6623   */\n      dup7\n        /* \"#utility.yul\":6616:6630   */\n      add\n        /* \"#utility.yul\":6602:6614   */\n      dup3\n        /* \"#utility.yul\":6568:6631   */\n      tag_106\n      jump\t// in\n    tag_220:\n        /* \"#utility.yul\":6468:6641   */\n      pop\n        /* \"#utility.yul\":6732:6736   */\n      0xe0\n        /* \"#utility.yul\":6725:6730   */\n      dup4\n        /* \"#utility.yul\":6721:6737   */\n      add\n        /* \"#utility.yul\":6715:6738   */\n      mload\n        /* \"#utility.yul\":6785:6788   */\n      dup5\n        /* \"#utility.yul\":6779:6783   */\n      dup3\n        /* \"#utility.yul\":6775:6789   */\n      sub\n        /* \"#utility.yul\":6768:6772   */\n      0xe0\n        /* \"#utility.yul\":6763:6766   */\n      dup7\n        /* \"#utility.yul\":6759:6773   */\n      add\n        /* \"#utility.yul\":6752:6790   */\n      mstore\n        /* \"#utility.yul\":6811:6956   */\n      tag_221\n        /* \"#utility.yul\":6951:6955   */\n      dup3\n        /* \"#utility.yul\":6937:6949   */\n      dup3\n        /* \"#utility.yul\":6811:6956   */\n      tag_123\n      jump\t// in\n    tag_221:\n        /* \"#utility.yul\":6803:6956   */\n      swap2\n      pop\n        /* \"#utility.yul\":6651:6967   */\n      pop\n        /* \"#utility.yul\":6984:6988   */\n      dup1\n        /* \"#utility.yul\":6977:6988   */\n      swap2\n      pop\n        /* \"#utility.yul\":5223:6994   */\n      pop\n        /* \"#utility.yul\":5101:6994   */\n      swap3\n      swap2\n      pop\n      pop\n      jump\t// out\n        /* \"#utility.yul\":7000:7369   */\n    tag_14:\n        /* \"#utility.yul\":7141:7145   */\n      0x00\n        /* \"#utility.yul\":7179:7181   */\n      0x20\n        /* \"#utility.yul\":7168:7177   */\n      dup3\n        /* \"#utility.yul\":7164:7182   */\n      add\n        /* \"#utility.yul\":7156:7182   */\n      swap1\n      pop\n        /* \"#utility.yul\":7228:7237   */\n      dup2\n        /* \"#utility.yul\":7222:7226   */\n      dup2\n        /* \"#utility.yul\":7218:7238   */\n      sub\n        /* \"#utility.yul\":7214:7215   */\n      0x00\n        /* \"#utility.yul\":7203:7212   */\n      dup4\n        /* \"#utility.yul\":7199:7216   */\n      add\n        /* \"#utility.yul\":7192:7239   */\n      mstore\n        /* \"#utility.yul\":7256:7362   */\n      tag_223\n        /* \"#utility.yul\":7357:7361   */\n      dup2\n        /* \"#utility.yul\":7348:7354   */\n      dup5\n        /* \"#utility.yul\":7256:7362   */\n      tag_124\n      jump\t// in\n    tag_223:\n        /* \"#utility.yul\":7248:7362   */\n      swap1\n      pop\n        /* \"#utility.yul\":7000:7369   */\n      swap3\n      swap2\n      pop\n      pop\n      jump\t// out\n        /* \"#utility.yul\":7375:7493   */\n    tag_125:\n        /* \"#utility.yul\":7462:7486   */\n      tag_225\n        /* \"#utility.yul\":7480:7485   */\n      dup2\n        /* \"#utility.yul\":7462:7486   */\n      tag_103\n      jump\t// in\n    tag_225:\n        /* \"#utility.yul\":7457:7460   */\n      dup3\n        /* \"#utility.yul\":7450:7487   */\n      mstore\n        /* \"#utility.yul\":7375:7493   */\n      pop\n      pop\n      jump\t// out\n        /* \"#utility.yul\":7499:7721   */\n    tag_18:\n        /* \"#utility.yul\":7592:7596   */\n      0x00\n        /* \"#utility.yul\":7630:7632   */\n      0x20\n        /* \"#utility.yul\":7619:7628   */\n      dup3\n        /* \"#utility.yul\":7615:7633   */\n      add\n        /* \"#utility.yul\":7607:7633   */\n      swap1\n      pop\n        /* \"#utility.yul\":7643:7714   */\n      tag_227\n        /* \"#utility.yul\":7711:7712   */\n      0x00\n        /* \"#utility.yul\":7700:7709   */\n      dup4\n        /* \"#utility.yul\":7696:7713   */\n      add\n        /* \"#utility.yul\":7687:7693   */\n      dup5\n        /* \"#utility.yul\":7643:7714   */\n      tag_125\n      jump\t// in\n    tag_227:\n        /* \"#utility.yul\":7499:7721   */\n      swap3\n      swap2\n      pop\n      pop\n      jump\t// out\n        /* \"#utility.yul\":7727:8346   */\n    tag_21:\n        /* \"#utility.yul\":7804:7810   */\n      0x00\n        /* \"#utility.yul\":7812:7818   */\n      dup1\n        /* \"#utility.yul\":7820:7826   */\n      0x00\n        /* \"#utility.yul\":7869:7871   */\n      0x60\n        /* \"#utility.yul\":7857:7866   */\n      dup5\n        /* \"#utility.yul\":7848:7855   */\n      dup7\n        /* \"#utility.yul\":7844:7867   */\n      sub\n        /* \"#utility.yul\":7840:7872   */\n      slt\n        /* \"#utility.yul\":7837:7956   */\n      iszero\n      tag_229\n      jumpi\n        /* \"#utility.yul\":7875:7954   */\n      tag_230\n      tag_101\n      jump\t// in\n    tag_230:\n        /* \"#utility.yul\":7837:7956   */\n    tag_229:\n        /* \"#utility.yul\":7995:7996   */\n      0x00\n        /* \"#utility.yul\":8020:8073   */\n      tag_231\n        /* \"#utility.yul\":8065:8072   */\n      dup7\n        /* \"#utility.yul\":8056:8062   */\n      dup3\n        /* \"#utility.yul\":8045:8054   */\n      dup8\n        /* \"#utility.yul\":8041:8063   */\n      add\n        /* \"#utility.yul\":8020:8073   */\n      tag_105\n      jump\t// in\n    tag_231:\n        /* \"#utility.yul\":8010:8073   */\n      swap4\n      pop\n        /* \"#utility.yul\":7966:8083   */\n      pop\n        /* \"#utility.yul\":8122:8124   */\n      0x20\n        /* \"#utility.yul\":8148:8201   */\n      tag_232\n        /* \"#utility.yul\":8193:8200   */\n      dup7\n        /* \"#utility.yul\":8184:8190   */\n      dup3\n        /* \"#utility.yul\":8173:8182   */\n      dup8\n        /* \"#utility.yul\":8169:8191   */\n      add\n        /* \"#utility.yul\":8148:8201   */\n      tag_105\n      jump\t// in\n    tag_232:\n        /* \"#utility.yul\":8138:8201   */\n      swap3\n      pop\n        /* \"#utility.yul\":8093:8211   */\n      pop\n        /* \"#utility.yul\":8250:8252   */\n      0x40\n        /* \"#utility.yul\":8276:8329   */\n      tag_233\n        /* \"#utility.yul\":8321:8328   */\n      dup7\n        /* \"#utility.yul\":8312:8318   */\n      dup3\n        /* \"#utility.yul\":8301:8310   */\n      dup8\n        /* \"#utility.yul\":8297:8319   */\n      add\n        /* \"#utility.yul\":8276:8329   */\n      tag_105\n      jump\t// in\n    tag_233:\n        /* \"#utility.yul\":8266:8329   */\n      swap2\n      pop\n        /* \"#utility.yul\":8221:8339   */\n      pop\n        /* \"#utility.yul\":7727:8346   */\n      swap3\n      pop\n      swap3\n      pop\n      swap3\n      jump\t// out\n        /* \"#utility.yul\":8352:8469   */\n    tag_126:\n        /* \"#utility.yul\":8461:8462   */\n      0x00\n        /* \"#utility.yul\":8458:8459   */\n      dup1\n        /* \"#utility.yul\":8451:8463   */\n      revert\n        /* \"#utility.yul\":8475:8592   */\n    tag_127:\n        /* \"#utility.yul\":8584:8585   */\n      0x00\n        /* \"#utility.yul\":8581:8582   */\n      dup1\n        /* \"#utility.yul\":8574:8586   */\n      revert\n        /* \"#utility.yul\":8598:8778   */\n    tag_128:\n        /* \"#utility.yul\":8646:8723   */\n      0x4e487b7100000000000000000000000000000000000000000000000000000000\n        /* \"#utility.yul\":8643:8644   */\n      0x00\n        /* \"#utility.yul\":8636:8724   */\n      mstore\n        /* \"#utility.yul\":8743:8747   */\n      0x41\n        /* \"#utility.yul\":8740:8741   */\n      0x04\n        /* \"#utility.yul\":8733:8748   */\n      mstore\n        /* \"#utility.yul\":8767:8771   */\n      0x24\n        /* \"#utility.yul\":8764:8765   */\n      0x00\n        /* \"#utility.yul\":8757:8772   */\n      revert\n        /* \"#utility.yul\":8784:9065   */\n    tag_129:\n        /* \"#utility.yul\":8867:8894   */\n      tag_238\n        /* \"#utility.yul\":8889:8893   */\n      dup3\n        /* \"#utility.yul\":8867:8894   */\n      tag_113\n      jump\t// in\n    tag_238:\n        /* \"#utility.yul\":8859:8865   */\n      dup2\n        /* \"#utility.yul\":8855:8895   */\n      add\n        /* \"#utility.yul\":8997:9003   */\n      dup2\n        /* \"#utility.yul\":8985:8995   */\n      dup2\n        /* \"#utility.yul\":8982:9004   */\n      lt\n        /* \"#utility.yul\":8961:8979   */\n      0xffffffffffffffff\n        /* \"#utility.yul\":8949:8959   */\n      dup3\n        /* \"#utility.yul\":8946:8980   */\n      gt\n        /* \"#utility.yul\":8943:9005   */\n      or\n        /* \"#utility.yul\":8940:9028   */\n      iszero\n      tag_239\n      jumpi\n        /* \"#utility.yul\":9008:9026   */\n      tag_240\n      tag_128\n      jump\t// in\n    tag_240:\n        /* \"#utility.yul\":8940:9028   */\n    tag_239:\n        /* \"#utility.yul\":9048:9058   */\n      dup1\n        /* \"#utility.yul\":9044:9046   */\n      0x40\n        /* \"#utility.yul\":9037:9059   */\n      mstore\n        /* \"#utility.yul\":8827:9065   */\n      pop\n        /* \"#utility.yul\":8784:9065   */\n      pop\n      pop\n      jump\t// out\n        /* \"#utility.yul\":9071:9200   */\n    tag_130:\n        /* \"#utility.yul\":9105:9111   */\n      0x00\n        /* \"#utility.yul\":9132:9152   */\n      tag_242\n      tag_100\n      jump\t// in\n    tag_242:\n        /* \"#utility.yul\":9122:9152   */\n      swap1\n      pop\n        /* \"#utility.yul\":9161:9194   */\n      tag_243\n        /* \"#utility.yul\":9189:9193   */\n      dup3\n        /* \"#utility.yul\":9181:9187   */\n      dup3\n        /* \"#utility.yul\":9161:9194   */\n      tag_129\n      jump\t// in\n    tag_243:\n        /* \"#utility.yul\":9071:9200   */\n      swap2\n      swap1\n      pop\n      jump\t// out\n        /* \"#utility.yul\":9206:9514   */\n    tag_131:\n        /* \"#utility.yul\":9268:9272   */\n      0x00\n        /* \"#utility.yul\":9358:9376   */\n      0xffffffffffffffff\n        /* \"#utility.yul\":9350:9356   */\n      dup3\n        /* \"#utility.yul\":9347:9377   */\n      gt\n        /* \"#utility.yul\":9344:9400   */\n      iszero\n      tag_245\n      jumpi\n        /* \"#utility.yul\":9380:9398   */\n      tag_246\n      tag_128\n      jump\t// in\n    tag_246:\n        /* \"#utility.yul\":9344:9400   */\n    tag_245:\n        /* \"#utility.yul\":9418:9447   */\n      tag_247\n        /* \"#utility.yul\":9440:9446   */\n      dup3\n        /* \"#utility.yul\":9418:9447   */\n      tag_113\n      jump\t// in\n    tag_247:\n        /* \"#utility.yul\":9410:9447   */\n      swap1\n      pop\n        /* \"#utility.yul\":9502:9506   */\n      0x20\n        /* \"#utility.yul\":9496:9500   */\n      dup2\n        /* \"#utility.yul\":9492:9507   */\n      add\n        /* \"#utility.yul\":9484:9507   */\n      swap1\n      pop\n        /* \"#utility.yul\":9206:9514   */\n      swap2\n      swap1\n      pop\n      jump\t// out\n        /* \"#utility.yul\":9520:9668   */\n    tag_132:\n        /* \"#utility.yul\":9618:9624   */\n      dup3\n        /* \"#utility.yul\":9613:9616   */\n      dup2\n        /* \"#utility.yul\":9608:9611   */\n      dup4\n        /* \"#utility.yul\":9595:9625   */\n      calldatacopy\n        /* \"#utility.yul\":9659:9660   */\n      0x00\n        /* \"#utility.yul\":9650:9656   */\n      dup4\n        /* \"#utility.yul\":9645:9648   */\n      dup4\n        /* \"#utility.yul\":9641:9657   */\n      add\n        /* \"#utility.yul\":9634:9661   */\n      mstore\n        /* \"#utility.yul\":9520:9668   */\n      pop\n      pop\n      pop\n      jump\t// out\n        /* \"#utility.yul\":9674:10099   */\n    tag_133:\n        /* \"#utility.yul\":9752:9757   */\n      0x00\n        /* \"#utility.yul\":9777:9843   */\n      tag_250\n        /* \"#utility.yul\":9793:9842   */\n      tag_251\n        /* \"#utility.yul\":9835:9841   */\n      dup5\n        /* \"#utility.yul\":9793:9842   */\n      tag_131\n      jump\t// in\n    tag_251:\n        /* \"#utility.yul\":9777:9843   */\n      tag_130\n      jump\t// in\n    tag_250:\n        /* \"#utility.yul\":9768:9843   */\n      swap1\n      pop\n        /* \"#utility.yul\":9866:9872   */\n      dup3\n        /* \"#utility.yul\":9859:9864   */\n      dup2\n        /* \"#utility.yul\":9852:9873   */\n      mstore\n        /* \"#utility.yul\":9904:9908   */\n      0x20\n        /* \"#utility.yul\":9897:9902   */\n      dup2\n        /* \"#utility.yul\":9893:9909   */\n      add\n        /* \"#utility.yul\":9942:9945   */\n      dup5\n        /* \"#utility.yul\":9933:9939   */\n      dup5\n        /* \"#utility.yul\":9928:9931   */\n      dup5\n        /* \"#utility.yul\":9924:9940   */\n      add\n        /* \"#utility.yul\":9921:9946   */\n      gt\n        /* \"#utility.yul\":9918:10030   */\n      iszero\n      tag_252\n      jumpi\n        /* \"#utility.yul\":9949:10028   */\n      tag_253\n      tag_127\n      jump\t// in\n    tag_253:\n        /* \"#utility.yul\":9918:10030   */\n    tag_252:\n        /* \"#utility.yul\":10039:10093   */\n      tag_254\n        /* \"#utility.yul\":10086:10092   */\n      dup5\n        /* \"#utility.yul\":10081:10084   */\n      dup3\n        /* \"#utility.yul\":10076:10079   */\n      dup6\n        /* \"#utility.yul\":10039:10093   */\n      tag_132\n      jump\t// in\n    tag_254:\n        /* \"#utility.yul\":9758:10099   */\n      pop\n        /* \"#utility.yul\":9674:10099   */\n      swap4\n      swap3\n      pop\n      pop\n      pop\n      jump\t// out\n        /* \"#utility.yul\":10119:10459   */\n    tag_134:\n        /* \"#utility.yul\":10175:10180   */\n      0x00\n        /* \"#utility.yul\":10224:10227   */\n      dup3\n        /* \"#utility.yul\":10217:10221   */\n      0x1f\n        /* \"#utility.yul\":10209:10215   */\n      dup4\n        /* \"#utility.yul\":10205:10222   */\n      add\n        /* \"#utility.yul\":10201:10228   */\n      slt\n        /* \"#utility.yul\":10191:10313   */\n      tag_256\n      jumpi\n        /* \"#utility.yul\":10232:10311   */\n      tag_257\n      tag_126\n      jump\t// in\n    tag_257:\n        /* \"#utility.yul\":10191:10313   */\n    tag_256:\n        /* \"#utility.yul\":10349:10355   */\n      dup2\n        /* \"#utility.yul\":10336:10356   */\n      calldataload\n        /* \"#utility.yul\":10374:10453   */\n      tag_258\n        /* \"#utility.yul\":10449:10452   */\n      dup5\n        /* \"#utility.yul\":10441:10447   */\n      dup3\n        /* \"#utility.yul\":10434:10438   */\n      0x20\n        /* \"#utility.yul\":10426:10432   */\n      dup7\n        /* \"#utility.yul\":10422:10439   */\n      add\n        /* \"#utility.yul\":10374:10453   */\n      tag_133\n      jump\t// in\n    tag_258:\n        /* \"#utility.yul\":10365:10453   */\n      swap2\n      pop\n        /* \"#utility.yul\":10181:10459   */\n      pop\n        /* \"#utility.yul\":10119:10459   */\n      swap3\n      swap2\n      pop\n      pop\n      jump\t// out\n        /* \"#utility.yul\":10465:10585   */\n    tag_135:\n        /* \"#utility.yul\":10537:10560   */\n      tag_260\n        /* \"#utility.yul\":10554:10559   */\n      dup2\n        /* \"#utility.yul\":10537:10560   */\n      tag_115\n      jump\t// in\n    tag_260:\n        /* \"#utility.yul\":10530:10535   */\n      dup2\n        /* \"#utility.yul\":10527:10561   */\n      eq\n        /* \"#utility.yul\":10517:10579   */\n      tag_261\n      jumpi\n        /* \"#utility.yul\":10575:10576   */\n      0x00\n        /* \"#utility.yul\":10572:10573   */\n      dup1\n        /* \"#utility.yul\":10565:10577   */\n      revert\n        /* \"#utility.yul\":10517:10579   */\n    tag_261:\n        /* \"#utility.yul\":10465:10585   */\n      pop\n      jump\t// out\n        /* \"#utility.yul\":10591:10728   */\n    tag_136:\n        /* \"#utility.yul\":10636:10641   */\n      0x00\n        /* \"#utility.yul\":10674:10680   */\n      dup2\n        /* \"#utility.yul\":10661:10681   */\n      calldataload\n        /* \"#utility.yul\":10652:10681   */\n      swap1\n      pop\n        /* \"#utility.yul\":10690:10722   */\n      tag_263\n        /* \"#utility.yul\":10716:10721   */\n      dup2\n        /* \"#utility.yul\":10690:10722   */\n      tag_135\n      jump\t// in\n    tag_263:\n        /* \"#utility.yul\":10591:10728   */\n      swap3\n      swap2\n      pop\n      pop\n      jump\t// out\n        /* \"#utility.yul\":10734:12001   */\n    tag_25:\n        /* \"#utility.yul\":10847:10853   */\n      0x00\n        /* \"#utility.yul\":10855:10861   */\n      dup1\n        /* \"#utility.yul\":10863:10869   */\n      0x00\n        /* \"#utility.yul\":10871:10877   */\n      dup1\n        /* \"#utility.yul\":10879:10885   */\n      0x00\n        /* \"#utility.yul\":10928:10931   */\n      0xa0\n        /* \"#utility.yul\":10916:10925   */\n      dup7\n        /* \"#utility.yul\":10907:10914   */\n      dup9\n        /* \"#utility.yul\":10903:10926   */\n      sub\n        /* \"#utility.yul\":10899:10932   */\n      slt\n        /* \"#utility.yul\":10896:11016   */\n      iszero\n      tag_265\n      jumpi\n        /* \"#utility.yul\":10935:11014   */\n      tag_266\n      tag_101\n      jump\t// in\n    tag_266:\n        /* \"#utility.yul\":10896:11016   */\n    tag_265:\n        /* \"#utility.yul\":11083:11084   */\n      0x00\n        /* \"#utility.yul\":11072:11081   */\n      dup7\n        /* \"#utility.yul\":11068:11085   */\n      add\n        /* \"#utility.yul\":11055:11086   */\n      calldataload\n        /* \"#utility.yul\":11113:11131   */\n      0xffffffffffffffff\n        /* \"#utility.yul\":11105:11111   */\n      dup2\n        /* \"#utility.yul\":11102:11132   */\n      gt\n        /* \"#utility.yul\":11099:11216   */\n      iszero\n      tag_267\n      jumpi\n        /* \"#utility.yul\":11135:11214   */\n      tag_268\n      tag_102\n      jump\t// in\n    tag_268:\n        /* \"#utility.yul\":11099:11216   */\n    tag_267:\n        /* \"#utility.yul\":11240:11303   */\n      tag_269\n        /* \"#utility.yul\":11295:11302   */\n      dup9\n        /* \"#utility.yul\":11286:11292   */\n      dup3\n        /* \"#utility.yul\":11275:11284   */\n      dup10\n        /* \"#utility.yul\":11271:11293   */\n      add\n        /* \"#utility.yul\":11240:11303   */\n      tag_134\n      jump\t// in\n    tag_269:\n        /* \"#utility.yul\":11230:11303   */\n      swap6\n      pop\n        /* \"#utility.yul\":11026:11313   */\n      pop\n        /* \"#utility.yul\":11380:11382   */\n      0x20\n        /* \"#utility.yul\":11369:11378   */\n      dup7\n        /* \"#utility.yul\":11365:11383   */\n      add\n        /* \"#utility.yul\":11352:11384   */\n      calldataload\n        /* \"#utility.yul\":11411:11429   */\n      0xffffffffffffffff\n        /* \"#utility.yul\":11403:11409   */\n      dup2\n        /* \"#utility.yul\":11400:11430   */\n      gt\n        /* \"#utility.yul\":11397:11514   */\n      iszero\n      tag_270\n      jumpi\n        /* \"#utility.yul\":11433:11512   */\n      tag_271\n      tag_102\n      jump\t// in\n    tag_271:\n        /* \"#utility.yul\":11397:11514   */\n    tag_270:\n        /* \"#utility.yul\":11538:11601   */\n      tag_272\n        /* \"#utility.yul\":11593:11600   */\n      dup9\n        /* \"#utility.yul\":11584:11590   */\n      dup3\n        /* \"#utility.yul\":11573:11582   */\n      dup10\n        /* \"#utility.yul\":11569:11591   */\n      add\n        /* \"#utility.yul\":11538:11601   */\n      tag_134\n      jump\t// in\n    tag_272:\n        /* \"#utility.yul\":11528:11601   */\n      swap5\n      pop\n        /* \"#utility.yul\":11323:11611   */\n      pop\n        /* \"#utility.yul\":11650:11652   */\n      0x40\n        /* \"#utility.yul\":11676:11729   */\n      tag_273\n        /* \"#utility.yul\":11721:11728   */\n      dup9\n        /* \"#utility.yul\":11712:11718   */\n      dup3\n        /* \"#utility.yul\":11701:11710   */\n      dup10\n        /* \"#utility.yul\":11697:11719   */\n      add\n        /* \"#utility.yul\":11676:11729   */\n      tag_105\n      jump\t// in\n    tag_273:\n        /* \"#utility.yul\":11666:11729   */\n      swap4\n      pop\n        /* \"#utility.yul\":11621:11739   */\n      pop\n        /* \"#utility.yul\":11778:11780   */\n      0x60\n        /* \"#utility.yul\":11804:11856   */\n      tag_274\n        /* \"#utility.yul\":11848:11855   */\n      dup9\n        /* \"#utility.yul\":11839:11845   */\n      dup3\n        /* \"#utility.yul\":11828:11837   */\n      dup10\n        /* \"#utility.yul\":11824:11846   */\n      add\n        /* \"#utility.yul\":11804:11856   */\n      tag_136\n      jump\t// in\n    tag_274:\n        /* \"#utility.yul\":11794:11856   */\n      swap3\n      pop\n        /* \"#utility.yul\":11749:11866   */\n      pop\n        /* \"#utility.yul\":11905:11908   */\n      0x80\n        /* \"#utility.yul\":11932:11984   */\n      tag_275\n        /* \"#utility.yul\":11976:11983   */\n      dup9\n        /* \"#utility.yul\":11967:11973   */\n      dup3\n        /* \"#utility.yul\":11956:11965   */\n      dup10\n        /* \"#utility.yul\":11952:11974   */\n      add\n        /* \"#utility.yul\":11932:11984   */\n      tag_136\n      jump\t// in\n    tag_275:\n        /* \"#utility.yul\":11922:11984   */\n      swap2\n      pop\n        /* \"#utility.yul\":11876:11994   */\n      pop\n        /* \"#utility.yul\":10734:12001   */\n      swap3\n      swap6\n      pop\n      swap3\n      swap6\n      swap1\n      swap4\n      pop\n      jump\t// out\n        /* \"#utility.yul\":12007:12125   */\n    tag_137:\n        /* \"#utility.yul\":12094:12118   */\n      tag_277\n        /* \"#utility.yul\":12112:12117   */\n      dup2\n        /* \"#utility.yul\":12094:12118   */\n      tag_108\n      jump\t// in\n    tag_277:\n        /* \"#utility.yul\":12089:12092   */\n      dup3\n        /* \"#utility.yul\":12082:12119   */\n      mstore\n        /* \"#utility.yul\":12007:12125   */\n      pop\n      pop\n      jump\t// out\n        /* \"#utility.yul\":12131:12300   */\n    tag_138:\n        /* \"#utility.yul\":12215:12226   */\n      0x00\n        /* \"#utility.yul\":12249:12255   */\n      dup3\n        /* \"#utility.yul\":12244:12247   */\n      dup3\n        /* \"#utility.yul\":12237:12256   */\n      mstore\n        /* \"#utility.yul\":12289:12293   */\n      0x20\n        /* \"#utility.yul\":12284:12287   */\n      dup3\n        /* \"#utility.yul\":12280:12294   */\n      add\n        /* \"#utility.yul\":12265:12294   */\n      swap1\n      pop\n        /* \"#utility.yul\":12131:12300   */\n      swap3\n      swap2\n      pop\n      pop\n      jump\t// out\n        /* \"#utility.yul\":12306:12683   */\n    tag_139:\n        /* \"#utility.yul\":12394:12397   */\n      0x00\n        /* \"#utility.yul\":12422:12461   */\n      tag_280\n        /* \"#utility.yul\":12455:12460   */\n      dup3\n        /* \"#utility.yul\":12422:12461   */\n      tag_110\n      jump\t// in\n    tag_280:\n        /* \"#utility.yul\":12477:12548   */\n      tag_281\n        /* \"#utility.yul\":12541:12547   */\n      dup2\n        /* \"#utility.yul\":12536:12539   */\n      dup6\n        /* \"#utility.yul\":12477:12548   */\n      tag_138\n      jump\t// in\n    tag_281:\n        /* \"#utility.yul\":12470:12548   */\n      swap4\n      pop\n        /* \"#utility.yul\":12557:12622   */\n      tag_282\n        /* \"#utility.yul\":12615:12621   */\n      dup2\n        /* \"#utility.yul\":12610:12613   */\n      dup6\n        /* \"#utility.yul\":12603:12607   */\n      0x20\n        /* \"#utility.yul\":12596:12601   */\n      dup7\n        /* \"#utility.yul\":12592:12608   */\n      add\n        /* \"#utility.yul\":12557:12622   */\n      tag_112\n      jump\t// in\n    tag_282:\n        /* \"#utility.yul\":12647:12676   */\n      tag_283\n        /* \"#utility.yul\":12669:12675   */\n      dup2\n        /* \"#utility.yul\":12647:12676   */\n      tag_113\n      jump\t// in\n    tag_283:\n        /* \"#utility.yul\":12642:12645   */\n      dup5\n        /* \"#utility.yul\":12638:12677   */\n      add\n        /* \"#utility.yul\":12631:12677   */\n      swap2\n      pop\n        /* \"#utility.yul\":12398:12683   */\n      pop\n        /* \"#utility.yul\":12306:12683   */\n      swap3\n      swap2\n      pop\n      pop\n      jump\t// out\n        /* \"#utility.yul\":12689:12804   */\n    tag_140:\n        /* \"#utility.yul\":12774:12797   */\n      tag_285\n        /* \"#utility.yul\":12791:12796   */\n      dup2\n        /* \"#utility.yul\":12774:12797   */\n      tag_115\n      jump\t// in\n    tag_285:\n        /* \"#utility.yul\":12769:12772   */\n      dup3\n        /* \"#utility.yul\":12762:12798   */\n      mstore\n        /* \"#utility.yul\":12689:12804   */\n      pop\n      pop\n      jump\t// out\n        /* \"#utility.yul\":12810:13870   */\n    tag_34:\n        /* \"#utility.yul\":13107:13111   */\n      0x00\n        /* \"#utility.yul\":13145:13148   */\n      0xe0\n        /* \"#utility.yul\":13134:13143   */\n      dup3\n        /* \"#utility.yul\":13130:13149   */\n      add\n        /* \"#utility.yul\":13122:13149   */\n      swap1\n      pop\n        /* \"#utility.yul\":13159:13230   */\n      tag_287\n        /* \"#utility.yul\":13227:13228   */\n      0x00\n        /* \"#utility.yul\":13216:13225   */\n      dup4\n        /* \"#utility.yul\":13212:13229   */\n      add\n        /* \"#utility.yul\":13203:13209   */\n      dup11\n        /* \"#utility.yul\":13159:13230   */\n      tag_125\n      jump\t// in\n    tag_287:\n        /* \"#utility.yul\":13240:13312   */\n      tag_288\n        /* \"#utility.yul\":13308:13310   */\n      0x20\n        /* \"#utility.yul\":13297:13306   */\n      dup4\n        /* \"#utility.yul\":13293:13311   */\n      add\n        /* \"#utility.yul\":13284:13290   */\n      dup10\n        /* \"#utility.yul\":13240:13312   */\n      tag_137\n      jump\t// in\n    tag_288:\n        /* \"#utility.yul\":13359:13368   */\n      dup2\n        /* \"#utility.yul\":13353:13357   */\n      dup2\n        /* \"#utility.yul\":13349:13369   */\n      sub\n        /* \"#utility.yul\":13344:13346   */\n      0x40\n        /* \"#utility.yul\":13333:13342   */\n      dup4\n        /* \"#utility.yul\":13329:13347   */\n      add\n        /* \"#utility.yul\":13322:13370   */\n      mstore\n        /* \"#utility.yul\":13387:13465   */\n      tag_289\n        /* \"#utility.yul\":13460:13464   */\n      dup2\n        /* \"#utility.yul\":13451:13457   */\n      dup9\n        /* \"#utility.yul\":13387:13465   */\n      tag_139\n      jump\t// in\n    tag_289:\n        /* \"#utility.yul\":13379:13465   */\n      swap1\n      pop\n        /* \"#utility.yul\":13475:13545   */\n      tag_290\n        /* \"#utility.yul\":13541:13543   */\n      0x60\n        /* \"#utility.yul\":13530:13539   */\n      dup4\n        /* \"#utility.yul\":13526:13544   */\n      add\n        /* \"#utility.yul\":13517:13523   */\n      dup8\n        /* \"#utility.yul\":13475:13545   */\n      tag_140\n      jump\t// in\n    tag_290:\n        /* \"#utility.yul\":13555:13626   */\n      tag_291\n        /* \"#utility.yul\":13621:13624   */\n      0x80\n        /* \"#utility.yul\":13610:13619   */\n      dup4\n        /* \"#utility.yul\":13606:13625   */\n      add\n        /* \"#utility.yul\":13597:13603   */\n      dup7\n        /* \"#utility.yul\":13555:13626   */\n      tag_140\n      jump\t// in\n    tag_291:\n        /* \"#utility.yul\":13674:13683   */\n      dup2\n        /* \"#utility.yul\":13668:13672   */\n      dup2\n        /* \"#utility.yul\":13664:13684   */\n      sub\n        /* \"#utility.yul\":13658:13661   */\n      0xa0\n        /* \"#utility.yul\":13647:13656   */\n      dup4\n        /* \"#utility.yul\":13643:13662   */\n      add\n        /* \"#utility.yul\":13636:13685   */\n      mstore\n        /* \"#utility.yul\":13702:13780   */\n      tag_292\n        /* \"#utility.yul\":13775:13779   */\n      dup2\n        /* \"#utility.yul\":13766:13772   */\n      dup6\n        /* \"#utility.yul\":13702:13780   */\n      tag_139\n      jump\t// in\n    tag_292:\n        /* \"#utility.yul\":13694:13780   */\n      swap1\n      pop\n        /* \"#utility.yul\":13790:13863   */\n      tag_293\n        /* \"#utility.yul\":13858:13861   */\n      0xc0\n        /* \"#utility.yul\":13847:13856   */\n      dup4\n        /* \"#utility.yul\":13843:13862   */\n      add\n        /* \"#utility.yul\":13834:13840   */\n      dup5\n        /* \"#utility.yul\":13790:13863   */\n      tag_125\n      jump\t// in\n    tag_293:\n        /* \"#utility.yul\":12810:13870   */\n      swap9\n      swap8\n      pop\n      pop\n      pop\n      pop\n      pop\n      pop\n      pop\n      pop\n      jump\t// out\n        /* \"#utility.yul\":13876:14056   */\n    tag_141:\n        /* \"#utility.yul\":13924:14001   */\n      0x4e487b7100000000000000000000000000000000000000000000000000000000\n        /* \"#utility.yul\":13921:13922   */\n      0x00\n        /* \"#utility.yul\":13914:14002   */\n      mstore\n        /* \"#utility.yul\":14021:14025   */\n      0x22\n        /* \"#utility.yul\":14018:14019   */\n      0x04\n        /* \"#utility.yul\":14011:14026   */\n      mstore\n        /* \"#utility.yul\":14045:14049   */\n      0x24\n        /* \"#utility.yul\":14042:14043   */\n      0x00\n        /* \"#utility.yul\":14035:14050   */\n      revert\n        /* \"#utility.yul\":14062:14382   */\n    tag_39:\n        /* \"#utility.yul\":14106:14112   */\n      0x00\n        /* \"#utility.yul\":14143:14144   */\n      0x02\n        /* \"#utility.yul\":14137:14141   */\n      dup3\n        /* \"#utility.yul\":14133:14145   */\n      div\n        /* \"#utility.yul\":14123:14145   */\n      swap1\n      pop\n        /* \"#utility.yul\":14190:14191   */\n      0x01\n        /* \"#utility.yul\":14184:14188   */\n      dup3\n        /* \"#utility.yul\":14180:14192   */\n      and\n        /* \"#utility.yul\":14211:14229   */\n      dup1\n        /* \"#utility.yul\":14201:14282   */\n      tag_296\n      jumpi\n        /* \"#utility.yul\":14267:14271   */\n      0x7f\n        /* \"#utility.yul\":14259:14265   */\n      dup3\n        /* \"#utility.yul\":14255:14272   */\n      and\n        /* \"#utility.yul\":14245:14272   */\n      swap2\n      pop\n        /* \"#utility.yul\":14201:14282   */\n    tag_296:\n        /* \"#utility.yul\":14329:14331   */\n      0x20\n        /* \"#utility.yul\":14321:14327   */\n      dup3\n        /* \"#utility.yul\":14318:14332   */\n      lt\n        /* \"#utility.yul\":14298:14316   */\n      dup2\n        /* \"#utility.yul\":14295:14333   */\n      sub\n        /* \"#utility.yul\":14292:14376   */\n      tag_297\n      jumpi\n        /* \"#utility.yul\":14348:14366   */\n      tag_298\n      tag_141\n      jump\t// in\n    tag_298:\n        /* \"#utility.yul\":14292:14376   */\n    tag_297:\n        /* \"#utility.yul\":14113:14382   */\n      pop\n        /* \"#utility.yul\":14062:14382   */\n      swap2\n      swap1\n      pop\n      jump\t// out\n        /* \"#utility.yul\":14388:14529   */\n    tag_142:\n        /* \"#utility.yul\":14437:14441   */\n      0x00\n        /* \"#utility.yul\":14460:14463   */\n      dup2\n        /* \"#utility.yul\":14452:14463   */\n      swap1\n      pop\n        /* \"#utility.yul\":14483:14486   */\n      dup2\n        /* \"#utility.yul\":14480:14481   */\n      0x00\n        /* \"#utility.yul\":14473:14487   */\n      mstore\n        /* \"#utility.yul\":14517:14521   */\n      0x20\n        /* \"#utility.yul\":14514:14515   */\n      0x00\n        /* \"#utility.yul\":14504:14522   */\n      keccak256\n        /* \"#utility.yul\":14496:14522   */\n      swap1\n      pop\n        /* \"#utility.yul\":14388:14529   */\n      swap2\n      swap1\n      pop\n      jump\t// out\n        /* \"#utility.yul\":14535:14628   */\n    tag_143:\n        /* \"#utility.yul\":14572:14578   */\n      0x00\n        /* \"#utility.yul\":14619:14621   */\n      0x20\n        /* \"#utility.yul\":14614:14616   */\n      0x1f\n        /* \"#utility.yul\":14607:14612   */\n      dup4\n        /* \"#utility.yul\":14603:14617   */\n      add\n        /* \"#utility.yul\":14599:14622   */\n      div\n        /* \"#utility.yul\":14589:14622   */\n      swap1\n      pop\n        /* \"#utility.yul\":14535:14628   */\n      swap2\n      swap1\n      pop\n      jump\t// out\n        /* \"#utility.yul\":14634:14741   */\n    tag_144:\n        /* \"#utility.yul\":14678:14686   */\n      0x00\n        /* \"#utility.yul\":14728:14733   */\n      dup3\n        /* \"#utility.yul\":14722:14726   */\n      dup3\n        /* \"#utility.yul\":14718:14734   */\n      shl\n        /* \"#utility.yul\":14697:14734   */\n      swap1\n      pop\n        /* \"#utility.yul\":14634:14741   */\n      swap3\n      swap2\n      pop\n      pop\n      jump\t// out\n        /* \"#utility.yul\":14747:15140   */\n    tag_145:\n        /* \"#utility.yul\":14816:14822   */\n      0x00\n        /* \"#utility.yul\":14866:14867   */\n      0x08\n        /* \"#utility.yul\":14854:14864   */\n      dup4\n        /* \"#utility.yul\":14850:14868   */\n      mul\n        /* \"#utility.yul\":14889:14986   */\n      tag_303\n        /* \"#utility.yul\":14919:14985   */\n      0xffffffffffffffffffffffffffffffffffffffffffffffffffffffffffffffff\n        /* \"#utility.yul\":14908:14917   */\n      dup3\n        /* \"#utility.yul\":14889:14986   */\n      tag_144\n      jump\t// in\n    tag_303:\n        /* \"#utility.yul\":15007:15046   */\n      tag_304\n        /* \"#utility.yul\":15037:15045   */\n      dup7\n        /* \"#utility.yul\":15026:15035   */\n      dup4\n        /* \"#utility.yul\":15007:15046   */\n      tag_144\n      jump\t// in\n    tag_304:\n        /* \"#utility.yul\":14995:15046   */\n      swap6\n      pop\n        /* \"#utility.yul\":15079:15083   */\n      dup1\n        /* \"#utility.yul\":15075:15084   */\n      not\n        /* \"#utility.yul\":15068:15073   */\n      dup5\n        /* \"#utility.yul\":15064:15085   */\n      and\n        /* \"#utility.yul\":15055:15085   */\n      swap4\n      pop\n        /* \"#utility.yul\":15128:15132   */\n      dup1\n        /* \"#utility.yul\":15118:15126   */\n      dup7\n        /* \"#utility.yul\":15114:15133   */\n      and\n        /* \"#utility.yul\":15107:15112   */\n      dup5\n        /* \"#utility.yul\":15104:15134   */\n      or\n        /* \"#utility.yul\":15094:15134   */\n      swap3\n      pop\n        /* \"#utility.yul\":14823:15140   */\n      pop\n      pop\n        /* \"#utility.yul\":14747:15140   */\n      swap4\n      swap3\n      pop\n      pop\n      pop\n      jump\t// out\n        /* \"#utility.yul\":15146:15206   */\n    tag_146:\n        /* \"#utility.yul\":15174:15177   */\n      0x00\n        /* \"#utility.yul\":15195:15200   */\n      dup2\n        /* \"#utility.yul\":15188:15200   */\n      swap1\n      pop\n        /* \"#utility.yul\":15146:15206   */\n      swap2\n      swap1\n      pop\n      jump\t// out\n        /* \"#utility.yul\":15212:15354   */\n    tag_147:\n        /* \"#utility.yul\":15262:15271   */\n      0x00\n        /* \"#utility.yul\":15295:15348   */\n      tag_307\n        /* \"#utility.yul\":15313:15347   */\n      tag_308\n        /* \"#utility.yul\":15322:15346   */\n      tag_309\n        /* \"#utility.yul\":15340:15345   */\n      dup5\n        /* \"#utility.yul\":15322:15346   */\n      tag_103\n      jump\t// in\n    tag_309:\n        /* \"#utility.yul\":15313:15347   */\n      tag_146\n      jump\t// in\n    tag_308:\n        /* \"#utility.yul\":15295:15348   */\n      tag_103\n      jump\t// in\n    tag_307:\n        /* \"#utility.yul\":15282:15348   */\n      swap1\n      pop\n        /* \"#utility.yul\":15212:15354   */\n      swap2\n      swap1\n      pop\n      jump\t// out\n        /* \"#utility.yul\":15360:15435   */\n    tag_148:\n        /* \"#utility.yul\":15403:15406   */\n      0x00\n        /* \"#utility.yul\":15424:15429   */\n      dup2\n        /* \"#utility.yul\":15417:15429   */\n      swap1\n      pop\n        /* \"#utility.yul\":15360:15435   */\n      swap2\n      swap1\n      pop\n      jump\t// out\n        /* \"#utility.yul\":15441:15710   */\n    tag_149:\n        /* \"#utility.yul\":15551:15590   */\n      tag_312\n        /* \"#utility.yul\":15582:15589   */\n      dup4\n        /* \"#utility.yul\":15551:15590   */\n      tag_147\n      jump\t// in\n    tag_312:\n        /* \"#utility.yul\":15612:15703   */\n      tag_313\n        /* \"#utility.yul\":15661:15702   */\n      tag_314\n        /* \"#utility.yul\":15685:15701   */\n      dup3\n        /* \"#utility.yul\":15661:15702   */\n      tag_148\n      jump\t// in\n    tag_314:\n        /* \"#utility.yul\":15653:15659   */\n      dup5\n        /* \"#utility.yul\":15646:15650   */\n      dup5\n        /* \"#utility.yul\":15640:15651   */\n      sload\n        /* \"#utility.yul\":15612:15703   */\n      tag_145\n      jump\t// in\n    tag_313:\n        /* \"#utility.yul\":15606:15610   */\n      dup3\n        /* \"#utility.yul\":15599:15704   */\n      sstore\n        /* \"#utility.yul\":15517:15710   */\n      pop\n        /* \"#utility.yul\":15441:15710   */\n      pop\n      pop\n      pop\n      jump\t// out\n        /* \"#utility.yul\":15716:15789   */\n    tag_150:\n        /* \"#utility.yul\":15761:15764   */\n      0x00\n        /* \"#utility.yul\":15716:15789   */\n      swap1\n      jump\t// out\n        /* \"#utility.yul\":15795:15984   */\n    tag_151:\n        /* \"#utility.yul\":15872:15904   */\n      tag_317\n      tag_150\n      jump\t// in\n    tag_317:\n        /* \"#utility.yul\":15913:15978   */\n      tag_318\n        /* \"#utility.yul\":15971:15977   */\n      dup2\n        /* \"#utility.yul\":15963:15969   */\n      dup5\n        /* \"#utility.yul\":15957:15961   */\n      dup5\n        /* \"#utility.yul\":15913:15978   */\n      tag_149\n      jump\t// in\n    tag_318:\n        /* \"#utility.yul\":15848:15984   */\n      pop\n        /* \"#utility.yul\":15795:15984   */\n      pop\n      pop\n      jump\t// out\n        /* \"#utility.yul\":15990:16176   */\n    tag_152:\n        /* \"#utility.yul\":16050:16170   */\n    tag_320:\n        /* \"#utility.yul\":16067:16070   */\n      dup2\n        /* \"#utility.yul\":16060:16065   */\n      dup2\n        /* \"#utility.yul\":16057:16071   */\n      lt\n        /* \"#utility.yul\":16050:16170   */\n      iszero\n      tag_322\n      jumpi\n        /* \"#utility.yul\":16121:16160   */\n      tag_323\n        /* \"#utility.yul\":16158:16159   */\n      0x00\n        /* \"#utility.yul\":16151:16156   */\n      dup3\n        /* \"#utility.yul\":16121:16160   */\n      tag_151\n      jump\t// in\n    tag_323:\n        /* \"#utility.yul\":16094:16095   */\n      0x01\n        /* \"#utility.yul\":16087:16092   */\n      dup2\n        /* \"#utility.yul\":16083:16096   */\n      add\n        /* \"#utility.yul\":16074:16096   */\n      swap1\n      pop\n        /* \"#utility.yul\":16050:16170   */\n      jump(tag_320)\n    tag_322:\n        /* \"#utility.yul\":15990:16176   */\n      pop\n      pop\n      jump\t// out\n        /* \"#utility.yul\":16182:16725   */\n    tag_153:\n        /* \"#utility.yul\":16283:16285   */\n      0x1f\n        /* \"#utility.yul\":16278:16281   */\n      dup3\n        /* \"#utility.yul\":16275:16286   */\n      gt\n        /* \"#utility.yul\":16272:16718   */\n      iszero\n      tag_325\n      jumpi\n        /* \"#utility.yul\":16317:16355   */\n      tag_326\n        /* \"#utility.yul\":16349:16354   */\n      dup2\n        /* \"#utility.yul\":16317:16355   */\n      tag_142\n      jump\t// in\n    tag_326:\n        /* \"#utility.yul\":16401:16430   */\n      tag_327\n        /* \"#utility.yul\":16419:16429   */\n      dup5\n        /* \"#utility.yul\":16401:16430   */\n      tag_143\n      jump\t// in\n    tag_327:\n        /* \"#utility.yul\":16391:16399   */\n      dup2\n        /* \"#utility.yul\":16387:16431   */\n      add\n        /* \"#utility.yul\":16584:16586   */\n      0x20\n        /* \"#utility.yul\":16572:16582   */\n      dup6\n        /* \"#utility.yul\":16569:16587   */\n      lt\n        /* \"#utility.yul\":16566:16615   */\n      iszero\n      tag_328\n      jumpi\n        /* \"#utility.yul\":16605:16613   */\n      dup2\n        /* \"#utility.yul\":16590:16613   */\n      swap1\n      pop\n        /* \"#utility.yul\":16566:16615   */\n    tag_328:\n        /* \"#utility.yul\":16628:16708   */\n      tag_329\n        /* \"#utility.yul\":16684:16706   */\n      tag_330\n        /* \"#utility.yul\":16702:16705   */\n      dup6\n        /* \"#utility.yul\":16684:16706   */\n      tag_143\n      jump\t// in\n    tag_330:\n        /* \"#utility.yul\":16674:16682   */\n      dup4\n        /* \"#utility.yul\":16670:16707   */\n      add\n        /* \"#utility.yul\":16657:16668   */\n      dup3\n        /* \"#utility.yul\":16628:16708   */\n      tag_152\n      jump\t// in\n    tag_329:\n        /* \"#utility.yul\":16287:16718   */\n      pop\n      pop\n        /* \"#utility.yul\":16272:16718   */\n    tag_325:\n        /* \"#utility.yul\":16182:16725   */\n      pop\n      pop\n      pop\n      jump\t// out\n        /* \"#utility.yul\":16731:16848   */\n    tag_154:\n        /* \"#utility.yul\":16785:16793   */\n      0x00\n        /* \"#utility.yul\":16835:16840   */\n      dup3\n        /* \"#utility.yul\":16829:16833   */\n      dup3\n        /* \"#utility.yul\":16825:16841   */\n      shr\n        /* \"#utility.yul\":16804:16841   */\n      swap1\n      pop\n        /* \"#utility.yul\":16731:16848   */\n      swap3\n      swap2\n      pop\n      pop\n      jump\t// out\n        /* \"#utility.yul\":16854:17023   */\n    tag_155:\n        /* \"#utility.yul\":16898:16904   */\n      0x00\n        /* \"#utility.yul\":16931:16982   */\n      tag_333\n        /* \"#utility.yul\":16979:16980   */\n      0x00\n        /* \"#utility.yul\":16975:16981   */\n      not\n        /* \"#utility.yul\":16967:16972   */\n      dup5\n        /* \"#utility.yul\":16964:16965   */\n      0x08\n        /* \"#utility.yul\":16960:16973   */\n      mul\n        /* \"#utility.yul\":16931:16982   */\n      tag_154\n      jump\t// in\n    tag_333:\n        /* \"#utility.yul\":16927:16983   */\n      not\n        /* \"#utility.yul\":17012:17016   */\n      dup1\n        /* \"#utility.yul\":17006:17010   */\n      dup4\n        /* \"#utility.yul\":17002:17017   */\n      and\n        /* \"#utility.yul\":16992:17017   */\n      swap2\n      pop\n        /* \"#utility.yul\":16905:17023   */\n      pop\n        /* \"#utility.yul\":16854:17023   */\n      swap3\n      swap2\n      pop\n      pop\n      jump\t// out\n        /* \"#utility.yul\":17028:17323   */\n    tag_156:\n        /* \"#utility.yul\":17104:17108   */\n      0x00\n        /* \"#utility.yul\":17250:17279   */\n      tag_335\n        /* \"#utility.yul\":17275:17278   */\n      dup4\n        /* \"#utility.yul\":17269:17273   */\n      dup4\n        /* \"#utility.yul\":17250:17279   */\n      tag_155\n      jump\t// in\n    tag_335:\n        /* \"#utility.yul\":17242:17279   */\n      swap2\n      pop\n        /* \"#utility.yul\":17312:17315   */\n      dup3\n        /* \"#utility.yul\":17309:17310   */\n      0x02\n        /* \"#utility.yul\":17305:17316   */\n      mul\n        /* \"#utility.yul\":17299:17303   */\n      dup3\n        /* \"#utility.yul\":17296:17317   */\n      or\n        /* \"#utility.yul\":17288:17317   */\n      swap1\n      pop\n        /* \"#utility.yul\":17028:17323   */\n      swap3\n      swap2\n      pop\n      pop\n      jump\t// out\n        /* \"#utility.yul\":17328:18723   */\n    tag_56:\n        /* \"#utility.yul\":17445:17482   */\n      tag_337\n        /* \"#utility.yul\":17478:17481   */\n      dup3\n        /* \"#utility.yul\":17445:17482   */\n      tag_110\n      jump\t// in\n    tag_337:\n        /* \"#utility.yul\":17547:17565   */\n      0xffffffffffffffff\n        /* \"#utility.yul\":17539:17545   */\n      dup2\n        /* \"#utility.yul\":17536:17566   */\n      gt\n        /* \"#utility.yul\":17533:17589   */\n      iszero\n      tag_338\n      jumpi\n        /* \"#utility.yul\":17569:17587   */\n      tag_339\n      tag_128\n      jump\t// in\n    tag_339:\n        /* \"#utility.yul\":17533:17589   */\n    tag_338:\n        /* \"#utility.yul\":17613:17651   */\n      tag_340\n        /* \"#utility.yul\":17645:17649   */\n      dup3\n        /* \"#utility.yul\":17639:17650   */\n      sload\n        /* \"#utility.yul\":17613:17651   */\n      tag_39\n      jump\t// in\n    tag_340:\n        /* \"#utility.yul\":17698:17765   */\n      tag_341\n        /* \"#utility.yul\":17758:17764   */\n      dup3\n        /* \"#utility.yul\":17750:17756   */\n      dup3\n        /* \"#utility.yul\":17744:17748   */\n      dup6\n        /* \"#utility.yul\":17698:17765   */\n      tag_153\n      jump\t// in\n    tag_341:\n        /* \"#utility.yul\":17792:17793   */\n      0x00\n        /* \"#utility.yul\":17816:17820   */\n      0x20\n        /* \"#utility.yul\":17803:17820   */\n      swap1\n      pop\n        /* \"#utility.yul\":17848:17850   */\n      0x1f\n        /* \"#utility.yul\":17840:17846   */\n      dup4\n        /* \"#utility.yul\":17837:17851   */\n      gt\n        /* \"#utility.yul\":17865:17866   */\n      0x01\n        /* \"#utility.yul\":17860:18478   */\n      dup2\n      eq\n      tag_343\n      jumpi\n        /* \"#utility.yul\":18522:18523   */\n      0x00\n        /* \"#utility.yul\":18539:18545   */\n      dup5\n        /* \"#utility.yul\":18536:18613   */\n      iszero\n      tag_344\n      jumpi\n        /* \"#utility.yul\":18588:18597   */\n      dup3\n        /* \"#utility.yul\":18583:18586   */\n      dup8\n        /* \"#utility.yul\":18579:18598   */\n      add\n        /* \"#utility.yul\":18573:18599   */\n      mload\n        /* \"#utility.yul\":18564:18599   */\n      swap1\n      pop\n        /* \"#utility.yul\":18536:18613   */\n    tag_344:\n        /* \"#utility.yul\":18639:18706   */\n      tag_345\n        /* \"#utility.yul\":18699:18705   */\n      dup6\n        /* \"#utility.yul\":18692:18697   */\n      dup3\n        /* \"#utility.yul\":18639:18706   */\n      tag_156\n      jump\t// in\n    tag_345:\n        /* \"#utility.yul\":18633:18637   */\n      dup7\n        /* \"#utility.yul\":18626:18707   */\n      sstore\n        /* \"#utility.yul\":18495:18717   */\n      pop\n        /* \"#utility.yul\":17830:18717   */\n      jump(tag_342)\n        /* \"#utility.yul\":17860:18478   */\n    tag_343:\n        /* \"#utility.yul\":17912:17916   */\n      0x1f\n        /* \"#utility.yul\":17908:17917   */\n      not\n        /* \"#utility.yul\":17900:17906   */\n      dup5\n        /* \"#utility.yul\":17896:17918   */\n      and\n        /* \"#utility.yul\":17946:17983   */\n      tag_346\n        /* \"#utility.yul\":17978:17982   */\n      dup7\n        /* \"#utility.yul\":17946:17983   */\n      tag_142\n      jump\t// in\n    tag_346:\n        /* \"#utility.yul\":18005:18006   */\n      0x00\n        /* \"#utility.yul\":18019:18227   */\n    tag_347:\n        /* \"#utility.yul\":18033:18040   */\n      dup3\n        /* \"#utility.yul\":18030:18031   */\n      dup2\n        /* \"#utility.yul\":18027:18041   */\n      lt\n        /* \"#utility.yul\":18019:18227   */\n      iszero\n      tag_349\n      jumpi\n        /* \"#utility.yul\":18112:18121   */\n      dup5\n        /* \"#utility.yul\":18107:18110   */\n      dup10\n        /* \"#utility.yul\":18103:18122   */\n      add\n        /* \"#utility.yul\":18097:18123   */\n      mload\n        /* \"#utility.yul\":18089:18095   */\n      dup3\n        /* \"#utility.yul\":18082:18124   */\n      sstore\n        /* \"#utility.yul\":18163:18164   */\n      0x01\n        /* \"#utility.yul\":18155:18161   */\n      dup3\n        /* \"#utility.yul\":18151:18165   */\n      add\n        /* \"#utility.yul\":18141:18165   */\n      swap2\n      pop\n        /* \"#utility.yul\":18210:18212   */\n      0x20\n        /* \"#utility.yul\":18199:18208   */\n      dup6\n        /* \"#utility.yul\":18195:18213   */\n      add\n        /* \"#utility.yul\":18182:18213   */\n      swap5\n      pop\n        /* \"#utility.yul\":18056:18060   */\n      0x20\n        /* \"#utility.yul\":18053:18054   */\n      dup2\n        /* \"#utility.yul\":18049:18061   */\n      add\n        /* \"#utility.yul\":18044:18061   */\n      swap1\n      pop\n        /* \"#utility.yul\":18019:18227   */\n      jump(tag_347)\n    tag_349:\n        /* \"#utility.yul\":18255:18261   */\n      dup7\n        /* \"#utility.yul\":18246:18253   */\n      dup4\n        /* \"#utility.yul\":18243:18262   */\n      lt\n        /* \"#utility.yul\":18240:18419   */\n      iszero\n      tag_350\n      jumpi\n        /* \"#utility.yul\":18313:18322   */\n      dup5\n        /* \"#utility.yul\":18308:18311   */\n      dup10\n        /* \"#utility.yul\":18304:18323   */\n      add\n        /* \"#utility.yul\":18298:18324   */\n      mload\n        /* \"#utility.yul\":18356:18404   */\n      tag_351\n        /* \"#utility.yul\":18398:18402   */\n      0x1f\n        /* \"#utility.yul\":18390:18396   */\n      dup10\n        /* \"#utility.yul\":18386:18403   */\n      and\n        /* \"#utility.yul\":18375:18384   */\n      dup3\n        /* \"#utility.yul\":18356:18404   */\n      tag_155\n      jump\t// in\n    tag_351:\n        /* \"#utility.yul\":18348:18354   */\n      dup4\n        /* \"#utility.yul\":18341:18405   */\n      sstore\n        /* \"#utility.yul\":18263:18419   */\n      pop\n        /* \"#utility.yul\":18240:18419   */\n    tag_350:\n        /* \"#utility.yul\":18465:18466   */\n      0x01\n        /* \"#utility.yul\":18461:18462   */\n      0x02\n        /* \"#utility.yul\":18453:18459   */\n      dup9\n        /* \"#utility.yul\":18449:18463   */\n      mul\n        /* \"#utility.yul\":18445:18467   */\n      add\n        /* \"#utility.yul\":18439:18443   */\n      dup9\n        /* \"#utility.yul\":18432:18468   */\n      sstore\n        /* \"#utility.yul\":17867:18478   */\n      pop\n      pop\n      pop\n        /* \"#utility.yul\":17830:18717   */\n    tag_342:\n      pop\n        /* \"#utility.yul\":17420:18723   */\n      pop\n      pop\n      pop\n        /* \"#utility.yul\":17328:18723   */\n      pop\n      pop\n      jump\t// out\n        /* \"#utility.yul\":18729:19042   */\n    tag_59:\n        /* \"#utility.yul\":18842:18846   */\n      0x00\n        /* \"#utility.yul\":18880:18882   */\n      0x20\n        /* \"#utility.yul\":18869:18878   */\n      dup3\n        /* \"#utility.yul\":18865:18883   */\n      add\n        /* \"#utility.yul\":18857:18883   */\n      swap1\n      pop\n        /* \"#utility.yul\":18929:18938   */\n      dup2\n        /* \"#utility.yul\":18923:18927   */\n      dup2\n        /* \"#utility.yul\":18919:18939   */\n      sub\n        /* \"#utility.yul\":18915:18916   */\n      0x00\n        /* \"#utility.yul\":18904:18913   */\n      dup4\n        /* \"#utility.yul\":18900:18917   */\n      add\n        /* \"#utility.yul\":18893:18940   */\n      mstore\n        /* \"#utility.yul\":18957:19035   */\n      tag_353\n        /* \"#utility.yul\":19030:19034   */\n      dup2\n        /* \"#utility.yul\":19021:19027   */\n      dup5\n        /* \"#utility.yul\":18957:19035   */\n      tag_139\n      jump\t// in\n    tag_353:\n        /* \"#utility.yul\":18949:19035   */\n      swap1\n      pop\n        /* \"#utility.yul\":18729:19042   */\n      swap3\n      swap2\n      pop\n      pop\n      jump\t// out\n        /* \"#utility.yul\":19048:19228   */\n    tag_157:\n        /* \"#utility.yul\":19096:19173   */\n      0x4e487b7100000000000000000000000000000000000000000000000000000000\n        /* \"#utility.yul\":19093:19094   */\n      0x00\n        /* \"#utility.yul\":19086:19174   */\n      mstore\n        /* \"#utility.yul\":19193:19197   */\n      0x11\n        /* \"#utility.yul\":19190:19191   */\n      0x04\n        /* \"#utility.yul\":19183:19198   */\n      mstore\n        /* \"#utility.yul\":19217:19221   */\n      0x24\n        /* \"#utility.yul\":19214:19215   */\n      0x00\n        /* \"#utility.yul\":19207:19222   */\n      revert\n        /* \"#utility.yul\":19234:19467   */\n    tag_61:\n        /* \"#utility.yul\":19273:19276   */\n      0x00\n        /* \"#utility.yul\":19296:19320   */\n      tag_356\n        /* \"#utility.yul\":19314:19319   */\n      dup3\n        /* \"#utility.yul\":19296:19320   */\n      tag_103\n      jump\t// in\n    tag_356:\n        /* \"#utility.yul\":19287:19320   */\n      swap2\n      pop\n        /* \"#utility.yul\":19342:19408   */\n      0xffffffffffffffffffffffffffffffffffffffffffffffffffffffffffffffff\n        /* \"#utility.yul\":19335:19340   */\n      dup3\n        /* \"#utility.yul\":19332:19409   */\n      sub\n        /* \"#utility.yul\":19329:19432   */\n      tag_357\n      jumpi\n        /* \"#utility.yul\":19412:19430   */\n      tag_358\n      tag_157\n      jump\t// in\n    tag_358:\n        /* \"#utility.yul\":19329:19432   */\n    tag_357:\n        /* \"#utility.yul\":19459:19460   */\n      0x01\n        /* \"#utility.yul\":19452:19457   */\n      dup3\n        /* \"#utility.yul\":19448:19461   */\n      add\n        /* \"#utility.yul\":19441:19461   */\n      swap1\n      pop\n        /* \"#utility.yul\":19234:19467   */\n      swap2\n      swap1\n      pop\n      jump\t// out\n        /* \"#utility.yul\":19473:19699   */\n    tag_158:\n        /* \"#utility.yul\":19613:19647   */\n      0x596f7520617265206e6f7420746865206f776e6572206f662074686973207072\n        /* \"#utility.yul\":19609:19610   */\n      0x00\n        /* \"#utility.yul\":19601:19607   */\n      dup3\n        /* \"#utility.yul\":19597:19611   */\n      add\n        /* \"#utility.yul\":19590:19648   */\n      mstore\n        /* \"#utility.yul\":19682:19691   */\n      0x6f70657274792e00000000000000000000000000000000000000000000000000\n        /* \"#utility.yul\":19677:19679   */\n      0x20\n        /* \"#utility.yul\":19669:19675   */\n      dup3\n        /* \"#utility.yul\":19665:19680   */\n      add\n        /* \"#utility.yul\":19658:19692   */\n      mstore\n        /* \"#utility.yul\":19473:19699   */\n      pop\n      jump\t// out\n        /* \"#utility.yul\":19705:20071   */\n    tag_159:\n        /* \"#utility.yul\":19847:19850   */\n      0x00\n        /* \"#utility.yul\":19868:19935   */\n      tag_361\n        /* \"#utility.yul\":19932:19934   */\n      0x27\n        /* \"#utility.yul\":19927:19930   */\n      dup4\n        /* \"#utility.yul\":19868:19935   */\n      tag_138\n      jump\t// in\n    tag_361:\n        /* \"#utility.yul\":19861:19935   */\n      swap2\n      pop\n        /* \"#utility.yul\":19944:20037   */\n      tag_362\n        /* \"#utility.yul\":20033:20036   */\n      dup3\n        /* \"#utility.yul\":19944:20037   */\n      tag_158\n      jump\t// in\n    tag_362:\n        /* \"#utility.yul\":20062:20064   */\n      0x40\n        /* \"#utility.yul\":20057:20060   */\n      dup3\n        /* \"#utility.yul\":20053:20065   */\n      add\n        /* \"#utility.yul\":20046:20065   */\n      swap1\n      pop\n        /* \"#utility.yul\":19705:20071   */\n      swap2\n      swap1\n      pop\n      jump\t// out\n        /* \"#utility.yul\":20077:20496   */\n    tag_65:\n        /* \"#utility.yul\":20243:20247   */\n      0x00\n        /* \"#utility.yul\":20281:20283   */\n      0x20\n        /* \"#utility.yul\":20270:20279   */\n      dup3\n        /* \"#utility.yul\":20266:20284   */\n      add\n        /* \"#utility.yul\":20258:20284   */\n      swap1\n      pop\n        /* \"#utility.yul\":20330:20339   */\n      dup2\n        /* \"#utility.yul\":20324:20328   */\n      dup2\n        /* \"#utility.yul\":20320:20340   */\n      sub\n        /* \"#utility.yul\":20316:20317   */\n      0x00\n        /* \"#utility.yul\":20305:20314   */\n      dup4\n        /* \"#utility.yul\":20301:20318   */\n      add\n        /* \"#utility.yul\":20294:20341   */\n      mstore\n        /* \"#utility.yul\":20358:20489   */\n      tag_364\n        /* \"#utility.yul\":20484:20488   */\n      dup2\n        /* \"#utility.yul\":20358:20489   */\n      tag_159\n      jump\t// in\n    tag_364:\n        /* \"#utility.yul\":20350:20489   */\n      swap1\n      pop\n        /* \"#utility.yul\":20077:20496   */\n      swap2\n      swap1\n      pop\n      jump\t// out\n        /* \"#utility.yul\":20502:20671   */\n    tag_160:\n        /* \"#utility.yul\":20642:20663   */\n      0x496e76616c69642070726f706572747920494400000000000000000000000000\n        /* \"#utility.yul\":20638:20639   */\n      0x00\n        /* \"#utility.yul\":20630:20636   */\n      dup3\n        /* \"#utility.yul\":20626:20640   */\n      add\n        /* \"#utility.yul\":20619:20664   */\n      mstore\n        /* \"#utility.yul\":20502:20671   */\n      pop\n      jump\t// out\n        /* \"#utility.yul\":20677:21043   */\n    tag_161:\n        /* \"#utility.yul\":20819:20822   */\n      0x00\n        /* \"#utility.yul\":20840:20907   */\n      tag_367\n        /* \"#utility.yul\":20904:20906   */\n      0x13\n        /* \"#utility.yul\":20899:20902   */\n      dup4\n        /* \"#utility.yul\":20840:20907   */\n      tag_138\n      jump\t// in\n    tag_367:\n        /* \"#utility.yul\":20833:20907   */\n      swap2\n      pop\n        /* \"#utility.yul\":20916:21009   */\n      tag_368\n        /* \"#utility.yul\":21005:21008   */\n      dup3\n        /* \"#utility.yul\":20916:21009   */\n      tag_160\n      jump\t// in\n    tag_368:\n        /* \"#utility.yul\":21034:21036   */\n      0x20\n        /* \"#utility.yul\":21029:21032   */\n      dup3\n        /* \"#utility.yul\":21025:21037   */\n      add\n        /* \"#utility.yul\":21018:21037   */\n      swap1\n      pop\n        /* \"#utility.yul\":20677:21043   */\n      swap2\n      swap1\n      pop\n      jump\t// out\n        /* \"#utility.yul\":21049:21468   */\n    tag_69:\n        /* \"#utility.yul\":21215:21219   */\n      0x00\n        /* \"#utility.yul\":21253:21255   */\n      0x20\n        /* \"#utility.yul\":21242:21251   */\n      dup3\n        /* \"#utility.yul\":21238:21256   */\n      add\n        /* \"#utility.yul\":21230:21256   */\n      swap1\n      pop\n        /* \"#utility.yul\":21302:21311   */\n      dup2\n        /* \"#utility.yul\":21296:21300   */\n      dup2\n        /* \"#utility.yul\":21292:21312   */\n      sub\n        /* \"#utility.yul\":21288:21289   */\n      0x00\n        /* \"#utility.yul\":21277:21286   */\n      dup4\n        /* \"#utility.yul\":21273:21290   */\n      add\n        /* \"#utility.yul\":21266:21313   */\n      mstore\n        /* \"#utility.yul\":21330:21461   */\n      tag_370\n        /* \"#utility.yul\":21456:21460   */\n      dup2\n        /* \"#utility.yul\":21330:21461   */\n      tag_161\n      jump\t// in\n    tag_370:\n        /* \"#utility.yul\":21322:21461   */\n      swap1\n      pop\n        /* \"#utility.yul\":21049:21468   */\n      swap2\n      swap1\n      pop\n      jump\t// out\n        /* \"#utility.yul\":21474:21645   */\n    tag_77:\n        /* \"#utility.yul\":21513:21516   */\n      0x00\n        /* \"#utility.yul\":21536:21560   */\n      tag_372\n        /* \"#utility.yul\":21554:21559   */\n      dup3\n        /* \"#utility.yul\":21536:21560   */\n      tag_103\n      jump\t// in\n    tag_372:\n        /* \"#utility.yul\":21527:21560   */\n      swap2\n      pop\n        /* \"#utility.yul\":21582:21586   */\n      0x00\n        /* \"#utility.yul\":21575:21580   */\n      dup3\n        /* \"#utility.yul\":21572:21587   */\n      sub\n        /* \"#utility.yul\":21569:21610   */\n      tag_373\n      jumpi\n        /* \"#utility.yul\":21590:21608   */\n      tag_374\n      tag_157\n      jump\t// in\n    tag_374:\n        /* \"#utility.yul\":21569:21610   */\n    tag_373:\n        /* \"#utility.yul\":21637:21638   */\n      0x01\n        /* \"#utility.yul\":21630:21635   */\n      dup3\n        /* \"#utility.yul\":21626:21639   */\n      sub\n        /* \"#utility.yul\":21619:21639   */\n      swap1\n      pop\n        /* \"#utility.yul\":21474:21645   */\n      swap2\n      swap1\n      pop\n      jump\t// out\n\n    auxdata: 0xa2646970667358221220f114e9da5b8a26de6310787dc046489da6d4310e680425bfcebe58d1b371289b64736f6c63430008190033\n}\n",
				"bytecode": {
					"linkReferences": {},
					"object": "6080604052348015600e575f80fd5b506114148061001c5f395ff3fe608060405234801561000f575f80fd5b5060043610610060575f3560e01c806332665ffb1461006457806339500f34146100945780636989a649146100b2578063abdb64d4146100ce578063bc43d06f146100ea578063f7b1080814610106575b5f80fd5b61007e60048036038101906100799190610955565b61013c565b60405161008b9190610be6565b60405180910390f35b61009c610372565b6040516100a99190610c15565b60405180910390f35b6100cc60048036038101906100c79190610c2e565b610378565b005b6100e860048036038101906100e39190610dd4565b6103df565b005b61010460048036038101906100ff9190610955565b6104ef565b005b610120600480360381019061011b9190610955565b6106b6565b6040516101339796959493929190610ee9565b60405180910390f35b61014461081e565b5f808381526020019081526020015f20604051806101000160405290815f8201548152602001600182015f9054906101000a900473ffffffffffffffffffffffffffffffffffffffff1673ffffffffffffffffffffffffffffffffffffffff1673ffffffffffffffffffffffffffffffffffffffff1681526020016002820180546101ce90610f91565b80601f01602080910402602001604051908101604052809291908181526020018280546101fa90610f91565b80156102455780601f1061021c57610100808354040283529160200191610245565b820191905f5260205f20905b81548152906001019060200180831161022857829003601f168201915b50505050508152602001600382015481526020016004820154815260200160058201805461027290610f91565b80601f016020809104026020016040519081016040528092919081815260200182805461029e90610f91565b80156102e95780601f106102c0576101008083540402835291602001916102e9565b820191905f5260205f20905b8154815290600101906020018083116102cc57829003601f168201915b505050505081526020016006820154815260200160078201805480602002602001604051908101604052809291908181526020015f905b82821015610363578382905f5260205f2090600202016040518060400160405290815f820154815260200160018201548152505081526020019060010190610320565b50505050815250509050919050565b60015481565b5f808481526020019081526020015f20600701604051806040016040528084815260200183815250908060018154018082558091505060019003905f5260205f2090600202015f909190919091505f820151815f0155602082015181600101555050505050565b5f805f60015481526020019081526020015f209050600154815f018190555033816001015f6101000a81548173ffffffffffffffffffffffffffffffffffffffff021916908373ffffffffffffffffffffffffffffffffffffffff16021790555085816002019081610451919061115e565b5082816003018190555081816004018190555084816005019081610475919061115e565b508381600601819055503373ffffffffffffffffffffffffffffffffffffffff166001547f92f2b8d9ae69a40be928a502c6bcc369ce8a0b2e902151bb63909295f4ce749e886040516104c8919061122d565b60405180910390a360015f8154809291906104e29061127a565b9190505550505050505050565b803373ffffffffffffffffffffffffffffffffffffffff165f808381526020019081526020015f206001015f9054906101000a900473ffffffffffffffffffffffffffffffffffffffff1673ffffffffffffffffffffffffffffffffffffffff1614610590576040517f08c379a000000000000000000000000000000000000000000000000000000000815260040161058790611331565b60405180910390fd5b8160015481106105d5576040517f08c379a00000000000000000000000000000000000000000000000000000000081526004016105cc90611399565b60405180910390fd5b3373ffffffffffffffffffffffffffffffffffffffff16837f3b11f341dfbadfb1b92ff5b9bf7c88094058c008e6b67c47ae29f690a30beb6960405160405180910390a35f808481526020019081526020015f205f8082015f9055600182015f6101000a81549073ffffffffffffffffffffffffffffffffffffffff0219169055600282015f6106659190610874565b600382015f9055600482015f9055600582015f6106829190610874565b600682015f9055600782015f61069891906108b1565b505060015f8154809291906106ac906113b7565b9190505550505050565b5f602052805f5260405f205f91509050805f015490806001015f9054906101000a900473ffffffffffffffffffffffffffffffffffffffff16908060020180546106ff90610f91565b80601f016020809104026020016040519081016040528092919081815260200182805461072b90610f91565b80156107765780601f1061074d57610100808354040283529160200191610776565b820191905f5260205f20905b81548152906001019060200180831161075957829003601f168201915b50505050509080600301549080600401549080600501805461079790610f91565b80601f01602080910402602001604051908101604052809291908181526020018280546107c390610f91565b801561080e5780601f106107e55761010080835404028352916020019161080e565b820191905f5260205f20905b8154815290600101906020018083116107f157829003601f168201915b5050505050908060060154905087565b6040518061010001604052805f81526020015f73ffffffffffffffffffffffffffffffffffffffff168152602001606081526020015f81526020015f8152602001606081526020015f8152602001606081525090565b50805461088090610f91565b5f825580601f1061089157506108ae565b601f0160209004905f5260205f20908101906108ad91906108d2565b5b50565b5080545f8255600202905f5260205f20908101906108cf91906108ed565b50565b5b808211156108e9575f815f9055506001016108d3565b5090565b5b8082111561090d575f8082015f9055600182015f9055506002016108ee565b5090565b5f604051905090565b5f80fd5b5f80fd5b5f819050919050565b61093481610922565b811461093e575f80fd5b50565b5f8135905061094f8161092b565b92915050565b5f6020828403121561096a5761096961091a565b5b5f61097784828501610941565b91505092915050565b61098981610922565b82525050565b5f73ffffffffffffffffffffffffffffffffffffffff82169050919050565b5f6109b88261098f565b9050919050565b6109c8816109ae565b82525050565b5f81519050919050565b5f82825260208201905092915050565b8281835e5f83830152505050565b5f601f19601f8301169050919050565b5f610a10826109ce565b610a1a81856109d8565b9350610a2a8185602086016109e8565b610a33816109f6565b840191505092915050565b5f819050919050565b610a5081610a3e565b82525050565b5f81519050919050565b5f82825260208201905092915050565b5f819050602082019050919050565b604082015f820151610a935f850182610980565b506020820151610aa66020850182610980565b50505050565b5f610ab78383610a7f565b60408301905092915050565b5f602082019050919050565b5f610ad982610a56565b610ae38185610a60565b9350610aee83610a70565b805f5b83811015610b1e578151610b058882610aac565b9750610b1083610ac3565b925050600181019050610af1565b5085935050505092915050565b5f61010083015f830151610b415f860182610980565b506020830151610b5460208601826109bf565b5060408301518482036040860152610b6c8282610a06565b9150506060830151610b816060860182610a47565b506080830151610b946080860182610a47565b5060a083015184820360a0860152610bac8282610a06565b91505060c0830151610bc160c0860182610980565b5060e083015184820360e0860152610bd98282610acf565b9150508091505092915050565b5f6020820190508181035f830152610bfe8184610b2b565b905092915050565b610c0f81610922565b82525050565b5f602082019050610c285f830184610c06565b92915050565b5f805f60608486031215610c4557610c4461091a565b5b5f610c5286828701610941565b9350506020610c6386828701610941565b9250506040610c7486828701610941565b9150509250925092565b5f80fd5b5f80fd5b7f4e487b71000000000000000000000000000000000000000000000000000000005f52604160045260245ffd5b610cbc826109f6565b810181811067ffffffffffffffff82111715610cdb57610cda610c86565b5b80604052505050565b5f610ced610911565b9050610cf98282610cb3565b919050565b5f67ffffffffffffffff821115610d1857610d17610c86565b5b610d21826109f6565b9050602081019050919050565b828183375f83830152505050565b5f610d4e610d4984610cfe565b610ce4565b905082815260208101848484011115610d6a57610d69610c82565b5b610d75848285610d2e565b509392505050565b5f82601f830112610d9157610d90610c7e565b5b8135610da1848260208601610d3c565b91505092915050565b610db381610a3e565b8114610dbd575f80fd5b50565b5f81359050610dce81610daa565b92915050565b5f805f805f60a08688031215610ded57610dec61091a565b5b5f86013567ffffffffffffffff811115610e0a57610e0961091e565b5b610e1688828901610d7d565b955050602086013567ffffffffffffffff811115610e3757610e3661091e565b5b610e4388828901610d7d565b9450506040610e5488828901610941565b9350506060610e6588828901610dc0565b9250506080610e7688828901610dc0565b9150509295509295909350565b610e8c816109ae565b82525050565b5f82825260208201905092915050565b5f610eac826109ce565b610eb68185610e92565b9350610ec68185602086016109e8565b610ecf816109f6565b840191505092915050565b610ee381610a3e565b82525050565b5f60e082019050610efc5f83018a610c06565b610f096020830189610e83565b8181036040830152610f1b8188610ea2565b9050610f2a6060830187610eda565b610f376080830186610eda565b81810360a0830152610f498185610ea2565b9050610f5860c0830184610c06565b98975050505050505050565b7f4e487b71000000000000000000000000000000000000000000000000000000005f52602260045260245ffd5b5f6002820490506001821680610fa857607f821691505b602082108103610fbb57610fba610f64565b5b50919050565b5f819050815f5260205f209050919050565b5f6020601f8301049050919050565b5f82821b905092915050565b5f6008830261101d7fffffffffffffffffffffffffffffffffffffffffffffffffffffffffffffffff82610fe2565b6110278683610fe2565b95508019841693508086168417925050509392505050565b5f819050919050565b5f61106261105d61105884610922565b61103f565b610922565b9050919050565b5f819050919050565b61107b83611048565b61108f61108782611069565b848454610fee565b825550505050565b5f90565b6110a3611097565b6110ae818484611072565b505050565b5b818110156110d1576110c65f8261109b565b6001810190506110b4565b5050565b601f821115611116576110e781610fc1565b6110f084610fd3565b810160208510156110ff578190505b61111361110b85610fd3565b8301826110b3565b50505b505050565b5f82821c905092915050565b5f6111365f198460080261111b565b1980831691505092915050565b5f61114e8383611127565b9150826002028217905092915050565b611167826109ce565b67ffffffffffffffff8111156111805761117f610c86565b5b61118a8254610f91565b6111958282856110d5565b5f60209050601f8311600181146111c6575f84156111b4578287015190505b6111be8582611143565b865550611225565b601f1984166111d486610fc1565b5f5b828110156111fb578489015182556001820191506020850194506020810190506111d6565b868310156112185784890151611214601f891682611127565b8355505b6001600288020188555050505b505050505050565b5f6020820190508181035f8301526112458184610ea2565b905092915050565b7f4e487b71000000000000000000000000000000000000000000000000000000005f52601160045260245ffd5b5f61128482610922565b91507fffffffffffffffffffffffffffffffffffffffffffffffffffffffffffffffff82036112b6576112b561124d565b5b600182019050919050565b7f596f7520617265206e6f7420746865206f776e6572206f6620746869732070725f8201527f6f70657274792e00000000000000000000000000000000000000000000000000602082015250565b5f61131b602783610e92565b9150611326826112c1565b604082019050919050565b5f6020820190508181035f8301526113488161130f565b9050919050565b7f496e76616c69642070726f7065727479204944000000000000000000000000005f82015250565b5f611383601383610e92565b915061138e8261134f565b602082019050919050565b5f6020820190508181035f8301526113b081611377565b9050919050565b5f6113c182610922565b91505f82036113d3576113d261124d565b5b60018203905091905056fea2646970667358221220f114e9da5b8a26de6310787dc046489da6d4310e680425bfcebe58d1b371289b64736f6c63430008190033",
					"opcodes": "PUSH1 0x80 PUSH1 0x40 MSTORE CALLVALUE DUP1 ISZERO PUSH1 0xE JUMPI PUSH0 DUP1 REVERT JUMPDEST POP PUSH2 0x1414 DUP1 PUSH2 0x1C PUSH0 CODECOPY PUSH0 RETURN INVALID PUSH1 0x80 PUSH1 0x40 MSTORE CALLVALUE DUP1 ISZERO PUSH2 0xF JUMPI PUSH0 DUP1 REVERT JUMPDEST POP PUSH1 0x4 CALLDATASIZE LT PUSH2 0x60 JUMPI PUSH0 CALLDATALOAD PUSH1 0xE0 SHR DUP1 PUSH4 0x32665FFB EQ PUSH2 0x64 JUMPI DUP1 PUSH4 0x39500F34 EQ PUSH2 0x94 JUMPI DUP1 PUSH4 0x6989A649 EQ PUSH2 0xB2 JUMPI DUP1 PUSH4 0xABDB64D4 EQ PUSH2 0xCE JUMPI DUP1 PUSH4 0xBC43D06F EQ PUSH2 0xEA JUMPI DUP1 PUSH4 0xF7B10808 EQ PUSH2 0x106 JUMPI JUMPDEST PUSH0 DUP1 REVERT JUMPDEST PUSH2 0x7E PUSH1 0x4 DUP1 CALLDATASIZE SUB DUP2 ADD SWAP1 PUSH2 0x79 SWAP2 SWAP1 PUSH2 0x955 JUMP JUMPDEST PUSH2 0x13C JUMP JUMPDEST PUSH1 0x40 MLOAD PUSH2 0x8B SWAP2 SWAP1 PUSH2 0xBE6 JUMP JUMPDEST PUSH1 0x40 MLOAD DUP1 SWAP2 SUB SWAP1 RETURN JUMPDEST PUSH2 0x9C PUSH2 0x372 JUMP JUMPDEST PUSH1 0x40 MLOAD PUSH2 0xA9 SWAP2 SWAP1 PUSH2 0xC15 JUMP JUMPDEST PUSH1 0x40 MLOAD DUP1 SWAP2 SUB SWAP1 RETURN JUMPDEST PUSH2 0xCC PUSH1 0x4 DUP1 CALLDATASIZE SUB DUP2 ADD SWAP1 PUSH2 0xC7 SWAP2 SWAP1 PUSH2 0xC2E JUMP JUMPDEST PUSH2 0x378 JUMP JUMPDEST STOP JUMPDEST PUSH2 0xE8 PUSH1 0x4 DUP1 CALLDATASIZE SUB DUP2 ADD SWAP1 PUSH2 0xE3 SWAP2 SWAP1 PUSH2 0xDD4 JUMP JUMPDEST PUSH2 0x3DF JUMP JUMPDEST STOP JUMPDEST PUSH2 0x104 PUSH1 0x4 DUP1 CALLDATASIZE SUB DUP2 ADD SWAP1 PUSH2 0xFF SWAP2 SWAP1 PUSH2 0x955 JUMP JUMPDEST PUSH2 0x4EF JUMP JUMPDEST STOP JUMPDEST PUSH2 0x120 PUSH1 0x4 DUP1 CALLDATASIZE SUB DUP2 ADD SWAP1 PUSH2 0x11B SWAP2 SWAP1 PUSH2 0x955 JUMP JUMPDEST PUSH2 0x6B6 JUMP JUMPDEST PUSH1 0x40 MLOAD PUSH2 0x133 SWAP8 SWAP7 SWAP6 SWAP5 SWAP4 SWAP3 SWAP2 SWAP1 PUSH2 0xEE9 JUMP JUMPDEST PUSH1 0x40 MLOAD DUP1 SWAP2 SUB SWAP1 RETURN JUMPDEST PUSH2 0x144 PUSH2 0x81E JUMP JUMPDEST PUSH0 DUP1 DUP4 DUP2 MSTORE PUSH1 0x20 ADD SWAP1 DUP2 MSTORE PUSH1 0x20 ADD PUSH0 KECCAK256 PUSH1 0x40 MLOAD DUP1 PUSH2 0x100 ADD PUSH1 0x40 MSTORE SWAP1 DUP2 PUSH0 DUP3 ADD SLOAD DUP2 MSTORE PUSH1 0x20 ADD PUSH1 0x1 DUP3 ADD PUSH0 SWAP1 SLOAD SWAP1 PUSH2 0x100 EXP SWAP1 DIV PUSH20 0xFFFFFFFFFFFFFFFFFFFFFFFFFFFFFFFFFFFFFFFF AND PUSH20 0xFFFFFFFFFFFFFFFFFFFFFFFFFFFFFFFFFFFFFFFF AND PUSH20 0xFFFFFFFFFFFFFFFFFFFFFFFFFFFFFFFFFFFFFFFF AND DUP2 MSTORE PUSH1 0x20 ADD PUSH1 0x2 DUP3 ADD DUP1 SLOAD PUSH2 0x1CE SWAP1 PUSH2 0xF91 JUMP JUMPDEST DUP1 PUSH1 0x1F ADD PUSH1 0x20 DUP1 SWAP2 DIV MUL PUSH1 0x20 ADD PUSH1 0x40 MLOAD SWAP1 DUP2 ADD PUSH1 0x40 MSTORE DUP1 SWAP3 SWAP2 SWAP1 DUP2 DUP2 MSTORE PUSH1 0x20 ADD DUP3 DUP1 SLOAD PUSH2 0x1FA SWAP1 PUSH2 0xF91 JUMP JUMPDEST DUP1 ISZERO PUSH2 0x245 JUMPI DUP1 PUSH1 0x1F LT PUSH2 0x21C JUMPI PUSH2 0x100 DUP1 DUP4 SLOAD DIV MUL DUP4 MSTORE SWAP2 PUSH1 0x20 ADD SWAP2 PUSH2 0x245 JUMP JUMPDEST DUP3 ADD SWAP2 SWAP1 PUSH0 MSTORE PUSH1 0x20 PUSH0 KECCAK256 SWAP1 JUMPDEST DUP2 SLOAD DUP2 MSTORE SWAP1 PUSH1 0x1 ADD SWAP1 PUSH1 0x20 ADD DUP1 DUP4 GT PUSH2 0x228 JUMPI DUP3 SWAP1 SUB PUSH1 0x1F AND DUP3 ADD SWAP2 JUMPDEST POP POP POP POP POP DUP2 MSTORE PUSH1 0x20 ADD PUSH1 0x3 DUP3 ADD SLOAD DUP2 MSTORE PUSH1 0x20 ADD PUSH1 0x4 DUP3 ADD SLOAD DUP2 MSTORE PUSH1 0x20 ADD PUSH1 0x5 DUP3 ADD DUP1 SLOAD PUSH2 0x272 SWAP1 PUSH2 0xF91 JUMP JUMPDEST DUP1 PUSH1 0x1F ADD PUSH1 0x20 DUP1 SWAP2 DIV MUL PUSH1 0x20 ADD PUSH1 0x40 MLOAD SWAP1 DUP2 ADD PUSH1 0x40 MSTORE DUP1 SWAP3 SWAP2 SWAP1 DUP2 DUP2 MSTORE PUSH1 0x20 ADD DUP3 DUP1 SLOAD PUSH2 0x29E SWAP1 PUSH2 0xF91 JUMP JUMPDEST DUP1 ISZERO PUSH2 0x2E9 JUMPI DUP1 PUSH1 0x1F LT PUSH2 0x2C0 JUMPI PUSH2 0x100 DUP1 DUP4 SLOAD DIV MUL DUP4 MSTORE SWAP2 PUSH1 0x20 ADD SWAP2 PUSH2 0x2E9 JUMP JUMPDEST DUP3 ADD SWAP2 SWAP1 PUSH0 MSTORE PUSH1 0x20 PUSH0 KECCAK256 SWAP1 JUMPDEST DUP2 SLOAD DUP2 MSTORE SWAP1 PUSH1 0x1 ADD SWAP1 PUSH1 0x20 ADD DUP1 DUP4 GT PUSH2 0x2CC JUMPI DUP3 SWAP1 SUB PUSH1 0x1F AND DUP3 ADD SWAP2 JUMPDEST POP POP POP POP POP DUP2 MSTORE PUSH1 0x20 ADD PUSH1 0x6 DUP3 ADD SLOAD DUP2 MSTORE PUSH1 0x20 ADD PUSH1 0x7 DUP3 ADD DUP1 SLOAD DUP1 PUSH1 0x20 MUL PUSH1 0x20 ADD PUSH1 0x40 MLOAD SWAP1 DUP2 ADD PUSH1 0x40 MSTORE DUP1 SWAP3 SWAP2 SWAP1 DUP2 DUP2 MSTORE PUSH1 0x20 ADD PUSH0 SWAP1 JUMPDEST DUP3 DUP3 LT ISZERO PUSH2 0x363 JUMPI DUP4 DUP3 SWAP1 PUSH0 MSTORE PUSH1 0x20 PUSH0 KECCAK256 SWAP1 PUSH1 0x2 MUL ADD PUSH1 0x40 MLOAD DUP1 PUSH1 0x40 ADD PUSH1 0x40 MSTORE SWAP1 DUP2 PUSH0 DUP3 ADD SLOAD DUP2 MSTORE PUSH1 0x20 ADD PUSH1 0x1 DUP3 ADD SLOAD DUP2 MSTORE POP POP DUP2 MSTORE PUSH1 0x20 ADD SWAP1 PUSH1 0x1 ADD SWAP1 PUSH2 0x320 JUMP JUMPDEST POP POP POP POP DUP2 MSTORE POP POP SWAP1 POP SWAP2 SWAP1 POP JUMP JUMPDEST PUSH1 0x1 SLOAD DUP2 JUMP JUMPDEST PUSH0 DUP1 DUP5 DUP2 MSTORE PUSH1 0x20 ADD SWAP1 DUP2 MSTORE PUSH1 0x20 ADD PUSH0 KECCAK256 PUSH1 0x7 ADD PUSH1 0x40 MLOAD DUP1 PUSH1 0x40 ADD PUSH1 0x40 MSTORE DUP1 DUP5 DUP2 MSTORE PUSH1 0x20 ADD DUP4 DUP2 MSTORE POP SWAP1 DUP1 PUSH1 0x1 DUP2 SLOAD ADD DUP1 DUP3 SSTORE DUP1 SWAP2 POP POP PUSH1 0x1 SWAP1 SUB SWAP1 PUSH0 MSTORE PUSH1 0x20 PUSH0 KECCAK256 SWAP1 PUSH1 0x2 MUL ADD PUSH0 SWAP1 SWAP2 SWAP1 SWAP2 SWAP1 SWAP2 POP PUSH0 DUP3 ADD MLOAD DUP2 PUSH0 ADD SSTORE PUSH1 0x20 DUP3 ADD MLOAD DUP2 PUSH1 0x1 ADD SSTORE POP POP POP POP POP JUMP JUMPDEST PUSH0 DUP1 PUSH0 PUSH1 0x1 SLOAD DUP2 MSTORE PUSH1 0x20 ADD SWAP1 DUP2 MSTORE PUSH1 0x20 ADD PUSH0 KECCAK256 SWAP1 POP PUSH1 0x1 SLOAD DUP2 PUSH0 ADD DUP2 SWAP1 SSTORE POP CALLER DUP2 PUSH1 0x1 ADD PUSH0 PUSH2 0x100 EXP DUP2 SLOAD DUP2 PUSH20 0xFFFFFFFFFFFFFFFFFFFFFFFFFFFFFFFFFFFFFFFF MUL NOT AND SWAP1 DUP4 PUSH20 0xFFFFFFFFFFFFFFFFFFFFFFFFFFFFFFFFFFFFFFFF AND MUL OR SWAP1 SSTORE POP DUP6 DUP2 PUSH1 0x2 ADD SWAP1 DUP2 PUSH2 0x451 SWAP2 SWAP1 PUSH2 0x115E JUMP JUMPDEST POP DUP3 DUP2 PUSH1 0x3 ADD DUP2 SWAP1 SSTORE POP DUP2 DUP2 PUSH1 0x4 ADD DUP2 SWAP1 SSTORE POP DUP5 DUP2 PUSH1 0x5 ADD SWAP1 DUP2 PUSH2 0x475 SWAP2 SWAP1 PUSH2 0x115E JUMP JUMPDEST POP DUP4 DUP2 PUSH1 0x6 ADD DUP2 SWAP1 SSTORE POP CALLER PUSH20 0xFFFFFFFFFFFFFFFFFFFFFFFFFFFFFFFFFFFFFFFF AND PUSH1 0x1 SLOAD PUSH32 0x92F2B8D9AE69A40BE928A502C6BCC369CE8A0B2E902151BB63909295F4CE749E DUP9 PUSH1 0x40 MLOAD PUSH2 0x4C8 SWAP2 SWAP1 PUSH2 0x122D JUMP JUMPDEST PUSH1 0x40 MLOAD DUP1 SWAP2 SUB SWAP1 LOG3 PUSH1 0x1 PUSH0 DUP2 SLOAD DUP1 SWAP3 SWAP2 SWAP1 PUSH2 0x4E2 SWAP1 PUSH2 0x127A JUMP JUMPDEST SWAP2 SWAP1 POP SSTORE POP POP POP POP POP POP POP JUMP JUMPDEST DUP1 CALLER PUSH20 0xFFFFFFFFFFFFFFFFFFFFFFFFFFFFFFFFFFFFFFFF AND PUSH0 DUP1 DUP4 DUP2 MSTORE PUSH1 0x20 ADD SWAP1 DUP2 MSTORE PUSH1 0x20 ADD PUSH0 KECCAK256 PUSH1 0x1 ADD PUSH0 SWAP1 SLOAD SWAP1 PUSH2 0x100 EXP SWAP1 DIV PUSH20 0xFFFFFFFFFFFFFFFFFFFFFFFFFFFFFFFFFFFFFFFF AND PUSH20 0xFFFFFFFFFFFFFFFFFFFFFFFFFFFFFFFFFFFFFFFF AND EQ PUSH2 0x590 JUMPI PUSH1 0x40 MLOAD PUSH32 0x8C379A000000000000000000000000000000000000000000000000000000000 DUP2 MSTORE PUSH1 0x4 ADD PUSH2 0x587 SWAP1 PUSH2 0x1331 JUMP JUMPDEST PUSH1 0x40 MLOAD DUP1 SWAP2 SUB SWAP1 REVERT JUMPDEST DUP2 PUSH1 0x1 SLOAD DUP2 LT PUSH2 0x5D5 JUMPI PUSH1 0x40 MLOAD PUSH32 0x8C379A000000000000000000000000000000000000000000000000000000000 DUP2 MSTORE PUSH1 0x4 ADD PUSH2 0x5CC SWAP1 PUSH2 0x1399 JUMP JUMPDEST PUSH1 0x40 MLOAD DUP1 SWAP2 SUB SWAP1 REVERT JUMPDEST CALLER PUSH20 0xFFFFFFFFFFFFFFFFFFFFFFFFFFFFFFFFFFFFFFFF AND DUP4 PUSH32 0x3B11F341DFBADFB1B92FF5B9BF7C88094058C008E6B67C47AE29F690A30BEB69 PUSH1 0x40 MLOAD PUSH1 0x40 MLOAD DUP1 SWAP2 SUB SWAP1 LOG3 PUSH0 DUP1 DUP5 DUP2 MSTORE PUSH1 0x20 ADD SWAP1 DUP2 MSTORE PUSH1 0x20 ADD PUSH0 KECCAK256 PUSH0 DUP1 DUP3 ADD PUSH0 SWAP1 SSTORE PUSH1 0x1 DUP3 ADD PUSH0 PUSH2 0x100 EXP DUP2 SLOAD SWAP1 PUSH20 0xFFFFFFFFFFFFFFFFFFFFFFFFFFFFFFFFFFFFFFFF MUL NOT AND SWAP1 SSTORE PUSH1 0x2 DUP3 ADD PUSH0 PUSH2 0x665 SWAP2 SWAP1 PUSH2 0x874 JUMP JUMPDEST PUSH1 0x3 DUP3 ADD PUSH0 SWAP1 SSTORE PUSH1 0x4 DUP3 ADD PUSH0 SWAP1 SSTORE PUSH1 0x5 DUP3 ADD PUSH0 PUSH2 0x682 SWAP2 SWAP1 PUSH2 0x874 JUMP JUMPDEST PUSH1 0x6 DUP3 ADD PUSH0 SWAP1 SSTORE PUSH1 0x7 DUP3 ADD PUSH0 PUSH2 0x698 SWAP2 SWAP1 PUSH2 0x8B1 JUMP JUMPDEST POP POP PUSH1 0x1 PUSH0 DUP2 SLOAD DUP1 SWAP3 SWAP2 SWAP1 PUSH2 0x6AC SWAP1 PUSH2 0x13B7 JUMP JUMPDEST SWAP2 SWAP1 POP SSTORE POP POP POP POP JUMP JUMPDEST PUSH0 PUSH1 0x20 MSTORE DUP1 PUSH0 MSTORE PUSH1 0x40 PUSH0 KECCAK256 PUSH0 SWAP2 POP SWAP1 POP DUP1 PUSH0 ADD SLOAD SWAP1 DUP1 PUSH1 0x1 ADD PUSH0 SWAP1 SLOAD SWAP1 PUSH2 0x100 EXP SWAP1 DIV PUSH20 0xFFFFFFFFFFFFFFFFFFFFFFFFFFFFFFFFFFFFFFFF AND SWAP1 DUP1 PUSH1 0x2 ADD DUP1 SLOAD PUSH2 0x6FF SWAP1 PUSH2 0xF91 JUMP JUMPDEST DUP1 PUSH1 0x1F ADD PUSH1 0x20 DUP1 SWAP2 DIV MUL PUSH1 0x20 ADD PUSH1 0x40 MLOAD SWAP1 DUP2 ADD PUSH1 0x40 MSTORE DUP1 SWAP3 SWAP2 SWAP1 DUP2 DUP2 MSTORE PUSH1 0x20 ADD DUP3 DUP1 SLOAD PUSH2 0x72B SWAP1 PUSH2 0xF91 JUMP JUMPDEST DUP1 ISZERO PUSH2 0x776 JUMPI DUP1 PUSH1 0x1F LT PUSH2 0x74D JUMPI PUSH2 0x100 DUP1 DUP4 SLOAD DIV MUL DUP4 MSTORE SWAP2 PUSH1 0x20 ADD SWAP2 PUSH2 0x776 JUMP JUMPDEST DUP3 ADD SWAP2 SWAP1 PUSH0 MSTORE PUSH1 0x20 PUSH0 KECCAK256 SWAP1 JUMPDEST DUP2 SLOAD DUP2 MSTORE SWAP1 PUSH1 0x1 ADD SWAP1 PUSH1 0x20 ADD DUP1 DUP4 GT PUSH2 0x759 JUMPI DUP3 SWAP1 SUB PUSH1 0x1F AND DUP3 ADD SWAP2 JUMPDEST POP POP POP POP POP SWAP1 DUP1 PUSH1 0x3 ADD SLOAD SWAP1 DUP1 PUSH1 0x4 ADD SLOAD SWAP1 DUP1 PUSH1 0x5 ADD DUP1 SLOAD PUSH2 0x797 SWAP1 PUSH2 0xF91 JUMP JUMPDEST DUP1 PUSH1 0x1F ADD PUSH1 0x20 DUP1 SWAP2 DIV MUL PUSH1 0x20 ADD PUSH1 0x40 MLOAD SWAP1 DUP2 ADD PUSH1 0x40 MSTORE DUP1 SWAP3 SWAP2 SWAP1 DUP2 DUP2 MSTORE PUSH1 0x20 ADD DUP3 DUP1 SLOAD PUSH2 0x7C3 SWAP1 PUSH2 0xF91 JUMP JUMPDEST DUP1 ISZERO PUSH2 0x80E JUMPI DUP1 PUSH1 0x1F LT PUSH2 0x7E5 JUMPI PUSH2 0x100 DUP1 DUP4 SLOAD DIV MUL DUP4 MSTORE SWAP2 PUSH1 0x20 ADD SWAP2 PUSH2 0x80E JUMP JUMPDEST DUP3 ADD SWAP2 SWAP1 PUSH0 MSTORE PUSH1 0x20 PUSH0 KECCAK256 SWAP1 JUMPDEST DUP2 SLOAD DUP2 MSTORE SWAP1 PUSH1 0x1 ADD SWAP1 PUSH1 0x20 ADD DUP1 DUP4 GT PUSH2 0x7F1 JUMPI DUP3 SWAP1 SUB PUSH1 0x1F AND DUP3 ADD SWAP2 JUMPDEST POP POP POP POP POP SWAP1 DUP1 PUSH1 0x6 ADD SLOAD SWAP1 POP DUP8 JUMP JUMPDEST PUSH1 0x40 MLOAD DUP1 PUSH2 0x100 ADD PUSH1 0x40 MSTORE DUP1 PUSH0 DUP2 MSTORE PUSH1 0x20 ADD PUSH0 PUSH20 0xFFFFFFFFFFFFFFFFFFFFFFFFFFFFFFFFFFFFFFFF AND DUP2 MSTORE PUSH1 0x20 ADD PUSH1 0x60 DUP2 MSTORE PUSH1 0x20 ADD PUSH0 DUP2 MSTORE PUSH1 0x20 ADD PUSH0 DUP2 MSTORE PUSH1 0x20 ADD PUSH1 0x60 DUP2 MSTORE PUSH1 0x20 ADD PUSH0 DUP2 MSTORE PUSH1 0x20 ADD PUSH1 0x60 DUP2 MSTORE POP SWAP1 JUMP JUMPDEST POP DUP1 SLOAD PUSH2 0x880 SWAP1 PUSH2 0xF91 JUMP JUMPDEST PUSH0 DUP3 SSTORE DUP1 PUSH1 0x1F LT PUSH2 0x891 JUMPI POP PUSH2 0x8AE JUMP JUMPDEST PUSH1 0x1F ADD PUSH1 0x20 SWAP1 DIV SWAP1 PUSH0 MSTORE PUSH1 0x20 PUSH0 KECCAK256 SWAP1 DUP2 ADD SWAP1 PUSH2 0x8AD SWAP2 SWAP1 PUSH2 0x8D2 JUMP JUMPDEST JUMPDEST POP JUMP JUMPDEST POP DUP1 SLOAD PUSH0 DUP3 SSTORE PUSH1 0x2 MUL SWAP1 PUSH0 MSTORE PUSH1 0x20 PUSH0 KECCAK256 SWAP1 DUP2 ADD SWAP1 PUSH2 0x8CF SWAP2 SWAP1 PUSH2 0x8ED JUMP JUMPDEST POP JUMP JUMPDEST JUMPDEST DUP1 DUP3 GT ISZERO PUSH2 0x8E9 JUMPI PUSH0 DUP2 PUSH0 SWAP1 SSTORE POP PUSH1 0x1 ADD PUSH2 0x8D3 JUMP JUMPDEST POP SWAP1 JUMP JUMPDEST JUMPDEST DUP1 DUP3 GT ISZERO PUSH2 0x90D JUMPI PUSH0 DUP1 DUP3 ADD PUSH0 SWAP1 SSTORE PUSH1 0x1 DUP3 ADD PUSH0 SWAP1 SSTORE POP PUSH1 0x2 ADD PUSH2 0x8EE JUMP JUMPDEST POP SWAP1 JUMP JUMPDEST PUSH0 PUSH1 0x40 MLOAD SWAP1 POP SWAP1 JUMP JUMPDEST PUSH0 DUP1 REVERT JUMPDEST PUSH0 DUP1 REVERT JUMPDEST PUSH0 DUP2 SWAP1 POP SWAP2 SWAP1 POP JUMP JUMPDEST PUSH2 0x934 DUP2 PUSH2 0x922 JUMP JUMPDEST DUP2 EQ PUSH2 0x93E JUMPI PUSH0 DUP1 REVERT JUMPDEST POP JUMP JUMPDEST PUSH0 DUP2 CALLDATALOAD SWAP1 POP PUSH2 0x94F DUP2 PUSH2 0x92B JUMP JUMPDEST SWAP3 SWAP2 POP POP JUMP JUMPDEST PUSH0 PUSH1 0x20 DUP3 DUP5 SUB SLT ISZERO PUSH2 0x96A JUMPI PUSH2 0x969 PUSH2 0x91A JUMP JUMPDEST JUMPDEST PUSH0 PUSH2 0x977 DUP5 DUP3 DUP6 ADD PUSH2 0x941 JUMP JUMPDEST SWAP2 POP POP SWAP3 SWAP2 POP POP JUMP JUMPDEST PUSH2 0x989 DUP2 PUSH2 0x922 JUMP JUMPDEST DUP3 MSTORE POP POP JUMP JUMPDEST PUSH0 PUSH20 0xFFFFFFFFFFFFFFFFFFFFFFFFFFFFFFFFFFFFFFFF DUP3 AND SWAP1 POP SWAP2 SWAP1 POP JUMP JUMPDEST PUSH0 PUSH2 0x9B8 DUP3 PUSH2 0x98F JUMP JUMPDEST SWAP1 POP SWAP2 SWAP1 POP JUMP JUMPDEST PUSH2 0x9C8 DUP2 PUSH2 0x9AE JUMP JUMPDEST DUP3 MSTORE POP POP JUMP JUMPDEST PUSH0 DUP2 MLOAD SWAP1 POP SWAP2 SWAP1 POP JUMP JUMPDEST PUSH0 DUP3 DUP3 MSTORE PUSH1 0x20 DUP3 ADD SWAP1 POP SWAP3 SWAP2 POP POP JUMP JUMPDEST DUP3 DUP2 DUP4 MCOPY PUSH0 DUP4 DUP4 ADD MSTORE POP POP POP JUMP JUMPDEST PUSH0 PUSH1 0x1F NOT PUSH1 0x1F DUP4 ADD AND SWAP1 POP SWAP2 SWAP1 POP JUMP JUMPDEST PUSH0 PUSH2 0xA10 DUP3 PUSH2 0x9CE JUMP JUMPDEST PUSH2 0xA1A DUP2 DUP6 PUSH2 0x9D8 JUMP JUMPDEST SWAP4 POP PUSH2 0xA2A DUP2 DUP6 PUSH1 0x20 DUP7 ADD PUSH2 0x9E8 JUMP JUMPDEST PUSH2 0xA33 DUP2 PUSH2 0x9F6 JUMP JUMPDEST DUP5 ADD SWAP2 POP POP SWAP3 SWAP2 POP POP JUMP JUMPDEST PUSH0 DUP2 SWAP1 POP SWAP2 SWAP1 POP JUMP JUMPDEST PUSH2 0xA50 DUP2 PUSH2 0xA3E JUMP JUMPDEST DUP3 MSTORE POP POP JUMP JUMPDEST PUSH0 DUP2 MLOAD SWAP1 POP SWAP2 SWAP1 POP JUMP JUMPDEST PUSH0 DUP3 DUP3 MSTORE PUSH1 0x20 DUP3 ADD SWAP1 POP SWAP3 SWAP2 POP POP JUMP JUMPDEST PUSH0 DUP2 SWAP1 POP PUSH1 0x20 DUP3 ADD SWAP1 POP SWAP2 SWAP1 POP JUMP JUMPDEST PUSH1 0x40 DUP3 ADD PUSH0 DUP3 ADD MLOAD PUSH2 0xA93 PUSH0 DUP6 ADD DUP3 PUSH2 0x980 JUMP JUMPDEST POP PUSH1 0x20 DUP3 ADD MLOAD PUSH2 0xAA6 PUSH1 0x20 DUP6 ADD DUP3 PUSH2 0x980 JUMP JUMPDEST POP POP POP POP JUMP JUMPDEST PUSH0 PUSH2 0xAB7 DUP4 DUP4 PUSH2 0xA7F JUMP JUMPDEST PUSH1 0x40 DUP4 ADD SWAP1 POP SWAP3 SWAP2 POP POP JUMP JUMPDEST PUSH0 PUSH1 0x20 DUP3 ADD SWAP1 POP SWAP2 SWAP1 POP JUMP JUMPDEST PUSH0 PUSH2 0xAD9 DUP3 PUSH2 0xA56 JUMP JUMPDEST PUSH2 0xAE3 DUP2 DUP6 PUSH2 0xA60 JUMP JUMPDEST SWAP4 POP PUSH2 0xAEE DUP4 PUSH2 0xA70 JUMP JUMPDEST DUP1 PUSH0 JUMPDEST DUP4 DUP2 LT ISZERO PUSH2 0xB1E JUMPI DUP2 MLOAD PUSH2 0xB05 DUP9 DUP3 PUSH2 0xAAC JUMP JUMPDEST SWAP8 POP PUSH2 0xB10 DUP4 PUSH2 0xAC3 JUMP JUMPDEST SWAP3 POP POP PUSH1 0x1 DUP2 ADD SWAP1 POP PUSH2 0xAF1 JUMP JUMPDEST POP DUP6 SWAP4 POP POP POP POP SWAP3 SWAP2 POP POP JUMP JUMPDEST PUSH0 PUSH2 0x100 DUP4 ADD PUSH0 DUP4 ADD MLOAD PUSH2 0xB41 PUSH0 DUP7 ADD DUP3 PUSH2 0x980 JUMP JUMPDEST POP PUSH1 0x20 DUP4 ADD MLOAD PUSH2 0xB54 PUSH1 0x20 DUP7 ADD DUP3 PUSH2 0x9BF JUMP JUMPDEST POP PUSH1 0x40 DUP4 ADD MLOAD DUP5 DUP3 SUB PUSH1 0x40 DUP7 ADD MSTORE PUSH2 0xB6C DUP3 DUP3 PUSH2 0xA06 JUMP JUMPDEST SWAP2 POP POP PUSH1 0x60 DUP4 ADD MLOAD PUSH2 0xB81 PUSH1 0x60 DUP7 ADD DUP3 PUSH2 0xA47 JUMP JUMPDEST POP PUSH1 0x80 DUP4 ADD MLOAD PUSH2 0xB94 PUSH1 0x80 DUP7 ADD DUP3 PUSH2 0xA47 JUMP JUMPDEST POP PUSH1 0xA0 DUP4 ADD MLOAD DUP5 DUP3 SUB PUSH1 0xA0 DUP7 ADD MSTORE PUSH2 0xBAC DUP3 DUP3 PUSH2 0xA06 JUMP JUMPDEST SWAP2 POP POP PUSH1 0xC0 DUP4 ADD MLOAD PUSH2 0xBC1 PUSH1 0xC0 DUP7 ADD DUP3 PUSH2 0x980 JUMP JUMPDEST POP PUSH1 0xE0 DUP4 ADD MLOAD DUP5 DUP3 SUB PUSH1 0xE0 DUP7 ADD MSTORE PUSH2 0xBD9 DUP3 DUP3 PUSH2 0xACF JUMP JUMPDEST SWAP2 POP POP DUP1 SWAP2 POP POP SWAP3 SWAP2 POP POP JUMP JUMPDEST PUSH0 PUSH1 0x20 DUP3 ADD SWAP1 POP DUP2 DUP2 SUB PUSH0 DUP4 ADD MSTORE PUSH2 0xBFE DUP2 DUP5 PUSH2 0xB2B JUMP JUMPDEST SWAP1 POP SWAP3 SWAP2 POP POP JUMP JUMPDEST PUSH2 0xC0F DUP2 PUSH2 0x922 JUMP JUMPDEST DUP3 MSTORE POP POP JUMP JUMPDEST PUSH0 PUSH1 0x20 DUP3 ADD SWAP1 POP PUSH2 0xC28 PUSH0 DUP4 ADD DUP5 PUSH2 0xC06 JUMP JUMPDEST SWAP3 SWAP2 POP POP JUMP JUMPDEST PUSH0 DUP1 PUSH0 PUSH1 0x60 DUP5 DUP7 SUB SLT ISZERO PUSH2 0xC45 JUMPI PUSH2 0xC44 PUSH2 0x91A JUMP JUMPDEST JUMPDEST PUSH0 PUSH2 0xC52 DUP7 DUP3 DUP8 ADD PUSH2 0x941 JUMP JUMPDEST SWAP4 POP POP PUSH1 0x20 PUSH2 0xC63 DUP7 DUP3 DUP8 ADD PUSH2 0x941 JUMP JUMPDEST SWAP3 POP POP PUSH1 0x40 PUSH2 0xC74 DUP7 DUP3 DUP8 ADD PUSH2 0x941 JUMP JUMPDEST SWAP2 POP POP SWAP3 POP SWAP3 POP SWAP3 JUMP JUMPDEST PUSH0 DUP1 REVERT JUMPDEST PUSH0 DUP1 REVERT JUMPDEST PUSH32 0x4E487B7100000000000000000000000000000000000000000000000000000000 PUSH0 MSTORE PUSH1 0x41 PUSH1 0x4 MSTORE PUSH1 0x24 PUSH0 REVERT JUMPDEST PUSH2 0xCBC DUP3 PUSH2 0x9F6 JUMP JUMPDEST DUP2 ADD DUP2 DUP2 LT PUSH8 0xFFFFFFFFFFFFFFFF DUP3 GT OR ISZERO PUSH2 0xCDB JUMPI PUSH2 0xCDA PUSH2 0xC86 JUMP JUMPDEST JUMPDEST DUP1 PUSH1 0x40 MSTORE POP POP POP JUMP JUMPDEST PUSH0 PUSH2 0xCED PUSH2 0x911 JUMP JUMPDEST SWAP1 POP PUSH2 0xCF9 DUP3 DUP3 PUSH2 0xCB3 JUMP JUMPDEST SWAP2 SWAP1 POP JUMP JUMPDEST PUSH0 PUSH8 0xFFFFFFFFFFFFFFFF DUP3 GT ISZERO PUSH2 0xD18 JUMPI PUSH2 0xD17 PUSH2 0xC86 JUMP JUMPDEST JUMPDEST PUSH2 0xD21 DUP3 PUSH2 0x9F6 JUMP JUMPDEST SWAP1 POP PUSH1 0x20 DUP2 ADD SWAP1 POP SWAP2 SWAP1 POP JUMP JUMPDEST DUP3 DUP2 DUP4 CALLDATACOPY PUSH0 DUP4 DUP4 ADD MSTORE POP POP POP JUMP JUMPDEST PUSH0 PUSH2 0xD4E PUSH2 0xD49 DUP5 PUSH2 0xCFE JUMP JUMPDEST PUSH2 0xCE4 JUMP JUMPDEST SWAP1 POP DUP3 DUP2 MSTORE PUSH1 0x20 DUP2 ADD DUP5 DUP5 DUP5 ADD GT ISZERO PUSH2 0xD6A JUMPI PUSH2 0xD69 PUSH2 0xC82 JUMP JUMPDEST JUMPDEST PUSH2 0xD75 DUP5 DUP3 DUP6 PUSH2 0xD2E JUMP JUMPDEST POP SWAP4 SWAP3 POP POP POP JUMP JUMPDEST PUSH0 DUP3 PUSH1 0x1F DUP4 ADD SLT PUSH2 0xD91 JUMPI PUSH2 0xD90 PUSH2 0xC7E JUMP JUMPDEST JUMPDEST DUP2 CALLDATALOAD PUSH2 0xDA1 DUP5 DUP3 PUSH1 0x20 DUP7 ADD PUSH2 0xD3C JUMP JUMPDEST SWAP2 POP POP SWAP3 SWAP2 POP POP JUMP JUMPDEST PUSH2 0xDB3 DUP2 PUSH2 0xA3E JUMP JUMPDEST DUP2 EQ PUSH2 0xDBD JUMPI PUSH0 DUP1 REVERT JUMPDEST POP JUMP JUMPDEST PUSH0 DUP2 CALLDATALOAD SWAP1 POP PUSH2 0xDCE DUP2 PUSH2 0xDAA JUMP JUMPDEST SWAP3 SWAP2 POP POP JUMP JUMPDEST PUSH0 DUP1 PUSH0 DUP1 PUSH0 PUSH1 0xA0 DUP7 DUP9 SUB SLT ISZERO PUSH2 0xDED JUMPI PUSH2 0xDEC PUSH2 0x91A JUMP JUMPDEST JUMPDEST PUSH0 DUP7 ADD CALLDATALOAD PUSH8 0xFFFFFFFFFFFFFFFF DUP2 GT ISZERO PUSH2 0xE0A JUMPI PUSH2 0xE09 PUSH2 0x91E JUMP JUMPDEST JUMPDEST PUSH2 0xE16 DUP9 DUP3 DUP10 ADD PUSH2 0xD7D JUMP JUMPDEST SWAP6 POP POP PUSH1 0x20 DUP7 ADD CALLDATALOAD PUSH8 0xFFFFFFFFFFFFFFFF DUP2 GT ISZERO PUSH2 0xE37 JUMPI PUSH2 0xE36 PUSH2 0x91E JUMP JUMPDEST JUMPDEST PUSH2 0xE43 DUP9 DUP3 DUP10 ADD PUSH2 0xD7D JUMP JUMPDEST SWAP5 POP POP PUSH1 0x40 PUSH2 0xE54 DUP9 DUP3 DUP10 ADD PUSH2 0x941 JUMP JUMPDEST SWAP4 POP POP PUSH1 0x60 PUSH2 0xE65 DUP9 DUP3 DUP10 ADD PUSH2 0xDC0 JUMP JUMPDEST SWAP3 POP POP PUSH1 0x80 PUSH2 0xE76 DUP9 DUP3 DUP10 ADD PUSH2 0xDC0 JUMP JUMPDEST SWAP2 POP POP SWAP3 SWAP6 POP SWAP3 SWAP6 SWAP1 SWAP4 POP JUMP JUMPDEST PUSH2 0xE8C DUP2 PUSH2 0x9AE JUMP JUMPDEST DUP3 MSTORE POP POP JUMP JUMPDEST PUSH0 DUP3 DUP3 MSTORE PUSH1 0x20 DUP3 ADD SWAP1 POP SWAP3 SWAP2 POP POP JUMP JUMPDEST PUSH0 PUSH2 0xEAC DUP3 PUSH2 0x9CE JUMP JUMPDEST PUSH2 0xEB6 DUP2 DUP6 PUSH2 0xE92 JUMP JUMPDEST SWAP4 POP PUSH2 0xEC6 DUP2 DUP6 PUSH1 0x20 DUP7 ADD PUSH2 0x9E8 JUMP JUMPDEST PUSH2 0xECF DUP2 PUSH2 0x9F6 JUMP JUMPDEST DUP5 ADD SWAP2 POP POP SWAP3 SWAP2 POP POP JUMP JUMPDEST PUSH2 0xEE3 DUP2 PUSH2 0xA3E JUMP JUMPDEST DUP3 MSTORE POP POP JUMP JUMPDEST PUSH0 PUSH1 0xE0 DUP3 ADD SWAP1 POP PUSH2 0xEFC PUSH0 DUP4 ADD DUP11 PUSH2 0xC06 JUMP JUMPDEST PUSH2 0xF09 PUSH1 0x20 DUP4 ADD DUP10 PUSH2 0xE83 JUMP JUMPDEST DUP2 DUP2 SUB PUSH1 0x40 DUP4 ADD MSTORE PUSH2 0xF1B DUP2 DUP9 PUSH2 0xEA2 JUMP JUMPDEST SWAP1 POP PUSH2 0xF2A PUSH1 0x60 DUP4 ADD DUP8 PUSH2 0xEDA JUMP JUMPDEST PUSH2 0xF37 PUSH1 0x80 DUP4 ADD DUP7 PUSH2 0xEDA JUMP JUMPDEST DUP2 DUP2 SUB PUSH1 0xA0 DUP4 ADD MSTORE PUSH2 0xF49 DUP2 DUP6 PUSH2 0xEA2 JUMP JUMPDEST SWAP1 POP PUSH2 0xF58 PUSH1 0xC0 DUP4 ADD DUP5 PUSH2 0xC06 JUMP JUMPDEST SWAP9 SWAP8 POP POP POP POP POP POP POP POP JUMP JUMPDEST PUSH32 0x4E487B7100000000000000000000000000000000000000000000000000000000 PUSH0 MSTORE PUSH1 0x22 PUSH1 0x4 MSTORE PUSH1 0x24 PUSH0 REVERT JUMPDEST PUSH0 PUSH1 0x2 DUP3 DIV SWAP1 POP PUSH1 0x1 DUP3 AND DUP1 PUSH2 0xFA8 JUMPI PUSH1 0x7F DUP3 AND SWAP2 POP JUMPDEST PUSH1 0x20 DUP3 LT DUP2 SUB PUSH2 0xFBB JUMPI PUSH2 0xFBA PUSH2 0xF64 JUMP JUMPDEST JUMPDEST POP SWAP2 SWAP1 POP JUMP JUMPDEST PUSH0 DUP2 SWAP1 POP DUP2 PUSH0 MSTORE PUSH1 0x20 PUSH0 KECCAK256 SWAP1 POP SWAP2 SWAP1 POP JUMP JUMPDEST PUSH0 PUSH1 0x20 PUSH1 0x1F DUP4 ADD DIV SWAP1 POP SWAP2 SWAP1 POP JUMP JUMPDEST PUSH0 DUP3 DUP3 SHL SWAP1 POP SWAP3 SWAP2 POP POP JUMP JUMPDEST PUSH0 PUSH1 0x8 DUP4 MUL PUSH2 0x101D PUSH32 0xFFFFFFFFFFFFFFFFFFFFFFFFFFFFFFFFFFFFFFFFFFFFFFFFFFFFFFFFFFFFFFFF DUP3 PUSH2 0xFE2 JUMP JUMPDEST PUSH2 0x1027 DUP7 DUP4 PUSH2 0xFE2 JUMP JUMPDEST SWAP6 POP DUP1 NOT DUP5 AND SWAP4 POP DUP1 DUP7 AND DUP5 OR SWAP3 POP POP POP SWAP4 SWAP3 POP POP POP JUMP JUMPDEST PUSH0 DUP2 SWAP1 POP SWAP2 SWAP1 POP JUMP JUMPDEST PUSH0 PUSH2 0x1062 PUSH2 0x105D PUSH2 0x1058 DUP5 PUSH2 0x922 JUMP JUMPDEST PUSH2 0x103F JUMP JUMPDEST PUSH2 0x922 JUMP JUMPDEST SWAP1 POP SWAP2 SWAP1 POP JUMP JUMPDEST PUSH0 DUP2 SWAP1 POP SWAP2 SWAP1 POP JUMP JUMPDEST PUSH2 0x107B DUP4 PUSH2 0x1048 JUMP JUMPDEST PUSH2 0x108F PUSH2 0x1087 DUP3 PUSH2 0x1069 JUMP JUMPDEST DUP5 DUP5 SLOAD PUSH2 0xFEE JUMP JUMPDEST DUP3 SSTORE POP POP POP POP JUMP JUMPDEST PUSH0 SWAP1 JUMP JUMPDEST PUSH2 0x10A3 PUSH2 0x1097 JUMP JUMPDEST PUSH2 0x10AE DUP2 DUP5 DUP5 PUSH2 0x1072 JUMP JUMPDEST POP POP POP JUMP JUMPDEST JUMPDEST DUP2 DUP2 LT ISZERO PUSH2 0x10D1 JUMPI PUSH2 0x10C6 PUSH0 DUP3 PUSH2 0x109B JUMP JUMPDEST PUSH1 0x1 DUP2 ADD SWAP1 POP PUSH2 0x10B4 JUMP JUMPDEST POP POP JUMP JUMPDEST PUSH1 0x1F DUP3 GT ISZERO PUSH2 0x1116 JUMPI PUSH2 0x10E7 DUP2 PUSH2 0xFC1 JUMP JUMPDEST PUSH2 0x10F0 DUP5 PUSH2 0xFD3 JUMP JUMPDEST DUP2 ADD PUSH1 0x20 DUP6 LT ISZERO PUSH2 0x10FF JUMPI DUP2 SWAP1 POP JUMPDEST PUSH2 0x1113 PUSH2 0x110B DUP6 PUSH2 0xFD3 JUMP JUMPDEST DUP4 ADD DUP3 PUSH2 0x10B3 JUMP JUMPDEST POP POP JUMPDEST POP POP POP JUMP JUMPDEST PUSH0 DUP3 DUP3 SHR SWAP1 POP SWAP3 SWAP2 POP POP JUMP JUMPDEST PUSH0 PUSH2 0x1136 PUSH0 NOT DUP5 PUSH1 0x8 MUL PUSH2 0x111B JUMP JUMPDEST NOT DUP1 DUP4 AND SWAP2 POP POP SWAP3 SWAP2 POP POP JUMP JUMPDEST PUSH0 PUSH2 0x114E DUP4 DUP4 PUSH2 0x1127 JUMP JUMPDEST SWAP2 POP DUP3 PUSH1 0x2 MUL DUP3 OR SWAP1 POP SWAP3 SWAP2 POP POP JUMP JUMPDEST PUSH2 0x1167 DUP3 PUSH2 0x9CE JUMP JUMPDEST PUSH8 0xFFFFFFFFFFFFFFFF DUP2 GT ISZERO PUSH2 0x1180 JUMPI PUSH2 0x117F PUSH2 0xC86 JUMP JUMPDEST JUMPDEST PUSH2 0x118A DUP3 SLOAD PUSH2 0xF91 JUMP JUMPDEST PUSH2 0x1195 DUP3 DUP3 DUP6 PUSH2 0x10D5 JUMP JUMPDEST PUSH0 PUSH1 0x20 SWAP1 POP PUSH1 0x1F DUP4 GT PUSH1 0x1 DUP2 EQ PUSH2 0x11C6 JUMPI PUSH0 DUP5 ISZERO PUSH2 0x11B4 JUMPI DUP3 DUP8 ADD MLOAD SWAP1 POP JUMPDEST PUSH2 0x11BE DUP6 DUP3 PUSH2 0x1143 JUMP JUMPDEST DUP7 SSTORE POP PUSH2 0x1225 JUMP JUMPDEST PUSH1 0x1F NOT DUP5 AND PUSH2 0x11D4 DUP7 PUSH2 0xFC1 JUMP JUMPDEST PUSH0 JUMPDEST DUP3 DUP2 LT ISZERO PUSH2 0x11FB JUMPI DUP5 DUP10 ADD MLOAD DUP3 SSTORE PUSH1 0x1 DUP3 ADD SWAP2 POP PUSH1 0x20 DUP6 ADD SWAP5 POP PUSH1 0x20 DUP2 ADD SWAP1 POP PUSH2 0x11D6 JUMP JUMPDEST DUP7 DUP4 LT ISZERO PUSH2 0x1218 JUMPI DUP5 DUP10 ADD MLOAD PUSH2 0x1214 PUSH1 0x1F DUP10 AND DUP3 PUSH2 0x1127 JUMP JUMPDEST DUP4 SSTORE POP JUMPDEST PUSH1 0x1 PUSH1 0x2 DUP9 MUL ADD DUP9 SSTORE POP POP POP JUMPDEST POP POP POP POP POP POP JUMP JUMPDEST PUSH0 PUSH1 0x20 DUP3 ADD SWAP1 POP DUP2 DUP2 SUB PUSH0 DUP4 ADD MSTORE PUSH2 0x1245 DUP2 DUP5 PUSH2 0xEA2 JUMP JUMPDEST SWAP1 POP SWAP3 SWAP2 POP POP JUMP JUMPDEST PUSH32 0x4E487B7100000000000000000000000000000000000000000000000000000000 PUSH0 MSTORE PUSH1 0x11 PUSH1 0x4 MSTORE PUSH1 0x24 PUSH0 REVERT JUMPDEST PUSH0 PUSH2 0x1284 DUP3 PUSH2 0x922 JUMP JUMPDEST SWAP2 POP PUSH32 0xFFFFFFFFFFFFFFFFFFFFFFFFFFFFFFFFFFFFFFFFFFFFFFFFFFFFFFFFFFFFFFFF DUP3 SUB PUSH2 0x12B6 JUMPI PUSH2 0x12B5 PUSH2 0x124D JUMP JUMPDEST JUMPDEST PUSH1 0x1 DUP3 ADD SWAP1 POP SWAP2 SWAP1 POP JUMP JUMPDEST PUSH32 0x596F7520617265206E6F7420746865206F776E6572206F662074686973207072 PUSH0 DUP3 ADD MSTORE PUSH32 0x6F70657274792E00000000000000000000000000000000000000000000000000 PUSH1 0x20 DUP3 ADD MSTORE POP JUMP JUMPDEST PUSH0 PUSH2 0x131B PUSH1 0x27 DUP4 PUSH2 0xE92 JUMP JUMPDEST SWAP2 POP PUSH2 0x1326 DUP3 PUSH2 0x12C1 JUMP JUMPDEST PUSH1 0x40 DUP3 ADD SWAP1 POP SWAP2 SWAP1 POP JUMP JUMPDEST PUSH0 PUSH1 0x20 DUP3 ADD SWAP1 POP DUP2 DUP2 SUB PUSH0 DUP4 ADD MSTORE PUSH2 0x1348 DUP2 PUSH2 0x130F JUMP JUMPDEST SWAP1 POP SWAP2 SWAP1 POP JUMP JUMPDEST PUSH32 0x496E76616C69642070726F706572747920494400000000000000000000000000 PUSH0 DUP3 ADD MSTORE POP JUMP JUMPDEST PUSH0 PUSH2 0x1383 PUSH1 0x13 DUP4 PUSH2 0xE92 JUMP JUMPDEST SWAP2 POP PUSH2 0x138E DUP3 PUSH2 0x134F JUMP JUMPDEST PUSH1 0x20 DUP3 ADD SWAP1 POP SWAP2 SWAP1 POP JUMP JUMPDEST PUSH0 PUSH1 0x20 DUP3 ADD SWAP1 POP DUP2 DUP2 SUB PUSH0 DUP4 ADD MSTORE PUSH2 0x13B0 DUP2 PUSH2 0x1377 JUMP JUMPDEST SWAP1 POP SWAP2 SWAP1 POP JUMP JUMPDEST PUSH0 PUSH2 0x13C1 DUP3 PUSH2 0x922 JUMP JUMPDEST SWAP2 POP PUSH0 DUP3 SUB PUSH2 0x13D3 JUMPI PUSH2 0x13D2 PUSH2 0x124D JUMP JUMPDEST JUMPDEST PUSH1 0x1 DUP3 SUB SWAP1 POP SWAP2 SWAP1 POP JUMP INVALID LOG2 PUSH5 0x6970667358 0x22 SLT KECCAK256 CALL EQ 0xE9 0xDA JUMPDEST DUP11 0x26 0xDE PUSH4 0x10787DC0 CHAINID BASEFEE SWAP14 0xA6 0xD4 BALANCE 0xE PUSH9 0x425BFCEBE58D1B371 0x28 SWAP12 PUSH5 0x736F6C6343 STOP ADDMOD NOT STOP CALLER "
				},
				"gasEstimates": {
					"creation": {
						"codeDepositCost": "1028000",
						"executionCost": "1065",
						"totalCost": "1029065"
					},
					"external": {
						"addProperty(string,string,uint256,int256,int256)": "infinite",
						"bookProperty(uint256,uint256,uint256)": "infinite",
						"getProperty(uint256)": "infinite",
						"nextPropertyId()": "2425",
						"properties(uint256)": "infinite",
						"removeProperty(uint256)": "infinite"
					}
				},
				"methodIdentifiers": {
					"addProperty(string,string,uint256,int256,int256)": "abdb64d4",
					"bookProperty(uint256,uint256,uint256)": "6989a649",
					"getProperty(uint256)": "32665ffb",
					"nextPropertyId()": "39500f34",
					"properties(uint256)": "f7b10808",
					"removeProperty(uint256)": "bc43d06f"
				}
			},
			"storageLayout": {
				"storage": [
					{
						"astId": 44,
						"contract": "contracts/PropertyManagement.sol:PropertyManagement",
						"label": "properties",
						"offset": 0,
						"slot": "0",
						"type": "t_mapping(t_uint256,t_struct(Property)25_storage)"
					},
					{
						"astId": 46,
						"contract": "contracts/PropertyManagement.sol:PropertyManagement",
						"label": "nextPropertyId",
						"offset": 0,
						"slot": "1",
						"type": "t_uint256"
					}
				],
				"types": {
					"t_address": {
						"encoding": "inplace",
						"label": "address",
						"numberOfBytes": "20"
					},
					"t_array(t_struct(Period)6_storage)dyn_storage": {
						"base": "t_struct(Period)6_storage",
						"encoding": "dynamic_array",
						"label": "struct PropertyManagement.Period[]",
						"numberOfBytes": "32"
					},
					"t_int256": {
						"encoding": "inplace",
						"label": "int256",
						"numberOfBytes": "32"
					},
					"t_mapping(t_uint256,t_struct(Property)25_storage)": {
						"encoding": "mapping",
						"key": "t_uint256",
						"label": "mapping(uint256 => struct PropertyManagement.Property)",
						"numberOfBytes": "32",
						"value": "t_struct(Property)25_storage"
					},
					"t_string_storage": {
						"encoding": "bytes",
						"label": "string",
						"numberOfBytes": "32"
					},
					"t_struct(Period)6_storage": {
						"encoding": "inplace",
						"label": "struct PropertyManagement.Period",
						"members": [
							{
								"astId": 3,
								"contract": "contracts/PropertyManagement.sol:PropertyManagement",
								"label": "startDate",
								"offset": 0,
								"slot": "0",
								"type": "t_uint256"
							},
							{
								"astId": 5,
								"contract": "contracts/PropertyManagement.sol:PropertyManagement",
								"label": "endDate",
								"offset": 0,
								"slot": "1",
								"type": "t_uint256"
							}
						],
						"numberOfBytes": "64"
					},
					"t_struct(Property)25_storage": {
						"encoding": "inplace",
						"label": "struct PropertyManagement.Property",
						"members": [
							{
								"astId": 8,
								"contract": "contracts/PropertyManagement.sol:PropertyManagement",
								"label": "id",
								"offset": 0,
								"slot": "0",
								"type": "t_uint256"
							},
							{
								"astId": 10,
								"contract": "contracts/PropertyManagement.sol:PropertyManagement",
								"label": "owner",
								"offset": 0,
								"slot": "1",
								"type": "t_address"
							},
							{
								"astId": 12,
								"contract": "contracts/PropertyManagement.sol:PropertyManagement",
								"label": "name",
								"offset": 0,
								"slot": "2",
								"type": "t_string_storage"
							},
							{
								"astId": 14,
								"contract": "contracts/PropertyManagement.sol:PropertyManagement",
								"label": "latitude",
								"offset": 0,
								"slot": "3",
								"type": "t_int256"
							},
							{
								"astId": 16,
								"contract": "contracts/PropertyManagement.sol:PropertyManagement",
								"label": "longitude",
								"offset": 0,
								"slot": "4",
								"type": "t_int256"
							},
							{
								"astId": 18,
								"contract": "contracts/PropertyManagement.sol:PropertyManagement",
								"label": "description",
								"offset": 0,
								"slot": "5",
								"type": "t_string_storage"
							},
							{
								"astId": 20,
								"contract": "contracts/PropertyManagement.sol:PropertyManagement",
								"label": "pricePerNight",
								"offset": 0,
								"slot": "6",
								"type": "t_uint256"
							},
							{
								"astId": 24,
								"contract": "contracts/PropertyManagement.sol:PropertyManagement",
								"label": "bookedPeriods",
								"offset": 0,
								"slot": "7",
								"type": "t_array(t_struct(Period)6_storage)dyn_storage"
							}
						],
						"numberOfBytes": "256"
					},
					"t_uint256": {
						"encoding": "inplace",
						"label": "uint256",
						"numberOfBytes": "32"
					}
				}
			},
			"userdoc": {
				"kind": "user",
				"methods": {},
				"version": 1
			}
		}
	}
}