{
	"contracts/PropertyReservation.sol": {
		"PropertyReservation": {
			"abi": [
				{
					"inputs": [
						{
							"internalType": "contract PropertyManagement",
							"name": "_propertyManagement",
							"type": "address"
						}
					],
					"stateMutability": "nonpayable",
					"type": "constructor"
				},
				{
					"anonymous": false,
					"inputs": [
						{
							"indexed": true,
							"internalType": "address",
							"name": "user",
							"type": "address"
						},
						{
							"indexed": false,
							"internalType": "uint256",
							"name": "propertyId",
							"type": "uint256"
						}
					],
					"name": "ReservationCreated",
					"type": "event"
				},
				{
					"inputs": [],
					"name": "bookingCount",
					"outputs": [
						{
							"internalType": "uint256",
							"name": "",
							"type": "uint256"
						}
					],
					"stateMutability": "view",
					"type": "function"
				},
				{
					"inputs": [
						{
							"internalType": "uint256",
							"name": "",
							"type": "uint256"
						}
					],
					"name": "bookings",
					"outputs": [
						{
							"internalType": "uint256",
							"name": "id",
							"type": "uint256"
						},
						{
							"internalType": "uint256",
							"name": "propertyId",
							"type": "uint256"
						},
						{
							"internalType": "uint256",
							"name": "startDate",
							"type": "uint256"
						},
						{
							"internalType": "uint256",
							"name": "endDate",
							"type": "uint256"
						},
						{
							"internalType": "uint256",
							"name": "price",
							"type": "uint256"
						},
						{
							"internalType": "address",
							"name": "bookerAddr",
							"type": "address"
						}
					],
					"stateMutability": "view",
					"type": "function"
				},
				{
					"inputs": [],
					"name": "propertyManagement",
					"outputs": [
						{
							"internalType": "contract PropertyManagement",
							"name": "",
							"type": "address"
						}
					],
					"stateMutability": "view",
					"type": "function"
				},
				{
					"inputs": [
						{
							"internalType": "uint256",
							"name": "_propertyId",
							"type": "uint256"
						},
						{
							"internalType": "uint256",
							"name": "startDate",
							"type": "uint256"
						},
						{
							"internalType": "uint256",
							"name": "endDate",
							"type": "uint256"
						}
					],
					"name": "reserveProperty",
					"outputs": [],
					"stateMutability": "nonpayable",
					"type": "function"
				}
			],
			"devdoc": {
				"kind": "dev",
				"methods": {},
				"version": 1
			},
			"evm": {
				"assembly": "    /* \"contracts/PropertyReservation.sol\":110:2416  contract PropertyReservation {... */\n  mstore(0x40, 0x80)\n    /* \"contracts/PropertyReservation.sol\":734:845  constructor(PropertyManagement _propertyManagement) {... */\n  callvalue\n  dup1\n  iszero\n  tag_1\n  jumpi\n  0x00\n  dup1\n  revert\ntag_1:\n  pop\n  mload(0x40)\n  sub(codesize, bytecodeSize)\n  dup1\n  bytecodeSize\n  dup4\n  codecopy\n  dup2\n  dup2\n  add\n  0x40\n  mstore\n  dup2\n  add\n  swap1\n  tag_2\n  swap2\n  swap1\n  tag_3\n  jump\t// in\ntag_2:\n    /* \"contracts/PropertyReservation.sol\":818:837  _propertyManagement */\n  dup1\n    /* \"contracts/PropertyReservation.sol\":797:815  propertyManagement */\n  0x00\n  dup1\n    /* \"contracts/PropertyReservation.sol\":797:837  propertyManagement = _propertyManagement */\n  0x0100\n  exp\n  dup2\n  sload\n  dup2\n  0xffffffffffffffffffffffffffffffffffffffff\n  mul\n  not\n  and\n  swap1\n  dup4\n  0xffffffffffffffffffffffffffffffffffffffff\n  and\n  mul\n  or\n  swap1\n  sstore\n  pop\n    /* \"contracts/PropertyReservation.sol\":734:845  constructor(PropertyManagement _propertyManagement) {... */\n  pop\n    /* \"contracts/PropertyReservation.sol\":110:2416  contract PropertyReservation {... */\n  jump(tag_6)\n    /* \"#utility.yul\":88:205   */\ntag_8:\n    /* \"#utility.yul\":197:198   */\n  0x00\n    /* \"#utility.yul\":194:195   */\n  dup1\n    /* \"#utility.yul\":187:199   */\n  revert\n    /* \"#utility.yul\":334:460   */\ntag_10:\n    /* \"#utility.yul\":371:378   */\n  0x00\n    /* \"#utility.yul\":411:453   */\n  0xffffffffffffffffffffffffffffffffffffffff\n    /* \"#utility.yul\":404:409   */\n  dup3\n    /* \"#utility.yul\":400:454   */\n  and\n    /* \"#utility.yul\":389:454   */\n  swap1\n  pop\n    /* \"#utility.yul\":334:460   */\n  swap2\n  swap1\n  pop\n  jump\t// out\n    /* \"#utility.yul\":466:562   */\ntag_11:\n    /* \"#utility.yul\":503:510   */\n  0x00\n    /* \"#utility.yul\":532:556   */\n  tag_21\n    /* \"#utility.yul\":550:555   */\n  dup3\n    /* \"#utility.yul\":532:556   */\n  tag_10\n  jump\t// in\ntag_21:\n    /* \"#utility.yul\":521:556   */\n  swap1\n  pop\n    /* \"#utility.yul\":466:562   */\n  swap2\n  swap1\n  pop\n  jump\t// out\n    /* \"#utility.yul\":568:690   */\ntag_12:\n    /* \"#utility.yul\":631:638   */\n  0x00\n    /* \"#utility.yul\":660:684   */\n  tag_23\n    /* \"#utility.yul\":678:683   */\n  dup3\n    /* \"#utility.yul\":660:684   */\n  tag_11\n  jump\t// in\ntag_23:\n    /* \"#utility.yul\":649:684   */\n  swap1\n  pop\n    /* \"#utility.yul\":568:690   */\n  swap2\n  swap1\n  pop\n  jump\t// out\n    /* \"#utility.yul\":696:870   */\ntag_13:\n    /* \"#utility.yul\":795:845   */\n  tag_25\n    /* \"#utility.yul\":839:844   */\n  dup2\n    /* \"#utility.yul\":795:845   */\n  tag_12\n  jump\t// in\ntag_25:\n    /* \"#utility.yul\":788:793   */\n  dup2\n    /* \"#utility.yul\":785:846   */\n  eq\n    /* \"#utility.yul\":775:864   */\n  tag_26\n  jumpi\n    /* \"#utility.yul\":860:861   */\n  0x00\n    /* \"#utility.yul\":857:858   */\n  dup1\n    /* \"#utility.yul\":850:862   */\n  revert\n    /* \"#utility.yul\":775:864   */\ntag_26:\n    /* \"#utility.yul\":696:870   */\n  pop\n  jump\t// out\n    /* \"#utility.yul\":876:1071   */\ntag_14:\n    /* \"#utility.yul\":959:964   */\n  0x00\n    /* \"#utility.yul\":990:996   */\n  dup2\n    /* \"#utility.yul\":984:997   */\n  mload\n    /* \"#utility.yul\":975:997   */\n  swap1\n  pop\n    /* \"#utility.yul\":1006:1065   */\n  tag_28\n    /* \"#utility.yul\":1059:1064   */\n  dup2\n    /* \"#utility.yul\":1006:1065   */\n  tag_13\n  jump\t// in\ntag_28:\n    /* \"#utility.yul\":876:1071   */\n  swap3\n  swap2\n  pop\n  pop\n  jump\t// out\n    /* \"#utility.yul\":1077:1480   */\ntag_3:\n    /* \"#utility.yul\":1173:1179   */\n  0x00\n    /* \"#utility.yul\":1222:1224   */\n  0x20\n    /* \"#utility.yul\":1210:1219   */\n  dup3\n    /* \"#utility.yul\":1201:1208   */\n  dup5\n    /* \"#utility.yul\":1197:1220   */\n  sub\n    /* \"#utility.yul\":1193:1225   */\n  slt\n    /* \"#utility.yul\":1190:1309   */\n  iszero\n  tag_30\n  jumpi\n    /* \"#utility.yul\":1228:1307   */\n  tag_31\n  tag_8\n  jump\t// in\ntag_31:\n    /* \"#utility.yul\":1190:1309   */\ntag_30:\n    /* \"#utility.yul\":1348:1349   */\n  0x00\n    /* \"#utility.yul\":1373:1463   */\n  tag_32\n    /* \"#utility.yul\":1455:1462   */\n  dup5\n    /* \"#utility.yul\":1446:1452   */\n  dup3\n    /* \"#utility.yul\":1435:1444   */\n  dup6\n    /* \"#utility.yul\":1431:1453   */\n  add\n    /* \"#utility.yul\":1373:1463   */\n  tag_14\n  jump\t// in\ntag_32:\n    /* \"#utility.yul\":1363:1463   */\n  swap2\n  pop\n    /* \"#utility.yul\":1319:1473   */\n  pop\n    /* \"#utility.yul\":1077:1480   */\n  swap3\n  swap2\n  pop\n  pop\n  jump\t// out\n    /* \"contracts/PropertyReservation.sol\":110:2416  contract PropertyReservation {... */\ntag_6:\n  dataSize(sub_0)\n  dup1\n  dataOffset(sub_0)\n  0x00\n  codecopy\n  0x00\n  return\nstop\n\nsub_0: assembly {\n        /* \"contracts/PropertyReservation.sol\":110:2416  contract PropertyReservation {... */\n      mstore(0x40, 0x80)\n      callvalue\n      dup1\n      iszero\n      tag_1\n      jumpi\n      0x00\n      dup1\n      revert\n    tag_1:\n      pop\n      jumpi(tag_2, lt(calldatasize, 0x04))\n      shr(0xe0, calldataload(0x00))\n      dup1\n      0x1dab301e\n      eq\n      tag_3\n      jumpi\n      dup1\n      0x606b681d\n      eq\n      tag_4\n      jumpi\n      dup1\n      0x6d759172\n      eq\n      tag_5\n      jumpi\n      dup1\n      0xace6d4dd\n      eq\n      tag_6\n      jumpi\n    tag_2:\n      0x00\n      dup1\n      revert\n        /* \"contracts/PropertyReservation.sol\":535:575  mapping(uint => Booking) public bookings */\n    tag_3:\n      tag_7\n      0x04\n      dup1\n      calldatasize\n      sub\n      dup2\n      add\n      swap1\n      tag_8\n      swap2\n      swap1\n      tag_9\n      jump\t// in\n    tag_8:\n      tag_10\n      jump\t// in\n    tag_7:\n      mload(0x40)\n      tag_11\n      swap7\n      swap6\n      swap5\n      swap4\n      swap3\n      swap2\n      swap1\n      tag_12\n      jump\t// in\n    tag_11:\n      mload(0x40)\n      dup1\n      swap2\n      sub\n      swap1\n      return\n        /* \"contracts/PropertyReservation.sol\":1123:2413  function reserveProperty(uint _propertyId, uint startDate, uint endDate) external onlyAuthenticated {... */\n    tag_4:\n      tag_13\n      0x04\n      dup1\n      calldatasize\n      sub\n      dup2\n      add\n      swap1\n      tag_14\n      swap2\n      swap1\n      tag_15\n      jump\t// in\n    tag_14:\n      tag_16\n      jump\t// in\n    tag_13:\n      stop\n        /* \"contracts/PropertyReservation.sol\":582:609  uint256 public bookingCount */\n    tag_5:\n      tag_17\n      tag_18\n      jump\t// in\n    tag_17:\n      mload(0x40)\n      tag_19\n      swap2\n      swap1\n      tag_20\n      jump\t// in\n    tag_19:\n      mload(0x40)\n      dup1\n      swap2\n      sub\n      swap1\n      return\n        /* \"contracts/PropertyReservation.sol\":219:263  PropertyManagement public propertyManagement */\n    tag_6:\n      tag_21\n      tag_22\n      jump\t// in\n    tag_21:\n      mload(0x40)\n      tag_23\n      swap2\n      swap1\n      tag_24\n      jump\t// in\n    tag_23:\n      mload(0x40)\n      dup1\n      swap2\n      sub\n      swap1\n      return\n        /* \"contracts/PropertyReservation.sol\":535:575  mapping(uint => Booking) public bookings */\n    tag_10:\n      mstore(0x20, 0x01)\n      dup1\n      0x00\n      mstore\n      keccak256(0x00, 0x40)\n      0x00\n      swap2\n      pop\n      swap1\n      pop\n      dup1\n      0x00\n      add\n      sload\n      swap1\n      dup1\n      0x01\n      add\n      sload\n      swap1\n      dup1\n      0x02\n      add\n      sload\n      swap1\n      dup1\n      0x03\n      add\n      sload\n      swap1\n      dup1\n      0x04\n      add\n      sload\n      swap1\n      dup1\n      0x05\n      add\n      0x00\n      swap1\n      sload\n      swap1\n      0x0100\n      exp\n      swap1\n      div\n      0xffffffffffffffffffffffffffffffffffffffff\n      and\n      swap1\n      pop\n      dup7\n      jump\t// out\n        /* \"contracts/PropertyReservation.sol\":1123:2413  function reserveProperty(uint _propertyId, uint startDate, uint endDate) external onlyAuthenticated {... */\n    tag_16:\n        /* \"contracts/PropertyReservation.sol\":1011:1012  0 */\n      0x00\n        /* \"contracts/PropertyReservation.sol\":989:1013  msg.sender != address(0) */\n      0xffffffffffffffffffffffffffffffffffffffff\n      and\n        /* \"contracts/PropertyReservation.sol\":989:999  msg.sender */\n      caller\n        /* \"contracts/PropertyReservation.sol\":989:1013  msg.sender != address(0) */\n      0xffffffffffffffffffffffffffffffffffffffff\n      and\n      sub\n        /* \"contracts/PropertyReservation.sol\":981:1041  require(msg.sender != address(0), \"User not authenticated.\") */\n      tag_26\n      jumpi\n      mload(0x40)\n      0x08c379a000000000000000000000000000000000000000000000000000000000\n      dup2\n      mstore\n      0x04\n      add\n      tag_27\n      swap1\n      tag_28\n      jump\t// in\n    tag_27:\n      mload(0x40)\n      dup1\n      swap2\n      sub\n      swap1\n      revert\n    tag_26:\n        /* \"contracts/PropertyReservation.sol\":1255:1262  endDate */\n      dup1\n        /* \"contracts/PropertyReservation.sol\":1242:1251  startDate */\n      dup3\n        /* \"contracts/PropertyReservation.sol\":1242:1262  startDate <= endDate */\n      gt\n      iszero\n        /* \"contracts/PropertyReservation.sol\":1234:1317  require(startDate <= endDate, \"Invalid period: start date must be before end date\") */\n      tag_30\n      jumpi\n      mload(0x40)\n      0x08c379a000000000000000000000000000000000000000000000000000000000\n      dup2\n      mstore\n      0x04\n      add\n      tag_31\n      swap1\n      tag_32\n      jump\t// in\n    tag_31:\n      mload(0x40)\n      dup1\n      swap2\n      sub\n      swap1\n      revert\n    tag_30:\n        /* \"contracts/PropertyReservation.sol\":1330:1373  PropertyManagement.Property memory property */\n      0x00\n        /* \"contracts/PropertyReservation.sol\":1376:1394  propertyManagement */\n      dup1\n      0x00\n      swap1\n      sload\n      swap1\n      0x0100\n      exp\n      swap1\n      div\n      0xffffffffffffffffffffffffffffffffffffffff\n      and\n        /* \"contracts/PropertyReservation.sol\":1376:1406  propertyManagement.getProperty */\n      0xffffffffffffffffffffffffffffffffffffffff\n      and\n      0x32665ffb\n        /* \"contracts/PropertyReservation.sol\":1407:1418  _propertyId */\n      dup6\n        /* \"contracts/PropertyReservation.sol\":1376:1419  propertyManagement.getProperty(_propertyId) */\n      mload(0x40)\n      dup3\n      0xffffffff\n      and\n      0xe0\n      shl\n      dup2\n      mstore\n      0x04\n      add\n      tag_33\n      swap2\n      swap1\n      tag_20\n      jump\t// in\n    tag_33:\n      0x00\n      mload(0x40)\n      dup1\n      dup4\n      sub\n      dup2\n      dup7\n      gas\n      staticcall\n      iszero\n      dup1\n      iszero\n      tag_35\n      jumpi\n      returndatasize\n      0x00\n      dup1\n      returndatacopy\n      revert(0x00, returndatasize)\n    tag_35:\n      pop\n      pop\n      pop\n      pop\n      mload(0x40)\n      returndatasize\n      0x00\n      dup3\n      returndatacopy\n      returndatasize\n      not(0x1f)\n      0x1f\n      dup3\n      add\n      and\n      dup3\n      add\n      dup1\n      0x40\n      mstore\n      pop\n      dup2\n      add\n      swap1\n      tag_36\n      swap2\n      swap1\n      tag_37\n      jump\t// in\n    tag_36:\n        /* \"contracts/PropertyReservation.sol\":1330:1419  PropertyManagement.Property memory property = propertyManagement.getProperty(_propertyId) */\n      swap1\n      pop\n        /* \"contracts/PropertyReservation.sol\":1435:1444  uint256 i */\n      0x00\n        /* \"contracts/PropertyReservation.sol\":1430:1756  for (uint256 i = 0; i < property.bookedPeriods.length; i++) {... */\n    tag_38:\n        /* \"contracts/PropertyReservation.sol\":1454:1462  property */\n      dup2\n        /* \"contracts/PropertyReservation.sol\":1454:1476  property.bookedPeriods */\n      0xe0\n      add\n      mload\n        /* \"contracts/PropertyReservation.sol\":1454:1483  property.bookedPeriods.length */\n      mload\n        /* \"contracts/PropertyReservation.sol\":1450:1451  i */\n      dup2\n        /* \"contracts/PropertyReservation.sol\":1450:1483  i < property.bookedPeriods.length */\n      lt\n        /* \"contracts/PropertyReservation.sol\":1430:1756  for (uint256 i = 0; i < property.bookedPeriods.length; i++) {... */\n      iszero\n      tag_39\n      jumpi\n        /* \"contracts/PropertyReservation.sol\":1505:1544  PropertyManagement.Period memory period */\n      0x00\n        /* \"contracts/PropertyReservation.sol\":1547:1555  property */\n      dup3\n        /* \"contracts/PropertyReservation.sol\":1547:1569  property.bookedPeriods */\n      0xe0\n      add\n      mload\n        /* \"contracts/PropertyReservation.sol\":1570:1571  i */\n      dup3\n        /* \"contracts/PropertyReservation.sol\":1547:1572  property.bookedPeriods[i] */\n      dup2\n      mload\n      dup2\n      lt\n      tag_41\n      jumpi\n      tag_42\n      tag_43\n      jump\t// in\n    tag_42:\n    tag_41:\n      0x20\n      mul\n      0x20\n      add\n      add\n      mload\n        /* \"contracts/PropertyReservation.sol\":1505:1572  PropertyManagement.Period memory period = property.bookedPeriods[i] */\n      swap1\n      pop\n        /* \"contracts/PropertyReservation.sol\":1605:1611  period */\n      dup1\n        /* \"contracts/PropertyReservation.sol\":1605:1619  period.endDate */\n      0x20\n      add\n      mload\n        /* \"contracts/PropertyReservation.sol\":1592:1601  startDate */\n      dup6\n        /* \"contracts/PropertyReservation.sol\":1592:1619  startDate <= period.endDate */\n      gt\n      iszero\n        /* \"contracts/PropertyReservation.sol\":1591:1653  (startDate <= period.endDate) && (endDate >= period.startDate) */\n      dup1\n      iszero\n      tag_44\n      jumpi\n      pop\n        /* \"contracts/PropertyReservation.sol\":1636:1642  period */\n      dup1\n        /* \"contracts/PropertyReservation.sol\":1636:1652  period.startDate */\n      0x00\n      add\n      mload\n        /* \"contracts/PropertyReservation.sol\":1625:1632  endDate */\n      dup5\n        /* \"contracts/PropertyReservation.sol\":1625:1652  endDate >= period.startDate */\n      lt\n      iszero\n        /* \"contracts/PropertyReservation.sol\":1591:1653  (startDate <= period.endDate) && (endDate >= period.startDate) */\n    tag_44:\n        /* \"contracts/PropertyReservation.sol\":1587:1745  if ((startDate <= period.endDate) && (endDate >= period.startDate)) {... */\n      iszero\n      tag_45\n      jumpi\n        /* \"contracts/PropertyReservation.sol\":1674:1729  revert(\"Property is already booked during this period\") */\n      mload(0x40)\n      0x08c379a000000000000000000000000000000000000000000000000000000000\n      dup2\n      mstore\n      0x04\n      add\n      tag_46\n      swap1\n      tag_47\n      jump\t// in\n    tag_46:\n      mload(0x40)\n      dup1\n      swap2\n      sub\n      swap1\n      revert\n        /* \"contracts/PropertyReservation.sol\":1587:1745  if ((startDate <= period.endDate) && (endDate >= period.startDate)) {... */\n    tag_45:\n        /* \"contracts/PropertyReservation.sol\":1490:1756  {... */\n      pop\n        /* \"contracts/PropertyReservation.sol\":1485:1488  i++ */\n      dup1\n      dup1\n      0x01\n      add\n      swap2\n      pop\n      pop\n        /* \"contracts/PropertyReservation.sol\":1430:1756  for (uint256 i = 0; i < property.bookedPeriods.length; i++) {... */\n      jump(tag_38)\n    tag_39:\n      pop\n        /* \"contracts/PropertyReservation.sol\":1768:1786  propertyManagement */\n      0x00\n      dup1\n      sload\n      swap1\n      0x0100\n      exp\n      swap1\n      div\n      0xffffffffffffffffffffffffffffffffffffffff\n      and\n        /* \"contracts/PropertyReservation.sol\":1768:1799  propertyManagement.bookProperty */\n      0xffffffffffffffffffffffffffffffffffffffff\n      and\n      0x6989a649\n        /* \"contracts/PropertyReservation.sol\":1800:1811  _propertyId */\n      dup6\n        /* \"contracts/PropertyReservation.sol\":1813:1822  startDate */\n      dup6\n        /* \"contracts/PropertyReservation.sol\":1824:1831  endDate */\n      dup6\n        /* \"contracts/PropertyReservation.sol\":1768:1832  propertyManagement.bookProperty(_propertyId, startDate, endDate) */\n      mload(0x40)\n      dup5\n      0xffffffff\n      and\n      0xe0\n      shl\n      dup2\n      mstore\n      0x04\n      add\n      tag_48\n      swap4\n      swap3\n      swap2\n      swap1\n      tag_49\n      jump\t// in\n    tag_48:\n      0x00\n      mload(0x40)\n      dup1\n      dup4\n      sub\n      dup2\n      0x00\n      dup8\n      dup1\n      extcodesize\n      iszero\n      dup1\n      iszero\n      tag_50\n      jumpi\n      0x00\n      dup1\n      revert\n    tag_50:\n      pop\n      gas\n      call\n      iszero\n      dup1\n      iszero\n      tag_52\n      jumpi\n      returndatasize\n      0x00\n      dup1\n      returndatacopy\n      revert(0x00, returndatasize)\n    tag_52:\n      pop\n      pop\n      pop\n      pop\n        /* \"contracts/PropertyReservation.sol\":1845:1862  uint256 totalDays */\n      0x00\n        /* \"contracts/PropertyReservation.sol\":1898:1899  1 */\n      0x01\n        /* \"contracts/PropertyReservation.sol\":1889:1895  1 days */\n      0x015180\n        /* \"contracts/PropertyReservation.sol\":1876:1885  startDate */\n      dup6\n        /* \"contracts/PropertyReservation.sol\":1866:1873  endDate */\n      dup6\n        /* \"contracts/PropertyReservation.sol\":1866:1885  endDate - startDate */\n      tag_53\n      swap2\n      swap1\n      tag_54\n      jump\t// in\n    tag_53:\n        /* \"contracts/PropertyReservation.sol\":1865:1895  (endDate - startDate) / 1 days */\n      tag_55\n      swap2\n      swap1\n      tag_56\n      jump\t// in\n    tag_55:\n        /* \"contracts/PropertyReservation.sol\":1865:1899  (endDate - startDate) / 1 days + 1 */\n      tag_57\n      swap2\n      swap1\n      tag_58\n      jump\t// in\n    tag_57:\n        /* \"contracts/PropertyReservation.sol\":1845:1899  uint256 totalDays = (endDate - startDate) / 1 days + 1 */\n      swap1\n      pop\n        /* \"contracts/PropertyReservation.sol\":1910:1928  uint256 totalPrice */\n      0x00\n        /* \"contracts/PropertyReservation.sol\":1943:1951  property */\n      dup3\n        /* \"contracts/PropertyReservation.sol\":1943:1965  property.pricePerNight */\n      0xc0\n      add\n      mload\n        /* \"contracts/PropertyReservation.sol\":1931:1940  totalDays */\n      dup3\n        /* \"contracts/PropertyReservation.sol\":1931:1965  totalDays * property.pricePerNight */\n      tag_59\n      swap2\n      swap1\n      tag_60\n      jump\t// in\n    tag_59:\n        /* \"contracts/PropertyReservation.sol\":1910:1965  uint256 totalPrice = totalDays * property.pricePerNight */\n      swap1\n      pop\n        /* \"contracts/PropertyReservation.sol\":2053:2054  1 */\n      0x01\n        /* \"contracts/PropertyReservation.sol\":2037:2049  bookingCount */\n      0x02\n      0x00\n        /* \"contracts/PropertyReservation.sol\":2037:2054  bookingCount += 1 */\n      dup3\n      dup3\n      sload\n      tag_61\n      swap2\n      swap1\n      tag_58\n      jump\t// in\n    tag_61:\n      swap3\n      pop\n      pop\n      dup2\n      swap1\n      sstore\n      pop\n        /* \"contracts/PropertyReservation.sol\":2090:2314  Booking({... */\n      mload(0x40)\n      dup1\n      0xc0\n      add\n      0x40\n      mstore\n      dup1\n        /* \"contracts/PropertyReservation.sol\":2117:2129  bookingCount */\n      sload(0x02)\n        /* \"contracts/PropertyReservation.sol\":2090:2314  Booking({... */\n      dup2\n      mstore\n      0x20\n      add\n        /* \"contracts/PropertyReservation.sol\":2156:2167  _propertyId */\n      dup8\n        /* \"contracts/PropertyReservation.sol\":2090:2314  Booking({... */\n      dup2\n      mstore\n      0x20\n      add\n        /* \"contracts/PropertyReservation.sol\":2193:2202  startDate */\n      dup7\n        /* \"contracts/PropertyReservation.sol\":2090:2314  Booking({... */\n      dup2\n      mstore\n      0x20\n      add\n        /* \"contracts/PropertyReservation.sol\":2226:2233  endDate */\n      dup6\n        /* \"contracts/PropertyReservation.sol\":2090:2314  Booking({... */\n      dup2\n      mstore\n      0x20\n      add\n        /* \"contracts/PropertyReservation.sol\":2255:2265  totalPrice */\n      dup3\n        /* \"contracts/PropertyReservation.sol\":2090:2314  Booking({... */\n      dup2\n      mstore\n      0x20\n      add\n        /* \"contracts/PropertyReservation.sol\":2292:2302  msg.sender */\n      caller\n        /* \"contracts/PropertyReservation.sol\":2090:2314  Booking({... */\n      0xffffffffffffffffffffffffffffffffffffffff\n      and\n      dup2\n      mstore\n      pop\n        /* \"contracts/PropertyReservation.sol\":2065:2073  bookings */\n      0x01\n        /* \"contracts/PropertyReservation.sol\":2065:2087  bookings[bookingCount] */\n      0x00\n        /* \"contracts/PropertyReservation.sol\":2074:2086  bookingCount */\n      sload(0x02)\n        /* \"contracts/PropertyReservation.sol\":2065:2087  bookings[bookingCount] */\n      dup2\n      mstore\n      0x20\n      add\n      swap1\n      dup2\n      mstore\n      0x20\n      add\n      0x00\n      keccak256\n        /* \"contracts/PropertyReservation.sol\":2065:2314  bookings[bookingCount] = Booking({... */\n      0x00\n      dup3\n      add\n      mload\n      dup2\n      0x00\n      add\n      sstore\n      0x20\n      dup3\n      add\n      mload\n      dup2\n      0x01\n      add\n      sstore\n      0x40\n      dup3\n      add\n      mload\n      dup2\n      0x02\n      add\n      sstore\n      0x60\n      dup3\n      add\n      mload\n      dup2\n      0x03\n      add\n      sstore\n      0x80\n      dup3\n      add\n      mload\n      dup2\n      0x04\n      add\n      sstore\n      0xa0\n      dup3\n      add\n      mload\n      dup2\n      0x05\n      add\n      exp(0x0100, 0x00)\n      dup2\n      sload\n      dup2\n      0xffffffffffffffffffffffffffffffffffffffff\n      mul\n      not\n      and\n      swap1\n      dup4\n      0xffffffffffffffffffffffffffffffffffffffff\n      and\n      mul\n      or\n      swap1\n      sstore\n      pop\n      swap1\n      pop\n      pop\n        /* \"contracts/PropertyReservation.sol\":2381:2391  msg.sender */\n      caller\n        /* \"contracts/PropertyReservation.sol\":2362:2405  ReservationCreated(msg.sender, _propertyId) */\n      0xffffffffffffffffffffffffffffffffffffffff\n      and\n      0xa9e9f4683bd8042d00addc26be910bd076c0606fc6a292d4678cd92bbdfad332\n        /* \"contracts/PropertyReservation.sol\":2393:2404  _propertyId */\n      dup8\n        /* \"contracts/PropertyReservation.sol\":2362:2405  ReservationCreated(msg.sender, _propertyId) */\n      mload(0x40)\n      tag_62\n      swap2\n      swap1\n      tag_20\n      jump\t// in\n    tag_62:\n      mload(0x40)\n      dup1\n      swap2\n      sub\n      swap1\n      log2\n        /* \"contracts/PropertyReservation.sol\":1223:2413  {... */\n      pop\n      pop\n      pop\n        /* \"contracts/PropertyReservation.sol\":1123:2413  function reserveProperty(uint _propertyId, uint startDate, uint endDate) external onlyAuthenticated {... */\n      pop\n      pop\n      pop\n      jump\t// out\n        /* \"contracts/PropertyReservation.sol\":582:609  uint256 public bookingCount */\n    tag_18:\n      sload(0x02)\n      dup2\n      jump\t// out\n        /* \"contracts/PropertyReservation.sol\":219:263  PropertyManagement public propertyManagement */\n    tag_22:\n      0x00\n      dup1\n      sload\n      swap1\n      0x0100\n      exp\n      swap1\n      div\n      0xffffffffffffffffffffffffffffffffffffffff\n      and\n      dup2\n      jump\t// out\n        /* \"#utility.yul\":7:82   */\n    tag_63:\n        /* \"#utility.yul\":40:46   */\n      0x00\n        /* \"#utility.yul\":73:75   */\n      0x40\n        /* \"#utility.yul\":67:76   */\n      mload\n        /* \"#utility.yul\":57:76   */\n      swap1\n      pop\n        /* \"#utility.yul\":7:82   */\n      swap1\n      jump\t// out\n        /* \"#utility.yul\":88:205   */\n    tag_64:\n        /* \"#utility.yul\":197:198   */\n      0x00\n        /* \"#utility.yul\":194:195   */\n      dup1\n        /* \"#utility.yul\":187:199   */\n      revert\n        /* \"#utility.yul\":211:328   */\n    tag_65:\n        /* \"#utility.yul\":320:321   */\n      0x00\n        /* \"#utility.yul\":317:318   */\n      dup1\n        /* \"#utility.yul\":310:322   */\n      revert\n        /* \"#utility.yul\":334:411   */\n    tag_66:\n        /* \"#utility.yul\":371:378   */\n      0x00\n        /* \"#utility.yul\":400:405   */\n      dup2\n        /* \"#utility.yul\":389:405   */\n      swap1\n      pop\n        /* \"#utility.yul\":334:411   */\n      swap2\n      swap1\n      pop\n      jump\t// out\n        /* \"#utility.yul\":417:539   */\n    tag_67:\n        /* \"#utility.yul\":490:514   */\n      tag_117\n        /* \"#utility.yul\":508:513   */\n      dup2\n        /* \"#utility.yul\":490:514   */\n      tag_66\n      jump\t// in\n    tag_117:\n        /* \"#utility.yul\":483:488   */\n      dup2\n        /* \"#utility.yul\":480:515   */\n      eq\n        /* \"#utility.yul\":470:533   */\n      tag_118\n      jumpi\n        /* \"#utility.yul\":529:530   */\n      0x00\n        /* \"#utility.yul\":526:527   */\n      dup1\n        /* \"#utility.yul\":519:531   */\n      revert\n        /* \"#utility.yul\":470:533   */\n    tag_118:\n        /* \"#utility.yul\":417:539   */\n      pop\n      jump\t// out\n        /* \"#utility.yul\":545:684   */\n    tag_68:\n        /* \"#utility.yul\":591:596   */\n      0x00\n        /* \"#utility.yul\":629:635   */\n      dup2\n        /* \"#utility.yul\":616:636   */\n      calldataload\n        /* \"#utility.yul\":607:636   */\n      swap1\n      pop\n        /* \"#utility.yul\":645:678   */\n      tag_120\n        /* \"#utility.yul\":672:677   */\n      dup2\n        /* \"#utility.yul\":645:678   */\n      tag_67\n      jump\t// in\n    tag_120:\n        /* \"#utility.yul\":545:684   */\n      swap3\n      swap2\n      pop\n      pop\n      jump\t// out\n        /* \"#utility.yul\":690:1019   */\n    tag_9:\n        /* \"#utility.yul\":749:755   */\n      0x00\n        /* \"#utility.yul\":798:800   */\n      0x20\n        /* \"#utility.yul\":786:795   */\n      dup3\n        /* \"#utility.yul\":777:784   */\n      dup5\n        /* \"#utility.yul\":773:796   */\n      sub\n        /* \"#utility.yul\":769:801   */\n      slt\n        /* \"#utility.yul\":766:885   */\n      iszero\n      tag_122\n      jumpi\n        /* \"#utility.yul\":804:883   */\n      tag_123\n      tag_64\n      jump\t// in\n    tag_123:\n        /* \"#utility.yul\":766:885   */\n    tag_122:\n        /* \"#utility.yul\":924:925   */\n      0x00\n        /* \"#utility.yul\":949:1002   */\n      tag_124\n        /* \"#utility.yul\":994:1001   */\n      dup5\n        /* \"#utility.yul\":985:991   */\n      dup3\n        /* \"#utility.yul\":974:983   */\n      dup6\n        /* \"#utility.yul\":970:992   */\n      add\n        /* \"#utility.yul\":949:1002   */\n      tag_68\n      jump\t// in\n    tag_124:\n        /* \"#utility.yul\":939:1002   */\n      swap2\n      pop\n        /* \"#utility.yul\":895:1012   */\n      pop\n        /* \"#utility.yul\":690:1019   */\n      swap3\n      swap2\n      pop\n      pop\n      jump\t// out\n        /* \"#utility.yul\":1025:1143   */\n    tag_69:\n        /* \"#utility.yul\":1112:1136   */\n      tag_126\n        /* \"#utility.yul\":1130:1135   */\n      dup2\n        /* \"#utility.yul\":1112:1136   */\n      tag_66\n      jump\t// in\n    tag_126:\n        /* \"#utility.yul\":1107:1110   */\n      dup3\n        /* \"#utility.yul\":1100:1137   */\n      mstore\n        /* \"#utility.yul\":1025:1143   */\n      pop\n      pop\n      jump\t// out\n        /* \"#utility.yul\":1149:1275   */\n    tag_70:\n        /* \"#utility.yul\":1186:1193   */\n      0x00\n        /* \"#utility.yul\":1226:1268   */\n      0xffffffffffffffffffffffffffffffffffffffff\n        /* \"#utility.yul\":1219:1224   */\n      dup3\n        /* \"#utility.yul\":1215:1269   */\n      and\n        /* \"#utility.yul\":1204:1269   */\n      swap1\n      pop\n        /* \"#utility.yul\":1149:1275   */\n      swap2\n      swap1\n      pop\n      jump\t// out\n        /* \"#utility.yul\":1281:1377   */\n    tag_71:\n        /* \"#utility.yul\":1318:1325   */\n      0x00\n        /* \"#utility.yul\":1347:1371   */\n      tag_129\n        /* \"#utility.yul\":1365:1370   */\n      dup3\n        /* \"#utility.yul\":1347:1371   */\n      tag_70\n      jump\t// in\n    tag_129:\n        /* \"#utility.yul\":1336:1371   */\n      swap1\n      pop\n        /* \"#utility.yul\":1281:1377   */\n      swap2\n      swap1\n      pop\n      jump\t// out\n        /* \"#utility.yul\":1383:1501   */\n    tag_72:\n        /* \"#utility.yul\":1470:1494   */\n      tag_131\n        /* \"#utility.yul\":1488:1493   */\n      dup2\n        /* \"#utility.yul\":1470:1494   */\n      tag_71\n      jump\t// in\n    tag_131:\n        /* \"#utility.yul\":1465:1468   */\n      dup3\n        /* \"#utility.yul\":1458:1495   */\n      mstore\n        /* \"#utility.yul\":1383:1501   */\n      pop\n      pop\n      jump\t// out\n        /* \"#utility.yul\":1507:2282   */\n    tag_12:\n        /* \"#utility.yul\":1740:1744   */\n      0x00\n        /* \"#utility.yul\":1778:1781   */\n      0xc0\n        /* \"#utility.yul\":1767:1776   */\n      dup3\n        /* \"#utility.yul\":1763:1782   */\n      add\n        /* \"#utility.yul\":1755:1782   */\n      swap1\n      pop\n        /* \"#utility.yul\":1792:1863   */\n      tag_133\n        /* \"#utility.yul\":1860:1861   */\n      0x00\n        /* \"#utility.yul\":1849:1858   */\n      dup4\n        /* \"#utility.yul\":1845:1862   */\n      add\n        /* \"#utility.yul\":1836:1842   */\n      dup10\n        /* \"#utility.yul\":1792:1863   */\n      tag_69\n      jump\t// in\n    tag_133:\n        /* \"#utility.yul\":1873:1945   */\n      tag_134\n        /* \"#utility.yul\":1941:1943   */\n      0x20\n        /* \"#utility.yul\":1930:1939   */\n      dup4\n        /* \"#utility.yul\":1926:1944   */\n      add\n        /* \"#utility.yul\":1917:1923   */\n      dup9\n        /* \"#utility.yul\":1873:1945   */\n      tag_69\n      jump\t// in\n    tag_134:\n        /* \"#utility.yul\":1955:2027   */\n      tag_135\n        /* \"#utility.yul\":2023:2025   */\n      0x40\n        /* \"#utility.yul\":2012:2021   */\n      dup4\n        /* \"#utility.yul\":2008:2026   */\n      add\n        /* \"#utility.yul\":1999:2005   */\n      dup8\n        /* \"#utility.yul\":1955:2027   */\n      tag_69\n      jump\t// in\n    tag_135:\n        /* \"#utility.yul\":2037:2109   */\n      tag_136\n        /* \"#utility.yul\":2105:2107   */\n      0x60\n        /* \"#utility.yul\":2094:2103   */\n      dup4\n        /* \"#utility.yul\":2090:2108   */\n      add\n        /* \"#utility.yul\":2081:2087   */\n      dup7\n        /* \"#utility.yul\":2037:2109   */\n      tag_69\n      jump\t// in\n    tag_136:\n        /* \"#utility.yul\":2119:2192   */\n      tag_137\n        /* \"#utility.yul\":2187:2190   */\n      0x80\n        /* \"#utility.yul\":2176:2185   */\n      dup4\n        /* \"#utility.yul\":2172:2191   */\n      add\n        /* \"#utility.yul\":2163:2169   */\n      dup6\n        /* \"#utility.yul\":2119:2192   */\n      tag_69\n      jump\t// in\n    tag_137:\n        /* \"#utility.yul\":2202:2275   */\n      tag_138\n        /* \"#utility.yul\":2270:2273   */\n      0xa0\n        /* \"#utility.yul\":2259:2268   */\n      dup4\n        /* \"#utility.yul\":2255:2274   */\n      add\n        /* \"#utility.yul\":2246:2252   */\n      dup5\n        /* \"#utility.yul\":2202:2275   */\n      tag_72\n      jump\t// in\n    tag_138:\n        /* \"#utility.yul\":1507:2282   */\n      swap8\n      swap7\n      pop\n      pop\n      pop\n      pop\n      pop\n      pop\n      pop\n      jump\t// out\n        /* \"#utility.yul\":2288:2907   */\n    tag_15:\n        /* \"#utility.yul\":2365:2371   */\n      0x00\n        /* \"#utility.yul\":2373:2379   */\n      dup1\n        /* \"#utility.yul\":2381:2387   */\n      0x00\n        /* \"#utility.yul\":2430:2432   */\n      0x60\n        /* \"#utility.yul\":2418:2427   */\n      dup5\n        /* \"#utility.yul\":2409:2416   */\n      dup7\n        /* \"#utility.yul\":2405:2428   */\n      sub\n        /* \"#utility.yul\":2401:2433   */\n      slt\n        /* \"#utility.yul\":2398:2517   */\n      iszero\n      tag_140\n      jumpi\n        /* \"#utility.yul\":2436:2515   */\n      tag_141\n      tag_64\n      jump\t// in\n    tag_141:\n        /* \"#utility.yul\":2398:2517   */\n    tag_140:\n        /* \"#utility.yul\":2556:2557   */\n      0x00\n        /* \"#utility.yul\":2581:2634   */\n      tag_142\n        /* \"#utility.yul\":2626:2633   */\n      dup7\n        /* \"#utility.yul\":2617:2623   */\n      dup3\n        /* \"#utility.yul\":2606:2615   */\n      dup8\n        /* \"#utility.yul\":2602:2624   */\n      add\n        /* \"#utility.yul\":2581:2634   */\n      tag_68\n      jump\t// in\n    tag_142:\n        /* \"#utility.yul\":2571:2634   */\n      swap4\n      pop\n        /* \"#utility.yul\":2527:2644   */\n      pop\n        /* \"#utility.yul\":2683:2685   */\n      0x20\n        /* \"#utility.yul\":2709:2762   */\n      tag_143\n        /* \"#utility.yul\":2754:2761   */\n      dup7\n        /* \"#utility.yul\":2745:2751   */\n      dup3\n        /* \"#utility.yul\":2734:2743   */\n      dup8\n        /* \"#utility.yul\":2730:2752   */\n      add\n        /* \"#utility.yul\":2709:2762   */\n      tag_68\n      jump\t// in\n    tag_143:\n        /* \"#utility.yul\":2699:2762   */\n      swap3\n      pop\n        /* \"#utility.yul\":2654:2772   */\n      pop\n        /* \"#utility.yul\":2811:2813   */\n      0x40\n        /* \"#utility.yul\":2837:2890   */\n      tag_144\n        /* \"#utility.yul\":2882:2889   */\n      dup7\n        /* \"#utility.yul\":2873:2879   */\n      dup3\n        /* \"#utility.yul\":2862:2871   */\n      dup8\n        /* \"#utility.yul\":2858:2880   */\n      add\n        /* \"#utility.yul\":2837:2890   */\n      tag_68\n      jump\t// in\n    tag_144:\n        /* \"#utility.yul\":2827:2890   */\n      swap2\n      pop\n        /* \"#utility.yul\":2782:2900   */\n      pop\n        /* \"#utility.yul\":2288:2907   */\n      swap3\n      pop\n      swap3\n      pop\n      swap3\n      jump\t// out\n        /* \"#utility.yul\":2913:3135   */\n    tag_20:\n        /* \"#utility.yul\":3006:3010   */\n      0x00\n        /* \"#utility.yul\":3044:3046   */\n      0x20\n        /* \"#utility.yul\":3033:3042   */\n      dup3\n        /* \"#utility.yul\":3029:3047   */\n      add\n        /* \"#utility.yul\":3021:3047   */\n      swap1\n      pop\n        /* \"#utility.yul\":3057:3128   */\n      tag_146\n        /* \"#utility.yul\":3125:3126   */\n      0x00\n        /* \"#utility.yul\":3114:3123   */\n      dup4\n        /* \"#utility.yul\":3110:3127   */\n      add\n        /* \"#utility.yul\":3101:3107   */\n      dup5\n        /* \"#utility.yul\":3057:3128   */\n      tag_69\n      jump\t// in\n    tag_146:\n        /* \"#utility.yul\":2913:3135   */\n      swap3\n      swap2\n      pop\n      pop\n      jump\t// out\n        /* \"#utility.yul\":3141:3201   */\n    tag_73:\n        /* \"#utility.yul\":3169:3172   */\n      0x00\n        /* \"#utility.yul\":3190:3195   */\n      dup2\n        /* \"#utility.yul\":3183:3195   */\n      swap1\n      pop\n        /* \"#utility.yul\":3141:3201   */\n      swap2\n      swap1\n      pop\n      jump\t// out\n        /* \"#utility.yul\":3207:3349   */\n    tag_74:\n        /* \"#utility.yul\":3257:3266   */\n      0x00\n        /* \"#utility.yul\":3290:3343   */\n      tag_149\n        /* \"#utility.yul\":3308:3342   */\n      tag_150\n        /* \"#utility.yul\":3317:3341   */\n      tag_151\n        /* \"#utility.yul\":3335:3340   */\n      dup5\n        /* \"#utility.yul\":3317:3341   */\n      tag_70\n      jump\t// in\n    tag_151:\n        /* \"#utility.yul\":3308:3342   */\n      tag_73\n      jump\t// in\n    tag_150:\n        /* \"#utility.yul\":3290:3343   */\n      tag_70\n      jump\t// in\n    tag_149:\n        /* \"#utility.yul\":3277:3343   */\n      swap1\n      pop\n        /* \"#utility.yul\":3207:3349   */\n      swap2\n      swap1\n      pop\n      jump\t// out\n        /* \"#utility.yul\":3355:3481   */\n    tag_75:\n        /* \"#utility.yul\":3405:3414   */\n      0x00\n        /* \"#utility.yul\":3438:3475   */\n      tag_153\n        /* \"#utility.yul\":3469:3474   */\n      dup3\n        /* \"#utility.yul\":3438:3475   */\n      tag_74\n      jump\t// in\n    tag_153:\n        /* \"#utility.yul\":3425:3475   */\n      swap1\n      pop\n        /* \"#utility.yul\":3355:3481   */\n      swap2\n      swap1\n      pop\n      jump\t// out\n        /* \"#utility.yul\":3487:3639   */\n    tag_76:\n        /* \"#utility.yul\":3563:3572   */\n      0x00\n        /* \"#utility.yul\":3596:3633   */\n      tag_155\n        /* \"#utility.yul\":3627:3632   */\n      dup3\n        /* \"#utility.yul\":3596:3633   */\n      tag_75\n      jump\t// in\n    tag_155:\n        /* \"#utility.yul\":3583:3633   */\n      swap1\n      pop\n        /* \"#utility.yul\":3487:3639   */\n      swap2\n      swap1\n      pop\n      jump\t// out\n        /* \"#utility.yul\":3645:3828   */\n    tag_77:\n        /* \"#utility.yul\":3758:3821   */\n      tag_157\n        /* \"#utility.yul\":3815:3820   */\n      dup2\n        /* \"#utility.yul\":3758:3821   */\n      tag_76\n      jump\t// in\n    tag_157:\n        /* \"#utility.yul\":3753:3756   */\n      dup3\n        /* \"#utility.yul\":3746:3822   */\n      mstore\n        /* \"#utility.yul\":3645:3828   */\n      pop\n      pop\n      jump\t// out\n        /* \"#utility.yul\":3834:4108   */\n    tag_24:\n        /* \"#utility.yul\":3953:3957   */\n      0x00\n        /* \"#utility.yul\":3991:3993   */\n      0x20\n        /* \"#utility.yul\":3980:3989   */\n      dup3\n        /* \"#utility.yul\":3976:3994   */\n      add\n        /* \"#utility.yul\":3968:3994   */\n      swap1\n      pop\n        /* \"#utility.yul\":4004:4101   */\n      tag_159\n        /* \"#utility.yul\":4098:4099   */\n      0x00\n        /* \"#utility.yul\":4087:4096   */\n      dup4\n        /* \"#utility.yul\":4083:4100   */\n      add\n        /* \"#utility.yul\":4074:4080   */\n      dup5\n        /* \"#utility.yul\":4004:4101   */\n      tag_77\n      jump\t// in\n    tag_159:\n        /* \"#utility.yul\":3834:4108   */\n      swap3\n      swap2\n      pop\n      pop\n      jump\t// out\n        /* \"#utility.yul\":4114:4283   */\n    tag_78:\n        /* \"#utility.yul\":4198:4209   */\n      0x00\n        /* \"#utility.yul\":4232:4238   */\n      dup3\n        /* \"#utility.yul\":4227:4230   */\n      dup3\n        /* \"#utility.yul\":4220:4239   */\n      mstore\n        /* \"#utility.yul\":4272:4276   */\n      0x20\n        /* \"#utility.yul\":4267:4270   */\n      dup3\n        /* \"#utility.yul\":4263:4277   */\n      add\n        /* \"#utility.yul\":4248:4277   */\n      swap1\n      pop\n        /* \"#utility.yul\":4114:4283   */\n      swap3\n      swap2\n      pop\n      pop\n      jump\t// out\n        /* \"#utility.yul\":4289:4462   */\n    tag_79:\n        /* \"#utility.yul\":4429:4454   */\n      0x55736572206e6f742061757468656e746963617465642e000000000000000000\n        /* \"#utility.yul\":4425:4426   */\n      0x00\n        /* \"#utility.yul\":4417:4423   */\n      dup3\n        /* \"#utility.yul\":4413:4427   */\n      add\n        /* \"#utility.yul\":4406:4455   */\n      mstore\n        /* \"#utility.yul\":4289:4462   */\n      pop\n      jump\t// out\n        /* \"#utility.yul\":4468:4834   */\n    tag_80:\n        /* \"#utility.yul\":4610:4613   */\n      0x00\n        /* \"#utility.yul\":4631:4698   */\n      tag_163\n        /* \"#utility.yul\":4695:4697   */\n      0x17\n        /* \"#utility.yul\":4690:4693   */\n      dup4\n        /* \"#utility.yul\":4631:4698   */\n      tag_78\n      jump\t// in\n    tag_163:\n        /* \"#utility.yul\":4624:4698   */\n      swap2\n      pop\n        /* \"#utility.yul\":4707:4800   */\n      tag_164\n        /* \"#utility.yul\":4796:4799   */\n      dup3\n        /* \"#utility.yul\":4707:4800   */\n      tag_79\n      jump\t// in\n    tag_164:\n        /* \"#utility.yul\":4825:4827   */\n      0x20\n        /* \"#utility.yul\":4820:4823   */\n      dup3\n        /* \"#utility.yul\":4816:4828   */\n      add\n        /* \"#utility.yul\":4809:4828   */\n      swap1\n      pop\n        /* \"#utility.yul\":4468:4834   */\n      swap2\n      swap1\n      pop\n      jump\t// out\n        /* \"#utility.yul\":4840:5259   */\n    tag_28:\n        /* \"#utility.yul\":5006:5010   */\n      0x00\n        /* \"#utility.yul\":5044:5046   */\n      0x20\n        /* \"#utility.yul\":5033:5042   */\n      dup3\n        /* \"#utility.yul\":5029:5047   */\n      add\n        /* \"#utility.yul\":5021:5047   */\n      swap1\n      pop\n        /* \"#utility.yul\":5093:5102   */\n      dup2\n        /* \"#utility.yul\":5087:5091   */\n      dup2\n        /* \"#utility.yul\":5083:5103   */\n      sub\n        /* \"#utility.yul\":5079:5080   */\n      0x00\n        /* \"#utility.yul\":5068:5077   */\n      dup4\n        /* \"#utility.yul\":5064:5081   */\n      add\n        /* \"#utility.yul\":5057:5104   */\n      mstore\n        /* \"#utility.yul\":5121:5252   */\n      tag_166\n        /* \"#utility.yul\":5247:5251   */\n      dup2\n        /* \"#utility.yul\":5121:5252   */\n      tag_80\n      jump\t// in\n    tag_166:\n        /* \"#utility.yul\":5113:5252   */\n      swap1\n      pop\n        /* \"#utility.yul\":4840:5259   */\n      swap2\n      swap1\n      pop\n      jump\t// out\n        /* \"#utility.yul\":5265:5502   */\n    tag_81:\n        /* \"#utility.yul\":5405:5439   */\n      0x496e76616c696420706572696f643a2073746172742064617465206d75737420\n        /* \"#utility.yul\":5401:5402   */\n      0x00\n        /* \"#utility.yul\":5393:5399   */\n      dup3\n        /* \"#utility.yul\":5389:5403   */\n      add\n        /* \"#utility.yul\":5382:5440   */\n      mstore\n        /* \"#utility.yul\":5474:5494   */\n      0x6265206265666f726520656e6420646174650000000000000000000000000000\n        /* \"#utility.yul\":5469:5471   */\n      0x20\n        /* \"#utility.yul\":5461:5467   */\n      dup3\n        /* \"#utility.yul\":5457:5472   */\n      add\n        /* \"#utility.yul\":5450:5495   */\n      mstore\n        /* \"#utility.yul\":5265:5502   */\n      pop\n      jump\t// out\n        /* \"#utility.yul\":5508:5874   */\n    tag_82:\n        /* \"#utility.yul\":5650:5653   */\n      0x00\n        /* \"#utility.yul\":5671:5738   */\n      tag_169\n        /* \"#utility.yul\":5735:5737   */\n      0x32\n        /* \"#utility.yul\":5730:5733   */\n      dup4\n        /* \"#utility.yul\":5671:5738   */\n      tag_78\n      jump\t// in\n    tag_169:\n        /* \"#utility.yul\":5664:5738   */\n      swap2\n      pop\n        /* \"#utility.yul\":5747:5840   */\n      tag_170\n        /* \"#utility.yul\":5836:5839   */\n      dup3\n        /* \"#utility.yul\":5747:5840   */\n      tag_81\n      jump\t// in\n    tag_170:\n        /* \"#utility.yul\":5865:5867   */\n      0x40\n        /* \"#utility.yul\":5860:5863   */\n      dup3\n        /* \"#utility.yul\":5856:5868   */\n      add\n        /* \"#utility.yul\":5849:5868   */\n      swap1\n      pop\n        /* \"#utility.yul\":5508:5874   */\n      swap2\n      swap1\n      pop\n      jump\t// out\n        /* \"#utility.yul\":5880:6299   */\n    tag_32:\n        /* \"#utility.yul\":6046:6050   */\n      0x00\n        /* \"#utility.yul\":6084:6086   */\n      0x20\n        /* \"#utility.yul\":6073:6082   */\n      dup3\n        /* \"#utility.yul\":6069:6087   */\n      add\n        /* \"#utility.yul\":6061:6087   */\n      swap1\n      pop\n        /* \"#utility.yul\":6133:6142   */\n      dup2\n        /* \"#utility.yul\":6127:6131   */\n      dup2\n        /* \"#utility.yul\":6123:6143   */\n      sub\n        /* \"#utility.yul\":6119:6120   */\n      0x00\n        /* \"#utility.yul\":6108:6117   */\n      dup4\n        /* \"#utility.yul\":6104:6121   */\n      add\n        /* \"#utility.yul\":6097:6144   */\n      mstore\n        /* \"#utility.yul\":6161:6292   */\n      tag_172\n        /* \"#utility.yul\":6287:6291   */\n      dup2\n        /* \"#utility.yul\":6161:6292   */\n      tag_82\n      jump\t// in\n    tag_172:\n        /* \"#utility.yul\":6153:6292   */\n      swap1\n      pop\n        /* \"#utility.yul\":5880:6299   */\n      swap2\n      swap1\n      pop\n      jump\t// out\n        /* \"#utility.yul\":6305:6422   */\n    tag_83:\n        /* \"#utility.yul\":6414:6415   */\n      0x00\n        /* \"#utility.yul\":6411:6412   */\n      dup1\n        /* \"#utility.yul\":6404:6416   */\n      revert\n        /* \"#utility.yul\":6428:6530   */\n    tag_84:\n        /* \"#utility.yul\":6469:6475   */\n      0x00\n        /* \"#utility.yul\":6520:6522   */\n      0x1f\n        /* \"#utility.yul\":6516:6523   */\n      not\n        /* \"#utility.yul\":6511:6513   */\n      0x1f\n        /* \"#utility.yul\":6504:6509   */\n      dup4\n        /* \"#utility.yul\":6500:6514   */\n      add\n        /* \"#utility.yul\":6496:6524   */\n      and\n        /* \"#utility.yul\":6486:6524   */\n      swap1\n      pop\n        /* \"#utility.yul\":6428:6530   */\n      swap2\n      swap1\n      pop\n      jump\t// out\n        /* \"#utility.yul\":6536:6716   */\n    tag_85:\n        /* \"#utility.yul\":6584:6661   */\n      0x4e487b7100000000000000000000000000000000000000000000000000000000\n        /* \"#utility.yul\":6581:6582   */\n      0x00\n        /* \"#utility.yul\":6574:6662   */\n      mstore\n        /* \"#utility.yul\":6681:6685   */\n      0x41\n        /* \"#utility.yul\":6678:6679   */\n      0x04\n        /* \"#utility.yul\":6671:6686   */\n      mstore\n        /* \"#utility.yul\":6705:6709   */\n      0x24\n        /* \"#utility.yul\":6702:6703   */\n      0x00\n        /* \"#utility.yul\":6695:6710   */\n      revert\n        /* \"#utility.yul\":6722:7003   */\n    tag_86:\n        /* \"#utility.yul\":6805:6832   */\n      tag_177\n        /* \"#utility.yul\":6827:6831   */\n      dup3\n        /* \"#utility.yul\":6805:6832   */\n      tag_84\n      jump\t// in\n    tag_177:\n        /* \"#utility.yul\":6797:6803   */\n      dup2\n        /* \"#utility.yul\":6793:6833   */\n      add\n        /* \"#utility.yul\":6935:6941   */\n      dup2\n        /* \"#utility.yul\":6923:6933   */\n      dup2\n        /* \"#utility.yul\":6920:6942   */\n      lt\n        /* \"#utility.yul\":6899:6917   */\n      0xffffffffffffffff\n        /* \"#utility.yul\":6887:6897   */\n      dup3\n        /* \"#utility.yul\":6884:6918   */\n      gt\n        /* \"#utility.yul\":6881:6943   */\n      or\n        /* \"#utility.yul\":6878:6966   */\n      iszero\n      tag_178\n      jumpi\n        /* \"#utility.yul\":6946:6964   */\n      tag_179\n      tag_85\n      jump\t// in\n    tag_179:\n        /* \"#utility.yul\":6878:6966   */\n    tag_178:\n        /* \"#utility.yul\":6986:6996   */\n      dup1\n        /* \"#utility.yul\":6982:6984   */\n      0x40\n        /* \"#utility.yul\":6975:6997   */\n      mstore\n        /* \"#utility.yul\":6765:7003   */\n      pop\n        /* \"#utility.yul\":6722:7003   */\n      pop\n      pop\n      jump\t// out\n        /* \"#utility.yul\":7009:7138   */\n    tag_87:\n        /* \"#utility.yul\":7043:7049   */\n      0x00\n        /* \"#utility.yul\":7070:7090   */\n      tag_181\n      tag_63\n      jump\t// in\n    tag_181:\n        /* \"#utility.yul\":7060:7090   */\n      swap1\n      pop\n        /* \"#utility.yul\":7099:7132   */\n      tag_182\n        /* \"#utility.yul\":7127:7131   */\n      dup3\n        /* \"#utility.yul\":7119:7125   */\n      dup3\n        /* \"#utility.yul\":7099:7132   */\n      tag_86\n      jump\t// in\n    tag_182:\n        /* \"#utility.yul\":7009:7138   */\n      swap2\n      swap1\n      pop\n      jump\t// out\n        /* \"#utility.yul\":7144:7261   */\n    tag_88:\n        /* \"#utility.yul\":7253:7254   */\n      0x00\n        /* \"#utility.yul\":7250:7251   */\n      dup1\n        /* \"#utility.yul\":7243:7255   */\n      revert\n        /* \"#utility.yul\":7267:7410   */\n    tag_89:\n        /* \"#utility.yul\":7324:7329   */\n      0x00\n        /* \"#utility.yul\":7355:7361   */\n      dup2\n        /* \"#utility.yul\":7349:7362   */\n      mload\n        /* \"#utility.yul\":7340:7362   */\n      swap1\n      pop\n        /* \"#utility.yul\":7371:7404   */\n      tag_185\n        /* \"#utility.yul\":7398:7403   */\n      dup2\n        /* \"#utility.yul\":7371:7404   */\n      tag_67\n      jump\t// in\n    tag_185:\n        /* \"#utility.yul\":7267:7410   */\n      swap3\n      swap2\n      pop\n      pop\n      jump\t// out\n        /* \"#utility.yul\":7416:7538   */\n    tag_90:\n        /* \"#utility.yul\":7489:7513   */\n      tag_187\n        /* \"#utility.yul\":7507:7512   */\n      dup2\n        /* \"#utility.yul\":7489:7513   */\n      tag_71\n      jump\t// in\n    tag_187:\n        /* \"#utility.yul\":7482:7487   */\n      dup2\n        /* \"#utility.yul\":7479:7514   */\n      eq\n        /* \"#utility.yul\":7469:7532   */\n      tag_188\n      jumpi\n        /* \"#utility.yul\":7528:7529   */\n      0x00\n        /* \"#utility.yul\":7525:7526   */\n      dup1\n        /* \"#utility.yul\":7518:7530   */\n      revert\n        /* \"#utility.yul\":7469:7532   */\n    tag_188:\n        /* \"#utility.yul\":7416:7538   */\n      pop\n      jump\t// out\n        /* \"#utility.yul\":7544:7687   */\n    tag_91:\n        /* \"#utility.yul\":7601:7606   */\n      0x00\n        /* \"#utility.yul\":7632:7638   */\n      dup2\n        /* \"#utility.yul\":7626:7639   */\n      mload\n        /* \"#utility.yul\":7617:7639   */\n      swap1\n      pop\n        /* \"#utility.yul\":7648:7681   */\n      tag_190\n        /* \"#utility.yul\":7675:7680   */\n      dup2\n        /* \"#utility.yul\":7648:7681   */\n      tag_90\n      jump\t// in\n    tag_190:\n        /* \"#utility.yul\":7544:7687   */\n      swap3\n      swap2\n      pop\n      pop\n      jump\t// out\n        /* \"#utility.yul\":7693:7810   */\n    tag_92:\n        /* \"#utility.yul\":7802:7803   */\n      0x00\n        /* \"#utility.yul\":7799:7800   */\n      dup1\n        /* \"#utility.yul\":7792:7804   */\n      revert\n        /* \"#utility.yul\":7816:7933   */\n    tag_93:\n        /* \"#utility.yul\":7925:7926   */\n      0x00\n        /* \"#utility.yul\":7922:7923   */\n      dup1\n        /* \"#utility.yul\":7915:7927   */\n      revert\n        /* \"#utility.yul\":7939:8247   */\n    tag_94:\n        /* \"#utility.yul\":8001:8005   */\n      0x00\n        /* \"#utility.yul\":8091:8109   */\n      0xffffffffffffffff\n        /* \"#utility.yul\":8083:8089   */\n      dup3\n        /* \"#utility.yul\":8080:8110   */\n      gt\n        /* \"#utility.yul\":8077:8133   */\n      iszero\n      tag_194\n      jumpi\n        /* \"#utility.yul\":8113:8131   */\n      tag_195\n      tag_85\n      jump\t// in\n    tag_195:\n        /* \"#utility.yul\":8077:8133   */\n    tag_194:\n        /* \"#utility.yul\":8151:8180   */\n      tag_196\n        /* \"#utility.yul\":8173:8179   */\n      dup3\n        /* \"#utility.yul\":8151:8180   */\n      tag_84\n      jump\t// in\n    tag_196:\n        /* \"#utility.yul\":8143:8180   */\n      swap1\n      pop\n        /* \"#utility.yul\":8235:8239   */\n      0x20\n        /* \"#utility.yul\":8229:8233   */\n      dup2\n        /* \"#utility.yul\":8225:8240   */\n      add\n        /* \"#utility.yul\":8217:8240   */\n      swap1\n      pop\n        /* \"#utility.yul\":7939:8247   */\n      swap2\n      swap1\n      pop\n      jump\t// out\n        /* \"#utility.yul\":8253:8392   */\n    tag_95:\n        /* \"#utility.yul\":8342:8348   */\n      dup3\n        /* \"#utility.yul\":8337:8340   */\n      dup2\n        /* \"#utility.yul\":8332:8335   */\n      dup4\n        /* \"#utility.yul\":8326:8349   */\n      mcopy\n        /* \"#utility.yul\":8383:8384   */\n      0x00\n        /* \"#utility.yul\":8374:8380   */\n      dup4\n        /* \"#utility.yul\":8369:8372   */\n      dup4\n        /* \"#utility.yul\":8365:8381   */\n      add\n        /* \"#utility.yul\":8358:8385   */\n      mstore\n        /* \"#utility.yul\":8253:8392   */\n      pop\n      pop\n      pop\n      jump\t// out\n        /* \"#utility.yul\":8398:8832   */\n    tag_96:\n        /* \"#utility.yul\":8487:8492   */\n      0x00\n        /* \"#utility.yul\":8512:8578   */\n      tag_199\n        /* \"#utility.yul\":8528:8577   */\n      tag_200\n        /* \"#utility.yul\":8570:8576   */\n      dup5\n        /* \"#utility.yul\":8528:8577   */\n      tag_94\n      jump\t// in\n    tag_200:\n        /* \"#utility.yul\":8512:8578   */\n      tag_87\n      jump\t// in\n    tag_199:\n        /* \"#utility.yul\":8503:8578   */\n      swap1\n      pop\n        /* \"#utility.yul\":8601:8607   */\n      dup3\n        /* \"#utility.yul\":8594:8599   */\n      dup2\n        /* \"#utility.yul\":8587:8608   */\n      mstore\n        /* \"#utility.yul\":8639:8643   */\n      0x20\n        /* \"#utility.yul\":8632:8637   */\n      dup2\n        /* \"#utility.yul\":8628:8644   */\n      add\n        /* \"#utility.yul\":8677:8680   */\n      dup5\n        /* \"#utility.yul\":8668:8674   */\n      dup5\n        /* \"#utility.yul\":8663:8666   */\n      dup5\n        /* \"#utility.yul\":8659:8675   */\n      add\n        /* \"#utility.yul\":8656:8681   */\n      gt\n        /* \"#utility.yul\":8653:8765   */\n      iszero\n      tag_201\n      jumpi\n        /* \"#utility.yul\":8684:8763   */\n      tag_202\n      tag_93\n      jump\t// in\n    tag_202:\n        /* \"#utility.yul\":8653:8765   */\n    tag_201:\n        /* \"#utility.yul\":8774:8826   */\n      tag_203\n        /* \"#utility.yul\":8819:8825   */\n      dup5\n        /* \"#utility.yul\":8814:8817   */\n      dup3\n        /* \"#utility.yul\":8809:8812   */\n      dup6\n        /* \"#utility.yul\":8774:8826   */\n      tag_95\n      jump\t// in\n    tag_203:\n        /* \"#utility.yul\":8493:8832   */\n      pop\n        /* \"#utility.yul\":8398:8832   */\n      swap4\n      swap3\n      pop\n      pop\n      pop\n      jump\t// out\n        /* \"#utility.yul\":8852:9207   */\n    tag_97:\n        /* \"#utility.yul\":8919:8924   */\n      0x00\n        /* \"#utility.yul\":8968:8971   */\n      dup3\n        /* \"#utility.yul\":8961:8965   */\n      0x1f\n        /* \"#utility.yul\":8953:8959   */\n      dup4\n        /* \"#utility.yul\":8949:8966   */\n      add\n        /* \"#utility.yul\":8945:8972   */\n      slt\n        /* \"#utility.yul\":8935:9057   */\n      tag_205\n      jumpi\n        /* \"#utility.yul\":8976:9055   */\n      tag_206\n      tag_92\n      jump\t// in\n    tag_206:\n        /* \"#utility.yul\":8935:9057   */\n    tag_205:\n        /* \"#utility.yul\":9086:9092   */\n      dup2\n        /* \"#utility.yul\":9080:9093   */\n      mload\n        /* \"#utility.yul\":9111:9201   */\n      tag_207\n        /* \"#utility.yul\":9197:9200   */\n      dup5\n        /* \"#utility.yul\":9189:9195   */\n      dup3\n        /* \"#utility.yul\":9182:9186   */\n      0x20\n        /* \"#utility.yul\":9174:9180   */\n      dup7\n        /* \"#utility.yul\":9170:9187   */\n      add\n        /* \"#utility.yul\":9111:9201   */\n      tag_96\n      jump\t// in\n    tag_207:\n        /* \"#utility.yul\":9102:9201   */\n      swap2\n      pop\n        /* \"#utility.yul\":8925:9207   */\n      pop\n        /* \"#utility.yul\":8852:9207   */\n      swap3\n      swap2\n      pop\n      pop\n      jump\t// out\n        /* \"#utility.yul\":9213:9289   */\n    tag_98:\n        /* \"#utility.yul\":9249:9256   */\n      0x00\n        /* \"#utility.yul\":9278:9283   */\n      dup2\n        /* \"#utility.yul\":9267:9283   */\n      swap1\n      pop\n        /* \"#utility.yul\":9213:9289   */\n      swap2\n      swap1\n      pop\n      jump\t// out\n        /* \"#utility.yul\":9295:9415   */\n    tag_99:\n        /* \"#utility.yul\":9367:9390   */\n      tag_210\n        /* \"#utility.yul\":9384:9389   */\n      dup2\n        /* \"#utility.yul\":9367:9390   */\n      tag_98\n      jump\t// in\n    tag_210:\n        /* \"#utility.yul\":9360:9365   */\n      dup2\n        /* \"#utility.yul\":9357:9391   */\n      eq\n        /* \"#utility.yul\":9347:9409   */\n      tag_211\n      jumpi\n        /* \"#utility.yul\":9405:9406   */\n      0x00\n        /* \"#utility.yul\":9402:9403   */\n      dup1\n        /* \"#utility.yul\":9395:9407   */\n      revert\n        /* \"#utility.yul\":9347:9409   */\n    tag_211:\n        /* \"#utility.yul\":9295:9415   */\n      pop\n      jump\t// out\n        /* \"#utility.yul\":9421:9562   */\n    tag_100:\n        /* \"#utility.yul\":9477:9482   */\n      0x00\n        /* \"#utility.yul\":9508:9514   */\n      dup2\n        /* \"#utility.yul\":9502:9515   */\n      mload\n        /* \"#utility.yul\":9493:9515   */\n      swap1\n      pop\n        /* \"#utility.yul\":9524:9556   */\n      tag_213\n        /* \"#utility.yul\":9550:9555   */\n      dup2\n        /* \"#utility.yul\":9524:9556   */\n      tag_99\n      jump\t// in\n    tag_213:\n        /* \"#utility.yul\":9421:9562   */\n      swap3\n      swap2\n      pop\n      pop\n      jump\t// out\n        /* \"#utility.yul\":9568:9900   */\n    tag_101:\n        /* \"#utility.yul\":9666:9670   */\n      0x00\n        /* \"#utility.yul\":9756:9774   */\n      0xffffffffffffffff\n        /* \"#utility.yul\":9748:9754   */\n      dup3\n        /* \"#utility.yul\":9745:9775   */\n      gt\n        /* \"#utility.yul\":9742:9798   */\n      iszero\n      tag_215\n      jumpi\n        /* \"#utility.yul\":9778:9796   */\n      tag_216\n      tag_85\n      jump\t// in\n    tag_216:\n        /* \"#utility.yul\":9742:9798   */\n    tag_215:\n        /* \"#utility.yul\":9828:9832   */\n      0x20\n        /* \"#utility.yul\":9820:9826   */\n      dup3\n        /* \"#utility.yul\":9816:9833   */\n      mul\n        /* \"#utility.yul\":9808:9833   */\n      swap1\n      pop\n        /* \"#utility.yul\":9888:9892   */\n      0x20\n        /* \"#utility.yul\":9882:9886   */\n      dup2\n        /* \"#utility.yul\":9878:9893   */\n      add\n        /* \"#utility.yul\":9870:9893   */\n      swap1\n      pop\n        /* \"#utility.yul\":9568:9900   */\n      swap2\n      swap1\n      pop\n      jump\t// out\n        /* \"#utility.yul\":9906:10023   */\n    tag_102:\n        /* \"#utility.yul\":10015:10016   */\n      0x00\n        /* \"#utility.yul\":10012:10013   */\n      dup1\n        /* \"#utility.yul\":10005:10017   */\n      revert\n        /* \"#utility.yul\":10069:10680   */\n    tag_103:\n        /* \"#utility.yul\":10150:10155   */\n      0x00\n        /* \"#utility.yul\":10194:10198   */\n      0x40\n        /* \"#utility.yul\":10182:10191   */\n      dup3\n        /* \"#utility.yul\":10177:10180   */\n      dup5\n        /* \"#utility.yul\":10173:10192   */\n      sub\n        /* \"#utility.yul\":10169:10199   */\n      slt\n        /* \"#utility.yul\":10166:10283   */\n      iszero\n      tag_219\n      jumpi\n        /* \"#utility.yul\":10202:10281   */\n      tag_220\n      tag_83\n      jump\t// in\n    tag_220:\n        /* \"#utility.yul\":10166:10283   */\n    tag_219:\n        /* \"#utility.yul\":10301:10322   */\n      tag_221\n        /* \"#utility.yul\":10317:10321   */\n      0x40\n        /* \"#utility.yul\":10301:10322   */\n      tag_87\n      jump\t// in\n    tag_221:\n        /* \"#utility.yul\":10292:10322   */\n      swap1\n      pop\n        /* \"#utility.yul\":10386:10387   */\n      0x00\n        /* \"#utility.yul\":10426:10486   */\n      tag_222\n        /* \"#utility.yul\":10482:10485   */\n      dup5\n        /* \"#utility.yul\":10473:10479   */\n      dup3\n        /* \"#utility.yul\":10462:10471   */\n      dup6\n        /* \"#utility.yul\":10458:10480   */\n      add\n        /* \"#utility.yul\":10426:10486   */\n      tag_89\n      jump\t// in\n    tag_222:\n        /* \"#utility.yul\":10419:10423   */\n      0x00\n        /* \"#utility.yul\":10412:10417   */\n      dup4\n        /* \"#utility.yul\":10408:10424   */\n      add\n        /* \"#utility.yul\":10401:10487   */\n      mstore\n        /* \"#utility.yul\":10332:10498   */\n      pop\n        /* \"#utility.yul\":10560:10562   */\n      0x20\n        /* \"#utility.yul\":10601:10661   */\n      tag_223\n        /* \"#utility.yul\":10657:10660   */\n      dup5\n        /* \"#utility.yul\":10648:10654   */\n      dup3\n        /* \"#utility.yul\":10637:10646   */\n      dup6\n        /* \"#utility.yul\":10633:10655   */\n      add\n        /* \"#utility.yul\":10601:10661   */\n      tag_89\n      jump\t// in\n    tag_223:\n        /* \"#utility.yul\":10594:10598   */\n      0x20\n        /* \"#utility.yul\":10587:10592   */\n      dup4\n        /* \"#utility.yul\":10583:10599   */\n      add\n        /* \"#utility.yul\":10576:10662   */\n      mstore\n        /* \"#utility.yul\":10508:10673   */\n      pop\n        /* \"#utility.yul\":10069:10680   */\n      swap3\n      swap2\n      pop\n      pop\n      jump\t// out\n        /* \"#utility.yul\":10728:11523   */\n    tag_104:\n        /* \"#utility.yul\":10856:10861   */\n      0x00\n        /* \"#utility.yul\":10881:10983   */\n      tag_225\n        /* \"#utility.yul\":10897:10982   */\n      tag_226\n        /* \"#utility.yul\":10975:10981   */\n      dup5\n        /* \"#utility.yul\":10897:10982   */\n      tag_101\n      jump\t// in\n    tag_226:\n        /* \"#utility.yul\":10881:10983   */\n      tag_87\n      jump\t// in\n    tag_225:\n        /* \"#utility.yul\":10872:10983   */\n      swap1\n      pop\n        /* \"#utility.yul\":11003:11008   */\n      dup1\n        /* \"#utility.yul\":11032:11038   */\n      dup4\n        /* \"#utility.yul\":11025:11030   */\n      dup3\n        /* \"#utility.yul\":11018:11039   */\n      mstore\n        /* \"#utility.yul\":11066:11070   */\n      0x20\n        /* \"#utility.yul\":11059:11064   */\n      dup3\n        /* \"#utility.yul\":11055:11071   */\n      add\n        /* \"#utility.yul\":11048:11071   */\n      swap1\n      pop\n        /* \"#utility.yul\":11119:11123   */\n      0x40\n        /* \"#utility.yul\":11111:11117   */\n      dup5\n        /* \"#utility.yul\":11107:11124   */\n      mul\n        /* \"#utility.yul\":11099:11105   */\n      dup4\n        /* \"#utility.yul\":11095:11125   */\n      add\n        /* \"#utility.yul\":11148:11151   */\n      dup6\n        /* \"#utility.yul\":11140:11146   */\n      dup2\n        /* \"#utility.yul\":11137:11152   */\n      gt\n        /* \"#utility.yul\":11134:11256   */\n      iszero\n      tag_227\n      jumpi\n        /* \"#utility.yul\":11167:11246   */\n      tag_228\n      tag_102\n      jump\t// in\n    tag_228:\n        /* \"#utility.yul\":11134:11256   */\n    tag_227:\n        /* \"#utility.yul\":11282:11288   */\n      dup4\n        /* \"#utility.yul\":11265:11517   */\n    tag_229:\n        /* \"#utility.yul\":11299:11305   */\n      dup2\n        /* \"#utility.yul\":11294:11297   */\n      dup2\n        /* \"#utility.yul\":11291:11306   */\n      lt\n        /* \"#utility.yul\":11265:11517   */\n      iszero\n      tag_231\n      jumpi\n        /* \"#utility.yul\":11374:11377   */\n      dup1\n        /* \"#utility.yul\":11403:11472   */\n      tag_232\n        /* \"#utility.yul\":11468:11471   */\n      dup9\n        /* \"#utility.yul\":11456:11466   */\n      dup3\n        /* \"#utility.yul\":11403:11472   */\n      tag_103\n      jump\t// in\n    tag_232:\n        /* \"#utility.yul\":11398:11401   */\n      dup5\n        /* \"#utility.yul\":11391:11473   */\n      mstore\n        /* \"#utility.yul\":11502:11506   */\n      0x20\n        /* \"#utility.yul\":11497:11500   */\n      dup5\n        /* \"#utility.yul\":11493:11507   */\n      add\n        /* \"#utility.yul\":11486:11507   */\n      swap4\n      pop\n        /* \"#utility.yul\":11341:11517   */\n      pop\n        /* \"#utility.yul\":11325:11329   */\n      0x40\n        /* \"#utility.yul\":11320:11323   */\n      dup2\n        /* \"#utility.yul\":11316:11330   */\n      add\n        /* \"#utility.yul\":11309:11330   */\n      swap1\n      pop\n        /* \"#utility.yul\":11265:11517   */\n      jump(tag_229)\n    tag_231:\n        /* \"#utility.yul\":11269:11290   */\n      pop\n        /* \"#utility.yul\":10862:11523   */\n      pop\n      pop\n        /* \"#utility.yul\":10728:11523   */\n      swap4\n      swap3\n      pop\n      pop\n      pop\n      jump\t// out\n        /* \"#utility.yul\":11571:11998   */\n    tag_105:\n        /* \"#utility.yul\":11674:11679   */\n      0x00\n        /* \"#utility.yul\":11723:11726   */\n      dup3\n        /* \"#utility.yul\":11716:11720   */\n      0x1f\n        /* \"#utility.yul\":11708:11714   */\n      dup4\n        /* \"#utility.yul\":11704:11721   */\n      add\n        /* \"#utility.yul\":11700:11727   */\n      slt\n        /* \"#utility.yul\":11690:11812   */\n      tag_234\n      jumpi\n        /* \"#utility.yul\":11731:11810   */\n      tag_235\n      tag_92\n      jump\t// in\n    tag_235:\n        /* \"#utility.yul\":11690:11812   */\n    tag_234:\n        /* \"#utility.yul\":11841:11847   */\n      dup2\n        /* \"#utility.yul\":11835:11848   */\n      mload\n        /* \"#utility.yul\":11866:11992   */\n      tag_236\n        /* \"#utility.yul\":11988:11991   */\n      dup5\n        /* \"#utility.yul\":11980:11986   */\n      dup3\n        /* \"#utility.yul\":11973:11977   */\n      0x20\n        /* \"#utility.yul\":11965:11971   */\n      dup7\n        /* \"#utility.yul\":11961:11978   */\n      add\n        /* \"#utility.yul\":11866:11992   */\n      tag_104\n      jump\t// in\n    tag_236:\n        /* \"#utility.yul\":11857:11992   */\n      swap2\n      pop\n        /* \"#utility.yul\":11680:11998   */\n      pop\n        /* \"#utility.yul\":11571:11998   */\n      swap3\n      swap2\n      pop\n      pop\n      jump\t// out\n        /* \"#utility.yul\":12046:14248   */\n    tag_106:\n        /* \"#utility.yul\":12130:12135   */\n      0x00\n        /* \"#utility.yul\":12174:12180   */\n      0x0100\n        /* \"#utility.yul\":12162:12171   */\n      dup3\n        /* \"#utility.yul\":12157:12160   */\n      dup5\n        /* \"#utility.yul\":12153:12172   */\n      sub\n        /* \"#utility.yul\":12149:12181   */\n      slt\n        /* \"#utility.yul\":12146:12265   */\n      iszero\n      tag_238\n      jumpi\n        /* \"#utility.yul\":12184:12263   */\n      tag_239\n      tag_83\n      jump\t// in\n    tag_239:\n        /* \"#utility.yul\":12146:12265   */\n    tag_238:\n        /* \"#utility.yul\":12283:12306   */\n      tag_240\n        /* \"#utility.yul\":12299:12305   */\n      0x0100\n        /* \"#utility.yul\":12283:12306   */\n      tag_87\n      jump\t// in\n    tag_240:\n        /* \"#utility.yul\":12274:12306   */\n      swap1\n      pop\n        /* \"#utility.yul\":12363:12364   */\n      0x00\n        /* \"#utility.yul\":12403:12463   */\n      tag_241\n        /* \"#utility.yul\":12459:12462   */\n      dup5\n        /* \"#utility.yul\":12450:12456   */\n      dup3\n        /* \"#utility.yul\":12439:12448   */\n      dup6\n        /* \"#utility.yul\":12435:12457   */\n      add\n        /* \"#utility.yul\":12403:12463   */\n      tag_89\n      jump\t// in\n    tag_241:\n        /* \"#utility.yul\":12396:12400   */\n      0x00\n        /* \"#utility.yul\":12389:12394   */\n      dup4\n        /* \"#utility.yul\":12385:12401   */\n      add\n        /* \"#utility.yul\":12378:12464   */\n      mstore\n        /* \"#utility.yul\":12316:12475   */\n      pop\n        /* \"#utility.yul\":12535:12537   */\n      0x20\n        /* \"#utility.yul\":12576:12636   */\n      tag_242\n        /* \"#utility.yul\":12632:12635   */\n      dup5\n        /* \"#utility.yul\":12623:12629   */\n      dup3\n        /* \"#utility.yul\":12612:12621   */\n      dup6\n        /* \"#utility.yul\":12608:12630   */\n      add\n        /* \"#utility.yul\":12576:12636   */\n      tag_91\n      jump\t// in\n    tag_242:\n        /* \"#utility.yul\":12569:12573   */\n      0x20\n        /* \"#utility.yul\":12562:12567   */\n      dup4\n        /* \"#utility.yul\":12558:12574   */\n      add\n        /* \"#utility.yul\":12551:12637   */\n      mstore\n        /* \"#utility.yul\":12485:12648   */\n      pop\n        /* \"#utility.yul\":12728:12730   */\n      0x40\n        /* \"#utility.yul\":12717:12726   */\n      dup3\n        /* \"#utility.yul\":12713:12731   */\n      add\n        /* \"#utility.yul\":12707:12732   */\n      mload\n        /* \"#utility.yul\":12759:12777   */\n      0xffffffffffffffff\n        /* \"#utility.yul\":12751:12757   */\n      dup2\n        /* \"#utility.yul\":12748:12778   */\n      gt\n        /* \"#utility.yul\":12745:12862   */\n      iszero\n      tag_243\n      jumpi\n        /* \"#utility.yul\":12781:12860   */\n      tag_244\n      tag_88\n      jump\t// in\n    tag_244:\n        /* \"#utility.yul\":12745:12862   */\n    tag_243:\n        /* \"#utility.yul\":12901:12971   */\n      tag_245\n        /* \"#utility.yul\":12967:12970   */\n      dup5\n        /* \"#utility.yul\":12958:12964   */\n      dup3\n        /* \"#utility.yul\":12947:12956   */\n      dup6\n        /* \"#utility.yul\":12943:12965   */\n      add\n        /* \"#utility.yul\":12901:12971   */\n      tag_97\n      jump\t// in\n    tag_245:\n        /* \"#utility.yul\":12894:12898   */\n      0x40\n        /* \"#utility.yul\":12887:12892   */\n      dup4\n        /* \"#utility.yul\":12883:12899   */\n      add\n        /* \"#utility.yul\":12876:12972   */\n      mstore\n        /* \"#utility.yul\":12658:12983   */\n      pop\n        /* \"#utility.yul\":13046:13048   */\n      0x60\n        /* \"#utility.yul\":13087:13146   */\n      tag_246\n        /* \"#utility.yul\":13142:13145   */\n      dup5\n        /* \"#utility.yul\":13133:13139   */\n      dup3\n        /* \"#utility.yul\":13122:13131   */\n      dup6\n        /* \"#utility.yul\":13118:13140   */\n      add\n        /* \"#utility.yul\":13087:13146   */\n      tag_100\n      jump\t// in\n    tag_246:\n        /* \"#utility.yul\":13080:13084   */\n      0x60\n        /* \"#utility.yul\":13073:13078   */\n      dup4\n        /* \"#utility.yul\":13069:13085   */\n      add\n        /* \"#utility.yul\":13062:13147   */\n      mstore\n        /* \"#utility.yul\":12993:13158   */\n      pop\n        /* \"#utility.yul\":13222:13225   */\n      0x80\n        /* \"#utility.yul\":13264:13323   */\n      tag_247\n        /* \"#utility.yul\":13319:13322   */\n      dup5\n        /* \"#utility.yul\":13310:13316   */\n      dup3\n        /* \"#utility.yul\":13299:13308   */\n      dup6\n        /* \"#utility.yul\":13295:13317   */\n      add\n        /* \"#utility.yul\":13264:13323   */\n      tag_100\n      jump\t// in\n    tag_247:\n        /* \"#utility.yul\":13257:13261   */\n      0x80\n        /* \"#utility.yul\":13250:13255   */\n      dup4\n        /* \"#utility.yul\":13246:13262   */\n      add\n        /* \"#utility.yul\":13239:13324   */\n      mstore\n        /* \"#utility.yul\":13168:13335   */\n      pop\n        /* \"#utility.yul\":13422:13425   */\n      0xa0\n        /* \"#utility.yul\":13411:13420   */\n      dup3\n        /* \"#utility.yul\":13407:13426   */\n      add\n        /* \"#utility.yul\":13401:13427   */\n      mload\n        /* \"#utility.yul\":13454:13472   */\n      0xffffffffffffffff\n        /* \"#utility.yul\":13446:13452   */\n      dup2\n        /* \"#utility.yul\":13443:13473   */\n      gt\n        /* \"#utility.yul\":13440:13557   */\n      iszero\n      tag_248\n      jumpi\n        /* \"#utility.yul\":13476:13555   */\n      tag_249\n      tag_88\n      jump\t// in\n    tag_249:\n        /* \"#utility.yul\":13440:13557   */\n    tag_248:\n        /* \"#utility.yul\":13596:13666   */\n      tag_250\n        /* \"#utility.yul\":13662:13665   */\n      dup5\n        /* \"#utility.yul\":13653:13659   */\n      dup3\n        /* \"#utility.yul\":13642:13651   */\n      dup6\n        /* \"#utility.yul\":13638:13660   */\n      add\n        /* \"#utility.yul\":13596:13666   */\n      tag_97\n      jump\t// in\n    tag_250:\n        /* \"#utility.yul\":13589:13593   */\n      0xa0\n        /* \"#utility.yul\":13582:13587   */\n      dup4\n        /* \"#utility.yul\":13578:13594   */\n      add\n        /* \"#utility.yul\":13571:13667   */\n      mstore\n        /* \"#utility.yul\":13345:13678   */\n      pop\n        /* \"#utility.yul\":13746:13749   */\n      0xc0\n        /* \"#utility.yul\":13788:13848   */\n      tag_251\n        /* \"#utility.yul\":13844:13847   */\n      dup5\n        /* \"#utility.yul\":13835:13841   */\n      dup3\n        /* \"#utility.yul\":13824:13833   */\n      dup6\n        /* \"#utility.yul\":13820:13842   */\n      add\n        /* \"#utility.yul\":13788:13848   */\n      tag_89\n      jump\t// in\n    tag_251:\n        /* \"#utility.yul\":13781:13785   */\n      0xc0\n        /* \"#utility.yul\":13774:13779   */\n      dup4\n        /* \"#utility.yul\":13770:13786   */\n      add\n        /* \"#utility.yul\":13763:13849   */\n      mstore\n        /* \"#utility.yul\":13688:13860   */\n      pop\n        /* \"#utility.yul\":13949:13952   */\n      0xe0\n        /* \"#utility.yul\":13938:13947   */\n      dup3\n        /* \"#utility.yul\":13934:13953   */\n      add\n        /* \"#utility.yul\":13928:13954   */\n      mload\n        /* \"#utility.yul\":13981:13999   */\n      0xffffffffffffffff\n        /* \"#utility.yul\":13973:13979   */\n      dup2\n        /* \"#utility.yul\":13970:14000   */\n      gt\n        /* \"#utility.yul\":13967:14084   */\n      iszero\n      tag_252\n      jumpi\n        /* \"#utility.yul\":14003:14082   */\n      tag_253\n      tag_88\n      jump\t// in\n    tag_253:\n        /* \"#utility.yul\":13967:14084   */\n    tag_252:\n        /* \"#utility.yul\":14123:14229   */\n      tag_254\n        /* \"#utility.yul\":14225:14228   */\n      dup5\n        /* \"#utility.yul\":14216:14222   */\n      dup3\n        /* \"#utility.yul\":14205:14214   */\n      dup6\n        /* \"#utility.yul\":14201:14223   */\n      add\n        /* \"#utility.yul\":14123:14229   */\n      tag_105\n      jump\t// in\n    tag_254:\n        /* \"#utility.yul\":14116:14120   */\n      0xe0\n        /* \"#utility.yul\":14109:14114   */\n      dup4\n        /* \"#utility.yul\":14105:14121   */\n      add\n        /* \"#utility.yul\":14098:14230   */\n      mstore\n        /* \"#utility.yul\":13870:14241   */\n      pop\n        /* \"#utility.yul\":12046:14248   */\n      swap3\n      swap2\n      pop\n      pop\n      jump\t// out\n        /* \"#utility.yul\":14254:14806   */\n    tag_37:\n        /* \"#utility.yul\":14348:14354   */\n      0x00\n        /* \"#utility.yul\":14397:14399   */\n      0x20\n        /* \"#utility.yul\":14385:14394   */\n      dup3\n        /* \"#utility.yul\":14376:14383   */\n      dup5\n        /* \"#utility.yul\":14372:14395   */\n      sub\n        /* \"#utility.yul\":14368:14400   */\n      slt\n        /* \"#utility.yul\":14365:14484   */\n      iszero\n      tag_256\n      jumpi\n        /* \"#utility.yul\":14403:14482   */\n      tag_257\n      tag_64\n      jump\t// in\n    tag_257:\n        /* \"#utility.yul\":14365:14484   */\n    tag_256:\n        /* \"#utility.yul\":14544:14545   */\n      0x00\n        /* \"#utility.yul\":14533:14542   */\n      dup3\n        /* \"#utility.yul\":14529:14546   */\n      add\n        /* \"#utility.yul\":14523:14547   */\n      mload\n        /* \"#utility.yul\":14574:14592   */\n      0xffffffffffffffff\n        /* \"#utility.yul\":14566:14572   */\n      dup2\n        /* \"#utility.yul\":14563:14593   */\n      gt\n        /* \"#utility.yul\":14560:14677   */\n      iszero\n      tag_258\n      jumpi\n        /* \"#utility.yul\":14596:14675   */\n      tag_259\n      tag_65\n      jump\t// in\n    tag_259:\n        /* \"#utility.yul\":14560:14677   */\n    tag_258:\n        /* \"#utility.yul\":14701:14789   */\n      tag_260\n        /* \"#utility.yul\":14781:14788   */\n      dup5\n        /* \"#utility.yul\":14772:14778   */\n      dup3\n        /* \"#utility.yul\":14761:14770   */\n      dup6\n        /* \"#utility.yul\":14757:14779   */\n      add\n        /* \"#utility.yul\":14701:14789   */\n      tag_106\n      jump\t// in\n    tag_260:\n        /* \"#utility.yul\":14691:14789   */\n      swap2\n      pop\n        /* \"#utility.yul\":14494:14799   */\n      pop\n        /* \"#utility.yul\":14254:14806   */\n      swap3\n      swap2\n      pop\n      pop\n      jump\t// out\n        /* \"#utility.yul\":14812:14992   */\n    tag_43:\n        /* \"#utility.yul\":14860:14937   */\n      0x4e487b7100000000000000000000000000000000000000000000000000000000\n        /* \"#utility.yul\":14857:14858   */\n      0x00\n        /* \"#utility.yul\":14850:14938   */\n      mstore\n        /* \"#utility.yul\":14957:14961   */\n      0x32\n        /* \"#utility.yul\":14954:14955   */\n      0x04\n        /* \"#utility.yul\":14947:14962   */\n      mstore\n        /* \"#utility.yul\":14981:14985   */\n      0x24\n        /* \"#utility.yul\":14978:14979   */\n      0x00\n        /* \"#utility.yul\":14971:14986   */\n      revert\n        /* \"#utility.yul\":14998:15230   */\n    tag_107:\n        /* \"#utility.yul\":15138:15172   */\n      0x50726f706572747920697320616c726561647920626f6f6b656420647572696e\n        /* \"#utility.yul\":15134:15135   */\n      0x00\n        /* \"#utility.yul\":15126:15132   */\n      dup3\n        /* \"#utility.yul\":15122:15136   */\n      add\n        /* \"#utility.yul\":15115:15173   */\n      mstore\n        /* \"#utility.yul\":15207:15222   */\n      0x67207468697320706572696f6400000000000000000000000000000000000000\n        /* \"#utility.yul\":15202:15204   */\n      0x20\n        /* \"#utility.yul\":15194:15200   */\n      dup3\n        /* \"#utility.yul\":15190:15205   */\n      add\n        /* \"#utility.yul\":15183:15223   */\n      mstore\n        /* \"#utility.yul\":14998:15230   */\n      pop\n      jump\t// out\n        /* \"#utility.yul\":15236:15602   */\n    tag_108:\n        /* \"#utility.yul\":15378:15381   */\n      0x00\n        /* \"#utility.yul\":15399:15466   */\n      tag_264\n        /* \"#utility.yul\":15463:15465   */\n      0x2d\n        /* \"#utility.yul\":15458:15461   */\n      dup4\n        /* \"#utility.yul\":15399:15466   */\n      tag_78\n      jump\t// in\n    tag_264:\n        /* \"#utility.yul\":15392:15466   */\n      swap2\n      pop\n        /* \"#utility.yul\":15475:15568   */\n      tag_265\n        /* \"#utility.yul\":15564:15567   */\n      dup3\n        /* \"#utility.yul\":15475:15568   */\n      tag_107\n      jump\t// in\n    tag_265:\n        /* \"#utility.yul\":15593:15595   */\n      0x40\n        /* \"#utility.yul\":15588:15591   */\n      dup3\n        /* \"#utility.yul\":15584:15596   */\n      add\n        /* \"#utility.yul\":15577:15596   */\n      swap1\n      pop\n        /* \"#utility.yul\":15236:15602   */\n      swap2\n      swap1\n      pop\n      jump\t// out\n        /* \"#utility.yul\":15608:16027   */\n    tag_47:\n        /* \"#utility.yul\":15774:15778   */\n      0x00\n        /* \"#utility.yul\":15812:15814   */\n      0x20\n        /* \"#utility.yul\":15801:15810   */\n      dup3\n        /* \"#utility.yul\":15797:15815   */\n      add\n        /* \"#utility.yul\":15789:15815   */\n      swap1\n      pop\n        /* \"#utility.yul\":15861:15870   */\n      dup2\n        /* \"#utility.yul\":15855:15859   */\n      dup2\n        /* \"#utility.yul\":15851:15871   */\n      sub\n        /* \"#utility.yul\":15847:15848   */\n      0x00\n        /* \"#utility.yul\":15836:15845   */\n      dup4\n        /* \"#utility.yul\":15832:15849   */\n      add\n        /* \"#utility.yul\":15825:15872   */\n      mstore\n        /* \"#utility.yul\":15889:16020   */\n      tag_267\n        /* \"#utility.yul\":16015:16019   */\n      dup2\n        /* \"#utility.yul\":15889:16020   */\n      tag_108\n      jump\t// in\n    tag_267:\n        /* \"#utility.yul\":15881:16020   */\n      swap1\n      pop\n        /* \"#utility.yul\":15608:16027   */\n      swap2\n      swap1\n      pop\n      jump\t// out\n        /* \"#utility.yul\":16033:16475   */\n    tag_49:\n        /* \"#utility.yul\":16182:16186   */\n      0x00\n        /* \"#utility.yul\":16220:16222   */\n      0x60\n        /* \"#utility.yul\":16209:16218   */\n      dup3\n        /* \"#utility.yul\":16205:16223   */\n      add\n        /* \"#utility.yul\":16197:16223   */\n      swap1\n      pop\n        /* \"#utility.yul\":16233:16304   */\n      tag_269\n        /* \"#utility.yul\":16301:16302   */\n      0x00\n        /* \"#utility.yul\":16290:16299   */\n      dup4\n        /* \"#utility.yul\":16286:16303   */\n      add\n        /* \"#utility.yul\":16277:16283   */\n      dup7\n        /* \"#utility.yul\":16233:16304   */\n      tag_69\n      jump\t// in\n    tag_269:\n        /* \"#utility.yul\":16314:16386   */\n      tag_270\n        /* \"#utility.yul\":16382:16384   */\n      0x20\n        /* \"#utility.yul\":16371:16380   */\n      dup4\n        /* \"#utility.yul\":16367:16385   */\n      add\n        /* \"#utility.yul\":16358:16364   */\n      dup6\n        /* \"#utility.yul\":16314:16386   */\n      tag_69\n      jump\t// in\n    tag_270:\n        /* \"#utility.yul\":16396:16468   */\n      tag_271\n        /* \"#utility.yul\":16464:16466   */\n      0x40\n        /* \"#utility.yul\":16453:16462   */\n      dup4\n        /* \"#utility.yul\":16449:16467   */\n      add\n        /* \"#utility.yul\":16440:16446   */\n      dup5\n        /* \"#utility.yul\":16396:16468   */\n      tag_69\n      jump\t// in\n    tag_271:\n        /* \"#utility.yul\":16033:16475   */\n      swap5\n      swap4\n      pop\n      pop\n      pop\n      pop\n      jump\t// out\n        /* \"#utility.yul\":16481:16661   */\n    tag_109:\n        /* \"#utility.yul\":16529:16606   */\n      0x4e487b7100000000000000000000000000000000000000000000000000000000\n        /* \"#utility.yul\":16526:16527   */\n      0x00\n        /* \"#utility.yul\":16519:16607   */\n      mstore\n        /* \"#utility.yul\":16626:16630   */\n      0x11\n        /* \"#utility.yul\":16623:16624   */\n      0x04\n        /* \"#utility.yul\":16616:16631   */\n      mstore\n        /* \"#utility.yul\":16650:16654   */\n      0x24\n        /* \"#utility.yul\":16647:16648   */\n      0x00\n        /* \"#utility.yul\":16640:16655   */\n      revert\n        /* \"#utility.yul\":16667:16861   */\n    tag_54:\n        /* \"#utility.yul\":16707:16711   */\n      0x00\n        /* \"#utility.yul\":16727:16747   */\n      tag_274\n        /* \"#utility.yul\":16745:16746   */\n      dup3\n        /* \"#utility.yul\":16727:16747   */\n      tag_66\n      jump\t// in\n    tag_274:\n        /* \"#utility.yul\":16722:16747   */\n      swap2\n      pop\n        /* \"#utility.yul\":16761:16781   */\n      tag_275\n        /* \"#utility.yul\":16779:16780   */\n      dup4\n        /* \"#utility.yul\":16761:16781   */\n      tag_66\n      jump\t// in\n    tag_275:\n        /* \"#utility.yul\":16756:16781   */\n      swap3\n      pop\n        /* \"#utility.yul\":16805:16806   */\n      dup3\n        /* \"#utility.yul\":16802:16803   */\n      dup3\n        /* \"#utility.yul\":16798:16807   */\n      sub\n        /* \"#utility.yul\":16790:16807   */\n      swap1\n      pop\n        /* \"#utility.yul\":16829:16830   */\n      dup2\n        /* \"#utility.yul\":16823:16827   */\n      dup2\n        /* \"#utility.yul\":16820:16831   */\n      gt\n        /* \"#utility.yul\":16817:16854   */\n      iszero\n      tag_276\n      jumpi\n        /* \"#utility.yul\":16834:16852   */\n      tag_277\n      tag_109\n      jump\t// in\n    tag_277:\n        /* \"#utility.yul\":16817:16854   */\n    tag_276:\n        /* \"#utility.yul\":16667:16861   */\n      swap3\n      swap2\n      pop\n      pop\n      jump\t// out\n        /* \"#utility.yul\":16867:17047   */\n    tag_110:\n        /* \"#utility.yul\":16915:16992   */\n      0x4e487b7100000000000000000000000000000000000000000000000000000000\n        /* \"#utility.yul\":16912:16913   */\n      0x00\n        /* \"#utility.yul\":16905:16993   */\n      mstore\n        /* \"#utility.yul\":17012:17016   */\n      0x12\n        /* \"#utility.yul\":17009:17010   */\n      0x04\n        /* \"#utility.yul\":17002:17017   */\n      mstore\n        /* \"#utility.yul\":17036:17040   */\n      0x24\n        /* \"#utility.yul\":17033:17034   */\n      0x00\n        /* \"#utility.yul\":17026:17041   */\n      revert\n        /* \"#utility.yul\":17053:17238   */\n    tag_56:\n        /* \"#utility.yul\":17093:17094   */\n      0x00\n        /* \"#utility.yul\":17110:17130   */\n      tag_280\n        /* \"#utility.yul\":17128:17129   */\n      dup3\n        /* \"#utility.yul\":17110:17130   */\n      tag_66\n      jump\t// in\n    tag_280:\n        /* \"#utility.yul\":17105:17130   */\n      swap2\n      pop\n        /* \"#utility.yul\":17144:17164   */\n      tag_281\n        /* \"#utility.yul\":17162:17163   */\n      dup4\n        /* \"#utility.yul\":17144:17164   */\n      tag_66\n      jump\t// in\n    tag_281:\n        /* \"#utility.yul\":17139:17164   */\n      swap3\n      pop\n        /* \"#utility.yul\":17183:17184   */\n      dup3\n        /* \"#utility.yul\":17173:17208   */\n      tag_282\n      jumpi\n        /* \"#utility.yul\":17188:17206   */\n      tag_283\n      tag_110\n      jump\t// in\n    tag_283:\n        /* \"#utility.yul\":17173:17208   */\n    tag_282:\n        /* \"#utility.yul\":17230:17231   */\n      dup3\n        /* \"#utility.yul\":17227:17228   */\n      dup3\n        /* \"#utility.yul\":17223:17232   */\n      div\n        /* \"#utility.yul\":17218:17232   */\n      swap1\n      pop\n        /* \"#utility.yul\":17053:17238   */\n      swap3\n      swap2\n      pop\n      pop\n      jump\t// out\n        /* \"#utility.yul\":17244:17435   */\n    tag_58:\n        /* \"#utility.yul\":17284:17287   */\n      0x00\n        /* \"#utility.yul\":17303:17323   */\n      tag_285\n        /* \"#utility.yul\":17321:17322   */\n      dup3\n        /* \"#utility.yul\":17303:17323   */\n      tag_66\n      jump\t// in\n    tag_285:\n        /* \"#utility.yul\":17298:17323   */\n      swap2\n      pop\n        /* \"#utility.yul\":17337:17357   */\n      tag_286\n        /* \"#utility.yul\":17355:17356   */\n      dup4\n        /* \"#utility.yul\":17337:17357   */\n      tag_66\n      jump\t// in\n    tag_286:\n        /* \"#utility.yul\":17332:17357   */\n      swap3\n      pop\n        /* \"#utility.yul\":17380:17381   */\n      dup3\n        /* \"#utility.yul\":17377:17378   */\n      dup3\n        /* \"#utility.yul\":17373:17382   */\n      add\n        /* \"#utility.yul\":17366:17382   */\n      swap1\n      pop\n        /* \"#utility.yul\":17401:17404   */\n      dup1\n        /* \"#utility.yul\":17398:17399   */\n      dup3\n        /* \"#utility.yul\":17395:17405   */\n      gt\n        /* \"#utility.yul\":17392:17428   */\n      iszero\n      tag_287\n      jumpi\n        /* \"#utility.yul\":17408:17426   */\n      tag_288\n      tag_109\n      jump\t// in\n    tag_288:\n        /* \"#utility.yul\":17392:17428   */\n    tag_287:\n        /* \"#utility.yul\":17244:17435   */\n      swap3\n      swap2\n      pop\n      pop\n      jump\t// out\n        /* \"#utility.yul\":17441:17851   */\n    tag_60:\n        /* \"#utility.yul\":17481:17488   */\n      0x00\n        /* \"#utility.yul\":17504:17524   */\n      tag_290\n        /* \"#utility.yul\":17522:17523   */\n      dup3\n        /* \"#utility.yul\":17504:17524   */\n      tag_66\n      jump\t// in\n    tag_290:\n        /* \"#utility.yul\":17499:17524   */\n      swap2\n      pop\n        /* \"#utility.yul\":17538:17558   */\n      tag_291\n        /* \"#utility.yul\":17556:17557   */\n      dup4\n        /* \"#utility.yul\":17538:17558   */\n      tag_66\n      jump\t// in\n    tag_291:\n        /* \"#utility.yul\":17533:17558   */\n      swap3\n      pop\n        /* \"#utility.yul\":17593:17594   */\n      dup3\n        /* \"#utility.yul\":17590:17591   */\n      dup3\n        /* \"#utility.yul\":17586:17595   */\n      mul\n        /* \"#utility.yul\":17615:17645   */\n      tag_292\n        /* \"#utility.yul\":17633:17644   */\n      dup2\n        /* \"#utility.yul\":17615:17645   */\n      tag_66\n      jump\t// in\n    tag_292:\n        /* \"#utility.yul\":17604:17645   */\n      swap2\n      pop\n        /* \"#utility.yul\":17794:17795   */\n      dup3\n        /* \"#utility.yul\":17785:17792   */\n      dup3\n        /* \"#utility.yul\":17781:17796   */\n      div\n        /* \"#utility.yul\":17778:17779   */\n      dup5\n        /* \"#utility.yul\":17775:17797   */\n      eq\n        /* \"#utility.yul\":17755:17756   */\n      dup4\n        /* \"#utility.yul\":17748:17757   */\n      iszero\n        /* \"#utility.yul\":17728:17811   */\n      or\n        /* \"#utility.yul\":17705:17844   */\n      tag_293\n      jumpi\n        /* \"#utility.yul\":17824:17842   */\n      tag_294\n      tag_109\n      jump\t// in\n    tag_294:\n        /* \"#utility.yul\":17705:17844   */\n    tag_293:\n        /* \"#utility.yul\":17489:17851   */\n      pop\n        /* \"#utility.yul\":17441:17851   */\n      swap3\n      swap2\n      pop\n      pop\n      jump\t// out\n\n    auxdata: 0xa26469706673582212203c3b484ab0f15ba9cc85957eb8218475f699687bbabc881b8bf9137c79296cba64736f6c63430008190033\n}\n",
				"bytecode": {
					"linkReferences": {},
					"object": "608060405234801561000f575f80fd5b50604051610fe1380380610fe1833981810160405281019061003191906100e5565b805f806101000a81548173ffffffffffffffffffffffffffffffffffffffff021916908373ffffffffffffffffffffffffffffffffffffffff16021790555050610110565b5f80fd5b5f73ffffffffffffffffffffffffffffffffffffffff82169050919050565b5f6100a38261007a565b9050919050565b5f6100b482610099565b9050919050565b6100c4816100aa565b81146100ce575f80fd5b50565b5f815190506100df816100bb565b92915050565b5f602082840312156100fa576100f9610076565b5b5f610107848285016100d1565b91505092915050565b610ec48061011d5f395ff3fe608060405234801561000f575f80fd5b506004361061004a575f3560e01c80631dab301e1461004e578063606b681d146100835780636d7591721461009f578063ace6d4dd146100bd575b5f80fd5b6100686004803603810190610063919061058a565b6100db565b60405161007a96959493929190610603565b60405180910390f35b61009d60048036038101906100989190610662565b610132565b005b6100a761051d565b6040516100b491906106b2565b60405180910390f35b6100c5610523565b6040516100d29190610726565b60405180910390f35b6001602052805f5260405f205f91509050805f015490806001015490806002015490806003015490806004015490806005015f9054906101000a900473ffffffffffffffffffffffffffffffffffffffff16905086565b5f73ffffffffffffffffffffffffffffffffffffffff163373ffffffffffffffffffffffffffffffffffffffff16036101a0576040517f08c379a000000000000000000000000000000000000000000000000000000000815260040161019790610799565b60405180910390fd5b808211156101e3576040517f08c379a00000000000000000000000000000000000000000000000000000000081526004016101da90610827565b60405180910390fd5b5f805f9054906101000a900473ffffffffffffffffffffffffffffffffffffffff1673ffffffffffffffffffffffffffffffffffffffff166332665ffb856040518263ffffffff1660e01b815260040161023d91906106b2565b5f60405180830381865afa158015610257573d5f803e3d5ffd5b505050506040513d5f823e3d601f19601f8201168201806040525081019061027f9190610c26565b90505f5b8160e0015151811015610317575f8260e0015182815181106102a8576102a7610c6d565b5b60200260200101519050806020015185111580156102c95750805f01518410155b15610309576040517f08c379a000000000000000000000000000000000000000000000000000000000815260040161030090610d0a565b60405180910390fd5b508080600101915050610283565b505f8054906101000a900473ffffffffffffffffffffffffffffffffffffffff1673ffffffffffffffffffffffffffffffffffffffff16636989a6498585856040518463ffffffff1660e01b815260040161037493929190610d28565b5f604051808303815f87803b15801561038b575f80fd5b505af115801561039d573d5f803e3d5ffd5b505050505f60016201518085856103b49190610d8a565b6103be9190610dea565b6103c89190610e1a565b90505f8260c00151826103db9190610e4d565b9050600160025f8282546103ef9190610e1a565b925050819055506040518060c0016040528060025481526020018781526020018681526020018581526020018281526020013373ffffffffffffffffffffffffffffffffffffffff1681525060015f60025481526020019081526020015f205f820151815f01556020820151816001015560408201518160020155606082015181600301556080820151816004015560a0820151816005015f6101000a81548173ffffffffffffffffffffffffffffffffffffffff021916908373ffffffffffffffffffffffffffffffffffffffff1602179055509050503373ffffffffffffffffffffffffffffffffffffffff167fa9e9f4683bd8042d00addc26be910bd076c0606fc6a292d4678cd92bbdfad3328760405161050d91906106b2565b60405180910390a2505050505050565b60025481565b5f8054906101000a900473ffffffffffffffffffffffffffffffffffffffff1681565b5f604051905090565b5f80fd5b5f80fd5b5f819050919050565b61056981610557565b8114610573575f80fd5b50565b5f8135905061058481610560565b92915050565b5f6020828403121561059f5761059e61054f565b5b5f6105ac84828501610576565b91505092915050565b6105be81610557565b82525050565b5f73ffffffffffffffffffffffffffffffffffffffff82169050919050565b5f6105ed826105c4565b9050919050565b6105fd816105e3565b82525050565b5f60c0820190506106165f8301896105b5565b61062360208301886105b5565b61063060408301876105b5565b61063d60608301866105b5565b61064a60808301856105b5565b61065760a08301846105f4565b979650505050505050565b5f805f606084860312156106795761067861054f565b5b5f61068686828701610576565b935050602061069786828701610576565b92505060406106a886828701610576565b9150509250925092565b5f6020820190506106c55f8301846105b5565b92915050565b5f819050919050565b5f6106ee6106e96106e4846105c4565b6106cb565b6105c4565b9050919050565b5f6106ff826106d4565b9050919050565b5f610710826106f5565b9050919050565b61072081610706565b82525050565b5f6020820190506107395f830184610717565b92915050565b5f82825260208201905092915050565b7f55736572206e6f742061757468656e746963617465642e0000000000000000005f82015250565b5f61078360178361073f565b915061078e8261074f565b602082019050919050565b5f6020820190508181035f8301526107b081610777565b9050919050565b7f496e76616c696420706572696f643a2073746172742064617465206d757374205f8201527f6265206265666f726520656e6420646174650000000000000000000000000000602082015250565b5f61081160328361073f565b915061081c826107b7565b604082019050919050565b5f6020820190508181035f83015261083e81610805565b9050919050565b5f80fd5b5f601f19601f8301169050919050565b7f4e487b71000000000000000000000000000000000000000000000000000000005f52604160045260245ffd5b61088f82610849565b810181811067ffffffffffffffff821117156108ae576108ad610859565b5b80604052505050565b5f6108c0610546565b90506108cc8282610886565b919050565b5f80fd5b5f815190506108e381610560565b92915050565b6108f2816105e3565b81146108fc575f80fd5b50565b5f8151905061090d816108e9565b92915050565b5f80fd5b5f80fd5b5f67ffffffffffffffff82111561093557610934610859565b5b61093e82610849565b9050602081019050919050565b8281835e5f83830152505050565b5f61096b6109668461091b565b6108b7565b90508281526020810184848401111561098757610986610917565b5b61099284828561094b565b509392505050565b5f82601f8301126109ae576109ad610913565b5b81516109be848260208601610959565b91505092915050565b5f819050919050565b6109d9816109c7565b81146109e3575f80fd5b50565b5f815190506109f4816109d0565b92915050565b5f67ffffffffffffffff821115610a1457610a13610859565b5b602082029050602081019050919050565b5f80fd5b5f60408284031215610a3e57610a3d610845565b5b610a4860406108b7565b90505f610a57848285016108d5565b5f830152506020610a6a848285016108d5565b60208301525092915050565b5f610a88610a83846109fa565b6108b7565b90508083825260208201905060408402830185811115610aab57610aaa610a25565b5b835b81811015610ad45780610ac08882610a29565b845260208401935050604081019050610aad565b5050509392505050565b5f82601f830112610af257610af1610913565b5b8151610b02848260208601610a76565b91505092915050565b5f6101008284031215610b2157610b20610845565b5b610b2c6101006108b7565b90505f610b3b848285016108d5565b5f830152506020610b4e848285016108ff565b602083015250604082015167ffffffffffffffff811115610b7257610b716108d1565b5b610b7e8482850161099a565b6040830152506060610b92848285016109e6565b6060830152506080610ba6848285016109e6565b60808301525060a082015167ffffffffffffffff811115610bca57610bc96108d1565b5b610bd68482850161099a565b60a08301525060c0610bea848285016108d5565b60c08301525060e082015167ffffffffffffffff811115610c0e57610c0d6108d1565b5b610c1a84828501610ade565b60e08301525092915050565b5f60208284031215610c3b57610c3a61054f565b5b5f82015167ffffffffffffffff811115610c5857610c57610553565b5b610c6484828501610b0b565b91505092915050565b7f4e487b71000000000000000000000000000000000000000000000000000000005f52603260045260245ffd5b7f50726f706572747920697320616c726561647920626f6f6b656420647572696e5f8201527f67207468697320706572696f6400000000000000000000000000000000000000602082015250565b5f610cf4602d8361073f565b9150610cff82610c9a565b604082019050919050565b5f6020820190508181035f830152610d2181610ce8565b9050919050565b5f606082019050610d3b5f8301866105b5565b610d4860208301856105b5565b610d5560408301846105b5565b949350505050565b7f4e487b71000000000000000000000000000000000000000000000000000000005f52601160045260245ffd5b5f610d9482610557565b9150610d9f83610557565b9250828203905081811115610db757610db6610d5d565b5b92915050565b7f4e487b71000000000000000000000000000000000000000000000000000000005f52601260045260245ffd5b5f610df482610557565b9150610dff83610557565b925082610e0f57610e0e610dbd565b5b828204905092915050565b5f610e2482610557565b9150610e2f83610557565b9250828201905080821115610e4757610e46610d5d565b5b92915050565b5f610e5782610557565b9150610e6283610557565b9250828202610e7081610557565b91508282048414831517610e8757610e86610d5d565b5b509291505056fea26469706673582212203c3b484ab0f15ba9cc85957eb8218475f699687bbabc881b8bf9137c79296cba64736f6c63430008190033",
					"opcodes": "PUSH1 0x80 PUSH1 0x40 MSTORE CALLVALUE DUP1 ISZERO PUSH2 0xF JUMPI PUSH0 DUP1 REVERT JUMPDEST POP PUSH1 0x40 MLOAD PUSH2 0xFE1 CODESIZE SUB DUP1 PUSH2 0xFE1 DUP4 CODECOPY DUP2 DUP2 ADD PUSH1 0x40 MSTORE DUP2 ADD SWAP1 PUSH2 0x31 SWAP2 SWAP1 PUSH2 0xE5 JUMP JUMPDEST DUP1 PUSH0 DUP1 PUSH2 0x100 EXP DUP2 SLOAD DUP2 PUSH20 0xFFFFFFFFFFFFFFFFFFFFFFFFFFFFFFFFFFFFFFFF MUL NOT AND SWAP1 DUP4 PUSH20 0xFFFFFFFFFFFFFFFFFFFFFFFFFFFFFFFFFFFFFFFF AND MUL OR SWAP1 SSTORE POP POP PUSH2 0x110 JUMP JUMPDEST PUSH0 DUP1 REVERT JUMPDEST PUSH0 PUSH20 0xFFFFFFFFFFFFFFFFFFFFFFFFFFFFFFFFFFFFFFFF DUP3 AND SWAP1 POP SWAP2 SWAP1 POP JUMP JUMPDEST PUSH0 PUSH2 0xA3 DUP3 PUSH2 0x7A JUMP JUMPDEST SWAP1 POP SWAP2 SWAP1 POP JUMP JUMPDEST PUSH0 PUSH2 0xB4 DUP3 PUSH2 0x99 JUMP JUMPDEST SWAP1 POP SWAP2 SWAP1 POP JUMP JUMPDEST PUSH2 0xC4 DUP2 PUSH2 0xAA JUMP JUMPDEST DUP2 EQ PUSH2 0xCE JUMPI PUSH0 DUP1 REVERT JUMPDEST POP JUMP JUMPDEST PUSH0 DUP2 MLOAD SWAP1 POP PUSH2 0xDF DUP2 PUSH2 0xBB JUMP JUMPDEST SWAP3 SWAP2 POP POP JUMP JUMPDEST PUSH0 PUSH1 0x20 DUP3 DUP5 SUB SLT ISZERO PUSH2 0xFA JUMPI PUSH2 0xF9 PUSH2 0x76 JUMP JUMPDEST JUMPDEST PUSH0 PUSH2 0x107 DUP5 DUP3 DUP6 ADD PUSH2 0xD1 JUMP JUMPDEST SWAP2 POP POP SWAP3 SWAP2 POP POP JUMP JUMPDEST PUSH2 0xEC4 DUP1 PUSH2 0x11D PUSH0 CODECOPY PUSH0 RETURN INVALID PUSH1 0x80 PUSH1 0x40 MSTORE CALLVALUE DUP1 ISZERO PUSH2 0xF JUMPI PUSH0 DUP1 REVERT JUMPDEST POP PUSH1 0x4 CALLDATASIZE LT PUSH2 0x4A JUMPI PUSH0 CALLDATALOAD PUSH1 0xE0 SHR DUP1 PUSH4 0x1DAB301E EQ PUSH2 0x4E JUMPI DUP1 PUSH4 0x606B681D EQ PUSH2 0x83 JUMPI DUP1 PUSH4 0x6D759172 EQ PUSH2 0x9F JUMPI DUP1 PUSH4 0xACE6D4DD EQ PUSH2 0xBD JUMPI JUMPDEST PUSH0 DUP1 REVERT JUMPDEST PUSH2 0x68 PUSH1 0x4 DUP1 CALLDATASIZE SUB DUP2 ADD SWAP1 PUSH2 0x63 SWAP2 SWAP1 PUSH2 0x58A JUMP JUMPDEST PUSH2 0xDB JUMP JUMPDEST PUSH1 0x40 MLOAD PUSH2 0x7A SWAP7 SWAP6 SWAP5 SWAP4 SWAP3 SWAP2 SWAP1 PUSH2 0x603 JUMP JUMPDEST PUSH1 0x40 MLOAD DUP1 SWAP2 SUB SWAP1 RETURN JUMPDEST PUSH2 0x9D PUSH1 0x4 DUP1 CALLDATASIZE SUB DUP2 ADD SWAP1 PUSH2 0x98 SWAP2 SWAP1 PUSH2 0x662 JUMP JUMPDEST PUSH2 0x132 JUMP JUMPDEST STOP JUMPDEST PUSH2 0xA7 PUSH2 0x51D JUMP JUMPDEST PUSH1 0x40 MLOAD PUSH2 0xB4 SWAP2 SWAP1 PUSH2 0x6B2 JUMP JUMPDEST PUSH1 0x40 MLOAD DUP1 SWAP2 SUB SWAP1 RETURN JUMPDEST PUSH2 0xC5 PUSH2 0x523 JUMP JUMPDEST PUSH1 0x40 MLOAD PUSH2 0xD2 SWAP2 SWAP1 PUSH2 0x726 JUMP JUMPDEST PUSH1 0x40 MLOAD DUP1 SWAP2 SUB SWAP1 RETURN JUMPDEST PUSH1 0x1 PUSH1 0x20 MSTORE DUP1 PUSH0 MSTORE PUSH1 0x40 PUSH0 KECCAK256 PUSH0 SWAP2 POP SWAP1 POP DUP1 PUSH0 ADD SLOAD SWAP1 DUP1 PUSH1 0x1 ADD SLOAD SWAP1 DUP1 PUSH1 0x2 ADD SLOAD SWAP1 DUP1 PUSH1 0x3 ADD SLOAD SWAP1 DUP1 PUSH1 0x4 ADD SLOAD SWAP1 DUP1 PUSH1 0x5 ADD PUSH0 SWAP1 SLOAD SWAP1 PUSH2 0x100 EXP SWAP1 DIV PUSH20 0xFFFFFFFFFFFFFFFFFFFFFFFFFFFFFFFFFFFFFFFF AND SWAP1 POP DUP7 JUMP JUMPDEST PUSH0 PUSH20 0xFFFFFFFFFFFFFFFFFFFFFFFFFFFFFFFFFFFFFFFF AND CALLER PUSH20 0xFFFFFFFFFFFFFFFFFFFFFFFFFFFFFFFFFFFFFFFF AND SUB PUSH2 0x1A0 JUMPI PUSH1 0x40 MLOAD PUSH32 0x8C379A000000000000000000000000000000000000000000000000000000000 DUP2 MSTORE PUSH1 0x4 ADD PUSH2 0x197 SWAP1 PUSH2 0x799 JUMP JUMPDEST PUSH1 0x40 MLOAD DUP1 SWAP2 SUB SWAP1 REVERT JUMPDEST DUP1 DUP3 GT ISZERO PUSH2 0x1E3 JUMPI PUSH1 0x40 MLOAD PUSH32 0x8C379A000000000000000000000000000000000000000000000000000000000 DUP2 MSTORE PUSH1 0x4 ADD PUSH2 0x1DA SWAP1 PUSH2 0x827 JUMP JUMPDEST PUSH1 0x40 MLOAD DUP1 SWAP2 SUB SWAP1 REVERT JUMPDEST PUSH0 DUP1 PUSH0 SWAP1 SLOAD SWAP1 PUSH2 0x100 EXP SWAP1 DIV PUSH20 0xFFFFFFFFFFFFFFFFFFFFFFFFFFFFFFFFFFFFFFFF AND PUSH20 0xFFFFFFFFFFFFFFFFFFFFFFFFFFFFFFFFFFFFFFFF AND PUSH4 0x32665FFB DUP6 PUSH1 0x40 MLOAD DUP3 PUSH4 0xFFFFFFFF AND PUSH1 0xE0 SHL DUP2 MSTORE PUSH1 0x4 ADD PUSH2 0x23D SWAP2 SWAP1 PUSH2 0x6B2 JUMP JUMPDEST PUSH0 PUSH1 0x40 MLOAD DUP1 DUP4 SUB DUP2 DUP7 GAS STATICCALL ISZERO DUP1 ISZERO PUSH2 0x257 JUMPI RETURNDATASIZE PUSH0 DUP1 RETURNDATACOPY RETURNDATASIZE PUSH0 REVERT JUMPDEST POP POP POP POP PUSH1 0x40 MLOAD RETURNDATASIZE PUSH0 DUP3 RETURNDATACOPY RETURNDATASIZE PUSH1 0x1F NOT PUSH1 0x1F DUP3 ADD AND DUP3 ADD DUP1 PUSH1 0x40 MSTORE POP DUP2 ADD SWAP1 PUSH2 0x27F SWAP2 SWAP1 PUSH2 0xC26 JUMP JUMPDEST SWAP1 POP PUSH0 JUMPDEST DUP2 PUSH1 0xE0 ADD MLOAD MLOAD DUP2 LT ISZERO PUSH2 0x317 JUMPI PUSH0 DUP3 PUSH1 0xE0 ADD MLOAD DUP3 DUP2 MLOAD DUP2 LT PUSH2 0x2A8 JUMPI PUSH2 0x2A7 PUSH2 0xC6D JUMP JUMPDEST JUMPDEST PUSH1 0x20 MUL PUSH1 0x20 ADD ADD MLOAD SWAP1 POP DUP1 PUSH1 0x20 ADD MLOAD DUP6 GT ISZERO DUP1 ISZERO PUSH2 0x2C9 JUMPI POP DUP1 PUSH0 ADD MLOAD DUP5 LT ISZERO JUMPDEST ISZERO PUSH2 0x309 JUMPI PUSH1 0x40 MLOAD PUSH32 0x8C379A000000000000000000000000000000000000000000000000000000000 DUP2 MSTORE PUSH1 0x4 ADD PUSH2 0x300 SWAP1 PUSH2 0xD0A JUMP JUMPDEST PUSH1 0x40 MLOAD DUP1 SWAP2 SUB SWAP1 REVERT JUMPDEST POP DUP1 DUP1 PUSH1 0x1 ADD SWAP2 POP POP PUSH2 0x283 JUMP JUMPDEST POP PUSH0 DUP1 SLOAD SWAP1 PUSH2 0x100 EXP SWAP1 DIV PUSH20 0xFFFFFFFFFFFFFFFFFFFFFFFFFFFFFFFFFFFFFFFF AND PUSH20 0xFFFFFFFFFFFFFFFFFFFFFFFFFFFFFFFFFFFFFFFF AND PUSH4 0x6989A649 DUP6 DUP6 DUP6 PUSH1 0x40 MLOAD DUP5 PUSH4 0xFFFFFFFF AND PUSH1 0xE0 SHL DUP2 MSTORE PUSH1 0x4 ADD PUSH2 0x374 SWAP4 SWAP3 SWAP2 SWAP1 PUSH2 0xD28 JUMP JUMPDEST PUSH0 PUSH1 0x40 MLOAD DUP1 DUP4 SUB DUP2 PUSH0 DUP8 DUP1 EXTCODESIZE ISZERO DUP1 ISZERO PUSH2 0x38B JUMPI PUSH0 DUP1 REVERT JUMPDEST POP GAS CALL ISZERO DUP1 ISZERO PUSH2 0x39D JUMPI RETURNDATASIZE PUSH0 DUP1 RETURNDATACOPY RETURNDATASIZE PUSH0 REVERT JUMPDEST POP POP POP POP PUSH0 PUSH1 0x1 PUSH3 0x15180 DUP6 DUP6 PUSH2 0x3B4 SWAP2 SWAP1 PUSH2 0xD8A JUMP JUMPDEST PUSH2 0x3BE SWAP2 SWAP1 PUSH2 0xDEA JUMP JUMPDEST PUSH2 0x3C8 SWAP2 SWAP1 PUSH2 0xE1A JUMP JUMPDEST SWAP1 POP PUSH0 DUP3 PUSH1 0xC0 ADD MLOAD DUP3 PUSH2 0x3DB SWAP2 SWAP1 PUSH2 0xE4D JUMP JUMPDEST SWAP1 POP PUSH1 0x1 PUSH1 0x2 PUSH0 DUP3 DUP3 SLOAD PUSH2 0x3EF SWAP2 SWAP1 PUSH2 0xE1A JUMP JUMPDEST SWAP3 POP POP DUP2 SWAP1 SSTORE POP PUSH1 0x40 MLOAD DUP1 PUSH1 0xC0 ADD PUSH1 0x40 MSTORE DUP1 PUSH1 0x2 SLOAD DUP2 MSTORE PUSH1 0x20 ADD DUP8 DUP2 MSTORE PUSH1 0x20 ADD DUP7 DUP2 MSTORE PUSH1 0x20 ADD DUP6 DUP2 MSTORE PUSH1 0x20 ADD DUP3 DUP2 MSTORE PUSH1 0x20 ADD CALLER PUSH20 0xFFFFFFFFFFFFFFFFFFFFFFFFFFFFFFFFFFFFFFFF AND DUP2 MSTORE POP PUSH1 0x1 PUSH0 PUSH1 0x2 SLOAD DUP2 MSTORE PUSH1 0x20 ADD SWAP1 DUP2 MSTORE PUSH1 0x20 ADD PUSH0 KECCAK256 PUSH0 DUP3 ADD MLOAD DUP2 PUSH0 ADD SSTORE PUSH1 0x20 DUP3 ADD MLOAD DUP2 PUSH1 0x1 ADD SSTORE PUSH1 0x40 DUP3 ADD MLOAD DUP2 PUSH1 0x2 ADD SSTORE PUSH1 0x60 DUP3 ADD MLOAD DUP2 PUSH1 0x3 ADD SSTORE PUSH1 0x80 DUP3 ADD MLOAD DUP2 PUSH1 0x4 ADD SSTORE PUSH1 0xA0 DUP3 ADD MLOAD DUP2 PUSH1 0x5 ADD PUSH0 PUSH2 0x100 EXP DUP2 SLOAD DUP2 PUSH20 0xFFFFFFFFFFFFFFFFFFFFFFFFFFFFFFFFFFFFFFFF MUL NOT AND SWAP1 DUP4 PUSH20 0xFFFFFFFFFFFFFFFFFFFFFFFFFFFFFFFFFFFFFFFF AND MUL OR SWAP1 SSTORE POP SWAP1 POP POP CALLER PUSH20 0xFFFFFFFFFFFFFFFFFFFFFFFFFFFFFFFFFFFFFFFF AND PUSH32 0xA9E9F4683BD8042D00ADDC26BE910BD076C0606FC6A292D4678CD92BBDFAD332 DUP8 PUSH1 0x40 MLOAD PUSH2 0x50D SWAP2 SWAP1 PUSH2 0x6B2 JUMP JUMPDEST PUSH1 0x40 MLOAD DUP1 SWAP2 SUB SWAP1 LOG2 POP POP POP POP POP POP JUMP JUMPDEST PUSH1 0x2 SLOAD DUP2 JUMP JUMPDEST PUSH0 DUP1 SLOAD SWAP1 PUSH2 0x100 EXP SWAP1 DIV PUSH20 0xFFFFFFFFFFFFFFFFFFFFFFFFFFFFFFFFFFFFFFFF AND DUP2 JUMP JUMPDEST PUSH0 PUSH1 0x40 MLOAD SWAP1 POP SWAP1 JUMP JUMPDEST PUSH0 DUP1 REVERT JUMPDEST PUSH0 DUP1 REVERT JUMPDEST PUSH0 DUP2 SWAP1 POP SWAP2 SWAP1 POP JUMP JUMPDEST PUSH2 0x569 DUP2 PUSH2 0x557 JUMP JUMPDEST DUP2 EQ PUSH2 0x573 JUMPI PUSH0 DUP1 REVERT JUMPDEST POP JUMP JUMPDEST PUSH0 DUP2 CALLDATALOAD SWAP1 POP PUSH2 0x584 DUP2 PUSH2 0x560 JUMP JUMPDEST SWAP3 SWAP2 POP POP JUMP JUMPDEST PUSH0 PUSH1 0x20 DUP3 DUP5 SUB SLT ISZERO PUSH2 0x59F JUMPI PUSH2 0x59E PUSH2 0x54F JUMP JUMPDEST JUMPDEST PUSH0 PUSH2 0x5AC DUP5 DUP3 DUP6 ADD PUSH2 0x576 JUMP JUMPDEST SWAP2 POP POP SWAP3 SWAP2 POP POP JUMP JUMPDEST PUSH2 0x5BE DUP2 PUSH2 0x557 JUMP JUMPDEST DUP3 MSTORE POP POP JUMP JUMPDEST PUSH0 PUSH20 0xFFFFFFFFFFFFFFFFFFFFFFFFFFFFFFFFFFFFFFFF DUP3 AND SWAP1 POP SWAP2 SWAP1 POP JUMP JUMPDEST PUSH0 PUSH2 0x5ED DUP3 PUSH2 0x5C4 JUMP JUMPDEST SWAP1 POP SWAP2 SWAP1 POP JUMP JUMPDEST PUSH2 0x5FD DUP2 PUSH2 0x5E3 JUMP JUMPDEST DUP3 MSTORE POP POP JUMP JUMPDEST PUSH0 PUSH1 0xC0 DUP3 ADD SWAP1 POP PUSH2 0x616 PUSH0 DUP4 ADD DUP10 PUSH2 0x5B5 JUMP JUMPDEST PUSH2 0x623 PUSH1 0x20 DUP4 ADD DUP9 PUSH2 0x5B5 JUMP JUMPDEST PUSH2 0x630 PUSH1 0x40 DUP4 ADD DUP8 PUSH2 0x5B5 JUMP JUMPDEST PUSH2 0x63D PUSH1 0x60 DUP4 ADD DUP7 PUSH2 0x5B5 JUMP JUMPDEST PUSH2 0x64A PUSH1 0x80 DUP4 ADD DUP6 PUSH2 0x5B5 JUMP JUMPDEST PUSH2 0x657 PUSH1 0xA0 DUP4 ADD DUP5 PUSH2 0x5F4 JUMP JUMPDEST SWAP8 SWAP7 POP POP POP POP POP POP POP JUMP JUMPDEST PUSH0 DUP1 PUSH0 PUSH1 0x60 DUP5 DUP7 SUB SLT ISZERO PUSH2 0x679 JUMPI PUSH2 0x678 PUSH2 0x54F JUMP JUMPDEST JUMPDEST PUSH0 PUSH2 0x686 DUP7 DUP3 DUP8 ADD PUSH2 0x576 JUMP JUMPDEST SWAP4 POP POP PUSH1 0x20 PUSH2 0x697 DUP7 DUP3 DUP8 ADD PUSH2 0x576 JUMP JUMPDEST SWAP3 POP POP PUSH1 0x40 PUSH2 0x6A8 DUP7 DUP3 DUP8 ADD PUSH2 0x576 JUMP JUMPDEST SWAP2 POP POP SWAP3 POP SWAP3 POP SWAP3 JUMP JUMPDEST PUSH0 PUSH1 0x20 DUP3 ADD SWAP1 POP PUSH2 0x6C5 PUSH0 DUP4 ADD DUP5 PUSH2 0x5B5 JUMP JUMPDEST SWAP3 SWAP2 POP POP JUMP JUMPDEST PUSH0 DUP2 SWAP1 POP SWAP2 SWAP1 POP JUMP JUMPDEST PUSH0 PUSH2 0x6EE PUSH2 0x6E9 PUSH2 0x6E4 DUP5 PUSH2 0x5C4 JUMP JUMPDEST PUSH2 0x6CB JUMP JUMPDEST PUSH2 0x5C4 JUMP JUMPDEST SWAP1 POP SWAP2 SWAP1 POP JUMP JUMPDEST PUSH0 PUSH2 0x6FF DUP3 PUSH2 0x6D4 JUMP JUMPDEST SWAP1 POP SWAP2 SWAP1 POP JUMP JUMPDEST PUSH0 PUSH2 0x710 DUP3 PUSH2 0x6F5 JUMP JUMPDEST SWAP1 POP SWAP2 SWAP1 POP JUMP JUMPDEST PUSH2 0x720 DUP2 PUSH2 0x706 JUMP JUMPDEST DUP3 MSTORE POP POP JUMP JUMPDEST PUSH0 PUSH1 0x20 DUP3 ADD SWAP1 POP PUSH2 0x739 PUSH0 DUP4 ADD DUP5 PUSH2 0x717 JUMP JUMPDEST SWAP3 SWAP2 POP POP JUMP JUMPDEST PUSH0 DUP3 DUP3 MSTORE PUSH1 0x20 DUP3 ADD SWAP1 POP SWAP3 SWAP2 POP POP JUMP JUMPDEST PUSH32 0x55736572206E6F742061757468656E746963617465642E000000000000000000 PUSH0 DUP3 ADD MSTORE POP JUMP JUMPDEST PUSH0 PUSH2 0x783 PUSH1 0x17 DUP4 PUSH2 0x73F JUMP JUMPDEST SWAP2 POP PUSH2 0x78E DUP3 PUSH2 0x74F JUMP JUMPDEST PUSH1 0x20 DUP3 ADD SWAP1 POP SWAP2 SWAP1 POP JUMP JUMPDEST PUSH0 PUSH1 0x20 DUP3 ADD SWAP1 POP DUP2 DUP2 SUB PUSH0 DUP4 ADD MSTORE PUSH2 0x7B0 DUP2 PUSH2 0x777 JUMP JUMPDEST SWAP1 POP SWAP2 SWAP1 POP JUMP JUMPDEST PUSH32 0x496E76616C696420706572696F643A2073746172742064617465206D75737420 PUSH0 DUP3 ADD MSTORE PUSH32 0x6265206265666F726520656E6420646174650000000000000000000000000000 PUSH1 0x20 DUP3 ADD MSTORE POP JUMP JUMPDEST PUSH0 PUSH2 0x811 PUSH1 0x32 DUP4 PUSH2 0x73F JUMP JUMPDEST SWAP2 POP PUSH2 0x81C DUP3 PUSH2 0x7B7 JUMP JUMPDEST PUSH1 0x40 DUP3 ADD SWAP1 POP SWAP2 SWAP1 POP JUMP JUMPDEST PUSH0 PUSH1 0x20 DUP3 ADD SWAP1 POP DUP2 DUP2 SUB PUSH0 DUP4 ADD MSTORE PUSH2 0x83E DUP2 PUSH2 0x805 JUMP JUMPDEST SWAP1 POP SWAP2 SWAP1 POP JUMP JUMPDEST PUSH0 DUP1 REVERT JUMPDEST PUSH0 PUSH1 0x1F NOT PUSH1 0x1F DUP4 ADD AND SWAP1 POP SWAP2 SWAP1 POP JUMP JUMPDEST PUSH32 0x4E487B7100000000000000000000000000000000000000000000000000000000 PUSH0 MSTORE PUSH1 0x41 PUSH1 0x4 MSTORE PUSH1 0x24 PUSH0 REVERT JUMPDEST PUSH2 0x88F DUP3 PUSH2 0x849 JUMP JUMPDEST DUP2 ADD DUP2 DUP2 LT PUSH8 0xFFFFFFFFFFFFFFFF DUP3 GT OR ISZERO PUSH2 0x8AE JUMPI PUSH2 0x8AD PUSH2 0x859 JUMP JUMPDEST JUMPDEST DUP1 PUSH1 0x40 MSTORE POP POP POP JUMP JUMPDEST PUSH0 PUSH2 0x8C0 PUSH2 0x546 JUMP JUMPDEST SWAP1 POP PUSH2 0x8CC DUP3 DUP3 PUSH2 0x886 JUMP JUMPDEST SWAP2 SWAP1 POP JUMP JUMPDEST PUSH0 DUP1 REVERT JUMPDEST PUSH0 DUP2 MLOAD SWAP1 POP PUSH2 0x8E3 DUP2 PUSH2 0x560 JUMP JUMPDEST SWAP3 SWAP2 POP POP JUMP JUMPDEST PUSH2 0x8F2 DUP2 PUSH2 0x5E3 JUMP JUMPDEST DUP2 EQ PUSH2 0x8FC JUMPI PUSH0 DUP1 REVERT JUMPDEST POP JUMP JUMPDEST PUSH0 DUP2 MLOAD SWAP1 POP PUSH2 0x90D DUP2 PUSH2 0x8E9 JUMP JUMPDEST SWAP3 SWAP2 POP POP JUMP JUMPDEST PUSH0 DUP1 REVERT JUMPDEST PUSH0 DUP1 REVERT JUMPDEST PUSH0 PUSH8 0xFFFFFFFFFFFFFFFF DUP3 GT ISZERO PUSH2 0x935 JUMPI PUSH2 0x934 PUSH2 0x859 JUMP JUMPDEST JUMPDEST PUSH2 0x93E DUP3 PUSH2 0x849 JUMP JUMPDEST SWAP1 POP PUSH1 0x20 DUP2 ADD SWAP1 POP SWAP2 SWAP1 POP JUMP JUMPDEST DUP3 DUP2 DUP4 MCOPY PUSH0 DUP4 DUP4 ADD MSTORE POP POP POP JUMP JUMPDEST PUSH0 PUSH2 0x96B PUSH2 0x966 DUP5 PUSH2 0x91B JUMP JUMPDEST PUSH2 0x8B7 JUMP JUMPDEST SWAP1 POP DUP3 DUP2 MSTORE PUSH1 0x20 DUP2 ADD DUP5 DUP5 DUP5 ADD GT ISZERO PUSH2 0x987 JUMPI PUSH2 0x986 PUSH2 0x917 JUMP JUMPDEST JUMPDEST PUSH2 0x992 DUP5 DUP3 DUP6 PUSH2 0x94B JUMP JUMPDEST POP SWAP4 SWAP3 POP POP POP JUMP JUMPDEST PUSH0 DUP3 PUSH1 0x1F DUP4 ADD SLT PUSH2 0x9AE JUMPI PUSH2 0x9AD PUSH2 0x913 JUMP JUMPDEST JUMPDEST DUP2 MLOAD PUSH2 0x9BE DUP5 DUP3 PUSH1 0x20 DUP7 ADD PUSH2 0x959 JUMP JUMPDEST SWAP2 POP POP SWAP3 SWAP2 POP POP JUMP JUMPDEST PUSH0 DUP2 SWAP1 POP SWAP2 SWAP1 POP JUMP JUMPDEST PUSH2 0x9D9 DUP2 PUSH2 0x9C7 JUMP JUMPDEST DUP2 EQ PUSH2 0x9E3 JUMPI PUSH0 DUP1 REVERT JUMPDEST POP JUMP JUMPDEST PUSH0 DUP2 MLOAD SWAP1 POP PUSH2 0x9F4 DUP2 PUSH2 0x9D0 JUMP JUMPDEST SWAP3 SWAP2 POP POP JUMP JUMPDEST PUSH0 PUSH8 0xFFFFFFFFFFFFFFFF DUP3 GT ISZERO PUSH2 0xA14 JUMPI PUSH2 0xA13 PUSH2 0x859 JUMP JUMPDEST JUMPDEST PUSH1 0x20 DUP3 MUL SWAP1 POP PUSH1 0x20 DUP2 ADD SWAP1 POP SWAP2 SWAP1 POP JUMP JUMPDEST PUSH0 DUP1 REVERT JUMPDEST PUSH0 PUSH1 0x40 DUP3 DUP5 SUB SLT ISZERO PUSH2 0xA3E JUMPI PUSH2 0xA3D PUSH2 0x845 JUMP JUMPDEST JUMPDEST PUSH2 0xA48 PUSH1 0x40 PUSH2 0x8B7 JUMP JUMPDEST SWAP1 POP PUSH0 PUSH2 0xA57 DUP5 DUP3 DUP6 ADD PUSH2 0x8D5 JUMP JUMPDEST PUSH0 DUP4 ADD MSTORE POP PUSH1 0x20 PUSH2 0xA6A DUP5 DUP3 DUP6 ADD PUSH2 0x8D5 JUMP JUMPDEST PUSH1 0x20 DUP4 ADD MSTORE POP SWAP3 SWAP2 POP POP JUMP JUMPDEST PUSH0 PUSH2 0xA88 PUSH2 0xA83 DUP5 PUSH2 0x9FA JUMP JUMPDEST PUSH2 0x8B7 JUMP JUMPDEST SWAP1 POP DUP1 DUP4 DUP3 MSTORE PUSH1 0x20 DUP3 ADD SWAP1 POP PUSH1 0x40 DUP5 MUL DUP4 ADD DUP6 DUP2 GT ISZERO PUSH2 0xAAB JUMPI PUSH2 0xAAA PUSH2 0xA25 JUMP JUMPDEST JUMPDEST DUP4 JUMPDEST DUP2 DUP2 LT ISZERO PUSH2 0xAD4 JUMPI DUP1 PUSH2 0xAC0 DUP9 DUP3 PUSH2 0xA29 JUMP JUMPDEST DUP5 MSTORE PUSH1 0x20 DUP5 ADD SWAP4 POP POP PUSH1 0x40 DUP2 ADD SWAP1 POP PUSH2 0xAAD JUMP JUMPDEST POP POP POP SWAP4 SWAP3 POP POP POP JUMP JUMPDEST PUSH0 DUP3 PUSH1 0x1F DUP4 ADD SLT PUSH2 0xAF2 JUMPI PUSH2 0xAF1 PUSH2 0x913 JUMP JUMPDEST JUMPDEST DUP2 MLOAD PUSH2 0xB02 DUP5 DUP3 PUSH1 0x20 DUP7 ADD PUSH2 0xA76 JUMP JUMPDEST SWAP2 POP POP SWAP3 SWAP2 POP POP JUMP JUMPDEST PUSH0 PUSH2 0x100 DUP3 DUP5 SUB SLT ISZERO PUSH2 0xB21 JUMPI PUSH2 0xB20 PUSH2 0x845 JUMP JUMPDEST JUMPDEST PUSH2 0xB2C PUSH2 0x100 PUSH2 0x8B7 JUMP JUMPDEST SWAP1 POP PUSH0 PUSH2 0xB3B DUP5 DUP3 DUP6 ADD PUSH2 0x8D5 JUMP JUMPDEST PUSH0 DUP4 ADD MSTORE POP PUSH1 0x20 PUSH2 0xB4E DUP5 DUP3 DUP6 ADD PUSH2 0x8FF JUMP JUMPDEST PUSH1 0x20 DUP4 ADD MSTORE POP PUSH1 0x40 DUP3 ADD MLOAD PUSH8 0xFFFFFFFFFFFFFFFF DUP2 GT ISZERO PUSH2 0xB72 JUMPI PUSH2 0xB71 PUSH2 0x8D1 JUMP JUMPDEST JUMPDEST PUSH2 0xB7E DUP5 DUP3 DUP6 ADD PUSH2 0x99A JUMP JUMPDEST PUSH1 0x40 DUP4 ADD MSTORE POP PUSH1 0x60 PUSH2 0xB92 DUP5 DUP3 DUP6 ADD PUSH2 0x9E6 JUMP JUMPDEST PUSH1 0x60 DUP4 ADD MSTORE POP PUSH1 0x80 PUSH2 0xBA6 DUP5 DUP3 DUP6 ADD PUSH2 0x9E6 JUMP JUMPDEST PUSH1 0x80 DUP4 ADD MSTORE POP PUSH1 0xA0 DUP3 ADD MLOAD PUSH8 0xFFFFFFFFFFFFFFFF DUP2 GT ISZERO PUSH2 0xBCA JUMPI PUSH2 0xBC9 PUSH2 0x8D1 JUMP JUMPDEST JUMPDEST PUSH2 0xBD6 DUP5 DUP3 DUP6 ADD PUSH2 0x99A JUMP JUMPDEST PUSH1 0xA0 DUP4 ADD MSTORE POP PUSH1 0xC0 PUSH2 0xBEA DUP5 DUP3 DUP6 ADD PUSH2 0x8D5 JUMP JUMPDEST PUSH1 0xC0 DUP4 ADD MSTORE POP PUSH1 0xE0 DUP3 ADD MLOAD PUSH8 0xFFFFFFFFFFFFFFFF DUP2 GT ISZERO PUSH2 0xC0E JUMPI PUSH2 0xC0D PUSH2 0x8D1 JUMP JUMPDEST JUMPDEST PUSH2 0xC1A DUP5 DUP3 DUP6 ADD PUSH2 0xADE JUMP JUMPDEST PUSH1 0xE0 DUP4 ADD MSTORE POP SWAP3 SWAP2 POP POP JUMP JUMPDEST PUSH0 PUSH1 0x20 DUP3 DUP5 SUB SLT ISZERO PUSH2 0xC3B JUMPI PUSH2 0xC3A PUSH2 0x54F JUMP JUMPDEST JUMPDEST PUSH0 DUP3 ADD MLOAD PUSH8 0xFFFFFFFFFFFFFFFF DUP2 GT ISZERO PUSH2 0xC58 JUMPI PUSH2 0xC57 PUSH2 0x553 JUMP JUMPDEST JUMPDEST PUSH2 0xC64 DUP5 DUP3 DUP6 ADD PUSH2 0xB0B JUMP JUMPDEST SWAP2 POP POP SWAP3 SWAP2 POP POP JUMP JUMPDEST PUSH32 0x4E487B7100000000000000000000000000000000000000000000000000000000 PUSH0 MSTORE PUSH1 0x32 PUSH1 0x4 MSTORE PUSH1 0x24 PUSH0 REVERT JUMPDEST PUSH32 0x50726F706572747920697320616C726561647920626F6F6B656420647572696E PUSH0 DUP3 ADD MSTORE PUSH32 0x67207468697320706572696F6400000000000000000000000000000000000000 PUSH1 0x20 DUP3 ADD MSTORE POP JUMP JUMPDEST PUSH0 PUSH2 0xCF4 PUSH1 0x2D DUP4 PUSH2 0x73F JUMP JUMPDEST SWAP2 POP PUSH2 0xCFF DUP3 PUSH2 0xC9A JUMP JUMPDEST PUSH1 0x40 DUP3 ADD SWAP1 POP SWAP2 SWAP1 POP JUMP JUMPDEST PUSH0 PUSH1 0x20 DUP3 ADD SWAP1 POP DUP2 DUP2 SUB PUSH0 DUP4 ADD MSTORE PUSH2 0xD21 DUP2 PUSH2 0xCE8 JUMP JUMPDEST SWAP1 POP SWAP2 SWAP1 POP JUMP JUMPDEST PUSH0 PUSH1 0x60 DUP3 ADD SWAP1 POP PUSH2 0xD3B PUSH0 DUP4 ADD DUP7 PUSH2 0x5B5 JUMP JUMPDEST PUSH2 0xD48 PUSH1 0x20 DUP4 ADD DUP6 PUSH2 0x5B5 JUMP JUMPDEST PUSH2 0xD55 PUSH1 0x40 DUP4 ADD DUP5 PUSH2 0x5B5 JUMP JUMPDEST SWAP5 SWAP4 POP POP POP POP JUMP JUMPDEST PUSH32 0x4E487B7100000000000000000000000000000000000000000000000000000000 PUSH0 MSTORE PUSH1 0x11 PUSH1 0x4 MSTORE PUSH1 0x24 PUSH0 REVERT JUMPDEST PUSH0 PUSH2 0xD94 DUP3 PUSH2 0x557 JUMP JUMPDEST SWAP2 POP PUSH2 0xD9F DUP4 PUSH2 0x557 JUMP JUMPDEST SWAP3 POP DUP3 DUP3 SUB SWAP1 POP DUP2 DUP2 GT ISZERO PUSH2 0xDB7 JUMPI PUSH2 0xDB6 PUSH2 0xD5D JUMP JUMPDEST JUMPDEST SWAP3 SWAP2 POP POP JUMP JUMPDEST PUSH32 0x4E487B7100000000000000000000000000000000000000000000000000000000 PUSH0 MSTORE PUSH1 0x12 PUSH1 0x4 MSTORE PUSH1 0x24 PUSH0 REVERT JUMPDEST PUSH0 PUSH2 0xDF4 DUP3 PUSH2 0x557 JUMP JUMPDEST SWAP2 POP PUSH2 0xDFF DUP4 PUSH2 0x557 JUMP JUMPDEST SWAP3 POP DUP3 PUSH2 0xE0F JUMPI PUSH2 0xE0E PUSH2 0xDBD JUMP JUMPDEST JUMPDEST DUP3 DUP3 DIV SWAP1 POP SWAP3 SWAP2 POP POP JUMP JUMPDEST PUSH0 PUSH2 0xE24 DUP3 PUSH2 0x557 JUMP JUMPDEST SWAP2 POP PUSH2 0xE2F DUP4 PUSH2 0x557 JUMP JUMPDEST SWAP3 POP DUP3 DUP3 ADD SWAP1 POP DUP1 DUP3 GT ISZERO PUSH2 0xE47 JUMPI PUSH2 0xE46 PUSH2 0xD5D JUMP JUMPDEST JUMPDEST SWAP3 SWAP2 POP POP JUMP JUMPDEST PUSH0 PUSH2 0xE57 DUP3 PUSH2 0x557 JUMP JUMPDEST SWAP2 POP PUSH2 0xE62 DUP4 PUSH2 0x557 JUMP JUMPDEST SWAP3 POP DUP3 DUP3 MUL PUSH2 0xE70 DUP2 PUSH2 0x557 JUMP JUMPDEST SWAP2 POP DUP3 DUP3 DIV DUP5 EQ DUP4 ISZERO OR PUSH2 0xE87 JUMPI PUSH2 0xE86 PUSH2 0xD5D JUMP JUMPDEST JUMPDEST POP SWAP3 SWAP2 POP POP JUMP INVALID LOG2 PUSH5 0x6970667358 0x22 SLT KECCAK256 EXTCODECOPY EXTCODESIZE BASEFEE BLOBBASEFEE 0xB0 CALL JUMPDEST 0xA9 0xCC DUP6 SWAP6 PUSH31 0xB8218475F699687BBABC881B8BF9137C79296CBA64736F6C63430008190033 "
				},
				"gasEstimates": {
					"creation": {
						"codeDepositCost": "756000",
						"executionCost": "infinite",
						"totalCost": "infinite"
					},
					"external": {
						"bookingCount()": "2447",
						"bookings(uint256)": "infinite",
						"propertyManagement()": "infinite",
						"reserveProperty(uint256,uint256,uint256)": "infinite"
					}
				},
				"methodIdentifiers": {
					"bookingCount()": "6d759172",
					"bookings(uint256)": "1dab301e",
					"propertyManagement()": "ace6d4dd",
					"reserveProperty(uint256,uint256,uint256)": "606b681d"
				}
			},
			"storageLayout": {
				"storage": [
					{
						"astId": 217,
						"contract": "contracts/PropertyReservation.sol:PropertyReservation",
						"label": "propertyManagement",
						"offset": 0,
						"slot": "0",
						"type": "t_contract(PropertyManagement)211"
					},
					{
						"astId": 241,
						"contract": "contracts/PropertyReservation.sol:PropertyReservation",
						"label": "bookings",
						"offset": 0,
						"slot": "1",
						"type": "t_mapping(t_uint256,t_struct(Booking)230_storage)"
					},
					{
						"astId": 243,
						"contract": "contracts/PropertyReservation.sol:PropertyReservation",
						"label": "bookingCount",
						"offset": 0,
						"slot": "2",
						"type": "t_uint256"
					}
				],
				"types": {
					"t_address": {
						"encoding": "inplace",
						"label": "address",
						"numberOfBytes": "20"
					},
					"t_contract(PropertyManagement)211": {
						"encoding": "inplace",
						"label": "contract PropertyManagement",
						"numberOfBytes": "20"
					},
					"t_mapping(t_uint256,t_struct(Booking)230_storage)": {
						"encoding": "mapping",
						"key": "t_uint256",
						"label": "mapping(uint256 => struct PropertyReservation.Booking)",
						"numberOfBytes": "32",
						"value": "t_struct(Booking)230_storage"
					},
					"t_struct(Booking)230_storage": {
						"encoding": "inplace",
						"label": "struct PropertyReservation.Booking",
						"members": [
							{
								"astId": 219,
								"contract": "contracts/PropertyReservation.sol:PropertyReservation",
								"label": "id",
								"offset": 0,
								"slot": "0",
								"type": "t_uint256"
							},
							{
								"astId": 221,
								"contract": "contracts/PropertyReservation.sol:PropertyReservation",
								"label": "propertyId",
								"offset": 0,
								"slot": "1",
								"type": "t_uint256"
							},
							{
								"astId": 223,
								"contract": "contracts/PropertyReservation.sol:PropertyReservation",
								"label": "startDate",
								"offset": 0,
								"slot": "2",
								"type": "t_uint256"
							},
							{
								"astId": 225,
								"contract": "contracts/PropertyReservation.sol:PropertyReservation",
								"label": "endDate",
								"offset": 0,
								"slot": "3",
								"type": "t_uint256"
							},
							{
								"astId": 227,
								"contract": "contracts/PropertyReservation.sol:PropertyReservation",
								"label": "price",
								"offset": 0,
								"slot": "4",
								"type": "t_uint256"
							},
							{
								"astId": 229,
								"contract": "contracts/PropertyReservation.sol:PropertyReservation",
								"label": "bookerAddr",
								"offset": 0,
								"slot": "5",
								"type": "t_address"
							}
						],
						"numberOfBytes": "192"
					},
					"t_uint256": {
						"encoding": "inplace",
						"label": "uint256",
						"numberOfBytes": "32"
					}
				}
			},
			"userdoc": {
				"kind": "user",
				"methods": {},
				"version": 1
			}
		}
	}
}