{
	"contracts/PropertyManagement.sol": {
		"PropertyManagement": {
			"abi": [
				{
					"inputs": [],
					"stateMutability": "nonpayable",
					"type": "constructor"
				},
				{
					"anonymous": false,
					"inputs": [
						{
							"indexed": true,
							"internalType": "uint256",
							"name": "id",
							"type": "uint256"
						},
						{
							"indexed": true,
							"internalType": "address",
							"name": "owner",
							"type": "address"
						},
						{
							"indexed": false,
							"internalType": "string",
							"name": "location",
							"type": "string"
						}
					],
					"name": "PropertyAdded",
					"type": "event"
				},
				{
					"anonymous": false,
					"inputs": [
						{
							"indexed": true,
							"internalType": "uint256",
							"name": "id",
							"type": "uint256"
						},
						{
							"indexed": true,
							"internalType": "address",
							"name": "owner",
							"type": "address"
						}
					],
					"name": "PropertyRemoved",
					"type": "event"
				},
				{
					"inputs": [
						{
							"internalType": "string",
							"name": "_name",
							"type": "string"
						},
						{
							"internalType": "string",
							"name": "_description",
							"type": "string"
						},
						{
							"internalType": "uint256",
							"name": "_pricePerNight",
							"type": "uint256"
						},
						{
							"internalType": "int256",
							"name": "_latitude",
							"type": "int256"
						},
						{
							"internalType": "int256",
							"name": "_longitude",
							"type": "int256"
						}
					],
					"name": "addProperty",
					"outputs": [],
					"stateMutability": "nonpayable",
					"type": "function"
				},
				{
					"inputs": [
						{
							"internalType": "uint256",
							"name": "propertyId",
							"type": "uint256"
						},
						{
							"internalType": "uint256",
							"name": "startDate",
							"type": "uint256"
						},
						{
							"internalType": "uint256",
							"name": "endDate",
							"type": "uint256"
						}
					],
					"name": "bookProperty",
					"outputs": [],
					"stateMutability": "nonpayable",
					"type": "function"
				},
				{
					"inputs": [],
					"name": "getLatestPrice",
					"outputs": [
						{
							"internalType": "int256",
							"name": "",
							"type": "int256"
						}
					],
					"stateMutability": "view",
					"type": "function"
				},
				{
					"inputs": [
						{
							"internalType": "uint256",
							"name": "_propertyId",
							"type": "uint256"
						}
					],
					"name": "getProperty",
					"outputs": [
						{
							"components": [
								{
									"internalType": "uint256",
									"name": "id",
									"type": "uint256"
								},
								{
									"internalType": "address",
									"name": "owner",
									"type": "address"
								},
								{
									"internalType": "string",
									"name": "name",
									"type": "string"
								},
								{
									"internalType": "int256",
									"name": "latitude",
									"type": "int256"
								},
								{
									"internalType": "int256",
									"name": "longitude",
									"type": "int256"
								},
								{
									"internalType": "string",
									"name": "description",
									"type": "string"
								},
								{
									"internalType": "uint256",
									"name": "pricePerNight",
									"type": "uint256"
								},
								{
									"components": [
										{
											"internalType": "uint256",
											"name": "startDate",
											"type": "uint256"
										},
										{
											"internalType": "uint256",
											"name": "endDate",
											"type": "uint256"
										}
									],
									"internalType": "struct PropertyManagement.Period[]",
									"name": "bookedPeriods",
									"type": "tuple[]"
								}
							],
							"internalType": "struct PropertyManagement.Property",
							"name": "",
							"type": "tuple"
						}
					],
					"stateMutability": "view",
					"type": "function"
				},
				{
					"inputs": [],
					"name": "nextPropertyId",
					"outputs": [
						{
							"internalType": "uint256",
							"name": "",
							"type": "uint256"
						}
					],
					"stateMutability": "view",
					"type": "function"
				},
				{
					"inputs": [
						{
							"internalType": "uint256",
							"name": "",
							"type": "uint256"
						}
					],
					"name": "properties",
					"outputs": [
						{
							"internalType": "uint256",
							"name": "id",
							"type": "uint256"
						},
						{
							"internalType": "address",
							"name": "owner",
							"type": "address"
						},
						{
							"internalType": "string",
							"name": "name",
							"type": "string"
						},
						{
							"internalType": "int256",
							"name": "latitude",
							"type": "int256"
						},
						{
							"internalType": "int256",
							"name": "longitude",
							"type": "int256"
						},
						{
							"internalType": "string",
							"name": "description",
							"type": "string"
						},
						{
							"internalType": "uint256",
							"name": "pricePerNight",
							"type": "uint256"
						}
					],
					"stateMutability": "view",
					"type": "function"
				},
				{
					"inputs": [
						{
							"internalType": "uint256",
							"name": "_propertyId",
							"type": "uint256"
						}
					],
					"name": "removeProperty",
					"outputs": [],
					"stateMutability": "nonpayable",
					"type": "function"
				}
			],
			"devdoc": {
				"kind": "dev",
				"methods": {},
				"version": 1
			},
			"evm": {
				"assembly": "    /* \"contracts/PropertyManagement.sol\":410:3522  contract PropertyManagement  is IPropertyManagement{... */\n  mstore(0x40, 0x80)\n    /* \"contracts/PropertyManagement.sol\":1710:1818  constructor() {... */\n  callvalue\n  dup1\n  iszero\n  tag_1\n  jumpi\n  0x00\n  dup1\n  revert\ntag_1:\n  pop\n    /* \"contracts/PropertyManagement.sol\":1768:1810  0x5fb1616F78dA7aFC9FF79e0371741a747D2a7F22 */\n  0x5fb1616f78da7afc9ff79e0371741a747d2a7f22\n    /* \"contracts/PropertyManagement.sol\":1734:1743  priceFeed */\n  0x00\n  dup1\n    /* \"contracts/PropertyManagement.sol\":1734:1811  priceFeed = AggregatorV3Interface(0x5fb1616F78dA7aFC9FF79e0371741a747D2a7F22) */\n  0x0100\n  exp\n  dup2\n  sload\n  dup2\n  0xffffffffffffffffffffffffffffffffffffffff\n  mul\n  not\n  and\n  swap1\n  dup4\n  0xffffffffffffffffffffffffffffffffffffffff\n  and\n  mul\n  or\n  swap1\n  sstore\n  pop\n    /* \"contracts/PropertyManagement.sol\":410:3522  contract PropertyManagement  is IPropertyManagement{... */\n  dataSize(sub_0)\n  dup1\n  dataOffset(sub_0)\n  0x00\n  codecopy\n  0x00\n  return\nstop\n\nsub_0: assembly {\n        /* \"contracts/PropertyManagement.sol\":410:3522  contract PropertyManagement  is IPropertyManagement{... */\n      mstore(0x40, 0x80)\n      callvalue\n      dup1\n      iszero\n      tag_1\n      jumpi\n      0x00\n      dup1\n      revert\n    tag_1:\n      pop\n      jumpi(tag_2, lt(calldatasize, 0x04))\n      shr(0xe0, calldataload(0x00))\n      dup1\n      0x8e15f473\n      gt\n      tag_10\n      jumpi\n      dup1\n      0x8e15f473\n      eq\n      tag_6\n      jumpi\n      dup1\n      0xabdb64d4\n      eq\n      tag_7\n      jumpi\n      dup1\n      0xbc43d06f\n      eq\n      tag_8\n      jumpi\n      dup1\n      0xf7b10808\n      eq\n      tag_9\n      jumpi\n      jump(tag_2)\n    tag_10:\n      dup1\n      0x32665ffb\n      eq\n      tag_3\n      jumpi\n      dup1\n      0x39500f34\n      eq\n      tag_4\n      jumpi\n      dup1\n      0x6989a649\n      eq\n      tag_5\n      jumpi\n    tag_2:\n      0x00\n      dup1\n      revert\n        /* \"contracts/PropertyManagement.sol\":3021:3178  function getProperty(uint256 _propertyId)... */\n    tag_3:\n      tag_11\n      0x04\n      dup1\n      calldatasize\n      sub\n      dup2\n      add\n      swap1\n      tag_12\n      swap2\n      swap1\n      tag_13\n      jump\t// in\n    tag_12:\n      tag_14\n      jump\t// in\n    tag_11:\n      mload(0x40)\n      tag_15\n      swap2\n      swap1\n      tag_16\n      jump\t// in\n    tag_15:\n      mload(0x40)\n      dup1\n      swap2\n      sub\n      swap1\n      return\n        /* \"contracts/PropertyManagement.sol\":1110:1139  uint256 public nextPropertyId */\n    tag_4:\n      tag_17\n      tag_18\n      jump\t// in\n    tag_17:\n      mload(0x40)\n      tag_19\n      swap2\n      swap1\n      tag_20\n      jump\t// in\n    tag_19:\n      mload(0x40)\n      dup1\n      swap2\n      sub\n      swap1\n      return\n        /* \"contracts/PropertyManagement.sol\":2401:2630  function bookProperty(uint256 propertyId, uint256 startDate, uint256 endDate) external {... */\n    tag_5:\n      tag_21\n      0x04\n      dup1\n      calldatasize\n      sub\n      dup2\n      add\n      swap1\n      tag_22\n      swap2\n      swap1\n      tag_23\n      jump\t// in\n    tag_22:\n      tag_24\n      jump\t// in\n    tag_21:\n      stop\n        /* \"contracts/PropertyManagement.sol\":3245:3520  function getLatestPrice() public view returns (int) {... */\n    tag_6:\n      tag_25\n      tag_26\n      jump\t// in\n    tag_25:\n      mload(0x40)\n      tag_27\n      swap2\n      swap1\n      tag_28\n      jump\t// in\n    tag_27:\n      mload(0x40)\n      dup1\n      swap2\n      sub\n      swap1\n      return\n        /* \"contracts/PropertyManagement.sol\":1824:2395  function addProperty(... */\n    tag_7:\n      tag_29\n      0x04\n      dup1\n      calldatasize\n      sub\n      dup2\n      add\n      swap1\n      tag_30\n      swap2\n      swap1\n      tag_31\n      jump\t// in\n    tag_30:\n      tag_32\n      jump\t// in\n    tag_29:\n      stop\n        /* \"contracts/PropertyManagement.sol\":2753:3015  function removeProperty(uint256 _propertyId)... */\n    tag_8:\n      tag_33\n      0x04\n      dup1\n      calldatasize\n      sub\n      dup2\n      add\n      swap1\n      tag_34\n      swap2\n      swap1\n      tag_13\n      jump\t// in\n    tag_34:\n      tag_35\n      jump\t// in\n    tag_33:\n      stop\n        /* \"contracts/PropertyManagement.sol\":1058:1104  mapping(uint256 => Property) public properties */\n    tag_9:\n      tag_36\n      0x04\n      dup1\n      calldatasize\n      sub\n      dup2\n      add\n      swap1\n      tag_37\n      swap2\n      swap1\n      tag_13\n      jump\t// in\n    tag_37:\n      tag_38\n      jump\t// in\n    tag_36:\n      mload(0x40)\n      tag_39\n      swap8\n      swap7\n      swap6\n      swap5\n      swap4\n      swap3\n      swap2\n      swap1\n      tag_40\n      jump\t// in\n    tag_39:\n      mload(0x40)\n      dup1\n      swap2\n      sub\n      swap1\n      return\n        /* \"contracts/PropertyManagement.sol\":3021:3178  function getProperty(uint256 _propertyId)... */\n    tag_14:\n        /* \"contracts/PropertyManagement.sol\":3110:3125  Property memory */\n      tag_41\n      tag_42\n      jump\t// in\n    tag_41:\n        /* \"contracts/PropertyManagement.sol\":3148:3158  properties */\n      0x01\n        /* \"contracts/PropertyManagement.sol\":3148:3171  properties[_propertyId] */\n      0x00\n        /* \"contracts/PropertyManagement.sol\":3159:3170  _propertyId */\n      dup4\n        /* \"contracts/PropertyManagement.sol\":3148:3171  properties[_propertyId] */\n      dup2\n      mstore\n      0x20\n      add\n      swap1\n      dup2\n      mstore\n      0x20\n      add\n      0x00\n      keccak256\n        /* \"contracts/PropertyManagement.sol\":3141:3171  return properties[_propertyId] */\n      mload(0x40)\n      dup1\n      0x0100\n      add\n      0x40\n      mstore\n      swap1\n      dup2\n      0x00\n      dup3\n      add\n      sload\n      dup2\n      mstore\n      0x20\n      add\n      0x01\n      dup3\n      add\n      0x00\n      swap1\n      sload\n      swap1\n      0x0100\n      exp\n      swap1\n      div\n      0xffffffffffffffffffffffffffffffffffffffff\n      and\n      0xffffffffffffffffffffffffffffffffffffffff\n      and\n      0xffffffffffffffffffffffffffffffffffffffff\n      and\n      dup2\n      mstore\n      0x20\n      add\n      0x02\n      dup3\n      add\n      dup1\n      sload\n      tag_44\n      swap1\n      tag_45\n      jump\t// in\n    tag_44:\n      dup1\n      0x1f\n      add\n      0x20\n      dup1\n      swap2\n      div\n      mul\n      0x20\n      add\n      mload(0x40)\n      swap1\n      dup2\n      add\n      0x40\n      mstore\n      dup1\n      swap3\n      swap2\n      swap1\n      dup2\n      dup2\n      mstore\n      0x20\n      add\n      dup3\n      dup1\n      sload\n      tag_46\n      swap1\n      tag_45\n      jump\t// in\n    tag_46:\n      dup1\n      iszero\n      tag_47\n      jumpi\n      dup1\n      0x1f\n      lt\n      tag_48\n      jumpi\n      0x0100\n      dup1\n      dup4\n      sload\n      div\n      mul\n      dup4\n      mstore\n      swap2\n      0x20\n      add\n      swap2\n      jump(tag_47)\n    tag_48:\n      dup3\n      add\n      swap2\n      swap1\n      0x00\n      mstore\n      keccak256(0x00, 0x20)\n      swap1\n    tag_49:\n      dup2\n      sload\n      dup2\n      mstore\n      swap1\n      0x01\n      add\n      swap1\n      0x20\n      add\n      dup1\n      dup4\n      gt\n      tag_49\n      jumpi\n      dup3\n      swap1\n      sub\n      0x1f\n      and\n      dup3\n      add\n      swap2\n    tag_47:\n      pop\n      pop\n      pop\n      pop\n      pop\n      dup2\n      mstore\n      0x20\n      add\n      0x03\n      dup3\n      add\n      sload\n      dup2\n      mstore\n      0x20\n      add\n      0x04\n      dup3\n      add\n      sload\n      dup2\n      mstore\n      0x20\n      add\n      0x05\n      dup3\n      add\n      dup1\n      sload\n      tag_50\n      swap1\n      tag_45\n      jump\t// in\n    tag_50:\n      dup1\n      0x1f\n      add\n      0x20\n      dup1\n      swap2\n      div\n      mul\n      0x20\n      add\n      mload(0x40)\n      swap1\n      dup2\n      add\n      0x40\n      mstore\n      dup1\n      swap3\n      swap2\n      swap1\n      dup2\n      dup2\n      mstore\n      0x20\n      add\n      dup3\n      dup1\n      sload\n      tag_51\n      swap1\n      tag_45\n      jump\t// in\n    tag_51:\n      dup1\n      iszero\n      tag_52\n      jumpi\n      dup1\n      0x1f\n      lt\n      tag_53\n      jumpi\n      0x0100\n      dup1\n      dup4\n      sload\n      div\n      mul\n      dup4\n      mstore\n      swap2\n      0x20\n      add\n      swap2\n      jump(tag_52)\n    tag_53:\n      dup3\n      add\n      swap2\n      swap1\n      0x00\n      mstore\n      keccak256(0x00, 0x20)\n      swap1\n    tag_54:\n      dup2\n      sload\n      dup2\n      mstore\n      swap1\n      0x01\n      add\n      swap1\n      0x20\n      add\n      dup1\n      dup4\n      gt\n      tag_54\n      jumpi\n      dup3\n      swap1\n      sub\n      0x1f\n      and\n      dup3\n      add\n      swap2\n    tag_52:\n      pop\n      pop\n      pop\n      pop\n      pop\n      dup2\n      mstore\n      0x20\n      add\n      0x06\n      dup3\n      add\n      sload\n      dup2\n      mstore\n      0x20\n      add\n      0x07\n      dup3\n      add\n      dup1\n      sload\n      dup1\n      0x20\n      mul\n      0x20\n      add\n      mload(0x40)\n      swap1\n      dup2\n      add\n      0x40\n      mstore\n      dup1\n      swap3\n      swap2\n      swap1\n      dup2\n      dup2\n      mstore\n      0x20\n      add\n      0x00\n      swap1\n    tag_55:\n      dup3\n      dup3\n      lt\n      iszero\n      tag_56\n      jumpi\n      dup4\n      dup3\n      swap1\n      0x00\n      mstore\n      keccak256(0x00, 0x20)\n      swap1\n      0x02\n      mul\n      add\n      mload(0x40)\n      dup1\n      0x40\n      add\n      0x40\n      mstore\n      swap1\n      dup2\n      0x00\n      dup3\n      add\n      sload\n      dup2\n      mstore\n      0x20\n      add\n      0x01\n      dup3\n      add\n      sload\n      dup2\n      mstore\n      pop\n      pop\n      dup2\n      mstore\n      0x20\n      add\n      swap1\n      0x01\n      add\n      swap1\n      jump(tag_55)\n    tag_56:\n      pop\n      pop\n      pop\n      pop\n      dup2\n      mstore\n      pop\n      pop\n      swap1\n      pop\n        /* \"contracts/PropertyManagement.sol\":3021:3178  function getProperty(uint256 _propertyId)... */\n      swap2\n      swap1\n      pop\n      jump\t// out\n        /* \"contracts/PropertyManagement.sol\":1110:1139  uint256 public nextPropertyId */\n    tag_18:\n      sload(0x02)\n      dup2\n      jump\t// out\n        /* \"contracts/PropertyManagement.sol\":2401:2630  function bookProperty(uint256 propertyId, uint256 startDate, uint256 endDate) external {... */\n    tag_24:\n        /* \"contracts/PropertyManagement.sol\":2498:2508  properties */\n      0x01\n        /* \"contracts/PropertyManagement.sol\":2498:2520  properties[propertyId] */\n      0x00\n        /* \"contracts/PropertyManagement.sol\":2509:2519  propertyId */\n      dup5\n        /* \"contracts/PropertyManagement.sol\":2498:2520  properties[propertyId] */\n      dup2\n      mstore\n      0x20\n      add\n      swap1\n      dup2\n      mstore\n      0x20\n      add\n      0x00\n      keccak256\n        /* \"contracts/PropertyManagement.sol\":2498:2534  properties[propertyId].bookedPeriods */\n      0x07\n      add\n        /* \"contracts/PropertyManagement.sol\":2540:2622  Period({... */\n      mload(0x40)\n      dup1\n      0x40\n      add\n      0x40\n      mstore\n      dup1\n        /* \"contracts/PropertyManagement.sol\":2572:2581  startDate */\n      dup5\n        /* \"contracts/PropertyManagement.sol\":2540:2622  Period({... */\n      dup2\n      mstore\n      0x20\n      add\n        /* \"contracts/PropertyManagement.sol\":2604:2611  endDate */\n      dup4\n        /* \"contracts/PropertyManagement.sol\":2540:2622  Period({... */\n      dup2\n      mstore\n      pop\n        /* \"contracts/PropertyManagement.sol\":2498:2623  properties[propertyId].bookedPeriods.push(Period({... */\n      swap1\n      dup1\n      0x01\n      dup2\n      sload\n      add\n      dup1\n      dup3\n      sstore\n      dup1\n      swap2\n      pop\n      pop\n      0x01\n      swap1\n      sub\n      swap1\n      0x00\n      mstore\n      keccak256(0x00, 0x20)\n      swap1\n      0x02\n      mul\n      add\n      0x00\n      swap1\n      swap2\n      swap1\n      swap2\n      swap1\n      swap2\n      pop\n      0x00\n      dup3\n      add\n      mload\n      dup2\n      0x00\n      add\n      sstore\n      0x20\n      dup3\n      add\n      mload\n      dup2\n      0x01\n      add\n      sstore\n      pop\n      pop\n        /* \"contracts/PropertyManagement.sol\":2401:2630  function bookProperty(uint256 propertyId, uint256 startDate, uint256 endDate) external {... */\n      pop\n      pop\n      pop\n      jump\t// out\n        /* \"contracts/PropertyManagement.sol\":3245:3520  function getLatestPrice() public view returns (int) {... */\n    tag_26:\n        /* \"contracts/PropertyManagement.sol\":3292:3295  int */\n      0x00\n        /* \"contracts/PropertyManagement.sol\":3321:3335  uint80 roundID */\n      dup1\n        /* \"contracts/PropertyManagement.sol\":3350:3359  int price */\n      0x00\n        /* \"contracts/PropertyManagement.sol\":3373:3387  uint startedAt */\n      dup1\n        /* \"contracts/PropertyManagement.sol\":3401:3415  uint timeStamp */\n      0x00\n        /* \"contracts/PropertyManagement.sol\":3429:3451  uint80 answeredInRound */\n      dup1\n        /* \"contracts/PropertyManagement.sol\":3464:3473  priceFeed */\n      0x00\n      dup1\n      sload\n      swap1\n      0x0100\n      exp\n      swap1\n      div\n      0xffffffffffffffffffffffffffffffffffffffff\n      and\n        /* \"contracts/PropertyManagement.sol\":3464:3489  priceFeed.latestRoundData */\n      0xffffffffffffffffffffffffffffffffffffffff\n      and\n      0xfeaf968c\n        /* \"contracts/PropertyManagement.sol\":3464:3491  priceFeed.latestRoundData() */\n      mload(0x40)\n      dup2\n      0xffffffff\n      and\n      0xe0\n      shl\n      dup2\n      mstore\n      0x04\n      add\n      0xa0\n      mload(0x40)\n      dup1\n      dup4\n      sub\n      dup2\n      dup7\n      gas\n      staticcall\n      iszero\n      dup1\n      iszero\n      tag_62\n      jumpi\n      returndatasize\n      0x00\n      dup1\n      returndatacopy\n      revert(0x00, returndatasize)\n    tag_62:\n      pop\n      pop\n      pop\n      pop\n      mload(0x40)\n      returndatasize\n      not(0x1f)\n      0x1f\n      dup3\n      add\n      and\n      dup3\n      add\n      dup1\n      0x40\n      mstore\n      pop\n      dup2\n      add\n      swap1\n      tag_63\n      swap2\n      swap1\n      tag_64\n      jump\t// in\n    tag_63:\n        /* \"contracts/PropertyManagement.sol\":3307:3491  (... */\n      swap5\n      pop\n      swap5\n      pop\n      swap5\n      pop\n      swap5\n      pop\n      swap5\n      pop\n        /* \"contracts/PropertyManagement.sol\":3508:3513  price */\n      dup4\n        /* \"contracts/PropertyManagement.sol\":3501:3513  return price */\n      swap6\n      pop\n      pop\n      pop\n      pop\n      pop\n      pop\n        /* \"contracts/PropertyManagement.sol\":3245:3520  function getLatestPrice() public view returns (int) {... */\n      swap1\n      jump\t// out\n        /* \"contracts/PropertyManagement.sol\":1824:2395  function addProperty(... */\n    tag_32:\n        /* \"contracts/PropertyManagement.sol\":2020:2038  Property storage p */\n      0x00\n        /* \"contracts/PropertyManagement.sol\":2041:2051  properties */\n      0x01\n        /* \"contracts/PropertyManagement.sol\":2041:2067  properties[nextPropertyId] */\n      0x00\n        /* \"contracts/PropertyManagement.sol\":2052:2066  nextPropertyId */\n      sload(0x02)\n        /* \"contracts/PropertyManagement.sol\":2041:2067  properties[nextPropertyId] */\n      dup2\n      mstore\n      0x20\n      add\n      swap1\n      dup2\n      mstore\n      0x20\n      add\n      0x00\n      keccak256\n        /* \"contracts/PropertyManagement.sol\":2020:2067  Property storage p = properties[nextPropertyId] */\n      swap1\n      pop\n        /* \"contracts/PropertyManagement.sol\":2084:2098  nextPropertyId */\n      sload(0x02)\n        /* \"contracts/PropertyManagement.sol\":2077:2078  p */\n      dup2\n        /* \"contracts/PropertyManagement.sol\":2077:2081  p.id */\n      0x00\n      add\n        /* \"contracts/PropertyManagement.sol\":2077:2098  p.id = nextPropertyId */\n      dup2\n      swap1\n      sstore\n      pop\n        /* \"contracts/PropertyManagement.sol\":2118:2128  msg.sender */\n      caller\n        /* \"contracts/PropertyManagement.sol\":2108:2109  p */\n      dup2\n        /* \"contracts/PropertyManagement.sol\":2108:2115  p.owner */\n      0x01\n      add\n      0x00\n        /* \"contracts/PropertyManagement.sol\":2108:2128  p.owner = msg.sender */\n      0x0100\n      exp\n      dup2\n      sload\n      dup2\n      0xffffffffffffffffffffffffffffffffffffffff\n      mul\n      not\n      and\n      swap1\n      dup4\n      0xffffffffffffffffffffffffffffffffffffffff\n      and\n      mul\n      or\n      swap1\n      sstore\n      pop\n        /* \"contracts/PropertyManagement.sol\":2147:2152  _name */\n      dup6\n        /* \"contracts/PropertyManagement.sol\":2138:2139  p */\n      dup2\n        /* \"contracts/PropertyManagement.sol\":2138:2144  p.name */\n      0x02\n      add\n        /* \"contracts/PropertyManagement.sol\":2138:2152  p.name = _name */\n      swap1\n      dup2\n      tag_66\n      swap2\n      swap1\n      tag_67\n      jump\t// in\n    tag_66:\n      pop\n        /* \"contracts/PropertyManagement.sol\":2175:2184  _latitude */\n      dup3\n        /* \"contracts/PropertyManagement.sol\":2162:2163  p */\n      dup2\n        /* \"contracts/PropertyManagement.sol\":2162:2172  p.latitude */\n      0x03\n      add\n        /* \"contracts/PropertyManagement.sol\":2162:2184  p.latitude = _latitude */\n      dup2\n      swap1\n      sstore\n      pop\n        /* \"contracts/PropertyManagement.sol\":2208:2218  _longitude */\n      dup2\n        /* \"contracts/PropertyManagement.sol\":2194:2195  p */\n      dup2\n        /* \"contracts/PropertyManagement.sol\":2194:2205  p.longitude */\n      0x04\n      add\n        /* \"contracts/PropertyManagement.sol\":2194:2218  p.longitude = _longitude */\n      dup2\n      swap1\n      sstore\n      pop\n        /* \"contracts/PropertyManagement.sol\":2244:2256  _description */\n      dup5\n        /* \"contracts/PropertyManagement.sol\":2228:2229  p */\n      dup2\n        /* \"contracts/PropertyManagement.sol\":2228:2241  p.description */\n      0x05\n      add\n        /* \"contracts/PropertyManagement.sol\":2228:2256  p.description = _description */\n      swap1\n      dup2\n      tag_68\n      swap2\n      swap1\n      tag_67\n      jump\t// in\n    tag_68:\n      pop\n        /* \"contracts/PropertyManagement.sol\":2284:2298  _pricePerNight */\n      dup4\n        /* \"contracts/PropertyManagement.sol\":2266:2267  p */\n      dup2\n        /* \"contracts/PropertyManagement.sol\":2266:2281  p.pricePerNight */\n      0x06\n      add\n        /* \"contracts/PropertyManagement.sol\":2266:2298  p.pricePerNight = _pricePerNight */\n      dup2\n      swap1\n      sstore\n      pop\n        /* \"contracts/PropertyManagement.sol\":2344:2354  msg.sender */\n      caller\n        /* \"contracts/PropertyManagement.sol\":2314:2362  PropertyAdded(nextPropertyId, msg.sender, _name) */\n      0xffffffffffffffffffffffffffffffffffffffff\n      and\n        /* \"contracts/PropertyManagement.sol\":2328:2342  nextPropertyId */\n      sload(0x02)\n        /* \"contracts/PropertyManagement.sol\":2314:2362  PropertyAdded(nextPropertyId, msg.sender, _name) */\n      0x92f2b8d9ae69a40be928a502c6bcc369ce8a0b2e902151bb63909295f4ce749e\n        /* \"contracts/PropertyManagement.sol\":2356:2361  _name */\n      dup9\n        /* \"contracts/PropertyManagement.sol\":2314:2362  PropertyAdded(nextPropertyId, msg.sender, _name) */\n      mload(0x40)\n      tag_69\n      swap2\n      swap1\n      tag_70\n      jump\t// in\n    tag_69:\n      mload(0x40)\n      dup1\n      swap2\n      sub\n      swap1\n      log3\n        /* \"contracts/PropertyManagement.sol\":2372:2386  nextPropertyId */\n      0x02\n      0x00\n        /* \"contracts/PropertyManagement.sol\":2372:2388  nextPropertyId++ */\n      dup2\n      sload\n      dup1\n      swap3\n      swap2\n      swap1\n      tag_71\n      swap1\n      tag_72\n      jump\t// in\n    tag_71:\n      swap2\n      swap1\n      pop\n      sstore\n      pop\n        /* \"contracts/PropertyManagement.sol\":2010:2395  {... */\n      pop\n        /* \"contracts/PropertyManagement.sol\":1824:2395  function addProperty(... */\n      pop\n      pop\n      pop\n      pop\n      pop\n      jump\t// out\n        /* \"contracts/PropertyManagement.sol\":2753:3015  function removeProperty(uint256 _propertyId)... */\n    tag_35:\n        /* \"contracts/PropertyManagement.sol\":2833:2844  _propertyId */\n      dup1\n        /* \"contracts/PropertyManagement.sol\":1344:1354  msg.sender */\n      caller\n        /* \"contracts/PropertyManagement.sol\":1311:1354  properties[_propertyId].owner == msg.sender */\n      0xffffffffffffffffffffffffffffffffffffffff\n      and\n        /* \"contracts/PropertyManagement.sol\":1311:1321  properties */\n      0x01\n        /* \"contracts/PropertyManagement.sol\":1311:1334  properties[_propertyId] */\n      0x00\n        /* \"contracts/PropertyManagement.sol\":1322:1333  _propertyId */\n      dup4\n        /* \"contracts/PropertyManagement.sol\":1311:1334  properties[_propertyId] */\n      dup2\n      mstore\n      0x20\n      add\n      swap1\n      dup2\n      mstore\n      0x20\n      add\n      0x00\n      keccak256\n        /* \"contracts/PropertyManagement.sol\":1311:1340  properties[_propertyId].owner */\n      0x01\n      add\n      0x00\n      swap1\n      sload\n      swap1\n      0x0100\n      exp\n      swap1\n      div\n      0xffffffffffffffffffffffffffffffffffffffff\n      and\n        /* \"contracts/PropertyManagement.sol\":1311:1354  properties[_propertyId].owner == msg.sender */\n      0xffffffffffffffffffffffffffffffffffffffff\n      and\n      eq\n        /* \"contracts/PropertyManagement.sol\":1290:1419  require(... */\n      tag_74\n      jumpi\n      mload(0x40)\n      0x08c379a000000000000000000000000000000000000000000000000000000000\n      dup2\n      mstore\n      0x04\n      add\n      tag_75\n      swap1\n      tag_76\n      jump\t// in\n    tag_75:\n      mload(0x40)\n      dup1\n      swap2\n      sub\n      swap1\n      revert\n    tag_74:\n        /* \"contracts/PropertyManagement.sol\":2870:2881  _propertyId */\n      dup2\n        /* \"contracts/PropertyManagement.sol\":1596:1610  nextPropertyId */\n      sload(0x02)\n        /* \"contracts/PropertyManagement.sol\":1582:1593  _propertyId */\n      dup2\n        /* \"contracts/PropertyManagement.sol\":1582:1610  _propertyId < nextPropertyId */\n      lt\n        /* \"contracts/PropertyManagement.sol\":1574:1634  require(_propertyId < nextPropertyId, \"Invalid property ID\") */\n      tag_78\n      jumpi\n      mload(0x40)\n      0x08c379a000000000000000000000000000000000000000000000000000000000\n      dup2\n      mstore\n      0x04\n      add\n      tag_79\n      swap1\n      tag_80\n      jump\t// in\n    tag_79:\n      mload(0x40)\n      dup1\n      swap2\n      sub\n      swap1\n      revert\n    tag_78:\n        /* \"contracts/PropertyManagement.sol\":2931:2941  msg.sender */\n      caller\n        /* \"contracts/PropertyManagement.sol\":2902:2942  PropertyRemoved(_propertyId, msg.sender) */\n      0xffffffffffffffffffffffffffffffffffffffff\n      and\n        /* \"contracts/PropertyManagement.sol\":2918:2929  _propertyId */\n      dup4\n        /* \"contracts/PropertyManagement.sol\":2902:2942  PropertyRemoved(_propertyId, msg.sender) */\n      0x3b11f341dfbadfb1b92ff5b9bf7c88094058c008e6b67c47ae29f690a30beb69\n      mload(0x40)\n      mload(0x40)\n      dup1\n      swap2\n      sub\n      swap1\n      log3\n        /* \"contracts/PropertyManagement.sol\":2959:2969  properties */\n      0x01\n        /* \"contracts/PropertyManagement.sol\":2959:2982  properties[_propertyId] */\n      0x00\n        /* \"contracts/PropertyManagement.sol\":2970:2981  _propertyId */\n      dup5\n        /* \"contracts/PropertyManagement.sol\":2959:2982  properties[_propertyId] */\n      dup2\n      mstore\n      0x20\n      add\n      swap1\n      dup2\n      mstore\n      0x20\n      add\n      0x00\n      keccak256\n      0x00\n        /* \"contracts/PropertyManagement.sol\":2952:2982  delete properties[_propertyId] */\n      dup1\n      dup3\n      add\n      0x00\n      swap1\n      sstore\n      0x01\n      dup3\n      add\n      exp(0x0100, 0x00)\n      dup2\n      sload\n      swap1\n      0xffffffffffffffffffffffffffffffffffffffff\n      mul\n      not\n      and\n      swap1\n      sstore\n      0x02\n      dup3\n      add\n      0x00\n      tag_82\n      swap2\n      swap1\n      tag_83\n      jump\t// in\n    tag_82:\n      0x03\n      dup3\n      add\n      0x00\n      swap1\n      sstore\n      0x04\n      dup3\n      add\n      0x00\n      swap1\n      sstore\n      0x05\n      dup3\n      add\n      0x00\n      tag_84\n      swap2\n      swap1\n      tag_83\n      jump\t// in\n    tag_84:\n      0x06\n      dup3\n      add\n      0x00\n      swap1\n      sstore\n      0x07\n      dup3\n      add\n      0x00\n      tag_85\n      swap2\n      swap1\n      tag_86\n      jump\t// in\n    tag_85:\n      pop\n      pop\n        /* \"contracts/PropertyManagement.sol\":2992:3006  nextPropertyId */\n      0x02\n      0x00\n        /* \"contracts/PropertyManagement.sol\":2992:3008  nextPropertyId-- */\n      dup2\n      sload\n      dup1\n      swap3\n      swap2\n      swap1\n      tag_87\n      swap1\n      tag_88\n      jump\t// in\n    tag_87:\n      swap2\n      swap1\n      pop\n      sstore\n      pop\n        /* \"contracts/PropertyManagement.sol\":1429:1430  _ */\n      pop\n        /* \"contracts/PropertyManagement.sol\":2753:3015  function removeProperty(uint256 _propertyId)... */\n      pop\n      pop\n      jump\t// out\n        /* \"contracts/PropertyManagement.sol\":1058:1104  mapping(uint256 => Property) public properties */\n    tag_38:\n      mstore(0x20, 0x01)\n      dup1\n      0x00\n      mstore\n      keccak256(0x00, 0x40)\n      0x00\n      swap2\n      pop\n      swap1\n      pop\n      dup1\n      0x00\n      add\n      sload\n      swap1\n      dup1\n      0x01\n      add\n      0x00\n      swap1\n      sload\n      swap1\n      0x0100\n      exp\n      swap1\n      div\n      0xffffffffffffffffffffffffffffffffffffffff\n      and\n      swap1\n      dup1\n      0x02\n      add\n      dup1\n      sload\n      tag_89\n      swap1\n      tag_45\n      jump\t// in\n    tag_89:\n      dup1\n      0x1f\n      add\n      0x20\n      dup1\n      swap2\n      div\n      mul\n      0x20\n      add\n      mload(0x40)\n      swap1\n      dup2\n      add\n      0x40\n      mstore\n      dup1\n      swap3\n      swap2\n      swap1\n      dup2\n      dup2\n      mstore\n      0x20\n      add\n      dup3\n      dup1\n      sload\n      tag_90\n      swap1\n      tag_45\n      jump\t// in\n    tag_90:\n      dup1\n      iszero\n      tag_91\n      jumpi\n      dup1\n      0x1f\n      lt\n      tag_92\n      jumpi\n      0x0100\n      dup1\n      dup4\n      sload\n      div\n      mul\n      dup4\n      mstore\n      swap2\n      0x20\n      add\n      swap2\n      jump(tag_91)\n    tag_92:\n      dup3\n      add\n      swap2\n      swap1\n      0x00\n      mstore\n      keccak256(0x00, 0x20)\n      swap1\n    tag_93:\n      dup2\n      sload\n      dup2\n      mstore\n      swap1\n      0x01\n      add\n      swap1\n      0x20\n      add\n      dup1\n      dup4\n      gt\n      tag_93\n      jumpi\n      dup3\n      swap1\n      sub\n      0x1f\n      and\n      dup3\n      add\n      swap2\n    tag_91:\n      pop\n      pop\n      pop\n      pop\n      pop\n      swap1\n      dup1\n      0x03\n      add\n      sload\n      swap1\n      dup1\n      0x04\n      add\n      sload\n      swap1\n      dup1\n      0x05\n      add\n      dup1\n      sload\n      tag_94\n      swap1\n      tag_45\n      jump\t// in\n    tag_94:\n      dup1\n      0x1f\n      add\n      0x20\n      dup1\n      swap2\n      div\n      mul\n      0x20\n      add\n      mload(0x40)\n      swap1\n      dup2\n      add\n      0x40\n      mstore\n      dup1\n      swap3\n      swap2\n      swap1\n      dup2\n      dup2\n      mstore\n      0x20\n      add\n      dup3\n      dup1\n      sload\n      tag_95\n      swap1\n      tag_45\n      jump\t// in\n    tag_95:\n      dup1\n      iszero\n      tag_96\n      jumpi\n      dup1\n      0x1f\n      lt\n      tag_97\n      jumpi\n      0x0100\n      dup1\n      dup4\n      sload\n      div\n      mul\n      dup4\n      mstore\n      swap2\n      0x20\n      add\n      swap2\n      jump(tag_96)\n    tag_97:\n      dup3\n      add\n      swap2\n      swap1\n      0x00\n      mstore\n      keccak256(0x00, 0x20)\n      swap1\n    tag_98:\n      dup2\n      sload\n      dup2\n      mstore\n      swap1\n      0x01\n      add\n      swap1\n      0x20\n      add\n      dup1\n      dup4\n      gt\n      tag_98\n      jumpi\n      dup3\n      swap1\n      sub\n      0x1f\n      and\n      dup3\n      add\n      swap2\n    tag_96:\n      pop\n      pop\n      pop\n      pop\n      pop\n      swap1\n      dup1\n      0x06\n      add\n      sload\n      swap1\n      pop\n      dup8\n      jump\t// out\n    tag_42:\n      mload(0x40)\n      dup1\n      0x0100\n      add\n      0x40\n      mstore\n      dup1\n      0x00\n      dup2\n      mstore\n      0x20\n      add\n      and(0xffffffffffffffffffffffffffffffffffffffff, 0x00)\n      dup2\n      mstore\n      0x20\n      add\n      0x60\n      dup2\n      mstore\n      0x20\n      add\n      0x00\n      dup2\n      mstore\n      0x20\n      add\n      0x00\n      dup2\n      mstore\n      0x20\n      add\n      0x60\n      dup2\n      mstore\n      0x20\n      add\n      0x00\n      dup2\n      mstore\n      0x20\n      add\n      0x60\n      dup2\n      mstore\n      pop\n      swap1\n      jump\t// out\n    tag_83:\n      pop\n      dup1\n      sload\n      tag_99\n      swap1\n      tag_45\n      jump\t// in\n    tag_99:\n      0x00\n      dup3\n      sstore\n      dup1\n      0x1f\n      lt\n      tag_101\n      jumpi\n      pop\n      jump(tag_100)\n    tag_101:\n      0x1f\n      add\n      0x20\n      swap1\n      div\n      swap1\n      0x00\n      mstore\n      keccak256(0x00, 0x20)\n      swap1\n      dup2\n      add\n      swap1\n      tag_102\n      swap2\n      swap1\n      tag_103\n      jump\t// in\n    tag_102:\n    tag_100:\n      pop\n      jump\t// out\n    tag_86:\n      pop\n      dup1\n      sload\n      0x00\n      dup3\n      sstore\n      0x02\n      mul\n      swap1\n      0x00\n      mstore\n      keccak256(0x00, 0x20)\n      swap1\n      dup2\n      add\n      swap1\n      tag_105\n      swap2\n      swap1\n      tag_106\n      jump\t// in\n    tag_105:\n      pop\n      jump\t// out\n    tag_103:\n    tag_107:\n      dup1\n      dup3\n      gt\n      iszero\n      tag_108\n      jumpi\n      0x00\n      dup2\n      0x00\n      swap1\n      sstore\n      pop\n      0x01\n      add\n      jump(tag_107)\n    tag_108:\n      pop\n      swap1\n      jump\t// out\n    tag_106:\n    tag_109:\n      dup1\n      dup3\n      gt\n      iszero\n      tag_110\n      jumpi\n      0x00\n      dup1\n      dup3\n      add\n      0x00\n      swap1\n      sstore\n      0x01\n      dup3\n      add\n      0x00\n      swap1\n      sstore\n      pop\n      0x02\n      add\n      jump(tag_109)\n    tag_110:\n      pop\n      swap1\n      jump\t// out\n        /* \"#utility.yul\":7:82   */\n    tag_111:\n        /* \"#utility.yul\":40:46   */\n      0x00\n        /* \"#utility.yul\":73:75   */\n      0x40\n        /* \"#utility.yul\":67:76   */\n      mload\n        /* \"#utility.yul\":57:76   */\n      swap1\n      pop\n        /* \"#utility.yul\":7:82   */\n      swap1\n      jump\t// out\n        /* \"#utility.yul\":88:205   */\n    tag_112:\n        /* \"#utility.yul\":197:198   */\n      0x00\n        /* \"#utility.yul\":194:195   */\n      dup1\n        /* \"#utility.yul\":187:199   */\n      revert\n        /* \"#utility.yul\":211:328   */\n    tag_113:\n        /* \"#utility.yul\":320:321   */\n      0x00\n        /* \"#utility.yul\":317:318   */\n      dup1\n        /* \"#utility.yul\":310:322   */\n      revert\n        /* \"#utility.yul\":334:411   */\n    tag_114:\n        /* \"#utility.yul\":371:378   */\n      0x00\n        /* \"#utility.yul\":400:405   */\n      dup2\n        /* \"#utility.yul\":389:405   */\n      swap1\n      pop\n        /* \"#utility.yul\":334:411   */\n      swap2\n      swap1\n      pop\n      jump\t// out\n        /* \"#utility.yul\":417:539   */\n    tag_115:\n        /* \"#utility.yul\":490:514   */\n      tag_184\n        /* \"#utility.yul\":508:513   */\n      dup2\n        /* \"#utility.yul\":490:514   */\n      tag_114\n      jump\t// in\n    tag_184:\n        /* \"#utility.yul\":483:488   */\n      dup2\n        /* \"#utility.yul\":480:515   */\n      eq\n        /* \"#utility.yul\":470:533   */\n      tag_185\n      jumpi\n        /* \"#utility.yul\":529:530   */\n      0x00\n        /* \"#utility.yul\":526:527   */\n      dup1\n        /* \"#utility.yul\":519:531   */\n      revert\n        /* \"#utility.yul\":470:533   */\n    tag_185:\n        /* \"#utility.yul\":417:539   */\n      pop\n      jump\t// out\n        /* \"#utility.yul\":545:684   */\n    tag_116:\n        /* \"#utility.yul\":591:596   */\n      0x00\n        /* \"#utility.yul\":629:635   */\n      dup2\n        /* \"#utility.yul\":616:636   */\n      calldataload\n        /* \"#utility.yul\":607:636   */\n      swap1\n      pop\n        /* \"#utility.yul\":645:678   */\n      tag_187\n        /* \"#utility.yul\":672:677   */\n      dup2\n        /* \"#utility.yul\":645:678   */\n      tag_115\n      jump\t// in\n    tag_187:\n        /* \"#utility.yul\":545:684   */\n      swap3\n      swap2\n      pop\n      pop\n      jump\t// out\n        /* \"#utility.yul\":690:1019   */\n    tag_13:\n        /* \"#utility.yul\":749:755   */\n      0x00\n        /* \"#utility.yul\":798:800   */\n      0x20\n        /* \"#utility.yul\":786:795   */\n      dup3\n        /* \"#utility.yul\":777:784   */\n      dup5\n        /* \"#utility.yul\":773:796   */\n      sub\n        /* \"#utility.yul\":769:801   */\n      slt\n        /* \"#utility.yul\":766:885   */\n      iszero\n      tag_189\n      jumpi\n        /* \"#utility.yul\":804:883   */\n      tag_190\n      tag_112\n      jump\t// in\n    tag_190:\n        /* \"#utility.yul\":766:885   */\n    tag_189:\n        /* \"#utility.yul\":924:925   */\n      0x00\n        /* \"#utility.yul\":949:1002   */\n      tag_191\n        /* \"#utility.yul\":994:1001   */\n      dup5\n        /* \"#utility.yul\":985:991   */\n      dup3\n        /* \"#utility.yul\":974:983   */\n      dup6\n        /* \"#utility.yul\":970:992   */\n      add\n        /* \"#utility.yul\":949:1002   */\n      tag_116\n      jump\t// in\n    tag_191:\n        /* \"#utility.yul\":939:1002   */\n      swap2\n      pop\n        /* \"#utility.yul\":895:1012   */\n      pop\n        /* \"#utility.yul\":690:1019   */\n      swap3\n      swap2\n      pop\n      pop\n      jump\t// out\n        /* \"#utility.yul\":1025:1133   */\n    tag_117:\n        /* \"#utility.yul\":1102:1126   */\n      tag_193\n        /* \"#utility.yul\":1120:1125   */\n      dup2\n        /* \"#utility.yul\":1102:1126   */\n      tag_114\n      jump\t// in\n    tag_193:\n        /* \"#utility.yul\":1097:1100   */\n      dup3\n        /* \"#utility.yul\":1090:1127   */\n      mstore\n        /* \"#utility.yul\":1025:1133   */\n      pop\n      pop\n      jump\t// out\n        /* \"#utility.yul\":1139:1265   */\n    tag_118:\n        /* \"#utility.yul\":1176:1183   */\n      0x00\n        /* \"#utility.yul\":1216:1258   */\n      0xffffffffffffffffffffffffffffffffffffffff\n        /* \"#utility.yul\":1209:1214   */\n      dup3\n        /* \"#utility.yul\":1205:1259   */\n      and\n        /* \"#utility.yul\":1194:1259   */\n      swap1\n      pop\n        /* \"#utility.yul\":1139:1265   */\n      swap2\n      swap1\n      pop\n      jump\t// out\n        /* \"#utility.yul\":1271:1367   */\n    tag_119:\n        /* \"#utility.yul\":1308:1315   */\n      0x00\n        /* \"#utility.yul\":1337:1361   */\n      tag_196\n        /* \"#utility.yul\":1355:1360   */\n      dup3\n        /* \"#utility.yul\":1337:1361   */\n      tag_118\n      jump\t// in\n    tag_196:\n        /* \"#utility.yul\":1326:1361   */\n      swap1\n      pop\n        /* \"#utility.yul\":1271:1367   */\n      swap2\n      swap1\n      pop\n      jump\t// out\n        /* \"#utility.yul\":1373:1481   */\n    tag_120:\n        /* \"#utility.yul\":1450:1474   */\n      tag_198\n        /* \"#utility.yul\":1468:1473   */\n      dup2\n        /* \"#utility.yul\":1450:1474   */\n      tag_119\n      jump\t// in\n    tag_198:\n        /* \"#utility.yul\":1445:1448   */\n      dup3\n        /* \"#utility.yul\":1438:1475   */\n      mstore\n        /* \"#utility.yul\":1373:1481   */\n      pop\n      pop\n      jump\t// out\n        /* \"#utility.yul\":1487:1586   */\n    tag_121:\n        /* \"#utility.yul\":1539:1545   */\n      0x00\n        /* \"#utility.yul\":1573:1578   */\n      dup2\n        /* \"#utility.yul\":1567:1579   */\n      mload\n        /* \"#utility.yul\":1557:1579   */\n      swap1\n      pop\n        /* \"#utility.yul\":1487:1586   */\n      swap2\n      swap1\n      pop\n      jump\t// out\n        /* \"#utility.yul\":1592:1751   */\n    tag_122:\n        /* \"#utility.yul\":1666:1677   */\n      0x00\n        /* \"#utility.yul\":1700:1706   */\n      dup3\n        /* \"#utility.yul\":1695:1698   */\n      dup3\n        /* \"#utility.yul\":1688:1707   */\n      mstore\n        /* \"#utility.yul\":1740:1744   */\n      0x20\n        /* \"#utility.yul\":1735:1738   */\n      dup3\n        /* \"#utility.yul\":1731:1745   */\n      add\n        /* \"#utility.yul\":1716:1745   */\n      swap1\n      pop\n        /* \"#utility.yul\":1592:1751   */\n      swap3\n      swap2\n      pop\n      pop\n      jump\t// out\n        /* \"#utility.yul\":1757:1896   */\n    tag_123:\n        /* \"#utility.yul\":1846:1852   */\n      dup3\n        /* \"#utility.yul\":1841:1844   */\n      dup2\n        /* \"#utility.yul\":1836:1839   */\n      dup4\n        /* \"#utility.yul\":1830:1853   */\n      mcopy\n        /* \"#utility.yul\":1887:1888   */\n      0x00\n        /* \"#utility.yul\":1878:1884   */\n      dup4\n        /* \"#utility.yul\":1873:1876   */\n      dup4\n        /* \"#utility.yul\":1869:1885   */\n      add\n        /* \"#utility.yul\":1862:1889   */\n      mstore\n        /* \"#utility.yul\":1757:1896   */\n      pop\n      pop\n      pop\n      jump\t// out\n        /* \"#utility.yul\":1902:2004   */\n    tag_124:\n        /* \"#utility.yul\":1943:1949   */\n      0x00\n        /* \"#utility.yul\":1994:1996   */\n      0x1f\n        /* \"#utility.yul\":1990:1997   */\n      not\n        /* \"#utility.yul\":1985:1987   */\n      0x1f\n        /* \"#utility.yul\":1978:1983   */\n      dup4\n        /* \"#utility.yul\":1974:1988   */\n      add\n        /* \"#utility.yul\":1970:1998   */\n      and\n        /* \"#utility.yul\":1960:1998   */\n      swap1\n      pop\n        /* \"#utility.yul\":1902:2004   */\n      swap2\n      swap1\n      pop\n      jump\t// out\n        /* \"#utility.yul\":2010:2367   */\n    tag_125:\n        /* \"#utility.yul\":2088:2091   */\n      0x00\n        /* \"#utility.yul\":2116:2155   */\n      tag_204\n        /* \"#utility.yul\":2149:2154   */\n      dup3\n        /* \"#utility.yul\":2116:2155   */\n      tag_121\n      jump\t// in\n    tag_204:\n        /* \"#utility.yul\":2171:2232   */\n      tag_205\n        /* \"#utility.yul\":2225:2231   */\n      dup2\n        /* \"#utility.yul\":2220:2223   */\n      dup6\n        /* \"#utility.yul\":2171:2232   */\n      tag_122\n      jump\t// in\n    tag_205:\n        /* \"#utility.yul\":2164:2232   */\n      swap4\n      pop\n        /* \"#utility.yul\":2241:2306   */\n      tag_206\n        /* \"#utility.yul\":2299:2305   */\n      dup2\n        /* \"#utility.yul\":2294:2297   */\n      dup6\n        /* \"#utility.yul\":2287:2291   */\n      0x20\n        /* \"#utility.yul\":2280:2285   */\n      dup7\n        /* \"#utility.yul\":2276:2292   */\n      add\n        /* \"#utility.yul\":2241:2306   */\n      tag_123\n      jump\t// in\n    tag_206:\n        /* \"#utility.yul\":2331:2360   */\n      tag_207\n        /* \"#utility.yul\":2353:2359   */\n      dup2\n        /* \"#utility.yul\":2331:2360   */\n      tag_124\n      jump\t// in\n    tag_207:\n        /* \"#utility.yul\":2326:2329   */\n      dup5\n        /* \"#utility.yul\":2322:2361   */\n      add\n        /* \"#utility.yul\":2315:2361   */\n      swap2\n      pop\n        /* \"#utility.yul\":2092:2367   */\n      pop\n        /* \"#utility.yul\":2010:2367   */\n      swap3\n      swap2\n      pop\n      pop\n      jump\t// out\n        /* \"#utility.yul\":2373:2449   */\n    tag_126:\n        /* \"#utility.yul\":2409:2416   */\n      0x00\n        /* \"#utility.yul\":2438:2443   */\n      dup2\n        /* \"#utility.yul\":2427:2443   */\n      swap1\n      pop\n        /* \"#utility.yul\":2373:2449   */\n      swap2\n      swap1\n      pop\n      jump\t// out\n        /* \"#utility.yul\":2455:2560   */\n    tag_127:\n        /* \"#utility.yul\":2530:2553   */\n      tag_210\n        /* \"#utility.yul\":2547:2552   */\n      dup2\n        /* \"#utility.yul\":2530:2553   */\n      tag_126\n      jump\t// in\n    tag_210:\n        /* \"#utility.yul\":2525:2528   */\n      dup3\n        /* \"#utility.yul\":2518:2554   */\n      mstore\n        /* \"#utility.yul\":2455:2560   */\n      pop\n      pop\n      jump\t// out\n        /* \"#utility.yul\":2566:2702   */\n    tag_128:\n        /* \"#utility.yul\":2655:2661   */\n      0x00\n        /* \"#utility.yul\":2689:2694   */\n      dup2\n        /* \"#utility.yul\":2683:2695   */\n      mload\n        /* \"#utility.yul\":2673:2695   */\n      swap1\n      pop\n        /* \"#utility.yul\":2566:2702   */\n      swap2\n      swap1\n      pop\n      jump\t// out\n        /* \"#utility.yul\":2708:2904   */\n    tag_129:\n        /* \"#utility.yul\":2819:2830   */\n      0x00\n        /* \"#utility.yul\":2853:2859   */\n      dup3\n        /* \"#utility.yul\":2848:2851   */\n      dup3\n        /* \"#utility.yul\":2841:2860   */\n      mstore\n        /* \"#utility.yul\":2893:2897   */\n      0x20\n        /* \"#utility.yul\":2888:2891   */\n      dup3\n        /* \"#utility.yul\":2884:2898   */\n      add\n        /* \"#utility.yul\":2869:2898   */\n      swap1\n      pop\n        /* \"#utility.yul\":2708:2904   */\n      swap3\n      swap2\n      pop\n      pop\n      jump\t// out\n        /* \"#utility.yul\":2910:3064   */\n    tag_130:\n        /* \"#utility.yul\":2999:3003   */\n      0x00\n        /* \"#utility.yul\":3022:3025   */\n      dup2\n        /* \"#utility.yul\":3014:3025   */\n      swap1\n      pop\n        /* \"#utility.yul\":3052:3056   */\n      0x20\n        /* \"#utility.yul\":3047:3050   */\n      dup3\n        /* \"#utility.yul\":3043:3057   */\n      add\n        /* \"#utility.yul\":3035:3057   */\n      swap1\n      pop\n        /* \"#utility.yul\":2910:3064   */\n      swap2\n      swap1\n      pop\n      jump\t// out\n        /* \"#utility.yul\":3146:3645   */\n    tag_131:\n        /* \"#utility.yul\":3277:3281   */\n      0x40\n        /* \"#utility.yul\":3272:3275   */\n      dup3\n        /* \"#utility.yul\":3268:3282   */\n      add\n        /* \"#utility.yul\":3369:3373   */\n      0x00\n        /* \"#utility.yul\":3362:3367   */\n      dup3\n        /* \"#utility.yul\":3358:3374   */\n      add\n        /* \"#utility.yul\":3352:3375   */\n      mload\n        /* \"#utility.yul\":3388:3451   */\n      tag_215\n        /* \"#utility.yul\":3445:3449   */\n      0x00\n        /* \"#utility.yul\":3440:3443   */\n      dup6\n        /* \"#utility.yul\":3436:3450   */\n      add\n        /* \"#utility.yul\":3422:3434   */\n      dup3\n        /* \"#utility.yul\":3388:3451   */\n      tag_117\n      jump\t// in\n    tag_215:\n        /* \"#utility.yul\":3292:3461   */\n      pop\n        /* \"#utility.yul\":3546:3550   */\n      0x20\n        /* \"#utility.yul\":3539:3544   */\n      dup3\n        /* \"#utility.yul\":3535:3551   */\n      add\n        /* \"#utility.yul\":3529:3552   */\n      mload\n        /* \"#utility.yul\":3565:3628   */\n      tag_216\n        /* \"#utility.yul\":3622:3626   */\n      0x20\n        /* \"#utility.yul\":3617:3620   */\n      dup6\n        /* \"#utility.yul\":3613:3627   */\n      add\n        /* \"#utility.yul\":3599:3611   */\n      dup3\n        /* \"#utility.yul\":3565:3628   */\n      tag_117\n      jump\t// in\n    tag_216:\n        /* \"#utility.yul\":3471:3638   */\n      pop\n        /* \"#utility.yul\":3246:3645   */\n      pop\n        /* \"#utility.yul\":3146:3645   */\n      pop\n      pop\n      jump\t// out\n        /* \"#utility.yul\":3651:3918   */\n    tag_132:\n        /* \"#utility.yul\":3764:3774   */\n      0x00\n        /* \"#utility.yul\":3785:3875   */\n      tag_218\n        /* \"#utility.yul\":3871:3874   */\n      dup4\n        /* \"#utility.yul\":3863:3869   */\n      dup4\n        /* \"#utility.yul\":3785:3875   */\n      tag_131\n      jump\t// in\n    tag_218:\n        /* \"#utility.yul\":3907:3911   */\n      0x40\n        /* \"#utility.yul\":3902:3905   */\n      dup4\n        /* \"#utility.yul\":3898:3912   */\n      add\n        /* \"#utility.yul\":3884:3912   */\n      swap1\n      pop\n        /* \"#utility.yul\":3651:3918   */\n      swap3\n      swap2\n      pop\n      pop\n      jump\t// out\n        /* \"#utility.yul\":3924:4059   */\n    tag_133:\n        /* \"#utility.yul\":4016:4020   */\n      0x00\n        /* \"#utility.yul\":4048:4052   */\n      0x20\n        /* \"#utility.yul\":4043:4046   */\n      dup3\n        /* \"#utility.yul\":4039:4053   */\n      add\n        /* \"#utility.yul\":4031:4053   */\n      swap1\n      pop\n        /* \"#utility.yul\":3924:4059   */\n      swap2\n      swap1\n      pop\n      jump\t// out\n        /* \"#utility.yul\":4145:5033   */\n    tag_134:\n        /* \"#utility.yul\":4298:4301   */\n      0x00\n        /* \"#utility.yul\":4327:4403   */\n      tag_221\n        /* \"#utility.yul\":4397:4402   */\n      dup3\n        /* \"#utility.yul\":4327:4403   */\n      tag_128\n      jump\t// in\n    tag_221:\n        /* \"#utility.yul\":4419:4517   */\n      tag_222\n        /* \"#utility.yul\":4510:4516   */\n      dup2\n        /* \"#utility.yul\":4505:4508   */\n      dup6\n        /* \"#utility.yul\":4419:4517   */\n      tag_129\n      jump\t// in\n    tag_222:\n        /* \"#utility.yul\":4412:4517   */\n      swap4\n      pop\n        /* \"#utility.yul\":4541:4619   */\n      tag_223\n        /* \"#utility.yul\":4613:4618   */\n      dup4\n        /* \"#utility.yul\":4541:4619   */\n      tag_130\n      jump\t// in\n    tag_223:\n        /* \"#utility.yul\":4642:4649   */\n      dup1\n        /* \"#utility.yul\":4673:4674   */\n      0x00\n        /* \"#utility.yul\":4658:5008   */\n    tag_224:\n        /* \"#utility.yul\":4683:4689   */\n      dup4\n        /* \"#utility.yul\":4680:4681   */\n      dup2\n        /* \"#utility.yul\":4677:4690   */\n      lt\n        /* \"#utility.yul\":4658:5008   */\n      iszero\n      tag_226\n      jumpi\n        /* \"#utility.yul\":4759:4765   */\n      dup2\n        /* \"#utility.yul\":4753:4766   */\n      mload\n        /* \"#utility.yul\":4786:4893   */\n      tag_227\n        /* \"#utility.yul\":4889:4892   */\n      dup9\n        /* \"#utility.yul\":4874:4887   */\n      dup3\n        /* \"#utility.yul\":4786:4893   */\n      tag_132\n      jump\t// in\n    tag_227:\n        /* \"#utility.yul\":4779:4893   */\n      swap8\n      pop\n        /* \"#utility.yul\":4916:4998   */\n      tag_228\n        /* \"#utility.yul\":4991:4997   */\n      dup4\n        /* \"#utility.yul\":4916:4998   */\n      tag_133\n      jump\t// in\n    tag_228:\n        /* \"#utility.yul\":4906:4998   */\n      swap3\n      pop\n        /* \"#utility.yul\":4718:5008   */\n      pop\n        /* \"#utility.yul\":4705:4706   */\n      0x01\n        /* \"#utility.yul\":4702:4703   */\n      dup2\n        /* \"#utility.yul\":4698:4707   */\n      add\n        /* \"#utility.yul\":4693:4707   */\n      swap1\n      pop\n        /* \"#utility.yul\":4658:5008   */\n      jump(tag_224)\n    tag_226:\n        /* \"#utility.yul\":4662:4676   */\n      pop\n        /* \"#utility.yul\":5024:5027   */\n      dup6\n        /* \"#utility.yul\":5017:5027   */\n      swap4\n      pop\n        /* \"#utility.yul\":4303:5033   */\n      pop\n      pop\n      pop\n        /* \"#utility.yul\":4145:5033   */\n      swap3\n      swap2\n      pop\n      pop\n      jump\t// out\n        /* \"#utility.yul\":5119:7014   */\n    tag_135:\n        /* \"#utility.yul\":5236:5239   */\n      0x00\n        /* \"#utility.yul\":5272:5278   */\n      0x0100\n        /* \"#utility.yul\":5267:5270   */\n      dup4\n        /* \"#utility.yul\":5263:5279   */\n      add\n        /* \"#utility.yul\":5359:5363   */\n      0x00\n        /* \"#utility.yul\":5352:5357   */\n      dup4\n        /* \"#utility.yul\":5348:5364   */\n      add\n        /* \"#utility.yul\":5342:5365   */\n      mload\n        /* \"#utility.yul\":5378:5441   */\n      tag_230\n        /* \"#utility.yul\":5435:5439   */\n      0x00\n        /* \"#utility.yul\":5430:5433   */\n      dup7\n        /* \"#utility.yul\":5426:5440   */\n      add\n        /* \"#utility.yul\":5412:5424   */\n      dup3\n        /* \"#utility.yul\":5378:5441   */\n      tag_117\n      jump\t// in\n    tag_230:\n        /* \"#utility.yul\":5289:5451   */\n      pop\n        /* \"#utility.yul\":5534:5538   */\n      0x20\n        /* \"#utility.yul\":5527:5532   */\n      dup4\n        /* \"#utility.yul\":5523:5539   */\n      add\n        /* \"#utility.yul\":5517:5540   */\n      mload\n        /* \"#utility.yul\":5553:5616   */\n      tag_231\n        /* \"#utility.yul\":5610:5614   */\n      0x20\n        /* \"#utility.yul\":5605:5608   */\n      dup7\n        /* \"#utility.yul\":5601:5615   */\n      add\n        /* \"#utility.yul\":5587:5599   */\n      dup3\n        /* \"#utility.yul\":5553:5616   */\n      tag_120\n      jump\t// in\n    tag_231:\n        /* \"#utility.yul\":5461:5626   */\n      pop\n        /* \"#utility.yul\":5708:5712   */\n      0x40\n        /* \"#utility.yul\":5701:5706   */\n      dup4\n        /* \"#utility.yul\":5697:5713   */\n      add\n        /* \"#utility.yul\":5691:5714   */\n      mload\n        /* \"#utility.yul\":5761:5764   */\n      dup5\n        /* \"#utility.yul\":5755:5759   */\n      dup3\n        /* \"#utility.yul\":5751:5765   */\n      sub\n        /* \"#utility.yul\":5744:5748   */\n      0x40\n        /* \"#utility.yul\":5739:5742   */\n      dup7\n        /* \"#utility.yul\":5735:5749   */\n      add\n        /* \"#utility.yul\":5728:5766   */\n      mstore\n        /* \"#utility.yul\":5787:5860   */\n      tag_232\n        /* \"#utility.yul\":5855:5859   */\n      dup3\n        /* \"#utility.yul\":5841:5853   */\n      dup3\n        /* \"#utility.yul\":5787:5860   */\n      tag_125\n      jump\t// in\n    tag_232:\n        /* \"#utility.yul\":5779:5860   */\n      swap2\n      pop\n        /* \"#utility.yul\":5636:5871   */\n      pop\n        /* \"#utility.yul\":5957:5961   */\n      0x60\n        /* \"#utility.yul\":5950:5955   */\n      dup4\n        /* \"#utility.yul\":5946:5962   */\n      add\n        /* \"#utility.yul\":5940:5963   */\n      mload\n        /* \"#utility.yul\":5976:6037   */\n      tag_233\n        /* \"#utility.yul\":6031:6035   */\n      0x60\n        /* \"#utility.yul\":6026:6029   */\n      dup7\n        /* \"#utility.yul\":6022:6036   */\n      add\n        /* \"#utility.yul\":6008:6020   */\n      dup3\n        /* \"#utility.yul\":5976:6037   */\n      tag_127\n      jump\t// in\n    tag_233:\n        /* \"#utility.yul\":5881:6047   */\n      pop\n        /* \"#utility.yul\":6134:6138   */\n      0x80\n        /* \"#utility.yul\":6127:6132   */\n      dup4\n        /* \"#utility.yul\":6123:6139   */\n      add\n        /* \"#utility.yul\":6117:6140   */\n      mload\n        /* \"#utility.yul\":6153:6214   */\n      tag_234\n        /* \"#utility.yul\":6208:6212   */\n      0x80\n        /* \"#utility.yul\":6203:6206   */\n      dup7\n        /* \"#utility.yul\":6199:6213   */\n      add\n        /* \"#utility.yul\":6185:6197   */\n      dup3\n        /* \"#utility.yul\":6153:6214   */\n      tag_127\n      jump\t// in\n    tag_234:\n        /* \"#utility.yul\":6057:6224   */\n      pop\n        /* \"#utility.yul\":6313:6317   */\n      0xa0\n        /* \"#utility.yul\":6306:6311   */\n      dup4\n        /* \"#utility.yul\":6302:6318   */\n      add\n        /* \"#utility.yul\":6296:6319   */\n      mload\n        /* \"#utility.yul\":6366:6369   */\n      dup5\n        /* \"#utility.yul\":6360:6364   */\n      dup3\n        /* \"#utility.yul\":6356:6370   */\n      sub\n        /* \"#utility.yul\":6349:6353   */\n      0xa0\n        /* \"#utility.yul\":6344:6347   */\n      dup7\n        /* \"#utility.yul\":6340:6354   */\n      add\n        /* \"#utility.yul\":6333:6371   */\n      mstore\n        /* \"#utility.yul\":6392:6465   */\n      tag_235\n        /* \"#utility.yul\":6460:6464   */\n      dup3\n        /* \"#utility.yul\":6446:6458   */\n      dup3\n        /* \"#utility.yul\":6392:6465   */\n      tag_125\n      jump\t// in\n    tag_235:\n        /* \"#utility.yul\":6384:6465   */\n      swap2\n      pop\n        /* \"#utility.yul\":6234:6476   */\n      pop\n        /* \"#utility.yul\":6567:6571   */\n      0xc0\n        /* \"#utility.yul\":6560:6565   */\n      dup4\n        /* \"#utility.yul\":6556:6572   */\n      add\n        /* \"#utility.yul\":6550:6573   */\n      mload\n        /* \"#utility.yul\":6586:6649   */\n      tag_236\n        /* \"#utility.yul\":6643:6647   */\n      0xc0\n        /* \"#utility.yul\":6638:6641   */\n      dup7\n        /* \"#utility.yul\":6634:6648   */\n      add\n        /* \"#utility.yul\":6620:6632   */\n      dup3\n        /* \"#utility.yul\":6586:6649   */\n      tag_117\n      jump\t// in\n    tag_236:\n        /* \"#utility.yul\":6486:6659   */\n      pop\n        /* \"#utility.yul\":6750:6754   */\n      0xe0\n        /* \"#utility.yul\":6743:6748   */\n      dup4\n        /* \"#utility.yul\":6739:6755   */\n      add\n        /* \"#utility.yul\":6733:6756   */\n      mload\n        /* \"#utility.yul\":6803:6806   */\n      dup5\n        /* \"#utility.yul\":6797:6801   */\n      dup3\n        /* \"#utility.yul\":6793:6807   */\n      sub\n        /* \"#utility.yul\":6786:6790   */\n      0xe0\n        /* \"#utility.yul\":6781:6784   */\n      dup7\n        /* \"#utility.yul\":6777:6791   */\n      add\n        /* \"#utility.yul\":6770:6808   */\n      mstore\n        /* \"#utility.yul\":6829:6976   */\n      tag_237\n        /* \"#utility.yul\":6971:6975   */\n      dup3\n        /* \"#utility.yul\":6957:6969   */\n      dup3\n        /* \"#utility.yul\":6829:6976   */\n      tag_134\n      jump\t// in\n    tag_237:\n        /* \"#utility.yul\":6821:6976   */\n      swap2\n      pop\n        /* \"#utility.yul\":6669:6987   */\n      pop\n        /* \"#utility.yul\":7004:7008   */\n      dup1\n        /* \"#utility.yul\":6997:7008   */\n      swap2\n      pop\n        /* \"#utility.yul\":5241:7014   */\n      pop\n        /* \"#utility.yul\":5119:7014   */\n      swap3\n      swap2\n      pop\n      pop\n      jump\t// out\n        /* \"#utility.yul\":7020:7389   */\n    tag_16:\n        /* \"#utility.yul\":7161:7165   */\n      0x00\n        /* \"#utility.yul\":7199:7201   */\n      0x20\n        /* \"#utility.yul\":7188:7197   */\n      dup3\n        /* \"#utility.yul\":7184:7202   */\n      add\n        /* \"#utility.yul\":7176:7202   */\n      swap1\n      pop\n        /* \"#utility.yul\":7248:7257   */\n      dup2\n        /* \"#utility.yul\":7242:7246   */\n      dup2\n        /* \"#utility.yul\":7238:7258   */\n      sub\n        /* \"#utility.yul\":7234:7235   */\n      0x00\n        /* \"#utility.yul\":7223:7232   */\n      dup4\n        /* \"#utility.yul\":7219:7236   */\n      add\n        /* \"#utility.yul\":7212:7259   */\n      mstore\n        /* \"#utility.yul\":7276:7382   */\n      tag_239\n        /* \"#utility.yul\":7377:7381   */\n      dup2\n        /* \"#utility.yul\":7368:7374   */\n      dup5\n        /* \"#utility.yul\":7276:7382   */\n      tag_135\n      jump\t// in\n    tag_239:\n        /* \"#utility.yul\":7268:7382   */\n      swap1\n      pop\n        /* \"#utility.yul\":7020:7389   */\n      swap3\n      swap2\n      pop\n      pop\n      jump\t// out\n        /* \"#utility.yul\":7395:7513   */\n    tag_136:\n        /* \"#utility.yul\":7482:7506   */\n      tag_241\n        /* \"#utility.yul\":7500:7505   */\n      dup2\n        /* \"#utility.yul\":7482:7506   */\n      tag_114\n      jump\t// in\n    tag_241:\n        /* \"#utility.yul\":7477:7480   */\n      dup3\n        /* \"#utility.yul\":7470:7507   */\n      mstore\n        /* \"#utility.yul\":7395:7513   */\n      pop\n      pop\n      jump\t// out\n        /* \"#utility.yul\":7519:7741   */\n    tag_20:\n        /* \"#utility.yul\":7612:7616   */\n      0x00\n        /* \"#utility.yul\":7650:7652   */\n      0x20\n        /* \"#utility.yul\":7639:7648   */\n      dup3\n        /* \"#utility.yul\":7635:7653   */\n      add\n        /* \"#utility.yul\":7627:7653   */\n      swap1\n      pop\n        /* \"#utility.yul\":7663:7734   */\n      tag_243\n        /* \"#utility.yul\":7731:7732   */\n      0x00\n        /* \"#utility.yul\":7720:7729   */\n      dup4\n        /* \"#utility.yul\":7716:7733   */\n      add\n        /* \"#utility.yul\":7707:7713   */\n      dup5\n        /* \"#utility.yul\":7663:7734   */\n      tag_136\n      jump\t// in\n    tag_243:\n        /* \"#utility.yul\":7519:7741   */\n      swap3\n      swap2\n      pop\n      pop\n      jump\t// out\n        /* \"#utility.yul\":7747:8366   */\n    tag_23:\n        /* \"#utility.yul\":7824:7830   */\n      0x00\n        /* \"#utility.yul\":7832:7838   */\n      dup1\n        /* \"#utility.yul\":7840:7846   */\n      0x00\n        /* \"#utility.yul\":7889:7891   */\n      0x60\n        /* \"#utility.yul\":7877:7886   */\n      dup5\n        /* \"#utility.yul\":7868:7875   */\n      dup7\n        /* \"#utility.yul\":7864:7887   */\n      sub\n        /* \"#utility.yul\":7860:7892   */\n      slt\n        /* \"#utility.yul\":7857:7976   */\n      iszero\n      tag_245\n      jumpi\n        /* \"#utility.yul\":7895:7974   */\n      tag_246\n      tag_112\n      jump\t// in\n    tag_246:\n        /* \"#utility.yul\":7857:7976   */\n    tag_245:\n        /* \"#utility.yul\":8015:8016   */\n      0x00\n        /* \"#utility.yul\":8040:8093   */\n      tag_247\n        /* \"#utility.yul\":8085:8092   */\n      dup7\n        /* \"#utility.yul\":8076:8082   */\n      dup3\n        /* \"#utility.yul\":8065:8074   */\n      dup8\n        /* \"#utility.yul\":8061:8083   */\n      add\n        /* \"#utility.yul\":8040:8093   */\n      tag_116\n      jump\t// in\n    tag_247:\n        /* \"#utility.yul\":8030:8093   */\n      swap4\n      pop\n        /* \"#utility.yul\":7986:8103   */\n      pop\n        /* \"#utility.yul\":8142:8144   */\n      0x20\n        /* \"#utility.yul\":8168:8221   */\n      tag_248\n        /* \"#utility.yul\":8213:8220   */\n      dup7\n        /* \"#utility.yul\":8204:8210   */\n      dup3\n        /* \"#utility.yul\":8193:8202   */\n      dup8\n        /* \"#utility.yul\":8189:8211   */\n      add\n        /* \"#utility.yul\":8168:8221   */\n      tag_116\n      jump\t// in\n    tag_248:\n        /* \"#utility.yul\":8158:8221   */\n      swap3\n      pop\n        /* \"#utility.yul\":8113:8231   */\n      pop\n        /* \"#utility.yul\":8270:8272   */\n      0x40\n        /* \"#utility.yul\":8296:8349   */\n      tag_249\n        /* \"#utility.yul\":8341:8348   */\n      dup7\n        /* \"#utility.yul\":8332:8338   */\n      dup3\n        /* \"#utility.yul\":8321:8330   */\n      dup8\n        /* \"#utility.yul\":8317:8339   */\n      add\n        /* \"#utility.yul\":8296:8349   */\n      tag_116\n      jump\t// in\n    tag_249:\n        /* \"#utility.yul\":8286:8349   */\n      swap2\n      pop\n        /* \"#utility.yul\":8241:8359   */\n      pop\n        /* \"#utility.yul\":7747:8366   */\n      swap3\n      pop\n      swap3\n      pop\n      swap3\n      jump\t// out\n        /* \"#utility.yul\":8372:8487   */\n    tag_137:\n        /* \"#utility.yul\":8457:8480   */\n      tag_251\n        /* \"#utility.yul\":8474:8479   */\n      dup2\n        /* \"#utility.yul\":8457:8480   */\n      tag_126\n      jump\t// in\n    tag_251:\n        /* \"#utility.yul\":8452:8455   */\n      dup3\n        /* \"#utility.yul\":8445:8481   */\n      mstore\n        /* \"#utility.yul\":8372:8487   */\n      pop\n      pop\n      jump\t// out\n        /* \"#utility.yul\":8493:8711   */\n    tag_28:\n        /* \"#utility.yul\":8584:8588   */\n      0x00\n        /* \"#utility.yul\":8622:8624   */\n      0x20\n        /* \"#utility.yul\":8611:8620   */\n      dup3\n        /* \"#utility.yul\":8607:8625   */\n      add\n        /* \"#utility.yul\":8599:8625   */\n      swap1\n      pop\n        /* \"#utility.yul\":8635:8704   */\n      tag_253\n        /* \"#utility.yul\":8701:8702   */\n      0x00\n        /* \"#utility.yul\":8690:8699   */\n      dup4\n        /* \"#utility.yul\":8686:8703   */\n      add\n        /* \"#utility.yul\":8677:8683   */\n      dup5\n        /* \"#utility.yul\":8635:8704   */\n      tag_137\n      jump\t// in\n    tag_253:\n        /* \"#utility.yul\":8493:8711   */\n      swap3\n      swap2\n      pop\n      pop\n      jump\t// out\n        /* \"#utility.yul\":8717:8834   */\n    tag_138:\n        /* \"#utility.yul\":8826:8827   */\n      0x00\n        /* \"#utility.yul\":8823:8824   */\n      dup1\n        /* \"#utility.yul\":8816:8828   */\n      revert\n        /* \"#utility.yul\":8840:8957   */\n    tag_139:\n        /* \"#utility.yul\":8949:8950   */\n      0x00\n        /* \"#utility.yul\":8946:8947   */\n      dup1\n        /* \"#utility.yul\":8939:8951   */\n      revert\n        /* \"#utility.yul\":8963:9143   */\n    tag_140:\n        /* \"#utility.yul\":9011:9088   */\n      0x4e487b7100000000000000000000000000000000000000000000000000000000\n        /* \"#utility.yul\":9008:9009   */\n      0x00\n        /* \"#utility.yul\":9001:9089   */\n      mstore\n        /* \"#utility.yul\":9108:9112   */\n      0x41\n        /* \"#utility.yul\":9105:9106   */\n      0x04\n        /* \"#utility.yul\":9098:9113   */\n      mstore\n        /* \"#utility.yul\":9132:9136   */\n      0x24\n        /* \"#utility.yul\":9129:9130   */\n      0x00\n        /* \"#utility.yul\":9122:9137   */\n      revert\n        /* \"#utility.yul\":9149:9430   */\n    tag_141:\n        /* \"#utility.yul\":9232:9259   */\n      tag_258\n        /* \"#utility.yul\":9254:9258   */\n      dup3\n        /* \"#utility.yul\":9232:9259   */\n      tag_124\n      jump\t// in\n    tag_258:\n        /* \"#utility.yul\":9224:9230   */\n      dup2\n        /* \"#utility.yul\":9220:9260   */\n      add\n        /* \"#utility.yul\":9362:9368   */\n      dup2\n        /* \"#utility.yul\":9350:9360   */\n      dup2\n        /* \"#utility.yul\":9347:9369   */\n      lt\n        /* \"#utility.yul\":9326:9344   */\n      0xffffffffffffffff\n        /* \"#utility.yul\":9314:9324   */\n      dup3\n        /* \"#utility.yul\":9311:9345   */\n      gt\n        /* \"#utility.yul\":9308:9370   */\n      or\n        /* \"#utility.yul\":9305:9393   */\n      iszero\n      tag_259\n      jumpi\n        /* \"#utility.yul\":9373:9391   */\n      tag_260\n      tag_140\n      jump\t// in\n    tag_260:\n        /* \"#utility.yul\":9305:9393   */\n    tag_259:\n        /* \"#utility.yul\":9413:9423   */\n      dup1\n        /* \"#utility.yul\":9409:9411   */\n      0x40\n        /* \"#utility.yul\":9402:9424   */\n      mstore\n        /* \"#utility.yul\":9192:9430   */\n      pop\n        /* \"#utility.yul\":9149:9430   */\n      pop\n      pop\n      jump\t// out\n        /* \"#utility.yul\":9436:9565   */\n    tag_142:\n        /* \"#utility.yul\":9470:9476   */\n      0x00\n        /* \"#utility.yul\":9497:9517   */\n      tag_262\n      tag_111\n      jump\t// in\n    tag_262:\n        /* \"#utility.yul\":9487:9517   */\n      swap1\n      pop\n        /* \"#utility.yul\":9526:9559   */\n      tag_263\n        /* \"#utility.yul\":9554:9558   */\n      dup3\n        /* \"#utility.yul\":9546:9552   */\n      dup3\n        /* \"#utility.yul\":9526:9559   */\n      tag_141\n      jump\t// in\n    tag_263:\n        /* \"#utility.yul\":9436:9565   */\n      swap2\n      swap1\n      pop\n      jump\t// out\n        /* \"#utility.yul\":9571:9879   */\n    tag_143:\n        /* \"#utility.yul\":9633:9637   */\n      0x00\n        /* \"#utility.yul\":9723:9741   */\n      0xffffffffffffffff\n        /* \"#utility.yul\":9715:9721   */\n      dup3\n        /* \"#utility.yul\":9712:9742   */\n      gt\n        /* \"#utility.yul\":9709:9765   */\n      iszero\n      tag_265\n      jumpi\n        /* \"#utility.yul\":9745:9763   */\n      tag_266\n      tag_140\n      jump\t// in\n    tag_266:\n        /* \"#utility.yul\":9709:9765   */\n    tag_265:\n        /* \"#utility.yul\":9783:9812   */\n      tag_267\n        /* \"#utility.yul\":9805:9811   */\n      dup3\n        /* \"#utility.yul\":9783:9812   */\n      tag_124\n      jump\t// in\n    tag_267:\n        /* \"#utility.yul\":9775:9812   */\n      swap1\n      pop\n        /* \"#utility.yul\":9867:9871   */\n      0x20\n        /* \"#utility.yul\":9861:9865   */\n      dup2\n        /* \"#utility.yul\":9857:9872   */\n      add\n        /* \"#utility.yul\":9849:9872   */\n      swap1\n      pop\n        /* \"#utility.yul\":9571:9879   */\n      swap2\n      swap1\n      pop\n      jump\t// out\n        /* \"#utility.yul\":9885:10033   */\n    tag_144:\n        /* \"#utility.yul\":9983:9989   */\n      dup3\n        /* \"#utility.yul\":9978:9981   */\n      dup2\n        /* \"#utility.yul\":9973:9976   */\n      dup4\n        /* \"#utility.yul\":9960:9990   */\n      calldatacopy\n        /* \"#utility.yul\":10024:10025   */\n      0x00\n        /* \"#utility.yul\":10015:10021   */\n      dup4\n        /* \"#utility.yul\":10010:10013   */\n      dup4\n        /* \"#utility.yul\":10006:10022   */\n      add\n        /* \"#utility.yul\":9999:10026   */\n      mstore\n        /* \"#utility.yul\":9885:10033   */\n      pop\n      pop\n      pop\n      jump\t// out\n        /* \"#utility.yul\":10039:10464   */\n    tag_145:\n        /* \"#utility.yul\":10117:10122   */\n      0x00\n        /* \"#utility.yul\":10142:10208   */\n      tag_270\n        /* \"#utility.yul\":10158:10207   */\n      tag_271\n        /* \"#utility.yul\":10200:10206   */\n      dup5\n        /* \"#utility.yul\":10158:10207   */\n      tag_143\n      jump\t// in\n    tag_271:\n        /* \"#utility.yul\":10142:10208   */\n      tag_142\n      jump\t// in\n    tag_270:\n        /* \"#utility.yul\":10133:10208   */\n      swap1\n      pop\n        /* \"#utility.yul\":10231:10237   */\n      dup3\n        /* \"#utility.yul\":10224:10229   */\n      dup2\n        /* \"#utility.yul\":10217:10238   */\n      mstore\n        /* \"#utility.yul\":10269:10273   */\n      0x20\n        /* \"#utility.yul\":10262:10267   */\n      dup2\n        /* \"#utility.yul\":10258:10274   */\n      add\n        /* \"#utility.yul\":10307:10310   */\n      dup5\n        /* \"#utility.yul\":10298:10304   */\n      dup5\n        /* \"#utility.yul\":10293:10296   */\n      dup5\n        /* \"#utility.yul\":10289:10305   */\n      add\n        /* \"#utility.yul\":10286:10311   */\n      gt\n        /* \"#utility.yul\":10283:10395   */\n      iszero\n      tag_272\n      jumpi\n        /* \"#utility.yul\":10314:10393   */\n      tag_273\n      tag_139\n      jump\t// in\n    tag_273:\n        /* \"#utility.yul\":10283:10395   */\n    tag_272:\n        /* \"#utility.yul\":10404:10458   */\n      tag_274\n        /* \"#utility.yul\":10451:10457   */\n      dup5\n        /* \"#utility.yul\":10446:10449   */\n      dup3\n        /* \"#utility.yul\":10441:10444   */\n      dup6\n        /* \"#utility.yul\":10404:10458   */\n      tag_144\n      jump\t// in\n    tag_274:\n        /* \"#utility.yul\":10123:10464   */\n      pop\n        /* \"#utility.yul\":10039:10464   */\n      swap4\n      swap3\n      pop\n      pop\n      pop\n      jump\t// out\n        /* \"#utility.yul\":10484:10824   */\n    tag_146:\n        /* \"#utility.yul\":10540:10545   */\n      0x00\n        /* \"#utility.yul\":10589:10592   */\n      dup3\n        /* \"#utility.yul\":10582:10586   */\n      0x1f\n        /* \"#utility.yul\":10574:10580   */\n      dup4\n        /* \"#utility.yul\":10570:10587   */\n      add\n        /* \"#utility.yul\":10566:10593   */\n      slt\n        /* \"#utility.yul\":10556:10678   */\n      tag_276\n      jumpi\n        /* \"#utility.yul\":10597:10676   */\n      tag_277\n      tag_138\n      jump\t// in\n    tag_277:\n        /* \"#utility.yul\":10556:10678   */\n    tag_276:\n        /* \"#utility.yul\":10714:10720   */\n      dup2\n        /* \"#utility.yul\":10701:10721   */\n      calldataload\n        /* \"#utility.yul\":10739:10818   */\n      tag_278\n        /* \"#utility.yul\":10814:10817   */\n      dup5\n        /* \"#utility.yul\":10806:10812   */\n      dup3\n        /* \"#utility.yul\":10799:10803   */\n      0x20\n        /* \"#utility.yul\":10791:10797   */\n      dup7\n        /* \"#utility.yul\":10787:10804   */\n      add\n        /* \"#utility.yul\":10739:10818   */\n      tag_145\n      jump\t// in\n    tag_278:\n        /* \"#utility.yul\":10730:10818   */\n      swap2\n      pop\n        /* \"#utility.yul\":10546:10824   */\n      pop\n        /* \"#utility.yul\":10484:10824   */\n      swap3\n      swap2\n      pop\n      pop\n      jump\t// out\n        /* \"#utility.yul\":10830:10950   */\n    tag_147:\n        /* \"#utility.yul\":10902:10925   */\n      tag_280\n        /* \"#utility.yul\":10919:10924   */\n      dup2\n        /* \"#utility.yul\":10902:10925   */\n      tag_126\n      jump\t// in\n    tag_280:\n        /* \"#utility.yul\":10895:10900   */\n      dup2\n        /* \"#utility.yul\":10892:10926   */\n      eq\n        /* \"#utility.yul\":10882:10944   */\n      tag_281\n      jumpi\n        /* \"#utility.yul\":10940:10941   */\n      0x00\n        /* \"#utility.yul\":10937:10938   */\n      dup1\n        /* \"#utility.yul\":10930:10942   */\n      revert\n        /* \"#utility.yul\":10882:10944   */\n    tag_281:\n        /* \"#utility.yul\":10830:10950   */\n      pop\n      jump\t// out\n        /* \"#utility.yul\":10956:11093   */\n    tag_148:\n        /* \"#utility.yul\":11001:11006   */\n      0x00\n        /* \"#utility.yul\":11039:11045   */\n      dup2\n        /* \"#utility.yul\":11026:11046   */\n      calldataload\n        /* \"#utility.yul\":11017:11046   */\n      swap1\n      pop\n        /* \"#utility.yul\":11055:11087   */\n      tag_283\n        /* \"#utility.yul\":11081:11086   */\n      dup2\n        /* \"#utility.yul\":11055:11087   */\n      tag_147\n      jump\t// in\n    tag_283:\n        /* \"#utility.yul\":10956:11093   */\n      swap3\n      swap2\n      pop\n      pop\n      jump\t// out\n        /* \"#utility.yul\":11099:12366   */\n    tag_31:\n        /* \"#utility.yul\":11212:11218   */\n      0x00\n        /* \"#utility.yul\":11220:11226   */\n      dup1\n        /* \"#utility.yul\":11228:11234   */\n      0x00\n        /* \"#utility.yul\":11236:11242   */\n      dup1\n        /* \"#utility.yul\":11244:11250   */\n      0x00\n        /* \"#utility.yul\":11293:11296   */\n      0xa0\n        /* \"#utility.yul\":11281:11290   */\n      dup7\n        /* \"#utility.yul\":11272:11279   */\n      dup9\n        /* \"#utility.yul\":11268:11291   */\n      sub\n        /* \"#utility.yul\":11264:11297   */\n      slt\n        /* \"#utility.yul\":11261:11381   */\n      iszero\n      tag_285\n      jumpi\n        /* \"#utility.yul\":11300:11379   */\n      tag_286\n      tag_112\n      jump\t// in\n    tag_286:\n        /* \"#utility.yul\":11261:11381   */\n    tag_285:\n        /* \"#utility.yul\":11448:11449   */\n      0x00\n        /* \"#utility.yul\":11437:11446   */\n      dup7\n        /* \"#utility.yul\":11433:11450   */\n      add\n        /* \"#utility.yul\":11420:11451   */\n      calldataload\n        /* \"#utility.yul\":11478:11496   */\n      0xffffffffffffffff\n        /* \"#utility.yul\":11470:11476   */\n      dup2\n        /* \"#utility.yul\":11467:11497   */\n      gt\n        /* \"#utility.yul\":11464:11581   */\n      iszero\n      tag_287\n      jumpi\n        /* \"#utility.yul\":11500:11579   */\n      tag_288\n      tag_113\n      jump\t// in\n    tag_288:\n        /* \"#utility.yul\":11464:11581   */\n    tag_287:\n        /* \"#utility.yul\":11605:11668   */\n      tag_289\n        /* \"#utility.yul\":11660:11667   */\n      dup9\n        /* \"#utility.yul\":11651:11657   */\n      dup3\n        /* \"#utility.yul\":11640:11649   */\n      dup10\n        /* \"#utility.yul\":11636:11658   */\n      add\n        /* \"#utility.yul\":11605:11668   */\n      tag_146\n      jump\t// in\n    tag_289:\n        /* \"#utility.yul\":11595:11668   */\n      swap6\n      pop\n        /* \"#utility.yul\":11391:11678   */\n      pop\n        /* \"#utility.yul\":11745:11747   */\n      0x20\n        /* \"#utility.yul\":11734:11743   */\n      dup7\n        /* \"#utility.yul\":11730:11748   */\n      add\n        /* \"#utility.yul\":11717:11749   */\n      calldataload\n        /* \"#utility.yul\":11776:11794   */\n      0xffffffffffffffff\n        /* \"#utility.yul\":11768:11774   */\n      dup2\n        /* \"#utility.yul\":11765:11795   */\n      gt\n        /* \"#utility.yul\":11762:11879   */\n      iszero\n      tag_290\n      jumpi\n        /* \"#utility.yul\":11798:11877   */\n      tag_291\n      tag_113\n      jump\t// in\n    tag_291:\n        /* \"#utility.yul\":11762:11879   */\n    tag_290:\n        /* \"#utility.yul\":11903:11966   */\n      tag_292\n        /* \"#utility.yul\":11958:11965   */\n      dup9\n        /* \"#utility.yul\":11949:11955   */\n      dup3\n        /* \"#utility.yul\":11938:11947   */\n      dup10\n        /* \"#utility.yul\":11934:11956   */\n      add\n        /* \"#utility.yul\":11903:11966   */\n      tag_146\n      jump\t// in\n    tag_292:\n        /* \"#utility.yul\":11893:11966   */\n      swap5\n      pop\n        /* \"#utility.yul\":11688:11976   */\n      pop\n        /* \"#utility.yul\":12015:12017   */\n      0x40\n        /* \"#utility.yul\":12041:12094   */\n      tag_293\n        /* \"#utility.yul\":12086:12093   */\n      dup9\n        /* \"#utility.yul\":12077:12083   */\n      dup3\n        /* \"#utility.yul\":12066:12075   */\n      dup10\n        /* \"#utility.yul\":12062:12084   */\n      add\n        /* \"#utility.yul\":12041:12094   */\n      tag_116\n      jump\t// in\n    tag_293:\n        /* \"#utility.yul\":12031:12094   */\n      swap4\n      pop\n        /* \"#utility.yul\":11986:12104   */\n      pop\n        /* \"#utility.yul\":12143:12145   */\n      0x60\n        /* \"#utility.yul\":12169:12221   */\n      tag_294\n        /* \"#utility.yul\":12213:12220   */\n      dup9\n        /* \"#utility.yul\":12204:12210   */\n      dup3\n        /* \"#utility.yul\":12193:12202   */\n      dup10\n        /* \"#utility.yul\":12189:12211   */\n      add\n        /* \"#utility.yul\":12169:12221   */\n      tag_148\n      jump\t// in\n    tag_294:\n        /* \"#utility.yul\":12159:12221   */\n      swap3\n      pop\n        /* \"#utility.yul\":12114:12231   */\n      pop\n        /* \"#utility.yul\":12270:12273   */\n      0x80\n        /* \"#utility.yul\":12297:12349   */\n      tag_295\n        /* \"#utility.yul\":12341:12348   */\n      dup9\n        /* \"#utility.yul\":12332:12338   */\n      dup3\n        /* \"#utility.yul\":12321:12330   */\n      dup10\n        /* \"#utility.yul\":12317:12339   */\n      add\n        /* \"#utility.yul\":12297:12349   */\n      tag_148\n      jump\t// in\n    tag_295:\n        /* \"#utility.yul\":12287:12349   */\n      swap2\n      pop\n        /* \"#utility.yul\":12241:12359   */\n      pop\n        /* \"#utility.yul\":11099:12366   */\n      swap3\n      swap6\n      pop\n      swap3\n      swap6\n      swap1\n      swap4\n      pop\n      jump\t// out\n        /* \"#utility.yul\":12372:12490   */\n    tag_149:\n        /* \"#utility.yul\":12459:12483   */\n      tag_297\n        /* \"#utility.yul\":12477:12482   */\n      dup2\n        /* \"#utility.yul\":12459:12483   */\n      tag_119\n      jump\t// in\n    tag_297:\n        /* \"#utility.yul\":12454:12457   */\n      dup3\n        /* \"#utility.yul\":12447:12484   */\n      mstore\n        /* \"#utility.yul\":12372:12490   */\n      pop\n      pop\n      jump\t// out\n        /* \"#utility.yul\":12496:12665   */\n    tag_150:\n        /* \"#utility.yul\":12580:12591   */\n      0x00\n        /* \"#utility.yul\":12614:12620   */\n      dup3\n        /* \"#utility.yul\":12609:12612   */\n      dup3\n        /* \"#utility.yul\":12602:12621   */\n      mstore\n        /* \"#utility.yul\":12654:12658   */\n      0x20\n        /* \"#utility.yul\":12649:12652   */\n      dup3\n        /* \"#utility.yul\":12645:12659   */\n      add\n        /* \"#utility.yul\":12630:12659   */\n      swap1\n      pop\n        /* \"#utility.yul\":12496:12665   */\n      swap3\n      swap2\n      pop\n      pop\n      jump\t// out\n        /* \"#utility.yul\":12671:13048   */\n    tag_151:\n        /* \"#utility.yul\":12759:12762   */\n      0x00\n        /* \"#utility.yul\":12787:12826   */\n      tag_300\n        /* \"#utility.yul\":12820:12825   */\n      dup3\n        /* \"#utility.yul\":12787:12826   */\n      tag_121\n      jump\t// in\n    tag_300:\n        /* \"#utility.yul\":12842:12913   */\n      tag_301\n        /* \"#utility.yul\":12906:12912   */\n      dup2\n        /* \"#utility.yul\":12901:12904   */\n      dup6\n        /* \"#utility.yul\":12842:12913   */\n      tag_150\n      jump\t// in\n    tag_301:\n        /* \"#utility.yul\":12835:12913   */\n      swap4\n      pop\n        /* \"#utility.yul\":12922:12987   */\n      tag_302\n        /* \"#utility.yul\":12980:12986   */\n      dup2\n        /* \"#utility.yul\":12975:12978   */\n      dup6\n        /* \"#utility.yul\":12968:12972   */\n      0x20\n        /* \"#utility.yul\":12961:12966   */\n      dup7\n        /* \"#utility.yul\":12957:12973   */\n      add\n        /* \"#utility.yul\":12922:12987   */\n      tag_123\n      jump\t// in\n    tag_302:\n        /* \"#utility.yul\":13012:13041   */\n      tag_303\n        /* \"#utility.yul\":13034:13040   */\n      dup2\n        /* \"#utility.yul\":13012:13041   */\n      tag_124\n      jump\t// in\n    tag_303:\n        /* \"#utility.yul\":13007:13010   */\n      dup5\n        /* \"#utility.yul\":13003:13042   */\n      add\n        /* \"#utility.yul\":12996:13042   */\n      swap2\n      pop\n        /* \"#utility.yul\":12763:13048   */\n      pop\n        /* \"#utility.yul\":12671:13048   */\n      swap3\n      swap2\n      pop\n      pop\n      jump\t// out\n        /* \"#utility.yul\":13054:14114   */\n    tag_40:\n        /* \"#utility.yul\":13351:13355   */\n      0x00\n        /* \"#utility.yul\":13389:13392   */\n      0xe0\n        /* \"#utility.yul\":13378:13387   */\n      dup3\n        /* \"#utility.yul\":13374:13393   */\n      add\n        /* \"#utility.yul\":13366:13393   */\n      swap1\n      pop\n        /* \"#utility.yul\":13403:13474   */\n      tag_305\n        /* \"#utility.yul\":13471:13472   */\n      0x00\n        /* \"#utility.yul\":13460:13469   */\n      dup4\n        /* \"#utility.yul\":13456:13473   */\n      add\n        /* \"#utility.yul\":13447:13453   */\n      dup11\n        /* \"#utility.yul\":13403:13474   */\n      tag_136\n      jump\t// in\n    tag_305:\n        /* \"#utility.yul\":13484:13556   */\n      tag_306\n        /* \"#utility.yul\":13552:13554   */\n      0x20\n        /* \"#utility.yul\":13541:13550   */\n      dup4\n        /* \"#utility.yul\":13537:13555   */\n      add\n        /* \"#utility.yul\":13528:13534   */\n      dup10\n        /* \"#utility.yul\":13484:13556   */\n      tag_149\n      jump\t// in\n    tag_306:\n        /* \"#utility.yul\":13603:13612   */\n      dup2\n        /* \"#utility.yul\":13597:13601   */\n      dup2\n        /* \"#utility.yul\":13593:13613   */\n      sub\n        /* \"#utility.yul\":13588:13590   */\n      0x40\n        /* \"#utility.yul\":13577:13586   */\n      dup4\n        /* \"#utility.yul\":13573:13591   */\n      add\n        /* \"#utility.yul\":13566:13614   */\n      mstore\n        /* \"#utility.yul\":13631:13709   */\n      tag_307\n        /* \"#utility.yul\":13704:13708   */\n      dup2\n        /* \"#utility.yul\":13695:13701   */\n      dup9\n        /* \"#utility.yul\":13631:13709   */\n      tag_151\n      jump\t// in\n    tag_307:\n        /* \"#utility.yul\":13623:13709   */\n      swap1\n      pop\n        /* \"#utility.yul\":13719:13789   */\n      tag_308\n        /* \"#utility.yul\":13785:13787   */\n      0x60\n        /* \"#utility.yul\":13774:13783   */\n      dup4\n        /* \"#utility.yul\":13770:13788   */\n      add\n        /* \"#utility.yul\":13761:13767   */\n      dup8\n        /* \"#utility.yul\":13719:13789   */\n      tag_137\n      jump\t// in\n    tag_308:\n        /* \"#utility.yul\":13799:13870   */\n      tag_309\n        /* \"#utility.yul\":13865:13868   */\n      0x80\n        /* \"#utility.yul\":13854:13863   */\n      dup4\n        /* \"#utility.yul\":13850:13869   */\n      add\n        /* \"#utility.yul\":13841:13847   */\n      dup7\n        /* \"#utility.yul\":13799:13870   */\n      tag_137\n      jump\t// in\n    tag_309:\n        /* \"#utility.yul\":13918:13927   */\n      dup2\n        /* \"#utility.yul\":13912:13916   */\n      dup2\n        /* \"#utility.yul\":13908:13928   */\n      sub\n        /* \"#utility.yul\":13902:13905   */\n      0xa0\n        /* \"#utility.yul\":13891:13900   */\n      dup4\n        /* \"#utility.yul\":13887:13906   */\n      add\n        /* \"#utility.yul\":13880:13929   */\n      mstore\n        /* \"#utility.yul\":13946:14024   */\n      tag_310\n        /* \"#utility.yul\":14019:14023   */\n      dup2\n        /* \"#utility.yul\":14010:14016   */\n      dup6\n        /* \"#utility.yul\":13946:14024   */\n      tag_151\n      jump\t// in\n    tag_310:\n        /* \"#utility.yul\":13938:14024   */\n      swap1\n      pop\n        /* \"#utility.yul\":14034:14107   */\n      tag_311\n        /* \"#utility.yul\":14102:14105   */\n      0xc0\n        /* \"#utility.yul\":14091:14100   */\n      dup4\n        /* \"#utility.yul\":14087:14106   */\n      add\n        /* \"#utility.yul\":14078:14084   */\n      dup5\n        /* \"#utility.yul\":14034:14107   */\n      tag_136\n      jump\t// in\n    tag_311:\n        /* \"#utility.yul\":13054:14114   */\n      swap9\n      swap8\n      pop\n      pop\n      pop\n      pop\n      pop\n      pop\n      pop\n      pop\n      jump\t// out\n        /* \"#utility.yul\":14120:14300   */\n    tag_152:\n        /* \"#utility.yul\":14168:14245   */\n      0x4e487b7100000000000000000000000000000000000000000000000000000000\n        /* \"#utility.yul\":14165:14166   */\n      0x00\n        /* \"#utility.yul\":14158:14246   */\n      mstore\n        /* \"#utility.yul\":14265:14269   */\n      0x22\n        /* \"#utility.yul\":14262:14263   */\n      0x04\n        /* \"#utility.yul\":14255:14270   */\n      mstore\n        /* \"#utility.yul\":14289:14293   */\n      0x24\n        /* \"#utility.yul\":14286:14287   */\n      0x00\n        /* \"#utility.yul\":14279:14294   */\n      revert\n        /* \"#utility.yul\":14306:14626   */\n    tag_45:\n        /* \"#utility.yul\":14350:14356   */\n      0x00\n        /* \"#utility.yul\":14387:14388   */\n      0x02\n        /* \"#utility.yul\":14381:14385   */\n      dup3\n        /* \"#utility.yul\":14377:14389   */\n      div\n        /* \"#utility.yul\":14367:14389   */\n      swap1\n      pop\n        /* \"#utility.yul\":14434:14435   */\n      0x01\n        /* \"#utility.yul\":14428:14432   */\n      dup3\n        /* \"#utility.yul\":14424:14436   */\n      and\n        /* \"#utility.yul\":14455:14473   */\n      dup1\n        /* \"#utility.yul\":14445:14526   */\n      tag_314\n      jumpi\n        /* \"#utility.yul\":14511:14515   */\n      0x7f\n        /* \"#utility.yul\":14503:14509   */\n      dup3\n        /* \"#utility.yul\":14499:14516   */\n      and\n        /* \"#utility.yul\":14489:14516   */\n      swap2\n      pop\n        /* \"#utility.yul\":14445:14526   */\n    tag_314:\n        /* \"#utility.yul\":14573:14575   */\n      0x20\n        /* \"#utility.yul\":14565:14571   */\n      dup3\n        /* \"#utility.yul\":14562:14576   */\n      lt\n        /* \"#utility.yul\":14542:14560   */\n      dup2\n        /* \"#utility.yul\":14539:14577   */\n      sub\n        /* \"#utility.yul\":14536:14620   */\n      tag_315\n      jumpi\n        /* \"#utility.yul\":14592:14610   */\n      tag_316\n      tag_152\n      jump\t// in\n    tag_316:\n        /* \"#utility.yul\":14536:14620   */\n    tag_315:\n        /* \"#utility.yul\":14357:14626   */\n      pop\n        /* \"#utility.yul\":14306:14626   */\n      swap2\n      swap1\n      pop\n      jump\t// out\n        /* \"#utility.yul\":14632:14737   */\n    tag_153:\n        /* \"#utility.yul\":14668:14675   */\n      0x00\n        /* \"#utility.yul\":14708:14730   */\n      0xffffffffffffffffffff\n        /* \"#utility.yul\":14701:14706   */\n      dup3\n        /* \"#utility.yul\":14697:14731   */\n      and\n        /* \"#utility.yul\":14686:14731   */\n      swap1\n      pop\n        /* \"#utility.yul\":14632:14737   */\n      swap2\n      swap1\n      pop\n      jump\t// out\n        /* \"#utility.yul\":14743:14863   */\n    tag_154:\n        /* \"#utility.yul\":14815:14838   */\n      tag_319\n        /* \"#utility.yul\":14832:14837   */\n      dup2\n        /* \"#utility.yul\":14815:14838   */\n      tag_153\n      jump\t// in\n    tag_319:\n        /* \"#utility.yul\":14808:14813   */\n      dup2\n        /* \"#utility.yul\":14805:14839   */\n      eq\n        /* \"#utility.yul\":14795:14857   */\n      tag_320\n      jumpi\n        /* \"#utility.yul\":14853:14854   */\n      0x00\n        /* \"#utility.yul\":14850:14851   */\n      dup1\n        /* \"#utility.yul\":14843:14855   */\n      revert\n        /* \"#utility.yul\":14795:14857   */\n    tag_320:\n        /* \"#utility.yul\":14743:14863   */\n      pop\n      jump\t// out\n        /* \"#utility.yul\":14869:15010   */\n    tag_155:\n        /* \"#utility.yul\":14925:14930   */\n      0x00\n        /* \"#utility.yul\":14956:14962   */\n      dup2\n        /* \"#utility.yul\":14950:14963   */\n      mload\n        /* \"#utility.yul\":14941:14963   */\n      swap1\n      pop\n        /* \"#utility.yul\":14972:15004   */\n      tag_322\n        /* \"#utility.yul\":14998:15003   */\n      dup2\n        /* \"#utility.yul\":14972:15004   */\n      tag_154\n      jump\t// in\n    tag_322:\n        /* \"#utility.yul\":14869:15010   */\n      swap3\n      swap2\n      pop\n      pop\n      jump\t// out\n        /* \"#utility.yul\":15016:15157   */\n    tag_156:\n        /* \"#utility.yul\":15072:15077   */\n      0x00\n        /* \"#utility.yul\":15103:15109   */\n      dup2\n        /* \"#utility.yul\":15097:15110   */\n      mload\n        /* \"#utility.yul\":15088:15110   */\n      swap1\n      pop\n        /* \"#utility.yul\":15119:15151   */\n      tag_324\n        /* \"#utility.yul\":15145:15150   */\n      dup2\n        /* \"#utility.yul\":15119:15151   */\n      tag_147\n      jump\t// in\n    tag_324:\n        /* \"#utility.yul\":15016:15157   */\n      swap3\n      swap2\n      pop\n      pop\n      jump\t// out\n        /* \"#utility.yul\":15163:15306   */\n    tag_157:\n        /* \"#utility.yul\":15220:15225   */\n      0x00\n        /* \"#utility.yul\":15251:15257   */\n      dup2\n        /* \"#utility.yul\":15245:15258   */\n      mload\n        /* \"#utility.yul\":15236:15258   */\n      swap1\n      pop\n        /* \"#utility.yul\":15267:15300   */\n      tag_326\n        /* \"#utility.yul\":15294:15299   */\n      dup2\n        /* \"#utility.yul\":15267:15300   */\n      tag_115\n      jump\t// in\n    tag_326:\n        /* \"#utility.yul\":15163:15306   */\n      swap3\n      swap2\n      pop\n      pop\n      jump\t// out\n        /* \"#utility.yul\":15312:16283   */\n    tag_64:\n        /* \"#utility.yul\":15415:15421   */\n      0x00\n        /* \"#utility.yul\":15423:15429   */\n      dup1\n        /* \"#utility.yul\":15431:15437   */\n      0x00\n        /* \"#utility.yul\":15439:15445   */\n      dup1\n        /* \"#utility.yul\":15447:15453   */\n      0x00\n        /* \"#utility.yul\":15496:15499   */\n      0xa0\n        /* \"#utility.yul\":15484:15493   */\n      dup7\n        /* \"#utility.yul\":15475:15482   */\n      dup9\n        /* \"#utility.yul\":15471:15494   */\n      sub\n        /* \"#utility.yul\":15467:15500   */\n      slt\n        /* \"#utility.yul\":15464:15584   */\n      iszero\n      tag_328\n      jumpi\n        /* \"#utility.yul\":15503:15582   */\n      tag_329\n      tag_112\n      jump\t// in\n    tag_329:\n        /* \"#utility.yul\":15464:15584   */\n    tag_328:\n        /* \"#utility.yul\":15623:15624   */\n      0x00\n        /* \"#utility.yul\":15648:15711   */\n      tag_330\n        /* \"#utility.yul\":15703:15710   */\n      dup9\n        /* \"#utility.yul\":15694:15700   */\n      dup3\n        /* \"#utility.yul\":15683:15692   */\n      dup10\n        /* \"#utility.yul\":15679:15701   */\n      add\n        /* \"#utility.yul\":15648:15711   */\n      tag_155\n      jump\t// in\n    tag_330:\n        /* \"#utility.yul\":15638:15711   */\n      swap6\n      pop\n        /* \"#utility.yul\":15594:15721   */\n      pop\n        /* \"#utility.yul\":15760:15762   */\n      0x20\n        /* \"#utility.yul\":15786:15849   */\n      tag_331\n        /* \"#utility.yul\":15841:15848   */\n      dup9\n        /* \"#utility.yul\":15832:15838   */\n      dup3\n        /* \"#utility.yul\":15821:15830   */\n      dup10\n        /* \"#utility.yul\":15817:15839   */\n      add\n        /* \"#utility.yul\":15786:15849   */\n      tag_156\n      jump\t// in\n    tag_331:\n        /* \"#utility.yul\":15776:15849   */\n      swap5\n      pop\n        /* \"#utility.yul\":15731:15859   */\n      pop\n        /* \"#utility.yul\":15898:15900   */\n      0x40\n        /* \"#utility.yul\":15924:15988   */\n      tag_332\n        /* \"#utility.yul\":15980:15987   */\n      dup9\n        /* \"#utility.yul\":15971:15977   */\n      dup3\n        /* \"#utility.yul\":15960:15969   */\n      dup10\n        /* \"#utility.yul\":15956:15978   */\n      add\n        /* \"#utility.yul\":15924:15988   */\n      tag_157\n      jump\t// in\n    tag_332:\n        /* \"#utility.yul\":15914:15988   */\n      swap4\n      pop\n        /* \"#utility.yul\":15869:15998   */\n      pop\n        /* \"#utility.yul\":16037:16039   */\n      0x60\n        /* \"#utility.yul\":16063:16127   */\n      tag_333\n        /* \"#utility.yul\":16119:16126   */\n      dup9\n        /* \"#utility.yul\":16110:16116   */\n      dup3\n        /* \"#utility.yul\":16099:16108   */\n      dup10\n        /* \"#utility.yul\":16095:16117   */\n      add\n        /* \"#utility.yul\":16063:16127   */\n      tag_157\n      jump\t// in\n    tag_333:\n        /* \"#utility.yul\":16053:16127   */\n      swap3\n      pop\n        /* \"#utility.yul\":16008:16137   */\n      pop\n        /* \"#utility.yul\":16176:16179   */\n      0x80\n        /* \"#utility.yul\":16203:16266   */\n      tag_334\n        /* \"#utility.yul\":16258:16265   */\n      dup9\n        /* \"#utility.yul\":16249:16255   */\n      dup3\n        /* \"#utility.yul\":16238:16247   */\n      dup10\n        /* \"#utility.yul\":16234:16256   */\n      add\n        /* \"#utility.yul\":16203:16266   */\n      tag_155\n      jump\t// in\n    tag_334:\n        /* \"#utility.yul\":16193:16266   */\n      swap2\n      pop\n        /* \"#utility.yul\":16147:16276   */\n      pop\n        /* \"#utility.yul\":15312:16283   */\n      swap3\n      swap6\n      pop\n      swap3\n      swap6\n      swap1\n      swap4\n      pop\n      jump\t// out\n        /* \"#utility.yul\":16289:16430   */\n    tag_158:\n        /* \"#utility.yul\":16338:16342   */\n      0x00\n        /* \"#utility.yul\":16361:16364   */\n      dup2\n        /* \"#utility.yul\":16353:16364   */\n      swap1\n      pop\n        /* \"#utility.yul\":16384:16387   */\n      dup2\n        /* \"#utility.yul\":16381:16382   */\n      0x00\n        /* \"#utility.yul\":16374:16388   */\n      mstore\n        /* \"#utility.yul\":16418:16422   */\n      0x20\n        /* \"#utility.yul\":16415:16416   */\n      0x00\n        /* \"#utility.yul\":16405:16423   */\n      keccak256\n        /* \"#utility.yul\":16397:16423   */\n      swap1\n      pop\n        /* \"#utility.yul\":16289:16430   */\n      swap2\n      swap1\n      pop\n      jump\t// out\n        /* \"#utility.yul\":16436:16529   */\n    tag_159:\n        /* \"#utility.yul\":16473:16479   */\n      0x00\n        /* \"#utility.yul\":16520:16522   */\n      0x20\n        /* \"#utility.yul\":16515:16517   */\n      0x1f\n        /* \"#utility.yul\":16508:16513   */\n      dup4\n        /* \"#utility.yul\":16504:16518   */\n      add\n        /* \"#utility.yul\":16500:16523   */\n      div\n        /* \"#utility.yul\":16490:16523   */\n      swap1\n      pop\n        /* \"#utility.yul\":16436:16529   */\n      swap2\n      swap1\n      pop\n      jump\t// out\n        /* \"#utility.yul\":16535:16642   */\n    tag_160:\n        /* \"#utility.yul\":16579:16587   */\n      0x00\n        /* \"#utility.yul\":16629:16634   */\n      dup3\n        /* \"#utility.yul\":16623:16627   */\n      dup3\n        /* \"#utility.yul\":16619:16635   */\n      shl\n        /* \"#utility.yul\":16598:16635   */\n      swap1\n      pop\n        /* \"#utility.yul\":16535:16642   */\n      swap3\n      swap2\n      pop\n      pop\n      jump\t// out\n        /* \"#utility.yul\":16648:17041   */\n    tag_161:\n        /* \"#utility.yul\":16717:16723   */\n      0x00\n        /* \"#utility.yul\":16767:16768   */\n      0x08\n        /* \"#utility.yul\":16755:16765   */\n      dup4\n        /* \"#utility.yul\":16751:16769   */\n      mul\n        /* \"#utility.yul\":16790:16887   */\n      tag_339\n        /* \"#utility.yul\":16820:16886   */\n      0xffffffffffffffffffffffffffffffffffffffffffffffffffffffffffffffff\n        /* \"#utility.yul\":16809:16818   */\n      dup3\n        /* \"#utility.yul\":16790:16887   */\n      tag_160\n      jump\t// in\n    tag_339:\n        /* \"#utility.yul\":16908:16947   */\n      tag_340\n        /* \"#utility.yul\":16938:16946   */\n      dup7\n        /* \"#utility.yul\":16927:16936   */\n      dup4\n        /* \"#utility.yul\":16908:16947   */\n      tag_160\n      jump\t// in\n    tag_340:\n        /* \"#utility.yul\":16896:16947   */\n      swap6\n      pop\n        /* \"#utility.yul\":16980:16984   */\n      dup1\n        /* \"#utility.yul\":16976:16985   */\n      not\n        /* \"#utility.yul\":16969:16974   */\n      dup5\n        /* \"#utility.yul\":16965:16986   */\n      and\n        /* \"#utility.yul\":16956:16986   */\n      swap4\n      pop\n        /* \"#utility.yul\":17029:17033   */\n      dup1\n        /* \"#utility.yul\":17019:17027   */\n      dup7\n        /* \"#utility.yul\":17015:17034   */\n      and\n        /* \"#utility.yul\":17008:17013   */\n      dup5\n        /* \"#utility.yul\":17005:17035   */\n      or\n        /* \"#utility.yul\":16995:17035   */\n      swap3\n      pop\n        /* \"#utility.yul\":16724:17041   */\n      pop\n      pop\n        /* \"#utility.yul\":16648:17041   */\n      swap4\n      swap3\n      pop\n      pop\n      pop\n      jump\t// out\n        /* \"#utility.yul\":17047:17107   */\n    tag_162:\n        /* \"#utility.yul\":17075:17078   */\n      0x00\n        /* \"#utility.yul\":17096:17101   */\n      dup2\n        /* \"#utility.yul\":17089:17101   */\n      swap1\n      pop\n        /* \"#utility.yul\":17047:17107   */\n      swap2\n      swap1\n      pop\n      jump\t// out\n        /* \"#utility.yul\":17113:17255   */\n    tag_163:\n        /* \"#utility.yul\":17163:17172   */\n      0x00\n        /* \"#utility.yul\":17196:17249   */\n      tag_343\n        /* \"#utility.yul\":17214:17248   */\n      tag_344\n        /* \"#utility.yul\":17223:17247   */\n      tag_345\n        /* \"#utility.yul\":17241:17246   */\n      dup5\n        /* \"#utility.yul\":17223:17247   */\n      tag_114\n      jump\t// in\n    tag_345:\n        /* \"#utility.yul\":17214:17248   */\n      tag_162\n      jump\t// in\n    tag_344:\n        /* \"#utility.yul\":17196:17249   */\n      tag_114\n      jump\t// in\n    tag_343:\n        /* \"#utility.yul\":17183:17249   */\n      swap1\n      pop\n        /* \"#utility.yul\":17113:17255   */\n      swap2\n      swap1\n      pop\n      jump\t// out\n        /* \"#utility.yul\":17261:17336   */\n    tag_164:\n        /* \"#utility.yul\":17304:17307   */\n      0x00\n        /* \"#utility.yul\":17325:17330   */\n      dup2\n        /* \"#utility.yul\":17318:17330   */\n      swap1\n      pop\n        /* \"#utility.yul\":17261:17336   */\n      swap2\n      swap1\n      pop\n      jump\t// out\n        /* \"#utility.yul\":17342:17611   */\n    tag_165:\n        /* \"#utility.yul\":17452:17491   */\n      tag_348\n        /* \"#utility.yul\":17483:17490   */\n      dup4\n        /* \"#utility.yul\":17452:17491   */\n      tag_163\n      jump\t// in\n    tag_348:\n        /* \"#utility.yul\":17513:17604   */\n      tag_349\n        /* \"#utility.yul\":17562:17603   */\n      tag_350\n        /* \"#utility.yul\":17586:17602   */\n      dup3\n        /* \"#utility.yul\":17562:17603   */\n      tag_164\n      jump\t// in\n    tag_350:\n        /* \"#utility.yul\":17554:17560   */\n      dup5\n        /* \"#utility.yul\":17547:17551   */\n      dup5\n        /* \"#utility.yul\":17541:17552   */\n      sload\n        /* \"#utility.yul\":17513:17604   */\n      tag_161\n      jump\t// in\n    tag_349:\n        /* \"#utility.yul\":17507:17511   */\n      dup3\n        /* \"#utility.yul\":17500:17605   */\n      sstore\n        /* \"#utility.yul\":17418:17611   */\n      pop\n        /* \"#utility.yul\":17342:17611   */\n      pop\n      pop\n      pop\n      jump\t// out\n        /* \"#utility.yul\":17617:17690   */\n    tag_166:\n        /* \"#utility.yul\":17662:17665   */\n      0x00\n        /* \"#utility.yul\":17617:17690   */\n      swap1\n      jump\t// out\n        /* \"#utility.yul\":17696:17885   */\n    tag_167:\n        /* \"#utility.yul\":17773:17805   */\n      tag_353\n      tag_166\n      jump\t// in\n    tag_353:\n        /* \"#utility.yul\":17814:17879   */\n      tag_354\n        /* \"#utility.yul\":17872:17878   */\n      dup2\n        /* \"#utility.yul\":17864:17870   */\n      dup5\n        /* \"#utility.yul\":17858:17862   */\n      dup5\n        /* \"#utility.yul\":17814:17879   */\n      tag_165\n      jump\t// in\n    tag_354:\n        /* \"#utility.yul\":17749:17885   */\n      pop\n        /* \"#utility.yul\":17696:17885   */\n      pop\n      pop\n      jump\t// out\n        /* \"#utility.yul\":17891:18077   */\n    tag_168:\n        /* \"#utility.yul\":17951:18071   */\n    tag_356:\n        /* \"#utility.yul\":17968:17971   */\n      dup2\n        /* \"#utility.yul\":17961:17966   */\n      dup2\n        /* \"#utility.yul\":17958:17972   */\n      lt\n        /* \"#utility.yul\":17951:18071   */\n      iszero\n      tag_358\n      jumpi\n        /* \"#utility.yul\":18022:18061   */\n      tag_359\n        /* \"#utility.yul\":18059:18060   */\n      0x00\n        /* \"#utility.yul\":18052:18057   */\n      dup3\n        /* \"#utility.yul\":18022:18061   */\n      tag_167\n      jump\t// in\n    tag_359:\n        /* \"#utility.yul\":17995:17996   */\n      0x01\n        /* \"#utility.yul\":17988:17993   */\n      dup2\n        /* \"#utility.yul\":17984:17997   */\n      add\n        /* \"#utility.yul\":17975:17997   */\n      swap1\n      pop\n        /* \"#utility.yul\":17951:18071   */\n      jump(tag_356)\n    tag_358:\n        /* \"#utility.yul\":17891:18077   */\n      pop\n      pop\n      jump\t// out\n        /* \"#utility.yul\":18083:18626   */\n    tag_169:\n        /* \"#utility.yul\":18184:18186   */\n      0x1f\n        /* \"#utility.yul\":18179:18182   */\n      dup3\n        /* \"#utility.yul\":18176:18187   */\n      gt\n        /* \"#utility.yul\":18173:18619   */\n      iszero\n      tag_361\n      jumpi\n        /* \"#utility.yul\":18218:18256   */\n      tag_362\n        /* \"#utility.yul\":18250:18255   */\n      dup2\n        /* \"#utility.yul\":18218:18256   */\n      tag_158\n      jump\t// in\n    tag_362:\n        /* \"#utility.yul\":18302:18331   */\n      tag_363\n        /* \"#utility.yul\":18320:18330   */\n      dup5\n        /* \"#utility.yul\":18302:18331   */\n      tag_159\n      jump\t// in\n    tag_363:\n        /* \"#utility.yul\":18292:18300   */\n      dup2\n        /* \"#utility.yul\":18288:18332   */\n      add\n        /* \"#utility.yul\":18485:18487   */\n      0x20\n        /* \"#utility.yul\":18473:18483   */\n      dup6\n        /* \"#utility.yul\":18470:18488   */\n      lt\n        /* \"#utility.yul\":18467:18516   */\n      iszero\n      tag_364\n      jumpi\n        /* \"#utility.yul\":18506:18514   */\n      dup2\n        /* \"#utility.yul\":18491:18514   */\n      swap1\n      pop\n        /* \"#utility.yul\":18467:18516   */\n    tag_364:\n        /* \"#utility.yul\":18529:18609   */\n      tag_365\n        /* \"#utility.yul\":18585:18607   */\n      tag_366\n        /* \"#utility.yul\":18603:18606   */\n      dup6\n        /* \"#utility.yul\":18585:18607   */\n      tag_159\n      jump\t// in\n    tag_366:\n        /* \"#utility.yul\":18575:18583   */\n      dup4\n        /* \"#utility.yul\":18571:18608   */\n      add\n        /* \"#utility.yul\":18558:18569   */\n      dup3\n        /* \"#utility.yul\":18529:18609   */\n      tag_168\n      jump\t// in\n    tag_365:\n        /* \"#utility.yul\":18188:18619   */\n      pop\n      pop\n        /* \"#utility.yul\":18173:18619   */\n    tag_361:\n        /* \"#utility.yul\":18083:18626   */\n      pop\n      pop\n      pop\n      jump\t// out\n        /* \"#utility.yul\":18632:18749   */\n    tag_170:\n        /* \"#utility.yul\":18686:18694   */\n      0x00\n        /* \"#utility.yul\":18736:18741   */\n      dup3\n        /* \"#utility.yul\":18730:18734   */\n      dup3\n        /* \"#utility.yul\":18726:18742   */\n      shr\n        /* \"#utility.yul\":18705:18742   */\n      swap1\n      pop\n        /* \"#utility.yul\":18632:18749   */\n      swap3\n      swap2\n      pop\n      pop\n      jump\t// out\n        /* \"#utility.yul\":18755:18924   */\n    tag_171:\n        /* \"#utility.yul\":18799:18805   */\n      0x00\n        /* \"#utility.yul\":18832:18883   */\n      tag_369\n        /* \"#utility.yul\":18880:18881   */\n      0x00\n        /* \"#utility.yul\":18876:18882   */\n      not\n        /* \"#utility.yul\":18868:18873   */\n      dup5\n        /* \"#utility.yul\":18865:18866   */\n      0x08\n        /* \"#utility.yul\":18861:18874   */\n      mul\n        /* \"#utility.yul\":18832:18883   */\n      tag_170\n      jump\t// in\n    tag_369:\n        /* \"#utility.yul\":18828:18884   */\n      not\n        /* \"#utility.yul\":18913:18917   */\n      dup1\n        /* \"#utility.yul\":18907:18911   */\n      dup4\n        /* \"#utility.yul\":18903:18918   */\n      and\n        /* \"#utility.yul\":18893:18918   */\n      swap2\n      pop\n        /* \"#utility.yul\":18806:18924   */\n      pop\n        /* \"#utility.yul\":18755:18924   */\n      swap3\n      swap2\n      pop\n      pop\n      jump\t// out\n        /* \"#utility.yul\":18929:19224   */\n    tag_172:\n        /* \"#utility.yul\":19005:19009   */\n      0x00\n        /* \"#utility.yul\":19151:19180   */\n      tag_371\n        /* \"#utility.yul\":19176:19179   */\n      dup4\n        /* \"#utility.yul\":19170:19174   */\n      dup4\n        /* \"#utility.yul\":19151:19180   */\n      tag_171\n      jump\t// in\n    tag_371:\n        /* \"#utility.yul\":19143:19180   */\n      swap2\n      pop\n        /* \"#utility.yul\":19213:19216   */\n      dup3\n        /* \"#utility.yul\":19210:19211   */\n      0x02\n        /* \"#utility.yul\":19206:19217   */\n      mul\n        /* \"#utility.yul\":19200:19204   */\n      dup3\n        /* \"#utility.yul\":19197:19218   */\n      or\n        /* \"#utility.yul\":19189:19218   */\n      swap1\n      pop\n        /* \"#utility.yul\":18929:19224   */\n      swap3\n      swap2\n      pop\n      pop\n      jump\t// out\n        /* \"#utility.yul\":19229:20624   */\n    tag_67:\n        /* \"#utility.yul\":19346:19383   */\n      tag_373\n        /* \"#utility.yul\":19379:19382   */\n      dup3\n        /* \"#utility.yul\":19346:19383   */\n      tag_121\n      jump\t// in\n    tag_373:\n        /* \"#utility.yul\":19448:19466   */\n      0xffffffffffffffff\n        /* \"#utility.yul\":19440:19446   */\n      dup2\n        /* \"#utility.yul\":19437:19467   */\n      gt\n        /* \"#utility.yul\":19434:19490   */\n      iszero\n      tag_374\n      jumpi\n        /* \"#utility.yul\":19470:19488   */\n      tag_375\n      tag_140\n      jump\t// in\n    tag_375:\n        /* \"#utility.yul\":19434:19490   */\n    tag_374:\n        /* \"#utility.yul\":19514:19552   */\n      tag_376\n        /* \"#utility.yul\":19546:19550   */\n      dup3\n        /* \"#utility.yul\":19540:19551   */\n      sload\n        /* \"#utility.yul\":19514:19552   */\n      tag_45\n      jump\t// in\n    tag_376:\n        /* \"#utility.yul\":19599:19666   */\n      tag_377\n        /* \"#utility.yul\":19659:19665   */\n      dup3\n        /* \"#utility.yul\":19651:19657   */\n      dup3\n        /* \"#utility.yul\":19645:19649   */\n      dup6\n        /* \"#utility.yul\":19599:19666   */\n      tag_169\n      jump\t// in\n    tag_377:\n        /* \"#utility.yul\":19693:19694   */\n      0x00\n        /* \"#utility.yul\":19717:19721   */\n      0x20\n        /* \"#utility.yul\":19704:19721   */\n      swap1\n      pop\n        /* \"#utility.yul\":19749:19751   */\n      0x1f\n        /* \"#utility.yul\":19741:19747   */\n      dup4\n        /* \"#utility.yul\":19738:19752   */\n      gt\n        /* \"#utility.yul\":19766:19767   */\n      0x01\n        /* \"#utility.yul\":19761:20379   */\n      dup2\n      eq\n      tag_379\n      jumpi\n        /* \"#utility.yul\":20423:20424   */\n      0x00\n        /* \"#utility.yul\":20440:20446   */\n      dup5\n        /* \"#utility.yul\":20437:20514   */\n      iszero\n      tag_380\n      jumpi\n        /* \"#utility.yul\":20489:20498   */\n      dup3\n        /* \"#utility.yul\":20484:20487   */\n      dup8\n        /* \"#utility.yul\":20480:20499   */\n      add\n        /* \"#utility.yul\":20474:20500   */\n      mload\n        /* \"#utility.yul\":20465:20500   */\n      swap1\n      pop\n        /* \"#utility.yul\":20437:20514   */\n    tag_380:\n        /* \"#utility.yul\":20540:20607   */\n      tag_381\n        /* \"#utility.yul\":20600:20606   */\n      dup6\n        /* \"#utility.yul\":20593:20598   */\n      dup3\n        /* \"#utility.yul\":20540:20607   */\n      tag_172\n      jump\t// in\n    tag_381:\n        /* \"#utility.yul\":20534:20538   */\n      dup7\n        /* \"#utility.yul\":20527:20608   */\n      sstore\n        /* \"#utility.yul\":20396:20618   */\n      pop\n        /* \"#utility.yul\":19731:20618   */\n      jump(tag_378)\n        /* \"#utility.yul\":19761:20379   */\n    tag_379:\n        /* \"#utility.yul\":19813:19817   */\n      0x1f\n        /* \"#utility.yul\":19809:19818   */\n      not\n        /* \"#utility.yul\":19801:19807   */\n      dup5\n        /* \"#utility.yul\":19797:19819   */\n      and\n        /* \"#utility.yul\":19847:19884   */\n      tag_382\n        /* \"#utility.yul\":19879:19883   */\n      dup7\n        /* \"#utility.yul\":19847:19884   */\n      tag_158\n      jump\t// in\n    tag_382:\n        /* \"#utility.yul\":19906:19907   */\n      0x00\n        /* \"#utility.yul\":19920:20128   */\n    tag_383:\n        /* \"#utility.yul\":19934:19941   */\n      dup3\n        /* \"#utility.yul\":19931:19932   */\n      dup2\n        /* \"#utility.yul\":19928:19942   */\n      lt\n        /* \"#utility.yul\":19920:20128   */\n      iszero\n      tag_385\n      jumpi\n        /* \"#utility.yul\":20013:20022   */\n      dup5\n        /* \"#utility.yul\":20008:20011   */\n      dup10\n        /* \"#utility.yul\":20004:20023   */\n      add\n        /* \"#utility.yul\":19998:20024   */\n      mload\n        /* \"#utility.yul\":19990:19996   */\n      dup3\n        /* \"#utility.yul\":19983:20025   */\n      sstore\n        /* \"#utility.yul\":20064:20065   */\n      0x01\n        /* \"#utility.yul\":20056:20062   */\n      dup3\n        /* \"#utility.yul\":20052:20066   */\n      add\n        /* \"#utility.yul\":20042:20066   */\n      swap2\n      pop\n        /* \"#utility.yul\":20111:20113   */\n      0x20\n        /* \"#utility.yul\":20100:20109   */\n      dup6\n        /* \"#utility.yul\":20096:20114   */\n      add\n        /* \"#utility.yul\":20083:20114   */\n      swap5\n      pop\n        /* \"#utility.yul\":19957:19961   */\n      0x20\n        /* \"#utility.yul\":19954:19955   */\n      dup2\n        /* \"#utility.yul\":19950:19962   */\n      add\n        /* \"#utility.yul\":19945:19962   */\n      swap1\n      pop\n        /* \"#utility.yul\":19920:20128   */\n      jump(tag_383)\n    tag_385:\n        /* \"#utility.yul\":20156:20162   */\n      dup7\n        /* \"#utility.yul\":20147:20154   */\n      dup4\n        /* \"#utility.yul\":20144:20163   */\n      lt\n        /* \"#utility.yul\":20141:20320   */\n      iszero\n      tag_386\n      jumpi\n        /* \"#utility.yul\":20214:20223   */\n      dup5\n        /* \"#utility.yul\":20209:20212   */\n      dup10\n        /* \"#utility.yul\":20205:20224   */\n      add\n        /* \"#utility.yul\":20199:20225   */\n      mload\n        /* \"#utility.yul\":20257:20305   */\n      tag_387\n        /* \"#utility.yul\":20299:20303   */\n      0x1f\n        /* \"#utility.yul\":20291:20297   */\n      dup10\n        /* \"#utility.yul\":20287:20304   */\n      and\n        /* \"#utility.yul\":20276:20285   */\n      dup3\n        /* \"#utility.yul\":20257:20305   */\n      tag_171\n      jump\t// in\n    tag_387:\n        /* \"#utility.yul\":20249:20255   */\n      dup4\n        /* \"#utility.yul\":20242:20306   */\n      sstore\n        /* \"#utility.yul\":20164:20320   */\n      pop\n        /* \"#utility.yul\":20141:20320   */\n    tag_386:\n        /* \"#utility.yul\":20366:20367   */\n      0x01\n        /* \"#utility.yul\":20362:20363   */\n      0x02\n        /* \"#utility.yul\":20354:20360   */\n      dup9\n        /* \"#utility.yul\":20350:20364   */\n      mul\n        /* \"#utility.yul\":20346:20368   */\n      add\n        /* \"#utility.yul\":20340:20344   */\n      dup9\n        /* \"#utility.yul\":20333:20369   */\n      sstore\n        /* \"#utility.yul\":19768:20379   */\n      pop\n      pop\n      pop\n        /* \"#utility.yul\":19731:20618   */\n    tag_378:\n      pop\n        /* \"#utility.yul\":19321:20624   */\n      pop\n      pop\n      pop\n        /* \"#utility.yul\":19229:20624   */\n      pop\n      pop\n      jump\t// out\n        /* \"#utility.yul\":20630:20943   */\n    tag_70:\n        /* \"#utility.yul\":20743:20747   */\n      0x00\n        /* \"#utility.yul\":20781:20783   */\n      0x20\n        /* \"#utility.yul\":20770:20779   */\n      dup3\n        /* \"#utility.yul\":20766:20784   */\n      add\n        /* \"#utility.yul\":20758:20784   */\n      swap1\n      pop\n        /* \"#utility.yul\":20830:20839   */\n      dup2\n        /* \"#utility.yul\":20824:20828   */\n      dup2\n        /* \"#utility.yul\":20820:20840   */\n      sub\n        /* \"#utility.yul\":20816:20817   */\n      0x00\n        /* \"#utility.yul\":20805:20814   */\n      dup4\n        /* \"#utility.yul\":20801:20818   */\n      add\n        /* \"#utility.yul\":20794:20841   */\n      mstore\n        /* \"#utility.yul\":20858:20936   */\n      tag_389\n        /* \"#utility.yul\":20931:20935   */\n      dup2\n        /* \"#utility.yul\":20922:20928   */\n      dup5\n        /* \"#utility.yul\":20858:20936   */\n      tag_151\n      jump\t// in\n    tag_389:\n        /* \"#utility.yul\":20850:20936   */\n      swap1\n      pop\n        /* \"#utility.yul\":20630:20943   */\n      swap3\n      swap2\n      pop\n      pop\n      jump\t// out\n        /* \"#utility.yul\":20949:21129   */\n    tag_173:\n        /* \"#utility.yul\":20997:21074   */\n      0x4e487b7100000000000000000000000000000000000000000000000000000000\n        /* \"#utility.yul\":20994:20995   */\n      0x00\n        /* \"#utility.yul\":20987:21075   */\n      mstore\n        /* \"#utility.yul\":21094:21098   */\n      0x11\n        /* \"#utility.yul\":21091:21092   */\n      0x04\n        /* \"#utility.yul\":21084:21099   */\n      mstore\n        /* \"#utility.yul\":21118:21122   */\n      0x24\n        /* \"#utility.yul\":21115:21116   */\n      0x00\n        /* \"#utility.yul\":21108:21123   */\n      revert\n        /* \"#utility.yul\":21135:21368   */\n    tag_72:\n        /* \"#utility.yul\":21174:21177   */\n      0x00\n        /* \"#utility.yul\":21197:21221   */\n      tag_392\n        /* \"#utility.yul\":21215:21220   */\n      dup3\n        /* \"#utility.yul\":21197:21221   */\n      tag_114\n      jump\t// in\n    tag_392:\n        /* \"#utility.yul\":21188:21221   */\n      swap2\n      pop\n        /* \"#utility.yul\":21243:21309   */\n      0xffffffffffffffffffffffffffffffffffffffffffffffffffffffffffffffff\n        /* \"#utility.yul\":21236:21241   */\n      dup3\n        /* \"#utility.yul\":21233:21310   */\n      sub\n        /* \"#utility.yul\":21230:21333   */\n      tag_393\n      jumpi\n        /* \"#utility.yul\":21313:21331   */\n      tag_394\n      tag_173\n      jump\t// in\n    tag_394:\n        /* \"#utility.yul\":21230:21333   */\n    tag_393:\n        /* \"#utility.yul\":21360:21361   */\n      0x01\n        /* \"#utility.yul\":21353:21358   */\n      dup3\n        /* \"#utility.yul\":21349:21362   */\n      add\n        /* \"#utility.yul\":21342:21362   */\n      swap1\n      pop\n        /* \"#utility.yul\":21135:21368   */\n      swap2\n      swap1\n      pop\n      jump\t// out\n        /* \"#utility.yul\":21374:21600   */\n    tag_174:\n        /* \"#utility.yul\":21514:21548   */\n      0x596f7520617265206e6f7420746865206f776e6572206f662074686973207072\n        /* \"#utility.yul\":21510:21511   */\n      0x00\n        /* \"#utility.yul\":21502:21508   */\n      dup3\n        /* \"#utility.yul\":21498:21512   */\n      add\n        /* \"#utility.yul\":21491:21549   */\n      mstore\n        /* \"#utility.yul\":21583:21592   */\n      0x6f70657274792e00000000000000000000000000000000000000000000000000\n        /* \"#utility.yul\":21578:21580   */\n      0x20\n        /* \"#utility.yul\":21570:21576   */\n      dup3\n        /* \"#utility.yul\":21566:21581   */\n      add\n        /* \"#utility.yul\":21559:21593   */\n      mstore\n        /* \"#utility.yul\":21374:21600   */\n      pop\n      jump\t// out\n        /* \"#utility.yul\":21606:21972   */\n    tag_175:\n        /* \"#utility.yul\":21748:21751   */\n      0x00\n        /* \"#utility.yul\":21769:21836   */\n      tag_397\n        /* \"#utility.yul\":21833:21835   */\n      0x27\n        /* \"#utility.yul\":21828:21831   */\n      dup4\n        /* \"#utility.yul\":21769:21836   */\n      tag_150\n      jump\t// in\n    tag_397:\n        /* \"#utility.yul\":21762:21836   */\n      swap2\n      pop\n        /* \"#utility.yul\":21845:21938   */\n      tag_398\n        /* \"#utility.yul\":21934:21937   */\n      dup3\n        /* \"#utility.yul\":21845:21938   */\n      tag_174\n      jump\t// in\n    tag_398:\n        /* \"#utility.yul\":21963:21965   */\n      0x40\n        /* \"#utility.yul\":21958:21961   */\n      dup3\n        /* \"#utility.yul\":21954:21966   */\n      add\n        /* \"#utility.yul\":21947:21966   */\n      swap1\n      pop\n        /* \"#utility.yul\":21606:21972   */\n      swap2\n      swap1\n      pop\n      jump\t// out\n        /* \"#utility.yul\":21978:22397   */\n    tag_76:\n        /* \"#utility.yul\":22144:22148   */\n      0x00\n        /* \"#utility.yul\":22182:22184   */\n      0x20\n        /* \"#utility.yul\":22171:22180   */\n      dup3\n        /* \"#utility.yul\":22167:22185   */\n      add\n        /* \"#utility.yul\":22159:22185   */\n      swap1\n      pop\n        /* \"#utility.yul\":22231:22240   */\n      dup2\n        /* \"#utility.yul\":22225:22229   */\n      dup2\n        /* \"#utility.yul\":22221:22241   */\n      sub\n        /* \"#utility.yul\":22217:22218   */\n      0x00\n        /* \"#utility.yul\":22206:22215   */\n      dup4\n        /* \"#utility.yul\":22202:22219   */\n      add\n        /* \"#utility.yul\":22195:22242   */\n      mstore\n        /* \"#utility.yul\":22259:22390   */\n      tag_400\n        /* \"#utility.yul\":22385:22389   */\n      dup2\n        /* \"#utility.yul\":22259:22390   */\n      tag_175\n      jump\t// in\n    tag_400:\n        /* \"#utility.yul\":22251:22390   */\n      swap1\n      pop\n        /* \"#utility.yul\":21978:22397   */\n      swap2\n      swap1\n      pop\n      jump\t// out\n        /* \"#utility.yul\":22403:22572   */\n    tag_176:\n        /* \"#utility.yul\":22543:22564   */\n      0x496e76616c69642070726f706572747920494400000000000000000000000000\n        /* \"#utility.yul\":22539:22540   */\n      0x00\n        /* \"#utility.yul\":22531:22537   */\n      dup3\n        /* \"#utility.yul\":22527:22541   */\n      add\n        /* \"#utility.yul\":22520:22565   */\n      mstore\n        /* \"#utility.yul\":22403:22572   */\n      pop\n      jump\t// out\n        /* \"#utility.yul\":22578:22944   */\n    tag_177:\n        /* \"#utility.yul\":22720:22723   */\n      0x00\n        /* \"#utility.yul\":22741:22808   */\n      tag_403\n        /* \"#utility.yul\":22805:22807   */\n      0x13\n        /* \"#utility.yul\":22800:22803   */\n      dup4\n        /* \"#utility.yul\":22741:22808   */\n      tag_150\n      jump\t// in\n    tag_403:\n        /* \"#utility.yul\":22734:22808   */\n      swap2\n      pop\n        /* \"#utility.yul\":22817:22910   */\n      tag_404\n        /* \"#utility.yul\":22906:22909   */\n      dup3\n        /* \"#utility.yul\":22817:22910   */\n      tag_176\n      jump\t// in\n    tag_404:\n        /* \"#utility.yul\":22935:22937   */\n      0x20\n        /* \"#utility.yul\":22930:22933   */\n      dup3\n        /* \"#utility.yul\":22926:22938   */\n      add\n        /* \"#utility.yul\":22919:22938   */\n      swap1\n      pop\n        /* \"#utility.yul\":22578:22944   */\n      swap2\n      swap1\n      pop\n      jump\t// out\n        /* \"#utility.yul\":22950:23369   */\n    tag_80:\n        /* \"#utility.yul\":23116:23120   */\n      0x00\n        /* \"#utility.yul\":23154:23156   */\n      0x20\n        /* \"#utility.yul\":23143:23152   */\n      dup3\n        /* \"#utility.yul\":23139:23157   */\n      add\n        /* \"#utility.yul\":23131:23157   */\n      swap1\n      pop\n        /* \"#utility.yul\":23203:23212   */\n      dup2\n        /* \"#utility.yul\":23197:23201   */\n      dup2\n        /* \"#utility.yul\":23193:23213   */\n      sub\n        /* \"#utility.yul\":23189:23190   */\n      0x00\n        /* \"#utility.yul\":23178:23187   */\n      dup4\n        /* \"#utility.yul\":23174:23191   */\n      add\n        /* \"#utility.yul\":23167:23214   */\n      mstore\n        /* \"#utility.yul\":23231:23362   */\n      tag_406\n        /* \"#utility.yul\":23357:23361   */\n      dup2\n        /* \"#utility.yul\":23231:23362   */\n      tag_177\n      jump\t// in\n    tag_406:\n        /* \"#utility.yul\":23223:23362   */\n      swap1\n      pop\n        /* \"#utility.yul\":22950:23369   */\n      swap2\n      swap1\n      pop\n      jump\t// out\n        /* \"#utility.yul\":23375:23546   */\n    tag_88:\n        /* \"#utility.yul\":23414:23417   */\n      0x00\n        /* \"#utility.yul\":23437:23461   */\n      tag_408\n        /* \"#utility.yul\":23455:23460   */\n      dup3\n        /* \"#utility.yul\":23437:23461   */\n      tag_114\n      jump\t// in\n    tag_408:\n        /* \"#utility.yul\":23428:23461   */\n      swap2\n      pop\n        /* \"#utility.yul\":23483:23487   */\n      0x00\n        /* \"#utility.yul\":23476:23481   */\n      dup3\n        /* \"#utility.yul\":23473:23488   */\n      sub\n        /* \"#utility.yul\":23470:23511   */\n      tag_409\n      jumpi\n        /* \"#utility.yul\":23491:23509   */\n      tag_410\n      tag_173\n      jump\t// in\n    tag_410:\n        /* \"#utility.yul\":23470:23511   */\n    tag_409:\n        /* \"#utility.yul\":23538:23539   */\n      0x01\n        /* \"#utility.yul\":23531:23536   */\n      dup3\n        /* \"#utility.yul\":23527:23540   */\n      sub\n        /* \"#utility.yul\":23520:23540   */\n      swap1\n      pop\n        /* \"#utility.yul\":23375:23546   */\n      swap2\n      swap1\n      pop\n      jump\t// out\n\n    auxdata: 0xa2646970667358221220891584bf87a0e9974ac12b2cb1818224d22260773df096870cdf7290b514bf0864736f6c63430008190033\n}\n",
				"bytecode": {
					"linkReferences": {},
					"object": "6080604052348015600e575f80fd5b50735fb1616f78da7afc9ff79e0371741a747d2a7f225f806101000a81548173ffffffffffffffffffffffffffffffffffffffff021916908373ffffffffffffffffffffffffffffffffffffffff1602179055506115f18061006f5f395ff3fe608060405234801561000f575f80fd5b506004361061007b575f3560e01c80638e15f473116100595780638e15f473146100e9578063abdb64d414610107578063bc43d06f14610123578063f7b108081461013f5761007b565b806332665ffb1461007f57806339500f34146100af5780636989a649146100cd575b5f80fd5b61009960048036038101906100949190610a3b565b610175565b6040516100a69190610ccc565b60405180910390f35b6100b76103ac565b6040516100c49190610cfb565b60405180910390f35b6100e760048036038101906100e29190610d14565b6103b2565b005b6100f161041a565b6040516100fe9190610d73565b60405180910390f35b610121600480360381019061011c9190610ee2565b6104c1565b005b61013d60048036038101906101389190610a3b565b6105d2565b005b61015960048036038101906101549190610a3b565b61079b565b60405161016c9796959493929190610fe8565b60405180910390f35b61017d610904565b60015f8381526020019081526020015f20604051806101000160405290815f8201548152602001600182015f9054906101000a900473ffffffffffffffffffffffffffffffffffffffff1673ffffffffffffffffffffffffffffffffffffffff1673ffffffffffffffffffffffffffffffffffffffff16815260200160028201805461020890611090565b80601f016020809104026020016040519081016040528092919081815260200182805461023490611090565b801561027f5780601f106102565761010080835404028352916020019161027f565b820191905f5260205f20905b81548152906001019060200180831161026257829003601f168201915b5050505050815260200160038201548152602001600482015481526020016005820180546102ac90611090565b80601f01602080910402602001604051908101604052809291908181526020018280546102d890611090565b80156103235780601f106102fa57610100808354040283529160200191610323565b820191905f5260205f20905b81548152906001019060200180831161030657829003601f168201915b505050505081526020016006820154815260200160078201805480602002602001604051908101604052809291908181526020015f905b8282101561039d578382905f5260205f2090600202016040518060400160405290815f82015481526020016001820154815250508152602001906001019061035a565b50505050815250509050919050565b60025481565b60015f8481526020019081526020015f20600701604051806040016040528084815260200183815250908060018154018082558091505060019003905f5260205f2090600202015f909190919091505f820151815f0155602082015181600101555050505050565b5f805f805f805f8054906101000a900473ffffffffffffffffffffffffffffffffffffffff1673ffffffffffffffffffffffffffffffffffffffff1663feaf968c6040518163ffffffff1660e01b815260040160a060405180830381865afa158015610488573d5f803e3d5ffd5b505050506040513d601f19601f820116820180604052508101906104ac9190611127565b94509450945094509450839550505050505090565b5f60015f60025481526020019081526020015f209050600254815f018190555033816001015f6101000a81548173ffffffffffffffffffffffffffffffffffffffff021916908373ffffffffffffffffffffffffffffffffffffffff16021790555085816002019081610534919061133b565b5082816003018190555081816004018190555084816005019081610558919061133b565b508381600601819055503373ffffffffffffffffffffffffffffffffffffffff166002547f92f2b8d9ae69a40be928a502c6bcc369ce8a0b2e902151bb63909295f4ce749e886040516105ab919061140a565b60405180910390a360025f8154809291906105c590611457565b9190505550505050505050565b803373ffffffffffffffffffffffffffffffffffffffff1660015f8381526020019081526020015f206001015f9054906101000a900473ffffffffffffffffffffffffffffffffffffffff1673ffffffffffffffffffffffffffffffffffffffff1614610674576040517f08c379a000000000000000000000000000000000000000000000000000000000815260040161066b9061150e565b60405180910390fd5b8160025481106106b9576040517f08c379a00000000000000000000000000000000000000000000000000000000081526004016106b090611576565b60405180910390fd5b3373ffffffffffffffffffffffffffffffffffffffff16837f3b11f341dfbadfb1b92ff5b9bf7c88094058c008e6b67c47ae29f690a30beb6960405160405180910390a360015f8481526020019081526020015f205f8082015f9055600182015f6101000a81549073ffffffffffffffffffffffffffffffffffffffff0219169055600282015f61074a919061095a565b600382015f9055600482015f9055600582015f610767919061095a565b600682015f9055600782015f61077d9190610997565b505060025f81548092919061079190611594565b9190505550505050565b6001602052805f5260405f205f91509050805f015490806001015f9054906101000a900473ffffffffffffffffffffffffffffffffffffffff16908060020180546107e590611090565b80601f016020809104026020016040519081016040528092919081815260200182805461081190611090565b801561085c5780601f106108335761010080835404028352916020019161085c565b820191905f5260205f20905b81548152906001019060200180831161083f57829003601f168201915b50505050509080600301549080600401549080600501805461087d90611090565b80601f01602080910402602001604051908101604052809291908181526020018280546108a990611090565b80156108f45780601f106108cb576101008083540402835291602001916108f4565b820191905f5260205f20905b8154815290600101906020018083116108d757829003601f168201915b5050505050908060060154905087565b6040518061010001604052805f81526020015f73ffffffffffffffffffffffffffffffffffffffff168152602001606081526020015f81526020015f8152602001606081526020015f8152602001606081525090565b50805461096690611090565b5f825580601f106109775750610994565b601f0160209004905f5260205f209081019061099391906109b8565b5b50565b5080545f8255600202905f5260205f20908101906109b591906109d3565b50565b5b808211156109cf575f815f9055506001016109b9565b5090565b5b808211156109f3575f8082015f9055600182015f9055506002016109d4565b5090565b5f604051905090565b5f80fd5b5f80fd5b5f819050919050565b610a1a81610a08565b8114610a24575f80fd5b50565b5f81359050610a3581610a11565b92915050565b5f60208284031215610a5057610a4f610a00565b5b5f610a5d84828501610a27565b91505092915050565b610a6f81610a08565b82525050565b5f73ffffffffffffffffffffffffffffffffffffffff82169050919050565b5f610a9e82610a75565b9050919050565b610aae81610a94565b82525050565b5f81519050919050565b5f82825260208201905092915050565b8281835e5f83830152505050565b5f601f19601f8301169050919050565b5f610af682610ab4565b610b008185610abe565b9350610b10818560208601610ace565b610b1981610adc565b840191505092915050565b5f819050919050565b610b3681610b24565b82525050565b5f81519050919050565b5f82825260208201905092915050565b5f819050602082019050919050565b604082015f820151610b795f850182610a66565b506020820151610b8c6020850182610a66565b50505050565b5f610b9d8383610b65565b60408301905092915050565b5f602082019050919050565b5f610bbf82610b3c565b610bc98185610b46565b9350610bd483610b56565b805f5b83811015610c04578151610beb8882610b92565b9750610bf683610ba9565b925050600181019050610bd7565b5085935050505092915050565b5f61010083015f830151610c275f860182610a66565b506020830151610c3a6020860182610aa5565b5060408301518482036040860152610c528282610aec565b9150506060830151610c676060860182610b2d565b506080830151610c7a6080860182610b2d565b5060a083015184820360a0860152610c928282610aec565b91505060c0830151610ca760c0860182610a66565b5060e083015184820360e0860152610cbf8282610bb5565b9150508091505092915050565b5f6020820190508181035f830152610ce48184610c11565b905092915050565b610cf581610a08565b82525050565b5f602082019050610d0e5f830184610cec565b92915050565b5f805f60608486031215610d2b57610d2a610a00565b5b5f610d3886828701610a27565b9350506020610d4986828701610a27565b9250506040610d5a86828701610a27565b9150509250925092565b610d6d81610b24565b82525050565b5f602082019050610d865f830184610d64565b92915050565b5f80fd5b5f80fd5b7f4e487b71000000000000000000000000000000000000000000000000000000005f52604160045260245ffd5b610dca82610adc565b810181811067ffffffffffffffff82111715610de957610de8610d94565b5b80604052505050565b5f610dfb6109f7565b9050610e078282610dc1565b919050565b5f67ffffffffffffffff821115610e2657610e25610d94565b5b610e2f82610adc565b9050602081019050919050565b828183375f83830152505050565b5f610e5c610e5784610e0c565b610df2565b905082815260208101848484011115610e7857610e77610d90565b5b610e83848285610e3c565b509392505050565b5f82601f830112610e9f57610e9e610d8c565b5b8135610eaf848260208601610e4a565b91505092915050565b610ec181610b24565b8114610ecb575f80fd5b50565b5f81359050610edc81610eb8565b92915050565b5f805f805f60a08688031215610efb57610efa610a00565b5b5f86013567ffffffffffffffff811115610f1857610f17610a04565b5b610f2488828901610e8b565b955050602086013567ffffffffffffffff811115610f4557610f44610a04565b5b610f5188828901610e8b565b9450506040610f6288828901610a27565b9350506060610f7388828901610ece565b9250506080610f8488828901610ece565b9150509295509295909350565b610f9a81610a94565b82525050565b5f82825260208201905092915050565b5f610fba82610ab4565b610fc48185610fa0565b9350610fd4818560208601610ace565b610fdd81610adc565b840191505092915050565b5f60e082019050610ffb5f83018a610cec565b6110086020830189610f91565b818103604083015261101a8188610fb0565b90506110296060830187610d64565b6110366080830186610d64565b81810360a08301526110488185610fb0565b905061105760c0830184610cec565b98975050505050505050565b7f4e487b71000000000000000000000000000000000000000000000000000000005f52602260045260245ffd5b5f60028204905060018216806110a757607f821691505b6020821081036110ba576110b9611063565b5b50919050565b5f69ffffffffffffffffffff82169050919050565b6110de816110c0565b81146110e8575f80fd5b50565b5f815190506110f9816110d5565b92915050565b5f8151905061110d81610eb8565b92915050565b5f8151905061112181610a11565b92915050565b5f805f805f60a086880312156111405761113f610a00565b5b5f61114d888289016110eb565b955050602061115e888289016110ff565b945050604061116f88828901611113565b935050606061118088828901611113565b9250506080611191888289016110eb565b9150509295509295909350565b5f819050815f5260205f209050919050565b5f6020601f8301049050919050565b5f82821b905092915050565b5f600883026111fa7fffffffffffffffffffffffffffffffffffffffffffffffffffffffffffffffff826111bf565b61120486836111bf565b95508019841693508086168417925050509392505050565b5f819050919050565b5f61123f61123a61123584610a08565b61121c565b610a08565b9050919050565b5f819050919050565b61125883611225565b61126c61126482611246565b8484546111cb565b825550505050565b5f90565b611280611274565b61128b81848461124f565b505050565b5b818110156112ae576112a35f82611278565b600181019050611291565b5050565b601f8211156112f3576112c48161119e565b6112cd846111b0565b810160208510156112dc578190505b6112f06112e8856111b0565b830182611290565b50505b505050565b5f82821c905092915050565b5f6113135f19846008026112f8565b1980831691505092915050565b5f61132b8383611304565b9150826002028217905092915050565b61134482610ab4565b67ffffffffffffffff81111561135d5761135c610d94565b5b6113678254611090565b6113728282856112b2565b5f60209050601f8311600181146113a3575f8415611391578287015190505b61139b8582611320565b865550611402565b601f1984166113b18661119e565b5f5b828110156113d8578489015182556001820191506020850194506020810190506113b3565b868310156113f557848901516113f1601f891682611304565b8355505b6001600288020188555050505b505050505050565b5f6020820190508181035f8301526114228184610fb0565b905092915050565b7f4e487b71000000000000000000000000000000000000000000000000000000005f52601160045260245ffd5b5f61146182610a08565b91507fffffffffffffffffffffffffffffffffffffffffffffffffffffffffffffffff82036114935761149261142a565b5b600182019050919050565b7f596f7520617265206e6f7420746865206f776e6572206f6620746869732070725f8201527f6f70657274792e00000000000000000000000000000000000000000000000000602082015250565b5f6114f8602783610fa0565b91506115038261149e565b604082019050919050565b5f6020820190508181035f830152611525816114ec565b9050919050565b7f496e76616c69642070726f7065727479204944000000000000000000000000005f82015250565b5f611560601383610fa0565b915061156b8261152c565b602082019050919050565b5f6020820190508181035f83015261158d81611554565b9050919050565b5f61159e82610a08565b91505f82036115b0576115af61142a565b5b60018203905091905056fea2646970667358221220891584bf87a0e9974ac12b2cb1818224d22260773df096870cdf7290b514bf0864736f6c63430008190033",
					"opcodes": "PUSH1 0x80 PUSH1 0x40 MSTORE CALLVALUE DUP1 ISZERO PUSH1 0xE JUMPI PUSH0 DUP1 REVERT JUMPDEST POP PUSH20 0x5FB1616F78DA7AFC9FF79E0371741A747D2A7F22 PUSH0 DUP1 PUSH2 0x100 EXP DUP2 SLOAD DUP2 PUSH20 0xFFFFFFFFFFFFFFFFFFFFFFFFFFFFFFFFFFFFFFFF MUL NOT AND SWAP1 DUP4 PUSH20 0xFFFFFFFFFFFFFFFFFFFFFFFFFFFFFFFFFFFFFFFF AND MUL OR SWAP1 SSTORE POP PUSH2 0x15F1 DUP1 PUSH2 0x6F PUSH0 CODECOPY PUSH0 RETURN INVALID PUSH1 0x80 PUSH1 0x40 MSTORE CALLVALUE DUP1 ISZERO PUSH2 0xF JUMPI PUSH0 DUP1 REVERT JUMPDEST POP PUSH1 0x4 CALLDATASIZE LT PUSH2 0x7B JUMPI PUSH0 CALLDATALOAD PUSH1 0xE0 SHR DUP1 PUSH4 0x8E15F473 GT PUSH2 0x59 JUMPI DUP1 PUSH4 0x8E15F473 EQ PUSH2 0xE9 JUMPI DUP1 PUSH4 0xABDB64D4 EQ PUSH2 0x107 JUMPI DUP1 PUSH4 0xBC43D06F EQ PUSH2 0x123 JUMPI DUP1 PUSH4 0xF7B10808 EQ PUSH2 0x13F JUMPI PUSH2 0x7B JUMP JUMPDEST DUP1 PUSH4 0x32665FFB EQ PUSH2 0x7F JUMPI DUP1 PUSH4 0x39500F34 EQ PUSH2 0xAF JUMPI DUP1 PUSH4 0x6989A649 EQ PUSH2 0xCD JUMPI JUMPDEST PUSH0 DUP1 REVERT JUMPDEST PUSH2 0x99 PUSH1 0x4 DUP1 CALLDATASIZE SUB DUP2 ADD SWAP1 PUSH2 0x94 SWAP2 SWAP1 PUSH2 0xA3B JUMP JUMPDEST PUSH2 0x175 JUMP JUMPDEST PUSH1 0x40 MLOAD PUSH2 0xA6 SWAP2 SWAP1 PUSH2 0xCCC JUMP JUMPDEST PUSH1 0x40 MLOAD DUP1 SWAP2 SUB SWAP1 RETURN JUMPDEST PUSH2 0xB7 PUSH2 0x3AC JUMP JUMPDEST PUSH1 0x40 MLOAD PUSH2 0xC4 SWAP2 SWAP1 PUSH2 0xCFB JUMP JUMPDEST PUSH1 0x40 MLOAD DUP1 SWAP2 SUB SWAP1 RETURN JUMPDEST PUSH2 0xE7 PUSH1 0x4 DUP1 CALLDATASIZE SUB DUP2 ADD SWAP1 PUSH2 0xE2 SWAP2 SWAP1 PUSH2 0xD14 JUMP JUMPDEST PUSH2 0x3B2 JUMP JUMPDEST STOP JUMPDEST PUSH2 0xF1 PUSH2 0x41A JUMP JUMPDEST PUSH1 0x40 MLOAD PUSH2 0xFE SWAP2 SWAP1 PUSH2 0xD73 JUMP JUMPDEST PUSH1 0x40 MLOAD DUP1 SWAP2 SUB SWAP1 RETURN JUMPDEST PUSH2 0x121 PUSH1 0x4 DUP1 CALLDATASIZE SUB DUP2 ADD SWAP1 PUSH2 0x11C SWAP2 SWAP1 PUSH2 0xEE2 JUMP JUMPDEST PUSH2 0x4C1 JUMP JUMPDEST STOP JUMPDEST PUSH2 0x13D PUSH1 0x4 DUP1 CALLDATASIZE SUB DUP2 ADD SWAP1 PUSH2 0x138 SWAP2 SWAP1 PUSH2 0xA3B JUMP JUMPDEST PUSH2 0x5D2 JUMP JUMPDEST STOP JUMPDEST PUSH2 0x159 PUSH1 0x4 DUP1 CALLDATASIZE SUB DUP2 ADD SWAP1 PUSH2 0x154 SWAP2 SWAP1 PUSH2 0xA3B JUMP JUMPDEST PUSH2 0x79B JUMP JUMPDEST PUSH1 0x40 MLOAD PUSH2 0x16C SWAP8 SWAP7 SWAP6 SWAP5 SWAP4 SWAP3 SWAP2 SWAP1 PUSH2 0xFE8 JUMP JUMPDEST PUSH1 0x40 MLOAD DUP1 SWAP2 SUB SWAP1 RETURN JUMPDEST PUSH2 0x17D PUSH2 0x904 JUMP JUMPDEST PUSH1 0x1 PUSH0 DUP4 DUP2 MSTORE PUSH1 0x20 ADD SWAP1 DUP2 MSTORE PUSH1 0x20 ADD PUSH0 KECCAK256 PUSH1 0x40 MLOAD DUP1 PUSH2 0x100 ADD PUSH1 0x40 MSTORE SWAP1 DUP2 PUSH0 DUP3 ADD SLOAD DUP2 MSTORE PUSH1 0x20 ADD PUSH1 0x1 DUP3 ADD PUSH0 SWAP1 SLOAD SWAP1 PUSH2 0x100 EXP SWAP1 DIV PUSH20 0xFFFFFFFFFFFFFFFFFFFFFFFFFFFFFFFFFFFFFFFF AND PUSH20 0xFFFFFFFFFFFFFFFFFFFFFFFFFFFFFFFFFFFFFFFF AND PUSH20 0xFFFFFFFFFFFFFFFFFFFFFFFFFFFFFFFFFFFFFFFF AND DUP2 MSTORE PUSH1 0x20 ADD PUSH1 0x2 DUP3 ADD DUP1 SLOAD PUSH2 0x208 SWAP1 PUSH2 0x1090 JUMP JUMPDEST DUP1 PUSH1 0x1F ADD PUSH1 0x20 DUP1 SWAP2 DIV MUL PUSH1 0x20 ADD PUSH1 0x40 MLOAD SWAP1 DUP2 ADD PUSH1 0x40 MSTORE DUP1 SWAP3 SWAP2 SWAP1 DUP2 DUP2 MSTORE PUSH1 0x20 ADD DUP3 DUP1 SLOAD PUSH2 0x234 SWAP1 PUSH2 0x1090 JUMP JUMPDEST DUP1 ISZERO PUSH2 0x27F JUMPI DUP1 PUSH1 0x1F LT PUSH2 0x256 JUMPI PUSH2 0x100 DUP1 DUP4 SLOAD DIV MUL DUP4 MSTORE SWAP2 PUSH1 0x20 ADD SWAP2 PUSH2 0x27F JUMP JUMPDEST DUP3 ADD SWAP2 SWAP1 PUSH0 MSTORE PUSH1 0x20 PUSH0 KECCAK256 SWAP1 JUMPDEST DUP2 SLOAD DUP2 MSTORE SWAP1 PUSH1 0x1 ADD SWAP1 PUSH1 0x20 ADD DUP1 DUP4 GT PUSH2 0x262 JUMPI DUP3 SWAP1 SUB PUSH1 0x1F AND DUP3 ADD SWAP2 JUMPDEST POP POP POP POP POP DUP2 MSTORE PUSH1 0x20 ADD PUSH1 0x3 DUP3 ADD SLOAD DUP2 MSTORE PUSH1 0x20 ADD PUSH1 0x4 DUP3 ADD SLOAD DUP2 MSTORE PUSH1 0x20 ADD PUSH1 0x5 DUP3 ADD DUP1 SLOAD PUSH2 0x2AC SWAP1 PUSH2 0x1090 JUMP JUMPDEST DUP1 PUSH1 0x1F ADD PUSH1 0x20 DUP1 SWAP2 DIV MUL PUSH1 0x20 ADD PUSH1 0x40 MLOAD SWAP1 DUP2 ADD PUSH1 0x40 MSTORE DUP1 SWAP3 SWAP2 SWAP1 DUP2 DUP2 MSTORE PUSH1 0x20 ADD DUP3 DUP1 SLOAD PUSH2 0x2D8 SWAP1 PUSH2 0x1090 JUMP JUMPDEST DUP1 ISZERO PUSH2 0x323 JUMPI DUP1 PUSH1 0x1F LT PUSH2 0x2FA JUMPI PUSH2 0x100 DUP1 DUP4 SLOAD DIV MUL DUP4 MSTORE SWAP2 PUSH1 0x20 ADD SWAP2 PUSH2 0x323 JUMP JUMPDEST DUP3 ADD SWAP2 SWAP1 PUSH0 MSTORE PUSH1 0x20 PUSH0 KECCAK256 SWAP1 JUMPDEST DUP2 SLOAD DUP2 MSTORE SWAP1 PUSH1 0x1 ADD SWAP1 PUSH1 0x20 ADD DUP1 DUP4 GT PUSH2 0x306 JUMPI DUP3 SWAP1 SUB PUSH1 0x1F AND DUP3 ADD SWAP2 JUMPDEST POP POP POP POP POP DUP2 MSTORE PUSH1 0x20 ADD PUSH1 0x6 DUP3 ADD SLOAD DUP2 MSTORE PUSH1 0x20 ADD PUSH1 0x7 DUP3 ADD DUP1 SLOAD DUP1 PUSH1 0x20 MUL PUSH1 0x20 ADD PUSH1 0x40 MLOAD SWAP1 DUP2 ADD PUSH1 0x40 MSTORE DUP1 SWAP3 SWAP2 SWAP1 DUP2 DUP2 MSTORE PUSH1 0x20 ADD PUSH0 SWAP1 JUMPDEST DUP3 DUP3 LT ISZERO PUSH2 0x39D JUMPI DUP4 DUP3 SWAP1 PUSH0 MSTORE PUSH1 0x20 PUSH0 KECCAK256 SWAP1 PUSH1 0x2 MUL ADD PUSH1 0x40 MLOAD DUP1 PUSH1 0x40 ADD PUSH1 0x40 MSTORE SWAP1 DUP2 PUSH0 DUP3 ADD SLOAD DUP2 MSTORE PUSH1 0x20 ADD PUSH1 0x1 DUP3 ADD SLOAD DUP2 MSTORE POP POP DUP2 MSTORE PUSH1 0x20 ADD SWAP1 PUSH1 0x1 ADD SWAP1 PUSH2 0x35A JUMP JUMPDEST POP POP POP POP DUP2 MSTORE POP POP SWAP1 POP SWAP2 SWAP1 POP JUMP JUMPDEST PUSH1 0x2 SLOAD DUP2 JUMP JUMPDEST PUSH1 0x1 PUSH0 DUP5 DUP2 MSTORE PUSH1 0x20 ADD SWAP1 DUP2 MSTORE PUSH1 0x20 ADD PUSH0 KECCAK256 PUSH1 0x7 ADD PUSH1 0x40 MLOAD DUP1 PUSH1 0x40 ADD PUSH1 0x40 MSTORE DUP1 DUP5 DUP2 MSTORE PUSH1 0x20 ADD DUP4 DUP2 MSTORE POP SWAP1 DUP1 PUSH1 0x1 DUP2 SLOAD ADD DUP1 DUP3 SSTORE DUP1 SWAP2 POP POP PUSH1 0x1 SWAP1 SUB SWAP1 PUSH0 MSTORE PUSH1 0x20 PUSH0 KECCAK256 SWAP1 PUSH1 0x2 MUL ADD PUSH0 SWAP1 SWAP2 SWAP1 SWAP2 SWAP1 SWAP2 POP PUSH0 DUP3 ADD MLOAD DUP2 PUSH0 ADD SSTORE PUSH1 0x20 DUP3 ADD MLOAD DUP2 PUSH1 0x1 ADD SSTORE POP POP POP POP POP JUMP JUMPDEST PUSH0 DUP1 PUSH0 DUP1 PUSH0 DUP1 PUSH0 DUP1 SLOAD SWAP1 PUSH2 0x100 EXP SWAP1 DIV PUSH20 0xFFFFFFFFFFFFFFFFFFFFFFFFFFFFFFFFFFFFFFFF AND PUSH20 0xFFFFFFFFFFFFFFFFFFFFFFFFFFFFFFFFFFFFFFFF AND PUSH4 0xFEAF968C PUSH1 0x40 MLOAD DUP2 PUSH4 0xFFFFFFFF AND PUSH1 0xE0 SHL DUP2 MSTORE PUSH1 0x4 ADD PUSH1 0xA0 PUSH1 0x40 MLOAD DUP1 DUP4 SUB DUP2 DUP7 GAS STATICCALL ISZERO DUP1 ISZERO PUSH2 0x488 JUMPI RETURNDATASIZE PUSH0 DUP1 RETURNDATACOPY RETURNDATASIZE PUSH0 REVERT JUMPDEST POP POP POP POP PUSH1 0x40 MLOAD RETURNDATASIZE PUSH1 0x1F NOT PUSH1 0x1F DUP3 ADD AND DUP3 ADD DUP1 PUSH1 0x40 MSTORE POP DUP2 ADD SWAP1 PUSH2 0x4AC SWAP2 SWAP1 PUSH2 0x1127 JUMP JUMPDEST SWAP5 POP SWAP5 POP SWAP5 POP SWAP5 POP SWAP5 POP DUP4 SWAP6 POP POP POP POP POP POP SWAP1 JUMP JUMPDEST PUSH0 PUSH1 0x1 PUSH0 PUSH1 0x2 SLOAD DUP2 MSTORE PUSH1 0x20 ADD SWAP1 DUP2 MSTORE PUSH1 0x20 ADD PUSH0 KECCAK256 SWAP1 POP PUSH1 0x2 SLOAD DUP2 PUSH0 ADD DUP2 SWAP1 SSTORE POP CALLER DUP2 PUSH1 0x1 ADD PUSH0 PUSH2 0x100 EXP DUP2 SLOAD DUP2 PUSH20 0xFFFFFFFFFFFFFFFFFFFFFFFFFFFFFFFFFFFFFFFF MUL NOT AND SWAP1 DUP4 PUSH20 0xFFFFFFFFFFFFFFFFFFFFFFFFFFFFFFFFFFFFFFFF AND MUL OR SWAP1 SSTORE POP DUP6 DUP2 PUSH1 0x2 ADD SWAP1 DUP2 PUSH2 0x534 SWAP2 SWAP1 PUSH2 0x133B JUMP JUMPDEST POP DUP3 DUP2 PUSH1 0x3 ADD DUP2 SWAP1 SSTORE POP DUP2 DUP2 PUSH1 0x4 ADD DUP2 SWAP1 SSTORE POP DUP5 DUP2 PUSH1 0x5 ADD SWAP1 DUP2 PUSH2 0x558 SWAP2 SWAP1 PUSH2 0x133B JUMP JUMPDEST POP DUP4 DUP2 PUSH1 0x6 ADD DUP2 SWAP1 SSTORE POP CALLER PUSH20 0xFFFFFFFFFFFFFFFFFFFFFFFFFFFFFFFFFFFFFFFF AND PUSH1 0x2 SLOAD PUSH32 0x92F2B8D9AE69A40BE928A502C6BCC369CE8A0B2E902151BB63909295F4CE749E DUP9 PUSH1 0x40 MLOAD PUSH2 0x5AB SWAP2 SWAP1 PUSH2 0x140A JUMP JUMPDEST PUSH1 0x40 MLOAD DUP1 SWAP2 SUB SWAP1 LOG3 PUSH1 0x2 PUSH0 DUP2 SLOAD DUP1 SWAP3 SWAP2 SWAP1 PUSH2 0x5C5 SWAP1 PUSH2 0x1457 JUMP JUMPDEST SWAP2 SWAP1 POP SSTORE POP POP POP POP POP POP POP JUMP JUMPDEST DUP1 CALLER PUSH20 0xFFFFFFFFFFFFFFFFFFFFFFFFFFFFFFFFFFFFFFFF AND PUSH1 0x1 PUSH0 DUP4 DUP2 MSTORE PUSH1 0x20 ADD SWAP1 DUP2 MSTORE PUSH1 0x20 ADD PUSH0 KECCAK256 PUSH1 0x1 ADD PUSH0 SWAP1 SLOAD SWAP1 PUSH2 0x100 EXP SWAP1 DIV PUSH20 0xFFFFFFFFFFFFFFFFFFFFFFFFFFFFFFFFFFFFFFFF AND PUSH20 0xFFFFFFFFFFFFFFFFFFFFFFFFFFFFFFFFFFFFFFFF AND EQ PUSH2 0x674 JUMPI PUSH1 0x40 MLOAD PUSH32 0x8C379A000000000000000000000000000000000000000000000000000000000 DUP2 MSTORE PUSH1 0x4 ADD PUSH2 0x66B SWAP1 PUSH2 0x150E JUMP JUMPDEST PUSH1 0x40 MLOAD DUP1 SWAP2 SUB SWAP1 REVERT JUMPDEST DUP2 PUSH1 0x2 SLOAD DUP2 LT PUSH2 0x6B9 JUMPI PUSH1 0x40 MLOAD PUSH32 0x8C379A000000000000000000000000000000000000000000000000000000000 DUP2 MSTORE PUSH1 0x4 ADD PUSH2 0x6B0 SWAP1 PUSH2 0x1576 JUMP JUMPDEST PUSH1 0x40 MLOAD DUP1 SWAP2 SUB SWAP1 REVERT JUMPDEST CALLER PUSH20 0xFFFFFFFFFFFFFFFFFFFFFFFFFFFFFFFFFFFFFFFF AND DUP4 PUSH32 0x3B11F341DFBADFB1B92FF5B9BF7C88094058C008E6B67C47AE29F690A30BEB69 PUSH1 0x40 MLOAD PUSH1 0x40 MLOAD DUP1 SWAP2 SUB SWAP1 LOG3 PUSH1 0x1 PUSH0 DUP5 DUP2 MSTORE PUSH1 0x20 ADD SWAP1 DUP2 MSTORE PUSH1 0x20 ADD PUSH0 KECCAK256 PUSH0 DUP1 DUP3 ADD PUSH0 SWAP1 SSTORE PUSH1 0x1 DUP3 ADD PUSH0 PUSH2 0x100 EXP DUP2 SLOAD SWAP1 PUSH20 0xFFFFFFFFFFFFFFFFFFFFFFFFFFFFFFFFFFFFFFFF MUL NOT AND SWAP1 SSTORE PUSH1 0x2 DUP3 ADD PUSH0 PUSH2 0x74A SWAP2 SWAP1 PUSH2 0x95A JUMP JUMPDEST PUSH1 0x3 DUP3 ADD PUSH0 SWAP1 SSTORE PUSH1 0x4 DUP3 ADD PUSH0 SWAP1 SSTORE PUSH1 0x5 DUP3 ADD PUSH0 PUSH2 0x767 SWAP2 SWAP1 PUSH2 0x95A JUMP JUMPDEST PUSH1 0x6 DUP3 ADD PUSH0 SWAP1 SSTORE PUSH1 0x7 DUP3 ADD PUSH0 PUSH2 0x77D SWAP2 SWAP1 PUSH2 0x997 JUMP JUMPDEST POP POP PUSH1 0x2 PUSH0 DUP2 SLOAD DUP1 SWAP3 SWAP2 SWAP1 PUSH2 0x791 SWAP1 PUSH2 0x1594 JUMP JUMPDEST SWAP2 SWAP1 POP SSTORE POP POP POP POP JUMP JUMPDEST PUSH1 0x1 PUSH1 0x20 MSTORE DUP1 PUSH0 MSTORE PUSH1 0x40 PUSH0 KECCAK256 PUSH0 SWAP2 POP SWAP1 POP DUP1 PUSH0 ADD SLOAD SWAP1 DUP1 PUSH1 0x1 ADD PUSH0 SWAP1 SLOAD SWAP1 PUSH2 0x100 EXP SWAP1 DIV PUSH20 0xFFFFFFFFFFFFFFFFFFFFFFFFFFFFFFFFFFFFFFFF AND SWAP1 DUP1 PUSH1 0x2 ADD DUP1 SLOAD PUSH2 0x7E5 SWAP1 PUSH2 0x1090 JUMP JUMPDEST DUP1 PUSH1 0x1F ADD PUSH1 0x20 DUP1 SWAP2 DIV MUL PUSH1 0x20 ADD PUSH1 0x40 MLOAD SWAP1 DUP2 ADD PUSH1 0x40 MSTORE DUP1 SWAP3 SWAP2 SWAP1 DUP2 DUP2 MSTORE PUSH1 0x20 ADD DUP3 DUP1 SLOAD PUSH2 0x811 SWAP1 PUSH2 0x1090 JUMP JUMPDEST DUP1 ISZERO PUSH2 0x85C JUMPI DUP1 PUSH1 0x1F LT PUSH2 0x833 JUMPI PUSH2 0x100 DUP1 DUP4 SLOAD DIV MUL DUP4 MSTORE SWAP2 PUSH1 0x20 ADD SWAP2 PUSH2 0x85C JUMP JUMPDEST DUP3 ADD SWAP2 SWAP1 PUSH0 MSTORE PUSH1 0x20 PUSH0 KECCAK256 SWAP1 JUMPDEST DUP2 SLOAD DUP2 MSTORE SWAP1 PUSH1 0x1 ADD SWAP1 PUSH1 0x20 ADD DUP1 DUP4 GT PUSH2 0x83F JUMPI DUP3 SWAP1 SUB PUSH1 0x1F AND DUP3 ADD SWAP2 JUMPDEST POP POP POP POP POP SWAP1 DUP1 PUSH1 0x3 ADD SLOAD SWAP1 DUP1 PUSH1 0x4 ADD SLOAD SWAP1 DUP1 PUSH1 0x5 ADD DUP1 SLOAD PUSH2 0x87D SWAP1 PUSH2 0x1090 JUMP JUMPDEST DUP1 PUSH1 0x1F ADD PUSH1 0x20 DUP1 SWAP2 DIV MUL PUSH1 0x20 ADD PUSH1 0x40 MLOAD SWAP1 DUP2 ADD PUSH1 0x40 MSTORE DUP1 SWAP3 SWAP2 SWAP1 DUP2 DUP2 MSTORE PUSH1 0x20 ADD DUP3 DUP1 SLOAD PUSH2 0x8A9 SWAP1 PUSH2 0x1090 JUMP JUMPDEST DUP1 ISZERO PUSH2 0x8F4 JUMPI DUP1 PUSH1 0x1F LT PUSH2 0x8CB JUMPI PUSH2 0x100 DUP1 DUP4 SLOAD DIV MUL DUP4 MSTORE SWAP2 PUSH1 0x20 ADD SWAP2 PUSH2 0x8F4 JUMP JUMPDEST DUP3 ADD SWAP2 SWAP1 PUSH0 MSTORE PUSH1 0x20 PUSH0 KECCAK256 SWAP1 JUMPDEST DUP2 SLOAD DUP2 MSTORE SWAP1 PUSH1 0x1 ADD SWAP1 PUSH1 0x20 ADD DUP1 DUP4 GT PUSH2 0x8D7 JUMPI DUP3 SWAP1 SUB PUSH1 0x1F AND DUP3 ADD SWAP2 JUMPDEST POP POP POP POP POP SWAP1 DUP1 PUSH1 0x6 ADD SLOAD SWAP1 POP DUP8 JUMP JUMPDEST PUSH1 0x40 MLOAD DUP1 PUSH2 0x100 ADD PUSH1 0x40 MSTORE DUP1 PUSH0 DUP2 MSTORE PUSH1 0x20 ADD PUSH0 PUSH20 0xFFFFFFFFFFFFFFFFFFFFFFFFFFFFFFFFFFFFFFFF AND DUP2 MSTORE PUSH1 0x20 ADD PUSH1 0x60 DUP2 MSTORE PUSH1 0x20 ADD PUSH0 DUP2 MSTORE PUSH1 0x20 ADD PUSH0 DUP2 MSTORE PUSH1 0x20 ADD PUSH1 0x60 DUP2 MSTORE PUSH1 0x20 ADD PUSH0 DUP2 MSTORE PUSH1 0x20 ADD PUSH1 0x60 DUP2 MSTORE POP SWAP1 JUMP JUMPDEST POP DUP1 SLOAD PUSH2 0x966 SWAP1 PUSH2 0x1090 JUMP JUMPDEST PUSH0 DUP3 SSTORE DUP1 PUSH1 0x1F LT PUSH2 0x977 JUMPI POP PUSH2 0x994 JUMP JUMPDEST PUSH1 0x1F ADD PUSH1 0x20 SWAP1 DIV SWAP1 PUSH0 MSTORE PUSH1 0x20 PUSH0 KECCAK256 SWAP1 DUP2 ADD SWAP1 PUSH2 0x993 SWAP2 SWAP1 PUSH2 0x9B8 JUMP JUMPDEST JUMPDEST POP JUMP JUMPDEST POP DUP1 SLOAD PUSH0 DUP3 SSTORE PUSH1 0x2 MUL SWAP1 PUSH0 MSTORE PUSH1 0x20 PUSH0 KECCAK256 SWAP1 DUP2 ADD SWAP1 PUSH2 0x9B5 SWAP2 SWAP1 PUSH2 0x9D3 JUMP JUMPDEST POP JUMP JUMPDEST JUMPDEST DUP1 DUP3 GT ISZERO PUSH2 0x9CF JUMPI PUSH0 DUP2 PUSH0 SWAP1 SSTORE POP PUSH1 0x1 ADD PUSH2 0x9B9 JUMP JUMPDEST POP SWAP1 JUMP JUMPDEST JUMPDEST DUP1 DUP3 GT ISZERO PUSH2 0x9F3 JUMPI PUSH0 DUP1 DUP3 ADD PUSH0 SWAP1 SSTORE PUSH1 0x1 DUP3 ADD PUSH0 SWAP1 SSTORE POP PUSH1 0x2 ADD PUSH2 0x9D4 JUMP JUMPDEST POP SWAP1 JUMP JUMPDEST PUSH0 PUSH1 0x40 MLOAD SWAP1 POP SWAP1 JUMP JUMPDEST PUSH0 DUP1 REVERT JUMPDEST PUSH0 DUP1 REVERT JUMPDEST PUSH0 DUP2 SWAP1 POP SWAP2 SWAP1 POP JUMP JUMPDEST PUSH2 0xA1A DUP2 PUSH2 0xA08 JUMP JUMPDEST DUP2 EQ PUSH2 0xA24 JUMPI PUSH0 DUP1 REVERT JUMPDEST POP JUMP JUMPDEST PUSH0 DUP2 CALLDATALOAD SWAP1 POP PUSH2 0xA35 DUP2 PUSH2 0xA11 JUMP JUMPDEST SWAP3 SWAP2 POP POP JUMP JUMPDEST PUSH0 PUSH1 0x20 DUP3 DUP5 SUB SLT ISZERO PUSH2 0xA50 JUMPI PUSH2 0xA4F PUSH2 0xA00 JUMP JUMPDEST JUMPDEST PUSH0 PUSH2 0xA5D DUP5 DUP3 DUP6 ADD PUSH2 0xA27 JUMP JUMPDEST SWAP2 POP POP SWAP3 SWAP2 POP POP JUMP JUMPDEST PUSH2 0xA6F DUP2 PUSH2 0xA08 JUMP JUMPDEST DUP3 MSTORE POP POP JUMP JUMPDEST PUSH0 PUSH20 0xFFFFFFFFFFFFFFFFFFFFFFFFFFFFFFFFFFFFFFFF DUP3 AND SWAP1 POP SWAP2 SWAP1 POP JUMP JUMPDEST PUSH0 PUSH2 0xA9E DUP3 PUSH2 0xA75 JUMP JUMPDEST SWAP1 POP SWAP2 SWAP1 POP JUMP JUMPDEST PUSH2 0xAAE DUP2 PUSH2 0xA94 JUMP JUMPDEST DUP3 MSTORE POP POP JUMP JUMPDEST PUSH0 DUP2 MLOAD SWAP1 POP SWAP2 SWAP1 POP JUMP JUMPDEST PUSH0 DUP3 DUP3 MSTORE PUSH1 0x20 DUP3 ADD SWAP1 POP SWAP3 SWAP2 POP POP JUMP JUMPDEST DUP3 DUP2 DUP4 MCOPY PUSH0 DUP4 DUP4 ADD MSTORE POP POP POP JUMP JUMPDEST PUSH0 PUSH1 0x1F NOT PUSH1 0x1F DUP4 ADD AND SWAP1 POP SWAP2 SWAP1 POP JUMP JUMPDEST PUSH0 PUSH2 0xAF6 DUP3 PUSH2 0xAB4 JUMP JUMPDEST PUSH2 0xB00 DUP2 DUP6 PUSH2 0xABE JUMP JUMPDEST SWAP4 POP PUSH2 0xB10 DUP2 DUP6 PUSH1 0x20 DUP7 ADD PUSH2 0xACE JUMP JUMPDEST PUSH2 0xB19 DUP2 PUSH2 0xADC JUMP JUMPDEST DUP5 ADD SWAP2 POP POP SWAP3 SWAP2 POP POP JUMP JUMPDEST PUSH0 DUP2 SWAP1 POP SWAP2 SWAP1 POP JUMP JUMPDEST PUSH2 0xB36 DUP2 PUSH2 0xB24 JUMP JUMPDEST DUP3 MSTORE POP POP JUMP JUMPDEST PUSH0 DUP2 MLOAD SWAP1 POP SWAP2 SWAP1 POP JUMP JUMPDEST PUSH0 DUP3 DUP3 MSTORE PUSH1 0x20 DUP3 ADD SWAP1 POP SWAP3 SWAP2 POP POP JUMP JUMPDEST PUSH0 DUP2 SWAP1 POP PUSH1 0x20 DUP3 ADD SWAP1 POP SWAP2 SWAP1 POP JUMP JUMPDEST PUSH1 0x40 DUP3 ADD PUSH0 DUP3 ADD MLOAD PUSH2 0xB79 PUSH0 DUP6 ADD DUP3 PUSH2 0xA66 JUMP JUMPDEST POP PUSH1 0x20 DUP3 ADD MLOAD PUSH2 0xB8C PUSH1 0x20 DUP6 ADD DUP3 PUSH2 0xA66 JUMP JUMPDEST POP POP POP POP JUMP JUMPDEST PUSH0 PUSH2 0xB9D DUP4 DUP4 PUSH2 0xB65 JUMP JUMPDEST PUSH1 0x40 DUP4 ADD SWAP1 POP SWAP3 SWAP2 POP POP JUMP JUMPDEST PUSH0 PUSH1 0x20 DUP3 ADD SWAP1 POP SWAP2 SWAP1 POP JUMP JUMPDEST PUSH0 PUSH2 0xBBF DUP3 PUSH2 0xB3C JUMP JUMPDEST PUSH2 0xBC9 DUP2 DUP6 PUSH2 0xB46 JUMP JUMPDEST SWAP4 POP PUSH2 0xBD4 DUP4 PUSH2 0xB56 JUMP JUMPDEST DUP1 PUSH0 JUMPDEST DUP4 DUP2 LT ISZERO PUSH2 0xC04 JUMPI DUP2 MLOAD PUSH2 0xBEB DUP9 DUP3 PUSH2 0xB92 JUMP JUMPDEST SWAP8 POP PUSH2 0xBF6 DUP4 PUSH2 0xBA9 JUMP JUMPDEST SWAP3 POP POP PUSH1 0x1 DUP2 ADD SWAP1 POP PUSH2 0xBD7 JUMP JUMPDEST POP DUP6 SWAP4 POP POP POP POP SWAP3 SWAP2 POP POP JUMP JUMPDEST PUSH0 PUSH2 0x100 DUP4 ADD PUSH0 DUP4 ADD MLOAD PUSH2 0xC27 PUSH0 DUP7 ADD DUP3 PUSH2 0xA66 JUMP JUMPDEST POP PUSH1 0x20 DUP4 ADD MLOAD PUSH2 0xC3A PUSH1 0x20 DUP7 ADD DUP3 PUSH2 0xAA5 JUMP JUMPDEST POP PUSH1 0x40 DUP4 ADD MLOAD DUP5 DUP3 SUB PUSH1 0x40 DUP7 ADD MSTORE PUSH2 0xC52 DUP3 DUP3 PUSH2 0xAEC JUMP JUMPDEST SWAP2 POP POP PUSH1 0x60 DUP4 ADD MLOAD PUSH2 0xC67 PUSH1 0x60 DUP7 ADD DUP3 PUSH2 0xB2D JUMP JUMPDEST POP PUSH1 0x80 DUP4 ADD MLOAD PUSH2 0xC7A PUSH1 0x80 DUP7 ADD DUP3 PUSH2 0xB2D JUMP JUMPDEST POP PUSH1 0xA0 DUP4 ADD MLOAD DUP5 DUP3 SUB PUSH1 0xA0 DUP7 ADD MSTORE PUSH2 0xC92 DUP3 DUP3 PUSH2 0xAEC JUMP JUMPDEST SWAP2 POP POP PUSH1 0xC0 DUP4 ADD MLOAD PUSH2 0xCA7 PUSH1 0xC0 DUP7 ADD DUP3 PUSH2 0xA66 JUMP JUMPDEST POP PUSH1 0xE0 DUP4 ADD MLOAD DUP5 DUP3 SUB PUSH1 0xE0 DUP7 ADD MSTORE PUSH2 0xCBF DUP3 DUP3 PUSH2 0xBB5 JUMP JUMPDEST SWAP2 POP POP DUP1 SWAP2 POP POP SWAP3 SWAP2 POP POP JUMP JUMPDEST PUSH0 PUSH1 0x20 DUP3 ADD SWAP1 POP DUP2 DUP2 SUB PUSH0 DUP4 ADD MSTORE PUSH2 0xCE4 DUP2 DUP5 PUSH2 0xC11 JUMP JUMPDEST SWAP1 POP SWAP3 SWAP2 POP POP JUMP JUMPDEST PUSH2 0xCF5 DUP2 PUSH2 0xA08 JUMP JUMPDEST DUP3 MSTORE POP POP JUMP JUMPDEST PUSH0 PUSH1 0x20 DUP3 ADD SWAP1 POP PUSH2 0xD0E PUSH0 DUP4 ADD DUP5 PUSH2 0xCEC JUMP JUMPDEST SWAP3 SWAP2 POP POP JUMP JUMPDEST PUSH0 DUP1 PUSH0 PUSH1 0x60 DUP5 DUP7 SUB SLT ISZERO PUSH2 0xD2B JUMPI PUSH2 0xD2A PUSH2 0xA00 JUMP JUMPDEST JUMPDEST PUSH0 PUSH2 0xD38 DUP7 DUP3 DUP8 ADD PUSH2 0xA27 JUMP JUMPDEST SWAP4 POP POP PUSH1 0x20 PUSH2 0xD49 DUP7 DUP3 DUP8 ADD PUSH2 0xA27 JUMP JUMPDEST SWAP3 POP POP PUSH1 0x40 PUSH2 0xD5A DUP7 DUP3 DUP8 ADD PUSH2 0xA27 JUMP JUMPDEST SWAP2 POP POP SWAP3 POP SWAP3 POP SWAP3 JUMP JUMPDEST PUSH2 0xD6D DUP2 PUSH2 0xB24 JUMP JUMPDEST DUP3 MSTORE POP POP JUMP JUMPDEST PUSH0 PUSH1 0x20 DUP3 ADD SWAP1 POP PUSH2 0xD86 PUSH0 DUP4 ADD DUP5 PUSH2 0xD64 JUMP JUMPDEST SWAP3 SWAP2 POP POP JUMP JUMPDEST PUSH0 DUP1 REVERT JUMPDEST PUSH0 DUP1 REVERT JUMPDEST PUSH32 0x4E487B7100000000000000000000000000000000000000000000000000000000 PUSH0 MSTORE PUSH1 0x41 PUSH1 0x4 MSTORE PUSH1 0x24 PUSH0 REVERT JUMPDEST PUSH2 0xDCA DUP3 PUSH2 0xADC JUMP JUMPDEST DUP2 ADD DUP2 DUP2 LT PUSH8 0xFFFFFFFFFFFFFFFF DUP3 GT OR ISZERO PUSH2 0xDE9 JUMPI PUSH2 0xDE8 PUSH2 0xD94 JUMP JUMPDEST JUMPDEST DUP1 PUSH1 0x40 MSTORE POP POP POP JUMP JUMPDEST PUSH0 PUSH2 0xDFB PUSH2 0x9F7 JUMP JUMPDEST SWAP1 POP PUSH2 0xE07 DUP3 DUP3 PUSH2 0xDC1 JUMP JUMPDEST SWAP2 SWAP1 POP JUMP JUMPDEST PUSH0 PUSH8 0xFFFFFFFFFFFFFFFF DUP3 GT ISZERO PUSH2 0xE26 JUMPI PUSH2 0xE25 PUSH2 0xD94 JUMP JUMPDEST JUMPDEST PUSH2 0xE2F DUP3 PUSH2 0xADC JUMP JUMPDEST SWAP1 POP PUSH1 0x20 DUP2 ADD SWAP1 POP SWAP2 SWAP1 POP JUMP JUMPDEST DUP3 DUP2 DUP4 CALLDATACOPY PUSH0 DUP4 DUP4 ADD MSTORE POP POP POP JUMP JUMPDEST PUSH0 PUSH2 0xE5C PUSH2 0xE57 DUP5 PUSH2 0xE0C JUMP JUMPDEST PUSH2 0xDF2 JUMP JUMPDEST SWAP1 POP DUP3 DUP2 MSTORE PUSH1 0x20 DUP2 ADD DUP5 DUP5 DUP5 ADD GT ISZERO PUSH2 0xE78 JUMPI PUSH2 0xE77 PUSH2 0xD90 JUMP JUMPDEST JUMPDEST PUSH2 0xE83 DUP5 DUP3 DUP6 PUSH2 0xE3C JUMP JUMPDEST POP SWAP4 SWAP3 POP POP POP JUMP JUMPDEST PUSH0 DUP3 PUSH1 0x1F DUP4 ADD SLT PUSH2 0xE9F JUMPI PUSH2 0xE9E PUSH2 0xD8C JUMP JUMPDEST JUMPDEST DUP2 CALLDATALOAD PUSH2 0xEAF DUP5 DUP3 PUSH1 0x20 DUP7 ADD PUSH2 0xE4A JUMP JUMPDEST SWAP2 POP POP SWAP3 SWAP2 POP POP JUMP JUMPDEST PUSH2 0xEC1 DUP2 PUSH2 0xB24 JUMP JUMPDEST DUP2 EQ PUSH2 0xECB JUMPI PUSH0 DUP1 REVERT JUMPDEST POP JUMP JUMPDEST PUSH0 DUP2 CALLDATALOAD SWAP1 POP PUSH2 0xEDC DUP2 PUSH2 0xEB8 JUMP JUMPDEST SWAP3 SWAP2 POP POP JUMP JUMPDEST PUSH0 DUP1 PUSH0 DUP1 PUSH0 PUSH1 0xA0 DUP7 DUP9 SUB SLT ISZERO PUSH2 0xEFB JUMPI PUSH2 0xEFA PUSH2 0xA00 JUMP JUMPDEST JUMPDEST PUSH0 DUP7 ADD CALLDATALOAD PUSH8 0xFFFFFFFFFFFFFFFF DUP2 GT ISZERO PUSH2 0xF18 JUMPI PUSH2 0xF17 PUSH2 0xA04 JUMP JUMPDEST JUMPDEST PUSH2 0xF24 DUP9 DUP3 DUP10 ADD PUSH2 0xE8B JUMP JUMPDEST SWAP6 POP POP PUSH1 0x20 DUP7 ADD CALLDATALOAD PUSH8 0xFFFFFFFFFFFFFFFF DUP2 GT ISZERO PUSH2 0xF45 JUMPI PUSH2 0xF44 PUSH2 0xA04 JUMP JUMPDEST JUMPDEST PUSH2 0xF51 DUP9 DUP3 DUP10 ADD PUSH2 0xE8B JUMP JUMPDEST SWAP5 POP POP PUSH1 0x40 PUSH2 0xF62 DUP9 DUP3 DUP10 ADD PUSH2 0xA27 JUMP JUMPDEST SWAP4 POP POP PUSH1 0x60 PUSH2 0xF73 DUP9 DUP3 DUP10 ADD PUSH2 0xECE JUMP JUMPDEST SWAP3 POP POP PUSH1 0x80 PUSH2 0xF84 DUP9 DUP3 DUP10 ADD PUSH2 0xECE JUMP JUMPDEST SWAP2 POP POP SWAP3 SWAP6 POP SWAP3 SWAP6 SWAP1 SWAP4 POP JUMP JUMPDEST PUSH2 0xF9A DUP2 PUSH2 0xA94 JUMP JUMPDEST DUP3 MSTORE POP POP JUMP JUMPDEST PUSH0 DUP3 DUP3 MSTORE PUSH1 0x20 DUP3 ADD SWAP1 POP SWAP3 SWAP2 POP POP JUMP JUMPDEST PUSH0 PUSH2 0xFBA DUP3 PUSH2 0xAB4 JUMP JUMPDEST PUSH2 0xFC4 DUP2 DUP6 PUSH2 0xFA0 JUMP JUMPDEST SWAP4 POP PUSH2 0xFD4 DUP2 DUP6 PUSH1 0x20 DUP7 ADD PUSH2 0xACE JUMP JUMPDEST PUSH2 0xFDD DUP2 PUSH2 0xADC JUMP JUMPDEST DUP5 ADD SWAP2 POP POP SWAP3 SWAP2 POP POP JUMP JUMPDEST PUSH0 PUSH1 0xE0 DUP3 ADD SWAP1 POP PUSH2 0xFFB PUSH0 DUP4 ADD DUP11 PUSH2 0xCEC JUMP JUMPDEST PUSH2 0x1008 PUSH1 0x20 DUP4 ADD DUP10 PUSH2 0xF91 JUMP JUMPDEST DUP2 DUP2 SUB PUSH1 0x40 DUP4 ADD MSTORE PUSH2 0x101A DUP2 DUP9 PUSH2 0xFB0 JUMP JUMPDEST SWAP1 POP PUSH2 0x1029 PUSH1 0x60 DUP4 ADD DUP8 PUSH2 0xD64 JUMP JUMPDEST PUSH2 0x1036 PUSH1 0x80 DUP4 ADD DUP7 PUSH2 0xD64 JUMP JUMPDEST DUP2 DUP2 SUB PUSH1 0xA0 DUP4 ADD MSTORE PUSH2 0x1048 DUP2 DUP6 PUSH2 0xFB0 JUMP JUMPDEST SWAP1 POP PUSH2 0x1057 PUSH1 0xC0 DUP4 ADD DUP5 PUSH2 0xCEC JUMP JUMPDEST SWAP9 SWAP8 POP POP POP POP POP POP POP POP JUMP JUMPDEST PUSH32 0x4E487B7100000000000000000000000000000000000000000000000000000000 PUSH0 MSTORE PUSH1 0x22 PUSH1 0x4 MSTORE PUSH1 0x24 PUSH0 REVERT JUMPDEST PUSH0 PUSH1 0x2 DUP3 DIV SWAP1 POP PUSH1 0x1 DUP3 AND DUP1 PUSH2 0x10A7 JUMPI PUSH1 0x7F DUP3 AND SWAP2 POP JUMPDEST PUSH1 0x20 DUP3 LT DUP2 SUB PUSH2 0x10BA JUMPI PUSH2 0x10B9 PUSH2 0x1063 JUMP JUMPDEST JUMPDEST POP SWAP2 SWAP1 POP JUMP JUMPDEST PUSH0 PUSH10 0xFFFFFFFFFFFFFFFFFFFF DUP3 AND SWAP1 POP SWAP2 SWAP1 POP JUMP JUMPDEST PUSH2 0x10DE DUP2 PUSH2 0x10C0 JUMP JUMPDEST DUP2 EQ PUSH2 0x10E8 JUMPI PUSH0 DUP1 REVERT JUMPDEST POP JUMP JUMPDEST PUSH0 DUP2 MLOAD SWAP1 POP PUSH2 0x10F9 DUP2 PUSH2 0x10D5 JUMP JUMPDEST SWAP3 SWAP2 POP POP JUMP JUMPDEST PUSH0 DUP2 MLOAD SWAP1 POP PUSH2 0x110D DUP2 PUSH2 0xEB8 JUMP JUMPDEST SWAP3 SWAP2 POP POP JUMP JUMPDEST PUSH0 DUP2 MLOAD SWAP1 POP PUSH2 0x1121 DUP2 PUSH2 0xA11 JUMP JUMPDEST SWAP3 SWAP2 POP POP JUMP JUMPDEST PUSH0 DUP1 PUSH0 DUP1 PUSH0 PUSH1 0xA0 DUP7 DUP9 SUB SLT ISZERO PUSH2 0x1140 JUMPI PUSH2 0x113F PUSH2 0xA00 JUMP JUMPDEST JUMPDEST PUSH0 PUSH2 0x114D DUP9 DUP3 DUP10 ADD PUSH2 0x10EB JUMP JUMPDEST SWAP6 POP POP PUSH1 0x20 PUSH2 0x115E DUP9 DUP3 DUP10 ADD PUSH2 0x10FF JUMP JUMPDEST SWAP5 POP POP PUSH1 0x40 PUSH2 0x116F DUP9 DUP3 DUP10 ADD PUSH2 0x1113 JUMP JUMPDEST SWAP4 POP POP PUSH1 0x60 PUSH2 0x1180 DUP9 DUP3 DUP10 ADD PUSH2 0x1113 JUMP JUMPDEST SWAP3 POP POP PUSH1 0x80 PUSH2 0x1191 DUP9 DUP3 DUP10 ADD PUSH2 0x10EB JUMP JUMPDEST SWAP2 POP POP SWAP3 SWAP6 POP SWAP3 SWAP6 SWAP1 SWAP4 POP JUMP JUMPDEST PUSH0 DUP2 SWAP1 POP DUP2 PUSH0 MSTORE PUSH1 0x20 PUSH0 KECCAK256 SWAP1 POP SWAP2 SWAP1 POP JUMP JUMPDEST PUSH0 PUSH1 0x20 PUSH1 0x1F DUP4 ADD DIV SWAP1 POP SWAP2 SWAP1 POP JUMP JUMPDEST PUSH0 DUP3 DUP3 SHL SWAP1 POP SWAP3 SWAP2 POP POP JUMP JUMPDEST PUSH0 PUSH1 0x8 DUP4 MUL PUSH2 0x11FA PUSH32 0xFFFFFFFFFFFFFFFFFFFFFFFFFFFFFFFFFFFFFFFFFFFFFFFFFFFFFFFFFFFFFFFF DUP3 PUSH2 0x11BF JUMP JUMPDEST PUSH2 0x1204 DUP7 DUP4 PUSH2 0x11BF JUMP JUMPDEST SWAP6 POP DUP1 NOT DUP5 AND SWAP4 POP DUP1 DUP7 AND DUP5 OR SWAP3 POP POP POP SWAP4 SWAP3 POP POP POP JUMP JUMPDEST PUSH0 DUP2 SWAP1 POP SWAP2 SWAP1 POP JUMP JUMPDEST PUSH0 PUSH2 0x123F PUSH2 0x123A PUSH2 0x1235 DUP5 PUSH2 0xA08 JUMP JUMPDEST PUSH2 0x121C JUMP JUMPDEST PUSH2 0xA08 JUMP JUMPDEST SWAP1 POP SWAP2 SWAP1 POP JUMP JUMPDEST PUSH0 DUP2 SWAP1 POP SWAP2 SWAP1 POP JUMP JUMPDEST PUSH2 0x1258 DUP4 PUSH2 0x1225 JUMP JUMPDEST PUSH2 0x126C PUSH2 0x1264 DUP3 PUSH2 0x1246 JUMP JUMPDEST DUP5 DUP5 SLOAD PUSH2 0x11CB JUMP JUMPDEST DUP3 SSTORE POP POP POP POP JUMP JUMPDEST PUSH0 SWAP1 JUMP JUMPDEST PUSH2 0x1280 PUSH2 0x1274 JUMP JUMPDEST PUSH2 0x128B DUP2 DUP5 DUP5 PUSH2 0x124F JUMP JUMPDEST POP POP POP JUMP JUMPDEST JUMPDEST DUP2 DUP2 LT ISZERO PUSH2 0x12AE JUMPI PUSH2 0x12A3 PUSH0 DUP3 PUSH2 0x1278 JUMP JUMPDEST PUSH1 0x1 DUP2 ADD SWAP1 POP PUSH2 0x1291 JUMP JUMPDEST POP POP JUMP JUMPDEST PUSH1 0x1F DUP3 GT ISZERO PUSH2 0x12F3 JUMPI PUSH2 0x12C4 DUP2 PUSH2 0x119E JUMP JUMPDEST PUSH2 0x12CD DUP5 PUSH2 0x11B0 JUMP JUMPDEST DUP2 ADD PUSH1 0x20 DUP6 LT ISZERO PUSH2 0x12DC JUMPI DUP2 SWAP1 POP JUMPDEST PUSH2 0x12F0 PUSH2 0x12E8 DUP6 PUSH2 0x11B0 JUMP JUMPDEST DUP4 ADD DUP3 PUSH2 0x1290 JUMP JUMPDEST POP POP JUMPDEST POP POP POP JUMP JUMPDEST PUSH0 DUP3 DUP3 SHR SWAP1 POP SWAP3 SWAP2 POP POP JUMP JUMPDEST PUSH0 PUSH2 0x1313 PUSH0 NOT DUP5 PUSH1 0x8 MUL PUSH2 0x12F8 JUMP JUMPDEST NOT DUP1 DUP4 AND SWAP2 POP POP SWAP3 SWAP2 POP POP JUMP JUMPDEST PUSH0 PUSH2 0x132B DUP4 DUP4 PUSH2 0x1304 JUMP JUMPDEST SWAP2 POP DUP3 PUSH1 0x2 MUL DUP3 OR SWAP1 POP SWAP3 SWAP2 POP POP JUMP JUMPDEST PUSH2 0x1344 DUP3 PUSH2 0xAB4 JUMP JUMPDEST PUSH8 0xFFFFFFFFFFFFFFFF DUP2 GT ISZERO PUSH2 0x135D JUMPI PUSH2 0x135C PUSH2 0xD94 JUMP JUMPDEST JUMPDEST PUSH2 0x1367 DUP3 SLOAD PUSH2 0x1090 JUMP JUMPDEST PUSH2 0x1372 DUP3 DUP3 DUP6 PUSH2 0x12B2 JUMP JUMPDEST PUSH0 PUSH1 0x20 SWAP1 POP PUSH1 0x1F DUP4 GT PUSH1 0x1 DUP2 EQ PUSH2 0x13A3 JUMPI PUSH0 DUP5 ISZERO PUSH2 0x1391 JUMPI DUP3 DUP8 ADD MLOAD SWAP1 POP JUMPDEST PUSH2 0x139B DUP6 DUP3 PUSH2 0x1320 JUMP JUMPDEST DUP7 SSTORE POP PUSH2 0x1402 JUMP JUMPDEST PUSH1 0x1F NOT DUP5 AND PUSH2 0x13B1 DUP7 PUSH2 0x119E JUMP JUMPDEST PUSH0 JUMPDEST DUP3 DUP2 LT ISZERO PUSH2 0x13D8 JUMPI DUP5 DUP10 ADD MLOAD DUP3 SSTORE PUSH1 0x1 DUP3 ADD SWAP2 POP PUSH1 0x20 DUP6 ADD SWAP5 POP PUSH1 0x20 DUP2 ADD SWAP1 POP PUSH2 0x13B3 JUMP JUMPDEST DUP7 DUP4 LT ISZERO PUSH2 0x13F5 JUMPI DUP5 DUP10 ADD MLOAD PUSH2 0x13F1 PUSH1 0x1F DUP10 AND DUP3 PUSH2 0x1304 JUMP JUMPDEST DUP4 SSTORE POP JUMPDEST PUSH1 0x1 PUSH1 0x2 DUP9 MUL ADD DUP9 SSTORE POP POP POP JUMPDEST POP POP POP POP POP POP JUMP JUMPDEST PUSH0 PUSH1 0x20 DUP3 ADD SWAP1 POP DUP2 DUP2 SUB PUSH0 DUP4 ADD MSTORE PUSH2 0x1422 DUP2 DUP5 PUSH2 0xFB0 JUMP JUMPDEST SWAP1 POP SWAP3 SWAP2 POP POP JUMP JUMPDEST PUSH32 0x4E487B7100000000000000000000000000000000000000000000000000000000 PUSH0 MSTORE PUSH1 0x11 PUSH1 0x4 MSTORE PUSH1 0x24 PUSH0 REVERT JUMPDEST PUSH0 PUSH2 0x1461 DUP3 PUSH2 0xA08 JUMP JUMPDEST SWAP2 POP PUSH32 0xFFFFFFFFFFFFFFFFFFFFFFFFFFFFFFFFFFFFFFFFFFFFFFFFFFFFFFFFFFFFFFFF DUP3 SUB PUSH2 0x1493 JUMPI PUSH2 0x1492 PUSH2 0x142A JUMP JUMPDEST JUMPDEST PUSH1 0x1 DUP3 ADD SWAP1 POP SWAP2 SWAP1 POP JUMP JUMPDEST PUSH32 0x596F7520617265206E6F7420746865206F776E6572206F662074686973207072 PUSH0 DUP3 ADD MSTORE PUSH32 0x6F70657274792E00000000000000000000000000000000000000000000000000 PUSH1 0x20 DUP3 ADD MSTORE POP JUMP JUMPDEST PUSH0 PUSH2 0x14F8 PUSH1 0x27 DUP4 PUSH2 0xFA0 JUMP JUMPDEST SWAP2 POP PUSH2 0x1503 DUP3 PUSH2 0x149E JUMP JUMPDEST PUSH1 0x40 DUP3 ADD SWAP1 POP SWAP2 SWAP1 POP JUMP JUMPDEST PUSH0 PUSH1 0x20 DUP3 ADD SWAP1 POP DUP2 DUP2 SUB PUSH0 DUP4 ADD MSTORE PUSH2 0x1525 DUP2 PUSH2 0x14EC JUMP JUMPDEST SWAP1 POP SWAP2 SWAP1 POP JUMP JUMPDEST PUSH32 0x496E76616C69642070726F706572747920494400000000000000000000000000 PUSH0 DUP3 ADD MSTORE POP JUMP JUMPDEST PUSH0 PUSH2 0x1560 PUSH1 0x13 DUP4 PUSH2 0xFA0 JUMP JUMPDEST SWAP2 POP PUSH2 0x156B DUP3 PUSH2 0x152C JUMP JUMPDEST PUSH1 0x20 DUP3 ADD SWAP1 POP SWAP2 SWAP1 POP JUMP JUMPDEST PUSH0 PUSH1 0x20 DUP3 ADD SWAP1 POP DUP2 DUP2 SUB PUSH0 DUP4 ADD MSTORE PUSH2 0x158D DUP2 PUSH2 0x1554 JUMP JUMPDEST SWAP1 POP SWAP2 SWAP1 POP JUMP JUMPDEST PUSH0 PUSH2 0x159E DUP3 PUSH2 0xA08 JUMP JUMPDEST SWAP2 POP PUSH0 DUP3 SUB PUSH2 0x15B0 JUMPI PUSH2 0x15AF PUSH2 0x142A JUMP JUMPDEST JUMPDEST PUSH1 0x1 DUP3 SUB SWAP1 POP SWAP2 SWAP1 POP JUMP INVALID LOG2 PUSH5 0x6970667358 0x22 SLT KECCAK256 DUP10 ISZERO DUP5 0xBF DUP8 LOG0 0xE9 SWAP8 BLOBBASEFEE 0xC1 0x2B 0x2C 0xB1 DUP2 DUP3 0x24 0xD2 0x22 PUSH1 0x77 RETURNDATASIZE CREATE SWAP7 DUP8 0xC 0xDF PUSH19 0x90B514BF0864736F6C63430008190033000000 "
				},
				"gasEstimates": {
					"creation": {
						"codeDepositCost": "1123400",
						"executionCost": "25431",
						"totalCost": "1148831"
					},
					"external": {
						"addProperty(string,string,uint256,int256,int256)": "infinite",
						"bookProperty(uint256,uint256,uint256)": "infinite",
						"getLatestPrice()": "infinite",
						"getProperty(uint256)": "infinite",
						"nextPropertyId()": "2448",
						"properties(uint256)": "infinite",
						"removeProperty(uint256)": "infinite"
					}
				},
				"methodIdentifiers": {
					"addProperty(string,string,uint256,int256,int256)": "abdb64d4",
					"bookProperty(uint256,uint256,uint256)": "6989a649",
					"getLatestPrice()": "8e15f473",
					"getProperty(uint256)": "32665ffb",
					"nextPropertyId()": "39500f34",
					"properties(uint256)": "f7b10808",
					"removeProperty(uint256)": "bc43d06f"
				}
			},
			"storageLayout": {
				"storage": [
					{
						"astId": 91,
						"contract": "contracts/PropertyManagement.sol:PropertyManagement",
						"label": "priceFeed",
						"offset": 0,
						"slot": "0",
						"type": "t_contract(AggregatorV3Interface)45"
					},
					{
						"astId": 110,
						"contract": "contracts/PropertyManagement.sol:PropertyManagement",
						"label": "properties",
						"offset": 0,
						"slot": "1",
						"type": "t_mapping(t_uint256,t_struct(Property)88_storage)"
					},
					{
						"astId": 112,
						"contract": "contracts/PropertyManagement.sol:PropertyManagement",
						"label": "nextPropertyId",
						"offset": 0,
						"slot": "2",
						"type": "t_uint256"
					}
				],
				"types": {
					"t_address": {
						"encoding": "inplace",
						"label": "address",
						"numberOfBytes": "20"
					},
					"t_array(t_struct(Period)69_storage)dyn_storage": {
						"base": "t_struct(Period)69_storage",
						"encoding": "dynamic_array",
						"label": "struct PropertyManagement.Period[]",
						"numberOfBytes": "32"
					},
					"t_contract(AggregatorV3Interface)45": {
						"encoding": "inplace",
						"label": "contract AggregatorV3Interface",
						"numberOfBytes": "20"
					},
					"t_int256": {
						"encoding": "inplace",
						"label": "int256",
						"numberOfBytes": "32"
					},
					"t_mapping(t_uint256,t_struct(Property)88_storage)": {
						"encoding": "mapping",
						"key": "t_uint256",
						"label": "mapping(uint256 => struct PropertyManagement.Property)",
						"numberOfBytes": "32",
						"value": "t_struct(Property)88_storage"
					},
					"t_string_storage": {
						"encoding": "bytes",
						"label": "string",
						"numberOfBytes": "32"
					},
					"t_struct(Period)69_storage": {
						"encoding": "inplace",
						"label": "struct PropertyManagement.Period",
						"members": [
							{
								"astId": 66,
								"contract": "contracts/PropertyManagement.sol:PropertyManagement",
								"label": "startDate",
								"offset": 0,
								"slot": "0",
								"type": "t_uint256"
							},
							{
								"astId": 68,
								"contract": "contracts/PropertyManagement.sol:PropertyManagement",
								"label": "endDate",
								"offset": 0,
								"slot": "1",
								"type": "t_uint256"
							}
						],
						"numberOfBytes": "64"
					},
					"t_struct(Property)88_storage": {
						"encoding": "inplace",
						"label": "struct PropertyManagement.Property",
						"members": [
							{
								"astId": 71,
								"contract": "contracts/PropertyManagement.sol:PropertyManagement",
								"label": "id",
								"offset": 0,
								"slot": "0",
								"type": "t_uint256"
							},
							{
								"astId": 73,
								"contract": "contracts/PropertyManagement.sol:PropertyManagement",
								"label": "owner",
								"offset": 0,
								"slot": "1",
								"type": "t_address"
							},
							{
								"astId": 75,
								"contract": "contracts/PropertyManagement.sol:PropertyManagement",
								"label": "name",
								"offset": 0,
								"slot": "2",
								"type": "t_string_storage"
							},
							{
								"astId": 77,
								"contract": "contracts/PropertyManagement.sol:PropertyManagement",
								"label": "latitude",
								"offset": 0,
								"slot": "3",
								"type": "t_int256"
							},
							{
								"astId": 79,
								"contract": "contracts/PropertyManagement.sol:PropertyManagement",
								"label": "longitude",
								"offset": 0,
								"slot": "4",
								"type": "t_int256"
							},
							{
								"astId": 81,
								"contract": "contracts/PropertyManagement.sol:PropertyManagement",
								"label": "description",
								"offset": 0,
								"slot": "5",
								"type": "t_string_storage"
							},
							{
								"astId": 83,
								"contract": "contracts/PropertyManagement.sol:PropertyManagement",
								"label": "pricePerNight",
								"offset": 0,
								"slot": "6",
								"type": "t_uint256"
							},
							{
								"astId": 87,
								"contract": "contracts/PropertyManagement.sol:PropertyManagement",
								"label": "bookedPeriods",
								"offset": 0,
								"slot": "7",
								"type": "t_array(t_struct(Period)69_storage)dyn_storage"
							}
						],
						"numberOfBytes": "256"
					},
					"t_uint256": {
						"encoding": "inplace",
						"label": "uint256",
						"numberOfBytes": "32"
					}
				}
			},
			"userdoc": {
				"kind": "user",
				"methods": {},
				"version": 1
			}
		}
	}
}